{
  "contractName": "AddressRegistry",
  "abi": [
    {
      "anonymous": false,
      "inputs": [
        {
          "indexed": false,
          "internalType": "string",
          "name": "name",
          "type": "string"
        },
        {
          "indexed": false,
          "internalType": "address",
          "name": "addr",
          "type": "address"
        }
      ],
      "name": "LogSetAddress",
      "type": "event"
    },
    {
      "constant": true,
      "inputs": [
        {
          "internalType": "string",
          "name": "_name",
          "type": "string"
        }
      ],
      "name": "getAddress",
      "outputs": [
        {
          "internalType": "address",
          "name": "",
          "type": "address"
        }
      ],
      "payable": false,
      "stateMutability": "view",
      "type": "function"
    },
    {
      "constant": false,
      "inputs": [
        {
          "internalType": "string",
          "name": "_name",
          "type": "string"
        },
        {
          "internalType": "address",
          "name": "_userAddress",
          "type": "address"
        }
      ],
      "name": "setAddress",
      "outputs": [],
      "payable": false,
      "stateMutability": "nonpayable",
      "type": "function"
    }
  ],
  "bytecode": "0x608060405234801561001057600080fd5b506105da806100206000396000f3fe608060405234801561001057600080fd5b50600436106100365760003560e01c80639b2ea4bd1461003b578063bf40fac114610116575b600080fd5b6101146004803603604081101561005157600080fd5b810190808035906020019064010000000081111561006e57600080fd5b82018360208201111561008057600080fd5b803590602001918460018302840111640100000000831117156100a257600080fd5b91908080601f016020809104026020016040519081016040528093929190818152602001838380828437600081840152601f19601f820116905080830192505050505050509192919290803573ffffffffffffffffffffffffffffffffffffffff169060200190929190505050610211565b005b6101cf6004803603602081101561012c57600080fd5b810190808035906020019064010000000081111561014957600080fd5b82018360208201111561015b57600080fd5b8035906020019184600183028401116401000000008311171561017d57600080fd5b91908080601f016020809104026020016040519081016040528093929190818152602001838380828437600081840152601f19601f8201169050808301925050505050505091929192905050506104f8565b604051808273ffffffffffffffffffffffffffffffffffffffff1673ffffffffffffffffffffffffffffffffffffffff16815260200191505060405180910390f35b61024f6040518060400160405280600581526020017f61646d696e0000000000000000000000000000000000000000000000000000008152506104f8565b73ffffffffffffffffffffffffffffffffffffffff163373ffffffffffffffffffffffffffffffffffffffff1614806102f057506102c16040518060400160405280600581526020017f6f776e65720000000000000000000000000000000000000000000000000000008152506104f8565b73ffffffffffffffffffffffffffffffffffffffff163373ffffffffffffffffffffffffffffffffffffffff16145b610362576040517f08c379a00000000000000000000000000000000000000000000000000000000081526004018080602001828103825260118152602001807f7065726d697373696f6e2d64656e69656400000000000000000000000000000081525060200191505060405180910390fd5b80600080846040516020018082805190602001908083835b6020831061039d578051825260208201915060208101905060208303925061037a565b6001836020036101000a03801982511681845116808217855250505050505090500191505060405160208183030381529060405280519060200120815260200190815260200160002060006101000a81548173ffffffffffffffffffffffffffffffffffffffff021916908373ffffffffffffffffffffffffffffffffffffffff1602179055507ffc0a6a253a16cecf0b9dae14da9b82f5b9b4fcbd38bcac78349d9fded55d383d828260405180806020018373ffffffffffffffffffffffffffffffffffffffff1673ffffffffffffffffffffffffffffffffffffffff168152602001828103825284818151815260200191508051906020019080838360005b838110156104b957808201518184015260208101905061049e565b50505050905090810190601f1680156104e65780820380516001836020036101000a031916815260200191505b50935050505060405180910390a15050565b6000806000836040516020018082805190602001908083835b602083106105345780518252602082019150602081019050602083039250610511565b6001836020036101000a03801982511681845116808217855250505050505090500191505060405160208183030381529060405280519060200120815260200190815260200160002060009054906101000a900473ffffffffffffffffffffffffffffffffffffffff16905091905056fea265627a7a723158205782cd6881d0033335795c9a545c6012acaf8ba16ceed407654ce1fa240592fc64736f6c634300050b0032",
  "source": "pragma solidity ^0.5.2;\n\nimport \"./UserWallet.sol\";\n\n\n/// @title AddressRegistry\n/// @notice \n/// @dev \ncontract AddressRegistry {\n    event LogSetAddress(string name, address addr);\n\n    /// @notice Registry of role and address\n    mapping(bytes32 => address) registry;\n\n    /**\n     * @dev Check if msg.sender is admin or owner.\n     */\n    modifier isAdmin() {\n        require(\n            msg.sender == getAddress(\"admin\") || \n            msg.sender == getAddress(\"owner\"),\n            \"permission-denied\"\n        );\n        _;\n    }\n\n    /// @dev Get the address from system registry \n    /// @param _name (string)\n    /// @return  (address) Returns address based on role\n    function getAddress(string memory _name) public view returns(address) {\n        return registry[keccak256(abi.encodePacked(_name))];\n    }\n\n    /// @dev Set new address in system registry \n    /// @param _name (string) Role name\n    /// @param _userAddress (string) User Address\n    function setAddress(string memory _name, address _userAddress) public isAdmin {\n        registry[keccak256(abi.encodePacked(_name))] = _userAddress;\n        emit LogSetAddress(_name, _userAddress);\n    }\n}\n\n\n/// @title LogicRegistry\n/// @notice\n/// @dev LogicRegistry \ncontract LogicRegistry is AddressRegistry {\n\n    event LogEnableStaticLogic(address logicAddress);\n    event LogEnableLogic(address logicAddress);\n    event LogDisableLogic(address logicAddress);\n\n    /// @notice Map of static proxy state\n    mapping(address => bool) public logicProxiesStatic;\n    \n    /// @notice Map of logic proxy state\n    mapping(address => bool) public logicProxies;\n\n    /// @dev \n    /// @param _logicAddress (address)\n    /// @return  (bool)\n    function logic(address _logicAddress) public view returns (bool) {\n        if (logicProxiesStatic[_logicAddress] || logicProxies[_logicAddress]) {\n            return true;\n        }\n        return false;\n    }\n\n    /// @dev \n    /// @param _logicAddress (address)\n    /// @return  (bool)\n    function logicStatic(address _logicAddress) public view returns (bool) {\n        if (logicProxiesStatic[_logicAddress]) {\n            return true;\n        }\n        return false;\n    }\n\n    /// @dev Sets the static logic proxy to true\n    /// static proxies mostly contains the logic for withdrawal of assets\n    /// and can never be false to freely let user withdraw their assets\n    /// @param _logicAddress (address)\n    function enableStaticLogic(address _logicAddress) public isAdmin {\n        logicProxiesStatic[_logicAddress] = true;\n        emit LogEnableStaticLogic(_logicAddress);\n    }\n\n    /// @dev Enable logic proxy address\n    /// @param _logicAddress (address)\n    function enableLogic(address _logicAddress) public isAdmin {\n        logicProxies[_logicAddress] = true;\n        emit LogEnableLogic(_logicAddress);\n    }\n\n    /// @dev Disable logic proxy address\n    /// @param _logicAddress (address)\n    function disableLogic(address _logicAddress) public isAdmin {\n        logicProxies[_logicAddress] = false;\n        emit LogDisableLogic(_logicAddress);\n    }\n\n}\n\n\n/**\n * @dev Deploys a new proxy instance and sets msg.sender as owner of proxy\n */\ncontract WalletRegistry is LogicRegistry {\n    \n    event Created(address indexed sender, address indexed owner, address proxy);\n    event LogRecord(address indexed currentOwner, address indexed nextOwner, address proxy);\n    \n    /// @notice Address to UserWallet proxy map\n    mapping(address => UserWallet) public proxies;\n    \n    /// @dev Deploys a new proxy instance and sets custom owner of proxy\n    /// Throws if the owner already have a UserWallet\n    /// @return proxy ()\n    function build() public returns (UserWallet proxy) {\n        proxy = build(msg.sender);\n    }\n\n    /// @dev update the proxy record whenever owner changed on any proxy\n    /// Throws if msg.sender is not a proxy contract created via this contract\n    /// @return proxy () UserWallet\n    function build(address _owner) public returns (UserWallet proxy) {\n        require(proxies[_owner] == UserWallet(0), \"multiple-proxy-per-user-not-allowed\");\n        proxy = new UserWallet();\n        proxies[address(this)] = proxy; // will be changed via record() in next line execution\n        proxy.setOwner(_owner);\n        emit Created(msg.sender, _owner, address(proxy));\n    }\n\n    /// @dev Transafers ownership\n    /// @param _currentOwner (address) Current Owner\n    /// @param _nextOwner (address) Next Owner\n    function record(address _currentOwner, address _nextOwner) public {\n        require(msg.sender == address(proxies[_currentOwner]), \"invalid-proxy-or-owner\");\n        require(proxies[_nextOwner] == UserWallet(0), \"multiple-proxy-per-user-not-allowed\");\n        proxies[_nextOwner] = proxies[_currentOwner];\n        proxies[_currentOwner] = UserWallet(0);\n        emit LogRecord(_currentOwner, _nextOwner, address(proxies[_nextOwner]));\n    }\n\n}\n\n\n/// @title InstaRegistry\n/// @dev Initializing Registry\ncontract InstaRegistry is WalletRegistry {\n\n    constructor() public {\n        registry[keccak256(abi.encodePacked(\"admin\"))] = msg.sender;\n        registry[keccak256(abi.encodePacked(\"owner\"))] = msg.sender;\n    }\n}\n",
  "sourcePath": "/Users/pierrick/Documents/04-OSS/08-Graph/02-InstaDApp/contract-v2/contracts/InstaRegistry.sol",
  "compiler": {
    "name": "solc",
    "version": "0.5.11+commit.c082d0b4.Emscripten.clang"
  },
  "schemaVersion": "3.0.16",
  "updatedAt": "2019-09-15T00:52:15.462Z",
  "devdoc": {
    "methods": {
      "getAddress(string)": {
        "details": "Get the address from system registry ",
        "params": {
          "_name": "(string)"
        },
        "return": "(address) Returns address based on role"
      },
      "setAddress(string,address)": {
        "details": "Set new address in system registry ",
        "params": {
          "_name": "(string) Role name",
          "_userAddress": "(string) User Address"
        }
      }
    },
    "title": "AddressRegistry"
  },
  "userdoc": {
    "methods": {}
  }
}