{
  "contractName": "Bridge",
  "abi": [
    {
      "constant": true,
      "inputs": [],
      "name": "getComptrollerAddress",
      "outputs": [
        {
          "internalType": "address",
          "name": "troller",
          "type": "address"
        }
      ],
      "payable": false,
      "stateMutability": "pure",
      "type": "function"
    },
    {
      "constant": true,
      "inputs": [],
      "name": "getCETHAddress",
      "outputs": [
        {
          "internalType": "address",
          "name": "cEth",
          "type": "address"
        }
      ],
      "payable": false,
      "stateMutability": "pure",
      "type": "function"
    },
    {
      "constant": true,
      "inputs": [],
      "name": "getDAIAddress",
      "outputs": [
        {
          "internalType": "address",
          "name": "dai",
          "type": "address"
        }
      ],
      "payable": false,
      "stateMutability": "pure",
      "type": "function"
    },
    {
      "constant": true,
      "inputs": [],
      "name": "getSaiTubAddress",
      "outputs": [
        {
          "internalType": "address",
          "name": "sai",
          "type": "address"
        }
      ],
      "payable": false,
      "stateMutability": "pure",
      "type": "function"
    },
    {
      "constant": true,
      "inputs": [],
      "name": "getCDAIAddress",
      "outputs": [
        {
          "internalType": "address",
          "name": "cDai",
          "type": "address"
        }
      ],
      "payable": false,
      "stateMutability": "pure",
      "type": "function"
    },
    {
      "constant": true,
      "inputs": [],
      "name": "getBridgeAddress",
      "outputs": [
        {
          "internalType": "address",
          "name": "bridge",
          "type": "address"
        }
      ],
      "payable": false,
      "stateMutability": "pure",
      "type": "function"
    },
    {
      "constant": false,
      "inputs": [
        {
          "internalType": "uint256",
          "name": "cdpId",
          "type": "uint256"
        },
        {
          "internalType": "uint256",
          "name": "ethCol",
          "type": "uint256"
        },
        {
          "internalType": "uint256",
          "name": "daiDebt",
          "type": "uint256"
        }
      ],
      "name": "makerToCompound",
      "outputs": [],
      "payable": false,
      "stateMutability": "nonpayable",
      "type": "function"
    },
    {
      "constant": false,
      "inputs": [
        {
          "internalType": "uint256",
          "name": "cdpId",
          "type": "uint256"
        },
        {
          "internalType": "uint256",
          "name": "ethCol",
          "type": "uint256"
        },
        {
          "internalType": "uint256",
          "name": "daiDebt",
          "type": "uint256"
        }
      ],
      "name": "compoundToMaker",
      "outputs": [],
      "payable": false,
      "stateMutability": "nonpayable",
      "type": "function"
    }
  ],
  "bytecode": "0x608060405234801561001057600080fd5b50610d40806100206000396000f3fe608060405234801561001057600080fd5b50600436106100885760003560e01c8063e60295151161005b578063e6029515146101a5578063f1d9a150146101ef578063f9bda82614610239578063fb32c5081461028357610088565b80634ee9159a1461008d57806389de93c8146100d7578063c7b4b11c14610119578063c9ce5d861461015b575b600080fd5b6100956102cd565b604051808273ffffffffffffffffffffffffffffffffffffffff1673ffffffffffffffffffffffffffffffffffffffff16815260200191505060405180910390f35b610117600480360360608110156100ed57600080fd5b810190808035906020019092919080359060200190929190803590602001909291905050506102e9565b005b6101596004803603606081101561012f57600080fd5b81019080803590602001909291908035906020019092919080359060200190929190505050610446565b005b61016361051d565b604051808273ffffffffffffffffffffffffffffffffffffffff1673ffffffffffffffffffffffffffffffffffffffff16815260200191505060405180910390f35b6101ad610539565b604051808273ffffffffffffffffffffffffffffffffffffffff1673ffffffffffffffffffffffffffffffffffffffff16815260200191505060405180910390f35b6101f7610555565b604051808273ffffffffffffffffffffffffffffffffffffffff1673ffffffffffffffffffffffffffffffffffffffff16815260200191505060405180910390f35b610241610571565b604051808273ffffffffffffffffffffffffffffffffffffffff1673ffffffffffffffffffffffffffffffffffffffff16815260200191505060405180910390f35b61028b61058d565b604051808273ffffffffffffffffffffffffffffffffffffffff1673ffffffffffffffffffffffffffffffffffffffff16815260200191505060405180910390f35b6000733d9819210a31b4961b30ef54be2aed79b9c9cd3b905090565b6102fa836102f561058d565b6105a9565b600061030461058d565b905060008173ffffffffffffffffffffffffffffffffffffffff166389de93c88686866040518463ffffffff1660e01b8152600401808481526020018381526020018281526020019350505050602060405180830381600087803b15801561036b57600080fd5b505af115801561037f573d6000803e3d6000fd5b505050506040513d602081101561039557600080fd5b81019080805190602001909291905050509050600081111561043f576103ba81610656565b6103d36103c5610539565b826103ce61058d565b610783565b8173ffffffffffffffffffffffffffffffffffffffff1663f999f9da826040518263ffffffff1660e01b815260040180828152602001915050600060405180830381600087803b15801561042657600080fd5b505af115801561043a573d6000803e3d6000fd5b505050505b5050505050565b600083146104605761045f8361045a61058d565b6105a9565b5b60008211156104965761049561047461051d565b724000000000000000000000000000000000000061049061058d565b610783565b5b61049e61058d565b73ffffffffffffffffffffffffffffffffffffffff1663c7b4b11c8484846040518463ffffffff1660e01b8152600401808481526020018381526020018281526020019350505050600060405180830381600087803b15801561050057600080fd5b505af1158015610514573d6000803e3d6000fd5b50505050505050565b6000734ddc2d193948926d02f9b1fe9e1daa0718270ed5905090565b60007389d24a6b4ccb1b6faa2625fe562bdd9a23260359905090565b600073448a5065aebb8e423f0896e6c5d525c040f59af3905090565b600073f5dce57282a584d2746faf1593d3121fcac444dc905090565b60007337acfef331e6063c8507c2a69c97b4f78c770a5a905090565b6105b1610555565b73ffffffffffffffffffffffffffffffffffffffff1663baa8529c8360001b836040518363ffffffff1660e01b8152600401808381526020018273ffffffffffffffffffffffffffffffffffffffff1673ffffffffffffffffffffffffffffffffffffffff16815260200192505050600060405180830381600087803b15801561063a57600080fd5b505af115801561064e573d6000803e3d6000fd5b505050505050565b61066661066161051d565b610947565b610676610671610571565b610947565b6000610680610571565b73ffffffffffffffffffffffffffffffffffffffff1663c5ebeaec836040518263ffffffff1660e01b815260040180828152602001915050602060405180830381600087803b1580156106d257600080fd5b505af11580156106e6573d6000803e3d6000fd5b505050506040513d60208110156106fc57600080fd5b810190808051906020019092919050505014610780576040517f08c379a000000000000000000000000000000000000000000000000000000000815260040180806020018281038252600f8152602001807f676f7420636f6c6c61746572616c3f000000000000000000000000000000000081525060200191505060405180910390fd5b50565b600083905060008173ffffffffffffffffffffffffffffffffffffffff1663dd62ed3e30856040518363ffffffff1660e01b8152600401808373ffffffffffffffffffffffffffffffffffffffff1673ffffffffffffffffffffffffffffffffffffffff1681526020018273ffffffffffffffffffffffffffffffffffffffff1673ffffffffffffffffffffffffffffffffffffffff1681526020019250505060206040518083038186803b15801561083b57600080fd5b505afa15801561084f573d6000803e3d6000fd5b505050506040513d602081101561086557600080fd5b8101908080519060200190929190505050905080841115610940578173ffffffffffffffffffffffffffffffffffffffff1663095ea7b3847f80000000000000000000000000000000000000000000000000000000000000006040518363ffffffff1660e01b8152600401808373ffffffffffffffffffffffffffffffffffffffff1673ffffffffffffffffffffffffffffffffffffffff16815260200182815260200192505050600060405180830381600087803b15801561092757600080fd5b505af115801561093b573d6000803e3d6000fd5b505050505b5050505050565b60006109516102cd565b905060608173ffffffffffffffffffffffffffffffffffffffff1663abfceffc306040518263ffffffff1660e01b8152600401808273ffffffffffffffffffffffffffffffffffffffff1673ffffffffffffffffffffffffffffffffffffffff16815260200191505060006040518083038186803b1580156109d257600080fd5b505afa1580156109e6573d6000803e3d6000fd5b505050506040513d6000823e3d601f19601f820116820180604052506020811015610a1057600080fd5b8101908080516040519392919084640100000000821115610a3057600080fd5b83820191506020820185811115610a4657600080fd5b8251866020820283011164010000000082111715610a6357600080fd5b8083526020830192505050908051906020019060200280838360005b83811015610a9a578082015181840152602081019050610a7f565b505050509050016040525050509050600080905060008090505b8251811015610b16578473ffffffffffffffffffffffffffffffffffffffff16838281518110610ae057fe5b602002602001015173ffffffffffffffffffffffffffffffffffffffff161415610b0957600191505b8080600101915050610ab4565b5080610d055760606001604051908082528060200260200182016040528015610b4e5781602001602082028038833980820191505090505b5090508481600081518110610b5f57fe5b602002602001019073ffffffffffffffffffffffffffffffffffffffff16908173ffffffffffffffffffffffffffffffffffffffff16815250508373ffffffffffffffffffffffffffffffffffffffff1663c2998238826040518263ffffffff1660e01b81526004018080602001828103825283818151815260200191508051906020019060200280838360005b83811015610c08578082015181840152602081019050610bed565b5050505090500192505050600060405180830381600087803b158015610c2d57600080fd5b505af1158015610c41573d6000803e3d6000fd5b505050506040513d6000823e3d601f19601f820116820180604052506020811015610c6b57600080fd5b8101908080516040519392919084640100000000821115610c8b57600080fd5b83820191506020820185811115610ca157600080fd5b8251866020820283011164010000000082111715610cbe57600080fd5b8083526020830192505050908051906020019060200280838360005b83811015610cf5578082015181840152602081019050610cda565b5050505090500160405250505050505b5050505056fea265627a7a723158200b4cc2d93afb4a5af1a4c4750b563863e729960c221ac14fe5ff0f679a7283d464736f6c634300050b0032",
  "source": "pragma solidity ^0.5.7;\n\ninterface ERC20Interface {\n    function allowance(address, address) external view returns (uint);\n    function approve(address, uint) external;\n}\n\ninterface TubInterface {\n    function give(bytes32, address) external;\n}\n\ninterface PepInterface {\n    function peek() external returns (bytes32, bool);\n}\n\ninterface ComptrollerInterface {\n    function enterMarkets(address[] calldata cTokens) external returns (uint[] memory);\n    function getAssetsIn(address account) external view returns (address[] memory);\n}\n\ninterface CTokenInterface {\n    function borrow(uint borrowAmount) external returns (uint);\n}\n\ninterface BridgeInterface {\n    function makerToCompound(uint, uint, uint) external returns (uint);\n    function compoundToMaker(uint, uint, uint) external;\n    function refillFunds(uint) external;\n}\n\n\ncontract Helper {\n\n    /**\n     * @dev get MakerDAO CDP engine\n     */\n    function getSaiTubAddress() public pure returns (address sai) {\n        sai = 0x448a5065aeBB8E423F0896E6c5D525C040f59af3;\n    }\n\n    /**\n     * @dev get Compound Comptroller Address\n     */\n    function getComptrollerAddress() public pure returns (address troller) {\n        troller = 0x3d9819210A31b4961b30EF54bE2aeD79B9c9Cd3B;\n    }\n\n    /**\n     * @dev get DAI Token Addrewss\n     */\n    function getDAIAddress() public pure returns (address dai) {\n        dai = 0x89d24A6b4CcB1B6fAA2625fE562bDD9a23260359;\n    }\n\n    /**\n     * @dev get Compound CETH Address\n     */\n    function getCETHAddress() public pure returns (address cEth) {\n        cEth = 0x4Ddc2D193948926D02f9B1fE9e1daa0718270ED5;\n    }\n\n    /**\n     * @dev get Compound CDAI Address\n     */\n    function getCDAIAddress() public pure returns (address cDai) {\n        cDai = 0xF5DCe57282A584D2746FaF1593d3121Fcac444dC;\n    }\n\n    /**\n     * @dev get MakerDAO<>Compound Bridge Contract\n     */\n    function getBridgeAddress() public pure returns (address bridge) {\n        bridge = 0x37aCfEf331e6063C8507C2A69c97B4f78c770A5A;\n    }\n\n    /**\n     * @dev setting allowance if required\n     */\n    function setApproval(address erc20, uint srcAmt, address to) internal {\n        ERC20Interface erc20Contract = ERC20Interface(erc20);\n        uint tokenAllowance = erc20Contract.allowance(address(this), to);\n        if (srcAmt > tokenAllowance) {\n            erc20Contract.approve(to, 2**255);\n        }\n    }\n\n    /**\n     * @dev transfer CDP ownership\n     */\n    function give(uint cdpNum, address nextOwner) internal {\n        TubInterface(getSaiTubAddress()).give(bytes32(cdpNum), nextOwner);\n    }\n\n    /**\n     * @dev enter compound market\n     */\n    function enterMarket(address cErc20) internal {\n        ComptrollerInterface troller = ComptrollerInterface(getComptrollerAddress());\n        address[] memory markets = troller.getAssetsIn(address(this));\n        bool isEntered = false;\n        for (uint i = 0; i < markets.length; i++) {\n            if (markets[i] == cErc20) {\n                isEntered = true;\n            }\n        }\n        if (!isEntered) {\n            address[] memory toEnter = new address[](1);\n            toEnter[0] = cErc20;\n            troller.enterMarkets(toEnter);\n        }\n    }\n\n    /**\n     * @dev borrow DAI from compound\n     */\n    function borrowDAI(uint tokenAmt) internal {\n        enterMarket(getCETHAddress());\n        enterMarket(getCDAIAddress());\n        require(CTokenInterface(getCDAIAddress()).borrow(tokenAmt) == 0, \"got collateral?\");\n    }\n\n}\n\n\ncontract Bridge is Helper {\n\n    /**\n     * @dev MakerDAO to Compound\n     */\n    function makerToCompound(uint cdpId, uint ethCol, uint daiDebt) public {\n        give(cdpId, getBridgeAddress());\n        BridgeInterface bridge = BridgeInterface(getBridgeAddress());\n        uint daiAmt = bridge.makerToCompound(cdpId, ethCol, daiDebt);\n        if (daiAmt > 0) {\n            borrowDAI(daiAmt);\n            setApproval(getDAIAddress(), daiAmt, getBridgeAddress());\n            bridge.refillFunds(daiAmt);\n        }\n    }\n\n    /**\n     * @dev Compound to MakerDAO\n     */\n    function compoundToMaker(uint cdpId, uint ethCol, uint daiDebt) public {\n        if (cdpId != 0) {\n            give(cdpId, getBridgeAddress());\n        }\n        if (ethCol > 0) {\n            setApproval(getCETHAddress(), 2**150, getBridgeAddress());\n        }\n        BridgeInterface(getBridgeAddress()).compoundToMaker(cdpId, ethCol, daiDebt);\n    }\n\n}\n\n\ncontract InstaBridge is Bridge {\n\n    uint public version;\n\n    /**\n     * @dev setting up variables on deployment\n     * 1...2...3 versioning in each subsequent deployments\n     */\n    constructor(uint _version) public {\n        version = _version;\n    }\n\n    function() external payable {}\n\n}",
  "sourcePath": "/Users/pierrick/Documents/04-OSS/08-Graph/02-InstaDApp/contract-v2/contracts/ProxyLogics/InstaBridge.sol",
  "compiler": {
    "name": "solc",
    "version": "0.5.11+commit.c082d0b4.Emscripten.clang"
  },
  "schemaVersion": "3.0.16",
  "updatedAt": "2019-09-17T17:43:05.515Z",
  "devdoc": {
    "methods": {
      "compoundToMaker(uint256,uint256,uint256)": {
        "details": "Compound to MakerDAO"
      },
      "getBridgeAddress()": {
        "details": "get MakerDAO<>Compound Bridge Contract"
      },
      "getCDAIAddress()": {
        "details": "get Compound CDAI Address"
      },
      "getCETHAddress()": {
        "details": "get Compound CETH Address"
      },
      "getComptrollerAddress()": {
        "details": "get Compound Comptroller Address"
      },
      "getDAIAddress()": {
        "details": "get DAI Token Addrewss"
      },
      "getSaiTubAddress()": {
        "details": "get MakerDAO CDP engine"
      },
      "makerToCompound(uint256,uint256,uint256)": {
        "details": "MakerDAO to Compound"
      }
    }
  },
  "userdoc": {
    "methods": {}
  }
}