{
  "contractName": "BridgeResolver",
  "abi": [
    {
      "constant": true,
      "inputs": [],
      "name": "ude",
      "outputs": [
        {
          "internalType": "address",
          "name": "",
          "type": "address"
        }
      ],
      "payable": false,
      "stateMutability": "view",
      "type": "function"
    },
    {
      "constant": true,
      "inputs": [],
      "name": "feeOne",
      "outputs": [
        {
          "internalType": "address",
          "name": "",
          "type": "address"
        }
      ],
      "payable": false,
      "stateMutability": "view",
      "type": "function"
    },
    {
      "constant": true,
      "inputs": [],
      "name": "ume",
      "outputs": [
        {
          "internalType": "address",
          "name": "",
          "type": "address"
        }
      ],
      "payable": false,
      "stateMutability": "view",
      "type": "function"
    },
    {
      "constant": true,
      "inputs": [],
      "name": "daiAddr",
      "outputs": [
        {
          "internalType": "address",
          "name": "",
          "type": "address"
        }
      ],
      "payable": false,
      "stateMutability": "view",
      "type": "function"
    },
    {
      "constant": true,
      "inputs": [],
      "name": "registry",
      "outputs": [
        {
          "internalType": "address",
          "name": "",
          "type": "address"
        }
      ],
      "payable": false,
      "stateMutability": "view",
      "type": "function"
    },
    {
      "constant": true,
      "inputs": [],
      "name": "sai",
      "outputs": [
        {
          "internalType": "address",
          "name": "",
          "type": "address"
        }
      ],
      "payable": false,
      "stateMutability": "view",
      "type": "function"
    },
    {
      "constant": true,
      "inputs": [],
      "name": "fees",
      "outputs": [
        {
          "internalType": "uint256",
          "name": "",
          "type": "uint256"
        }
      ],
      "payable": false,
      "stateMutability": "view",
      "type": "function"
    },
    {
      "constant": true,
      "inputs": [],
      "name": "cDai",
      "outputs": [
        {
          "internalType": "address",
          "name": "",
          "type": "address"
        }
      ],
      "payable": false,
      "stateMutability": "view",
      "type": "function"
    },
    {
      "constant": true,
      "inputs": [],
      "name": "cEth",
      "outputs": [
        {
          "internalType": "address",
          "name": "",
          "type": "address"
        }
      ],
      "payable": false,
      "stateMutability": "view",
      "type": "function"
    },
    {
      "constant": true,
      "inputs": [],
      "name": "ethAddr",
      "outputs": [
        {
          "internalType": "address",
          "name": "",
          "type": "address"
        }
      ],
      "payable": false,
      "stateMutability": "view",
      "type": "function"
    },
    {
      "constant": true,
      "inputs": [],
      "name": "feeTwo",
      "outputs": [
        {
          "internalType": "address",
          "name": "",
          "type": "address"
        }
      ],
      "payable": false,
      "stateMutability": "view",
      "type": "function"
    },
    {
      "anonymous": false,
      "inputs": [
        {
          "indexed": false,
          "internalType": "uint256",
          "name": "cdpNum",
          "type": "uint256"
        },
        {
          "indexed": false,
          "internalType": "uint256",
          "name": "ethAmt",
          "type": "uint256"
        },
        {
          "indexed": false,
          "internalType": "uint256",
          "name": "daiAmt",
          "type": "uint256"
        },
        {
          "indexed": false,
          "internalType": "uint256",
          "name": "fees",
          "type": "uint256"
        },
        {
          "indexed": false,
          "internalType": "address",
          "name": "owner",
          "type": "address"
        }
      ],
      "name": "LogMakerToCompound",
      "type": "event"
    },
    {
      "anonymous": false,
      "inputs": [
        {
          "indexed": false,
          "internalType": "uint256",
          "name": "cdpNum",
          "type": "uint256"
        },
        {
          "indexed": false,
          "internalType": "uint256",
          "name": "ethAmt",
          "type": "uint256"
        },
        {
          "indexed": false,
          "internalType": "uint256",
          "name": "daiAmt",
          "type": "uint256"
        },
        {
          "indexed": false,
          "internalType": "uint256",
          "name": "fees",
          "type": "uint256"
        },
        {
          "indexed": false,
          "internalType": "address",
          "name": "owner",
          "type": "address"
        }
      ],
      "name": "LogCompoundToMaker",
      "type": "event"
    },
    {
      "anonymous": false,
      "inputs": [
        {
          "indexed": false,
          "internalType": "uint256",
          "name": "cdpNum",
          "type": "uint256"
        },
        {
          "indexed": false,
          "internalType": "address",
          "name": "owner",
          "type": "address"
        }
      ],
      "name": "LogOpen",
      "type": "event"
    },
    {
      "anonymous": false,
      "inputs": [
        {
          "indexed": false,
          "internalType": "uint256",
          "name": "cdpNum",
          "type": "uint256"
        },
        {
          "indexed": false,
          "internalType": "uint256",
          "name": "daiAmt",
          "type": "uint256"
        },
        {
          "indexed": false,
          "internalType": "uint256",
          "name": "mkrFee",
          "type": "uint256"
        },
        {
          "indexed": false,
          "internalType": "uint256",
          "name": "daiFee",
          "type": "uint256"
        },
        {
          "indexed": false,
          "internalType": "address",
          "name": "owner",
          "type": "address"
        }
      ],
      "name": "LogWipe",
      "type": "event"
    },
    {
      "constant": false,
      "inputs": [
        {
          "internalType": "uint256",
          "name": "daiDebt",
          "type": "uint256"
        }
      ],
      "name": "refillFunds",
      "outputs": [],
      "payable": false,
      "stateMutability": "nonpayable",
      "type": "function"
    }
  ],
  "bytecode": "0x608060405273eeeeeeeeeeeeeeeeeeeeeeeeeeeeeeeeeeeeeeee6000806101000a81548173ffffffffffffffffffffffffffffffffffffffff021916908373ffffffffffffffffffffffffffffffffffffffff1602179055507389d24a6b4ccb1b6faa2625fe562bdd9a23260359600160006101000a81548173ffffffffffffffffffffffffffffffffffffffff021916908373ffffffffffffffffffffffffffffffffffffffff16021790555073498b3bfabe9f73db90d252bcd4fa9548cd0fd981600260006101000a81548173ffffffffffffffffffffffffffffffffffffffff021916908373ffffffffffffffffffffffffffffffffffffffff16021790555073448a5065aebb8e423f0896e6c5d525c040f59af3600360006101000a81548173ffffffffffffffffffffffffffffffffffffffff021916908373ffffffffffffffffffffffffffffffffffffffff160217905550732c4bd064b998838076fa341a83d007fc2fa50957600460006101000a81548173ffffffffffffffffffffffffffffffffffffffff021916908373ffffffffffffffffffffffffffffffffffffffff1602179055507309cabec1ead1c0ba254b09efb3ee13841712be14600560006101000a81548173ffffffffffffffffffffffffffffffffffffffff021916908373ffffffffffffffffffffffffffffffffffffffff160217905550734ddc2d193948926d02f9b1fe9e1daa0718270ed5600660006101000a81548173ffffffffffffffffffffffffffffffffffffffff021916908373ffffffffffffffffffffffffffffffffffffffff16021790555073f5dce57282a584d2746faf1593d3121fcac444dc600760006101000a81548173ffffffffffffffffffffffffffffffffffffffff021916908373ffffffffffffffffffffffffffffffffffffffff16021790555073d8db02a498e9afbf4a32bc006dc1940495b4e592600860006101000a81548173ffffffffffffffffffffffffffffffffffffffff021916908373ffffffffffffffffffffffffffffffffffffffff16021790555073a7615cd307f323172331865181dc8b80a2834324600960006101000a81548173ffffffffffffffffffffffffffffffffffffffff021916908373ffffffffffffffffffffffffffffffffffffffff1602179055506000600a5534801561036657600080fd5b5061080f806103766000396000f3fe608060405234801561001057600080fd5b50600436106100d45760003560e01c80639af1d35a11610081578063bbf646c21161005b578063bbf646c214610347578063db3e33ce14610391578063f999f9da146103db576100d4565b80639af1d35a146102955780639b089d55146102b3578063a44026a3146102fd576100d4565b806374fa0a63116100b257806374fa0a63146101b75780637b103999146102015780639166cba41461024b576100d4565b806339b780ee146100d95780634f56f2f5146101235780636bcb29dc1461016d575b600080fd5b6100e1610409565b604051808273ffffffffffffffffffffffffffffffffffffffff1673ffffffffffffffffffffffffffffffffffffffff16815260200191505060405180910390f35b61012b61042f565b604051808273ffffffffffffffffffffffffffffffffffffffff1673ffffffffffffffffffffffffffffffffffffffff16815260200191505060405180910390f35b610175610455565b604051808273ffffffffffffffffffffffffffffffffffffffff1673ffffffffffffffffffffffffffffffffffffffff16815260200191505060405180910390f35b6101bf61047b565b604051808273ffffffffffffffffffffffffffffffffffffffff1673ffffffffffffffffffffffffffffffffffffffff16815260200191505060405180910390f35b6102096104a1565b604051808273ffffffffffffffffffffffffffffffffffffffff1673ffffffffffffffffffffffffffffffffffffffff16815260200191505060405180910390f35b6102536104c7565b604051808273ffffffffffffffffffffffffffffffffffffffff1673ffffffffffffffffffffffffffffffffffffffff16815260200191505060405180910390f35b61029d6104ed565b6040518082815260200191505060405180910390f35b6102bb6104f3565b604051808273ffffffffffffffffffffffffffffffffffffffff1673ffffffffffffffffffffffffffffffffffffffff16815260200191505060405180910390f35b610305610519565b604051808273ffffffffffffffffffffffffffffffffffffffff1673ffffffffffffffffffffffffffffffffffffffff16815260200191505060405180910390f35b61034f61053f565b604051808273ffffffffffffffffffffffffffffffffffffffff1673ffffffffffffffffffffffffffffffffffffffff16815260200191505060405180910390f35b610399610564565b604051808273ffffffffffffffffffffffffffffffffffffffff1673ffffffffffffffffffffffffffffffffffffffff16815260200191505060405180910390f35b610407600480360360208110156103f157600080fd5b810190808035906020019092919050505061058a565b005b600560009054906101000a900473ffffffffffffffffffffffffffffffffffffffff1681565b600860009054906101000a900473ffffffffffffffffffffffffffffffffffffffff1681565b600460009054906101000a900473ffffffffffffffffffffffffffffffffffffffff1681565b600160009054906101000a900473ffffffffffffffffffffffffffffffffffffffff1681565b600260009054906101000a900473ffffffffffffffffffffffffffffffffffffffff1681565b600360009054906101000a900473ffffffffffffffffffffffffffffffffffffffff1681565b600a5481565b600760009054906101000a900473ffffffffffffffffffffffffffffffffffffffff1681565b600660009054906101000a900473ffffffffffffffffffffffffffffffffffffffff1681565b6000809054906101000a900473ffffffffffffffffffffffffffffffffffffffff1681565b600960009054906101000a900473ffffffffffffffffffffffffffffffffffffffff1681565b60008111156107d757600160009054906101000a900473ffffffffffffffffffffffffffffffffffffffff1673ffffffffffffffffffffffffffffffffffffffff166323b872dd3330846040518463ffffffff1660e01b8152600401808473ffffffffffffffffffffffffffffffffffffffff1673ffffffffffffffffffffffffffffffffffffffff1681526020018373ffffffffffffffffffffffffffffffffffffffff1673ffffffffffffffffffffffffffffffffffffffff1681526020018281526020019350505050602060405180830381600087803b15801561067057600080fd5b505af1158015610684573d6000803e3d6000fd5b505050506040513d602081101561069a57600080fd5b810190808051906020019092919050505061071d576040517f08c379a00000000000000000000000000000000000000000000000000000000081526004018080602001828103825260128152602001807f436f6e747261637420417070726f7665643f000000000000000000000000000081525060200191505060405180910390fd5b6000600760009054906101000a900473ffffffffffffffffffffffffffffffffffffffff1673ffffffffffffffffffffffffffffffffffffffff1663a0712d68836040518263ffffffff1660e01b815260040180828152602001915050602060405180830381600087803b15801561079457600080fd5b505af11580156107a8573d6000803e3d6000fd5b505050506040513d60208110156107be57600080fd5b8101908080519060200190929190505050146107d657fe5b5b5056fea265627a7a72315820b4ea1f133c383c2497e30b3077f8bd96f2da785703929e3f0b6c86fab42a9e0d64736f6c634300050b0032",
  "source": "pragma solidity ^0.5.7;\n\ninterface RegistryInterface {\n    function proxies(address) external view returns (address);\n}\n\ninterface UserWalletInterface {\n    function owner() external view returns (address);\n}\n\ninterface TubInterface {\n    function open() external returns (bytes32);\n    function join(uint) external;\n    function exit(uint) external;\n    function lock(bytes32, uint) external;\n    function free(bytes32, uint) external;\n    function draw(bytes32, uint) external;\n    function wipe(bytes32, uint) external;\n    function give(bytes32, address) external;\n    function shut(bytes32) external;\n    function cups(bytes32) external view returns (address, uint, uint, uint);\n    function gem() external view returns (ERC20Interface);\n    function gov() external view returns (ERC20Interface);\n    function skr() external view returns (ERC20Interface);\n    function sai() external view returns (ERC20Interface);\n    function ink(bytes32) external view returns (uint);\n    function tab(bytes32) external returns (uint);\n    function rap(bytes32) external returns (uint);\n    function per() external view returns (uint);\n    function pep() external view returns (PepInterface);\n}\n\ninterface PepInterface {\n    function peek() external returns (bytes32, bool);\n}\n\ninterface ERC20Interface {\n    function allowance(address, address) external view returns (uint);\n    function balanceOf(address) external view returns (uint);\n    function approve(address, uint) external;\n    function transfer(address, uint) external returns (bool);\n    function transferFrom(address, address, uint) external returns (bool);\n    function deposit() external payable;\n    function withdraw(uint) external;\n}\n\ninterface UniswapExchange {\n    function getEthToTokenOutputPrice(uint256 tokensBought) external view returns (uint256 ethSold);\n    function getTokenToEthOutputPrice(uint256 ethBought) external view returns (uint256 tokensSold);\n    function tokenToTokenSwapOutput(\n        uint256 tokensBought,\n        uint256 maxTokensSold,\n        uint256 maxEthSold,\n        uint256 deadline,\n        address tokenAddr\n        ) external returns (uint256  tokensSold);\n}\n\ninterface CTokenInterface {\n    function mint(uint mintAmount) external returns (uint); // For ERC20\n    function redeem(uint redeemTokens) external returns (uint);\n    function redeemUnderlying(uint redeemAmount) external returns (uint);\n    function exchangeRateCurrent() external returns (uint);\n    function transfer(address, uint) external returns (bool);\n    function transferFrom(address, address, uint) external returns (bool);\n    function balanceOf(address) external view returns (uint);\n}\n\ninterface CETHInterface {\n    function mint() external payable; // For ETH\n    function transfer(address, uint) external returns (bool);\n}\n\ninterface CDAIInterface {\n    function mint(uint mintAmount) external returns (uint); // For ERC20\n    function repayBorrowBehalf(address borrower, uint repayAmount) external returns (uint);\n    function borrowBalanceCurrent(address account) external returns (uint);\n}\n\n\ncontract DSMath {\n\n    function add(uint x, uint y) internal pure returns (uint z) {\n        require((z = x + y) >= x, \"math-not-safe\");\n    }\n\n    function mul(uint x, uint y) internal pure returns (uint z) {\n        require(y == 0 || (z = x * y) / y == x, \"math-not-safe\");\n    }\n\n    uint constant WAD = 10 ** 18;\n    uint constant RAY = 10 ** 27;\n\n    function rmul(uint x, uint y) internal pure returns (uint z) {\n        z = add(mul(x, y), RAY / 2) / RAY;\n    }\n\n    function rdiv(uint x, uint y) internal pure returns (uint z) {\n        z = add(mul(x, RAY), y / 2) / y;\n    }\n\n    function wmul(uint x, uint y) internal pure returns (uint z) {\n        z = add(mul(x, y), WAD / 2) / WAD;\n    }\n\n    function wdiv(uint x, uint y) internal pure returns (uint z) {\n        z = add(mul(x, WAD), y / 2) / y;\n    }\n\n    function sub(uint a, uint b) internal pure returns (uint c) {\n        require(b <= a, \"SafeMath: subtraction overflow\");\n        c = a - b;\n    }\n\n}\n\n\ncontract Helper is DSMath {\n\n    address public ethAddr = 0xEeeeeEeeeEeEeeEeEeEeeEEEeeeeEeeeeeeeEEeE;\n    address public daiAddr = 0x89d24A6b4CcB1B6fAA2625fE562bDD9a23260359;\n    address public registry = 0x498b3BfaBE9F73db90D252bCD4Fa9548Cd0Fd981;\n    address public sai = 0x448a5065aeBB8E423F0896E6c5D525C040f59af3;\n    address public ume = 0x2C4Bd064b998838076fa341A83d007FC2FA50957; // Uniswap Maker Exchange\n    address public ude = 0x09cabEC1eAd1c0Ba254B09efb3EE13841712bE14; // Uniswap DAI Exchange\n    address public cEth = 0x4Ddc2D193948926D02f9B1fE9e1daa0718270ED5;\n    address public cDai = 0xF5DCe57282A584D2746FaF1593d3121Fcac444dC;\n\n    address public feeOne = 0xd8db02A498E9AFbf4A32BC006DC1940495b4e592;\n    address public feeTwo = 0xa7615CD307F323172331865181DC8b80a2834324;\n    uint public fees = 0;\n\n    /**\n     * @dev setting allowance to compound for the \"user proxy\" if required\n     */\n    function setApproval(address erc20, uint srcAmt, address to) internal {\n        ERC20Interface erc20Contract = ERC20Interface(erc20);\n        uint tokenAllowance = erc20Contract.allowance(address(this), to);\n        if (srcAmt > tokenAllowance) {\n            erc20Contract.approve(to, 2**255);\n        }\n    }\n\n    function setAllowance(ERC20Interface _token, address _spender) internal {\n        if (_token.allowance(address(this), _spender) != uint(-1)) {\n            _token.approve(_spender, uint(-1));\n        }\n    }\n\n}\n\n\ncontract CompoundResolver is Helper {\n\n    /**\n     * @dev Redeem ETH/ERC20 and mint Compound Tokens\n     * @param tokenAmt Amount of token To Redeem\n     */\n    function redeemUnderlying(address cErc20, uint tokenAmt) internal {\n        if (tokenAmt > 0) {\n            require(CTokenInterface(cErc20).redeemUnderlying(tokenAmt) == 0, \"something went wrong\");\n        }\n    }\n\n    /**\n     * @dev Deposit ETH/ERC20 and mint Compound Tokens\n     */\n    function mintCETH(uint ethAmt) internal {\n        if (ethAmt > 0) {\n            CETHInterface cToken = CETHInterface(cEth);\n            cToken.mint.value(ethAmt)();\n            uint exchangeRate = CTokenInterface(cEth).exchangeRateCurrent();\n            uint cEthToReturn = wdiv(ethAmt, exchangeRate);\n            cEthToReturn = wmul(cEthToReturn, exchangeRate) <= ethAmt ? cEthToReturn : cEthToReturn - 1;\n            require(cToken.transfer(msg.sender, cEthToReturn), \"CETH Transfer failed\");\n        }\n    }\n\n    /**\n     * @dev Deposit ETH/ERC20 and mint Compound Tokens\n     */\n    function fetchCETH(uint ethAmt) internal {\n        if (ethAmt > 0) {\n            CTokenInterface cToken = CTokenInterface(cEth);\n            uint exchangeRate = cToken.exchangeRateCurrent();\n            uint cTokenAmt = wdiv(ethAmt, exchangeRate);\n            cTokenAmt = wmul(cTokenAmt, exchangeRate) <= ethAmt ? cTokenAmt : cTokenAmt - 1;\n            require(ERC20Interface(cEth).transferFrom(msg.sender, address(this), cTokenAmt), \"Contract Approved?\");\n        }\n    }\n\n    /**\n     * @dev If col/debt > user's balance/borrow. Then set max\n     */\n    function checkCompound(uint ethAmt, uint daiAmt) internal returns (uint ethCol, uint daiDebt) {\n        CTokenInterface cEthContract = CTokenInterface(cEth);\n        uint cEthBal = cEthContract.balanceOf(msg.sender);\n        uint ethExchangeRate = cEthContract.exchangeRateCurrent();\n        ethCol = wmul(cEthBal, ethExchangeRate);\n        ethCol = wdiv(ethCol, ethExchangeRate) <= cEthBal ? ethCol : ethCol - 1;\n        ethCol = ethCol <= ethAmt ? ethCol : ethAmt; // Set Max if amount is greater than the Col user have\n\n        daiDebt = CDAIInterface(cDai).borrowBalanceCurrent(msg.sender);\n        daiDebt = daiDebt <= daiAmt ? daiDebt : daiAmt; // Set Max if amount is greater than the Debt user have\n    }\n\n}\n\n\ncontract MakerResolver is CompoundResolver {\n\n    event LogOpen(uint cdpNum, address owner);\n    event LogWipe(uint cdpNum, uint daiAmt, uint mkrFee, uint daiFee, address owner);\n\n    function open() internal returns (uint) {\n        bytes32 cup = TubInterface(sai).open();\n        emit LogOpen(uint(cup), address(this));\n        return uint(cup);\n    }\n\n    /**\n     * @dev transfer CDP ownership\n     */\n    function give(uint cdpNum, address nextOwner) internal {\n        TubInterface(sai).give(bytes32(cdpNum), nextOwner);\n    }\n\n    function wipe(uint cdpNum, uint _wad) internal returns (uint daiAmt) {\n        if (_wad > 0) {\n            TubInterface tub = TubInterface(sai);\n            UniswapExchange daiEx = UniswapExchange(ude);\n            UniswapExchange mkrEx = UniswapExchange(ume);\n            ERC20Interface dai = tub.sai();\n            ERC20Interface mkr = tub.gov();\n\n            bytes32 cup = bytes32(cdpNum);\n\n            (address lad,,,) = tub.cups(cup);\n            require(lad == address(this), \"cup-not-owned\");\n\n            setAllowance(dai, sai);\n            setAllowance(mkr, sai);\n            setAllowance(dai, ude);\n\n            (bytes32 val, bool ok) = tub.pep().peek();\n\n            // MKR required for wipe = Stability fees accrued in Dai / MKRUSD value\n            uint mkrFee = wdiv(rmul(_wad, rdiv(tub.rap(cup), tub.tab(cup))), uint(val));\n\n            uint daiFeeAmt = daiEx.getTokenToEthOutputPrice(mkrEx.getEthToTokenOutputPrice(mkrFee));\n            daiAmt = add(_wad, daiFeeAmt);\n\n            redeemUnderlying(cDai, daiAmt);\n\n            if (ok && val != 0) {\n                daiEx.tokenToTokenSwapOutput(\n                    mkrFee,\n                    daiAmt,\n                    uint(999000000000000000000),\n                    uint(1899063809), // 6th March 2030 GMT // no logic\n                    address(mkr)\n                );\n            }\n\n            tub.wipe(cup, _wad);\n\n            emit LogWipe(\n                cdpNum,\n                daiAmt,\n                mkrFee,\n                daiFeeAmt,\n                address(this)\n            );\n\n        }\n    }\n\n    function free(uint cdpNum, uint jam) internal {\n        if (jam > 0) {\n            bytes32 cup = bytes32(cdpNum);\n            address tubAddr = sai;\n\n            TubInterface tub = TubInterface(tubAddr);\n            ERC20Interface peth = tub.skr();\n            ERC20Interface weth = tub.gem();\n\n            uint ink = rdiv(jam, tub.per());\n            ink = rmul(ink, tub.per()) <= jam ? ink : ink - 1;\n            tub.free(cup, ink);\n\n            setAllowance(peth, tubAddr);\n\n            tub.exit(ink);\n            uint freeJam = weth.balanceOf(address(this)); // withdraw possible previous stuck WETH as well\n            weth.withdraw(freeJam);\n        }\n    }\n\n    function lock(uint cdpNum, uint ethAmt) internal {\n        if (ethAmt > 0) {\n            bytes32 cup = bytes32(cdpNum);\n            address tubAddr = sai;\n\n            TubInterface tub = TubInterface(tubAddr);\n            ERC20Interface weth = tub.gem();\n            ERC20Interface peth = tub.skr();\n\n            (address lad,,,) = tub.cups(cup);\n            require(lad == address(this), \"cup-not-owned\");\n\n            weth.deposit.value(ethAmt)();\n\n            uint ink = rdiv(ethAmt, tub.per());\n            ink = rmul(ink, tub.per()) <= ethAmt ? ink : ink - 1;\n\n            setAllowance(weth, tubAddr);\n            tub.join(ink);\n\n            setAllowance(peth, tubAddr);\n            tub.lock(cup, ink);\n        }\n    }\n\n    function draw(uint cdpNum, uint _wad) internal {\n        bytes32 cup = bytes32(cdpNum);\n        if (_wad > 0) {\n            TubInterface tub = TubInterface(sai);\n\n            tub.draw(cup, _wad);\n        }\n    }\n\n    function checkCDP(bytes32 cup, uint ethAmt, uint daiAmt) internal returns (uint ethCol, uint daiDebt) {\n        TubInterface tub = TubInterface(sai);\n        ethCol = rmul(tub.ink(cup), tub.per()); // get ETH col from PETH col\n        daiDebt = tub.tab(cup);\n        daiDebt = daiAmt < daiDebt ? daiAmt : daiDebt; // if DAI amount > max debt. Set max debt\n        ethCol = ethAmt < ethCol ? ethAmt : ethCol; // if ETH amount > max Col. Set max col\n    }\n\n    function wipeAndFree(uint cdpNum, uint jam, uint _wad) internal returns (uint daiAmt) {\n        daiAmt = wipe(cdpNum, _wad);\n        free(cdpNum, jam);\n    }\n\n    function lockAndDraw(uint cdpNum, uint jam, uint _wad) internal {\n        lock(cdpNum, jam);\n        draw(cdpNum, _wad);\n    }\n\n}\n\n\ncontract BridgeResolver is MakerResolver {\n\n    event LogMakerToCompound(uint cdpNum, uint ethAmt, uint daiAmt, uint fees, address owner);\n    event LogCompoundToMaker(uint cdpNum, uint ethAmt, uint daiAmt, uint fees, address owner);\n\n    /**\n     * @dev initiated from user wallet to reimburse temporary DAI debt\n     */\n    function refillFunds(uint daiDebt) external {\n        if (daiDebt > 0) {\n            require(ERC20Interface(daiAddr).transferFrom(msg.sender, address(this), daiDebt), \"Contract Approved?\");\n            assert(CDAIInterface(cDai).mint(daiDebt) == 0);\n        }\n    }\n\n    /**\n     * @dev paying back users debt\n     */\n    function payUserDebt(uint daiDebt) internal {\n        if (daiDebt > 0) {\n            redeemUnderlying(cDai, daiDebt);\n            require(CDAIInterface(cDai).repayBorrowBehalf(msg.sender, daiDebt) == 0, \"Enough DAI?\");\n        }\n    }\n\n}\n\n\ncontract LiquidityProvider is BridgeResolver {\n\n    mapping (address => uint) public deposits; // amount of CDAI deposits\n    uint public totalDeposits;\n\n    /**\n     * @dev Deposit DAI for liquidity\n     */\n    function depositDAI(uint amt) public {\n        require(ERC20Interface(daiAddr).transferFrom(msg.sender, address(this), amt), \"Nothing to deposit\");\n        CTokenInterface cToken = CTokenInterface(cDai);\n        assert(cToken.mint(amt) == 0);\n        uint exchangeRate = cToken.exchangeRateCurrent();\n        uint cDaiAmt = wdiv(amt, exchangeRate);\n        cDaiAmt = wmul(cDaiAmt, exchangeRate) <= amt ? cDaiAmt : cDaiAmt - 1;\n        deposits[msg.sender] += cDaiAmt;\n        totalDeposits += cDaiAmt;\n    }\n\n    /**\n     * @dev Withdraw DAI from liquidity\n     */\n    function withdrawDAI(uint amt) public {\n        require(deposits[msg.sender] != 0, \"Nothing to Withdraw\");\n        CTokenInterface cToken = CTokenInterface(cDai);\n        uint exchangeRate = cToken.exchangeRateCurrent();\n        uint withdrawAmt = wdiv(amt, exchangeRate);\n        uint daiAmt = amt;\n        if (withdrawAmt > deposits[msg.sender]) {\n            withdrawAmt = deposits[msg.sender];\n            daiAmt = wmul(withdrawAmt, exchangeRate);\n        }\n        require(cToken.redeem(withdrawAmt) == 0, \"something went wrong\");\n        require(ERC20Interface(daiAddr).transfer(msg.sender, daiAmt), \"Dai Transfer failed\");\n        deposits[msg.sender] -= withdrawAmt;\n        totalDeposits -= withdrawAmt;\n    }\n\n    /**\n     * @dev Deposit CDAI for liquidity\n     */\n    function depositCDAI(uint amt) public {\n        CTokenInterface cToken = CTokenInterface(cDai);\n        require(cToken.transferFrom(msg.sender, address(this), amt) == true, \"Nothing to deposit\");\n        deposits[msg.sender] += amt;\n        totalDeposits += amt;\n    }\n\n    /**\n     * @dev Withdraw CDAI from liquidity\n     */\n    function withdrawCDAI(uint amt) public {\n        require(deposits[msg.sender] != 0, \"Nothing to Withdraw\");\n        uint withdrawAmt = amt;\n        if (withdrawAmt > deposits[msg.sender]) {\n            withdrawAmt = deposits[msg.sender];\n        }\n        require(CTokenInterface(cDai).transfer(msg.sender, withdrawAmt), \"Dai Transfer failed\");\n        deposits[msg.sender] -= withdrawAmt;\n        totalDeposits -= withdrawAmt;\n    }\n\n    /**\n     * collecting unmapped CDAI\n     */\n    function collectCDAI(uint num) public {\n        CTokenInterface cToken = CTokenInterface(cDai);\n        uint cDaiBal = cToken.balanceOf(address(this));\n        uint withdrawAmt = sub(cDaiBal, totalDeposits);\n        if (num == 0) {\n            require(cToken.transfer(feeOne, withdrawAmt), \"CDai Transfer failed\");\n        } else {\n            require(cToken.transfer(feeTwo, withdrawAmt), \"CDai Transfer failed\");\n        }\n    }\n\n    /**\n     * (HIGHLY UNLIKELY TO HAPPEN)\n     * collecting Tokens/ETH other than CDAI\n     */\n    function collectTokens(uint num, address token) public {\n        require(token != cDai, \"Token address == CDAI address\");\n        if (token == ethAddr) {\n            if (num == 0) {\n                msg.sender.transfer(address(this).balance);\n            } else {\n                msg.sender.transfer(address(this).balance);\n            }\n        } else {\n            ERC20Interface tokenContract = ERC20Interface(token);\n            uint tokenBal = tokenContract.balanceOf(address(this));\n            uint withdrawAmt = sub(tokenBal, totalDeposits);\n            if (num == 0) {\n                require(tokenContract.transfer(feeOne, withdrawAmt), \"Transfer failed\");\n            } else {\n                require(tokenContract.transfer(feeTwo, withdrawAmt), \"Transfer failed\");\n            }\n        }\n    }\n\n    /**\n     * (HIGHLY UNLIKELY TO HAPPEN)\n     * Transfer CDP ownership (Just in case this contract has ownership of any CDP)\n     */\n    function transferUnmappedCDP(uint cdpNum, uint num) public {\n        if (num == 0) {\n            give(cdpNum, feeOne);\n        } else {\n            give(cdpNum, feeTwo);\n        }\n    }\n\n    function setFees(uint amt) public {\n        require(msg.sender == feeOne || msg.sender == feeTwo, \"Not manager address\");\n        if (amt > 3000000000000000) {\n            fees = 3000000000000000; // max fees 0.3%\n        } else {\n            fees = amt;\n        }\n    }\n\n}\n\n\ncontract Bridge is LiquidityProvider {\n\n    /**\n     * FOR SECURITY PURPOSE\n     * checks if only InstaDApp contract wallets can access the bridge\n     */\n    modifier isUserWallet {\n        address userAdd = UserWalletInterface(msg.sender).owner();\n        address walletAdd = RegistryInterface(registry).proxies(userAdd);\n        require(walletAdd != address(0), \"not-user-wallet\");\n        require(walletAdd == msg.sender, \"not-wallet-owner\");\n        _;\n    }\n\n    /**\n     * @dev MakerDAO to Compound\n     */\n    function makerToCompound(uint cdpId, uint ethCol, uint daiDebt) public payable isUserWallet returns (uint daiAmt) {\n        uint ethAmt;\n        (ethAmt, daiAmt) = checkCDP(bytes32(cdpId), ethCol, daiDebt);\n        daiAmt = wipeAndFree(cdpId, ethAmt, daiAmt);\n        uint cut = wmul(daiAmt, fees);\n        daiAmt = wmul(daiAmt, add(1000000000000000000, fees));\n        mintCETH(ethAmt);\n        give(cdpId, msg.sender);\n        emit LogMakerToCompound(\n            cdpId,\n            ethAmt,\n            daiAmt,\n            cut,\n            msg.sender\n        );\n    }\n\n    /**\n     * @dev Compound to MakerDAO\n     */\n    function compoundToMaker(uint cdpId, uint ethCol, uint daiDebt) public payable isUserWallet {\n        (uint ethAmt, uint daiAmt) = checkCompound(ethCol, daiDebt);\n        payUserDebt(daiAmt);\n        fetchCETH(ethAmt);\n        redeemUnderlying(cEth, ethAmt);\n        uint cdpNum = cdpId > 0 ? cdpId : open();\n        uint cut = wmul(daiAmt, fees);\n        daiAmt = wmul(daiAmt, add(1000000000000000000, fees));\n        lockAndDraw(cdpNum, ethAmt, daiAmt);\n        if (daiAmt > 0) {\n            assert(CDAIInterface(cDai).mint(daiAmt) == 0);\n        }\n        give(cdpNum, msg.sender);\n        emit LogCompoundToMaker(\n            cdpNum,\n            ethAmt,\n            daiAmt,\n            cut,\n            msg.sender\n        );\n    }\n\n}\n\n\ncontract MakerCompoundBridge is Bridge {\n\n    /**\n     * @dev setting up all required token approvals\n     */\n    constructor() public {\n        setApproval(daiAddr, 10**30, cDai);\n        setApproval(cDai, 10**30, cDai);\n        setApproval(cEth, 10**30, cEth);\n    }\n\n    function() external payable {}\n\n}",
  "sourcePath": "/Users/pierrick/Documents/04-OSS/08-Graph/02-InstaDApp/contract-v2/contracts/bridges/MakerCompound.sol",
  "compiler": {
    "name": "solc",
    "version": "0.5.11+commit.c082d0b4.Emscripten.clang"
  },
  "schemaVersion": "3.0.16",
  "updatedAt": "2019-09-15T00:52:16.349Z",
  "devdoc": {
    "methods": {
      "refillFunds(uint256)": {
        "details": "initiated from user wallet to reimburse temporary DAI debt"
      }
    }
  },
  "userdoc": {
    "methods": {}
  }
}