{
  "contractName": "CompoundResolver",
  "abi": [
    {
      "constant": true,
      "inputs": [],
      "name": "getComptrollerAddress",
      "outputs": [
        {
          "internalType": "address",
          "name": "troller",
          "type": "address"
        }
      ],
      "payable": false,
      "stateMutability": "pure",
      "type": "function"
    },
    {
      "constant": true,
      "inputs": [],
      "name": "getCompOracleAddress",
      "outputs": [
        {
          "internalType": "address",
          "name": "troller",
          "type": "address"
        }
      ],
      "payable": false,
      "stateMutability": "pure",
      "type": "function"
    },
    {
      "constant": true,
      "inputs": [],
      "name": "getUniswapMKRExchange",
      "outputs": [
        {
          "internalType": "address",
          "name": "ume",
          "type": "address"
        }
      ],
      "payable": false,
      "stateMutability": "pure",
      "type": "function"
    },
    {
      "constant": true,
      "inputs": [],
      "name": "getLiquidityAddr",
      "outputs": [
        {
          "internalType": "address",
          "name": "liquidity",
          "type": "address"
        }
      ],
      "payable": false,
      "stateMutability": "pure",
      "type": "function"
    },
    {
      "constant": true,
      "inputs": [],
      "name": "getAddressETH",
      "outputs": [
        {
          "internalType": "address",
          "name": "eth",
          "type": "address"
        }
      ],
      "payable": false,
      "stateMutability": "pure",
      "type": "function"
    },
    {
      "constant": true,
      "inputs": [],
      "name": "getOracleAddress",
      "outputs": [
        {
          "internalType": "address",
          "name": "oracle",
          "type": "address"
        }
      ],
      "payable": false,
      "stateMutability": "pure",
      "type": "function"
    },
    {
      "constant": true,
      "inputs": [],
      "name": "getCETHAddress",
      "outputs": [
        {
          "internalType": "address",
          "name": "cEth",
          "type": "address"
        }
      ],
      "payable": false,
      "stateMutability": "pure",
      "type": "function"
    },
    {
      "constant": true,
      "inputs": [],
      "name": "getUniswapDAIExchange",
      "outputs": [
        {
          "internalType": "address",
          "name": "ude",
          "type": "address"
        }
      ],
      "payable": false,
      "stateMutability": "pure",
      "type": "function"
    },
    {
      "constant": true,
      "inputs": [],
      "name": "getDAIAddress",
      "outputs": [
        {
          "internalType": "address",
          "name": "dai",
          "type": "address"
        }
      ],
      "payable": false,
      "stateMutability": "pure",
      "type": "function"
    },
    {
      "constant": true,
      "inputs": [],
      "name": "getSaiTubAddress",
      "outputs": [
        {
          "internalType": "address",
          "name": "sai",
          "type": "address"
        }
      ],
      "payable": false,
      "stateMutability": "pure",
      "type": "function"
    },
    {
      "constant": true,
      "inputs": [],
      "name": "getCDAIAddress",
      "outputs": [
        {
          "internalType": "address",
          "name": "cDai",
          "type": "address"
        }
      ],
      "payable": false,
      "stateMutability": "pure",
      "type": "function"
    },
    {
      "anonymous": false,
      "inputs": [
        {
          "indexed": false,
          "internalType": "address",
          "name": "erc20",
          "type": "address"
        },
        {
          "indexed": false,
          "internalType": "address",
          "name": "cErc20",
          "type": "address"
        },
        {
          "indexed": false,
          "internalType": "uint256",
          "name": "tokenAmt",
          "type": "uint256"
        },
        {
          "indexed": false,
          "internalType": "address",
          "name": "owner",
          "type": "address"
        }
      ],
      "name": "LogMint",
      "type": "event"
    },
    {
      "anonymous": false,
      "inputs": [
        {
          "indexed": false,
          "internalType": "address",
          "name": "erc20",
          "type": "address"
        },
        {
          "indexed": false,
          "internalType": "address",
          "name": "cErc20",
          "type": "address"
        },
        {
          "indexed": false,
          "internalType": "uint256",
          "name": "tokenAmt",
          "type": "uint256"
        },
        {
          "indexed": false,
          "internalType": "address",
          "name": "owner",
          "type": "address"
        }
      ],
      "name": "LogRedeem",
      "type": "event"
    },
    {
      "anonymous": false,
      "inputs": [
        {
          "indexed": false,
          "internalType": "address",
          "name": "erc20",
          "type": "address"
        },
        {
          "indexed": false,
          "internalType": "address",
          "name": "cErc20",
          "type": "address"
        },
        {
          "indexed": false,
          "internalType": "uint256",
          "name": "tokenAmt",
          "type": "uint256"
        },
        {
          "indexed": false,
          "internalType": "address",
          "name": "owner",
          "type": "address"
        }
      ],
      "name": "LogBorrow",
      "type": "event"
    },
    {
      "anonymous": false,
      "inputs": [
        {
          "indexed": false,
          "internalType": "address",
          "name": "erc20",
          "type": "address"
        },
        {
          "indexed": false,
          "internalType": "address",
          "name": "cErc20",
          "type": "address"
        },
        {
          "indexed": false,
          "internalType": "uint256",
          "name": "tokenAmt",
          "type": "uint256"
        },
        {
          "indexed": false,
          "internalType": "address",
          "name": "owner",
          "type": "address"
        }
      ],
      "name": "LogRepay",
      "type": "event"
    },
    {
      "anonymous": false,
      "inputs": [
        {
          "indexed": false,
          "internalType": "uint256",
          "name": "cdpNum",
          "type": "uint256"
        },
        {
          "indexed": false,
          "internalType": "address",
          "name": "owner",
          "type": "address"
        }
      ],
      "name": "LogOpen",
      "type": "event"
    },
    {
      "anonymous": false,
      "inputs": [
        {
          "indexed": false,
          "internalType": "uint256",
          "name": "cdpNum",
          "type": "uint256"
        },
        {
          "indexed": false,
          "internalType": "uint256",
          "name": "amtETH",
          "type": "uint256"
        },
        {
          "indexed": false,
          "internalType": "uint256",
          "name": "amtPETH",
          "type": "uint256"
        },
        {
          "indexed": false,
          "internalType": "address",
          "name": "owner",
          "type": "address"
        }
      ],
      "name": "LogLock",
      "type": "event"
    },
    {
      "anonymous": false,
      "inputs": [
        {
          "indexed": false,
          "internalType": "uint256",
          "name": "cdpNum",
          "type": "uint256"
        },
        {
          "indexed": false,
          "internalType": "uint256",
          "name": "amtETH",
          "type": "uint256"
        },
        {
          "indexed": false,
          "internalType": "uint256",
          "name": "amtPETH",
          "type": "uint256"
        },
        {
          "indexed": false,
          "internalType": "address",
          "name": "owner",
          "type": "address"
        }
      ],
      "name": "LogFree",
      "type": "event"
    },
    {
      "anonymous": false,
      "inputs": [
        {
          "indexed": false,
          "internalType": "uint256",
          "name": "cdpNum",
          "type": "uint256"
        },
        {
          "indexed": false,
          "internalType": "uint256",
          "name": "amtDAI",
          "type": "uint256"
        },
        {
          "indexed": false,
          "internalType": "address",
          "name": "owner",
          "type": "address"
        }
      ],
      "name": "LogDraw",
      "type": "event"
    },
    {
      "anonymous": false,
      "inputs": [
        {
          "indexed": false,
          "internalType": "uint256",
          "name": "cdpNum",
          "type": "uint256"
        },
        {
          "indexed": false,
          "internalType": "uint256",
          "name": "daiAmt",
          "type": "uint256"
        },
        {
          "indexed": false,
          "internalType": "uint256",
          "name": "mkrFee",
          "type": "uint256"
        },
        {
          "indexed": false,
          "internalType": "uint256",
          "name": "daiFee",
          "type": "uint256"
        },
        {
          "indexed": false,
          "internalType": "address",
          "name": "owner",
          "type": "address"
        }
      ],
      "name": "LogWipe",
      "type": "event"
    },
    {
      "anonymous": false,
      "inputs": [
        {
          "indexed": false,
          "internalType": "uint256",
          "name": "cdpNum",
          "type": "uint256"
        }
      ],
      "name": "LogShut",
      "type": "event"
    }
  ],
  "bytecode": "0x608060405234801561001057600080fd5b50610555806100206000396000f3fe608060405234801561001057600080fd5b50600436106100b95760003560e01c8063b18b78dd11610081578063e60295151161005b578063e60295151461030e578063f1d9a15014610358578063f9bda826146103a2576100b9565b8063b18b78dd14610230578063c9ce5d861461027a578063db5a5d99146102c4576100b9565b80634ee9159a146100be5780636cd348ef1461010857806394c4a12414610152578063a90fd3151461019c578063ab1be686146101e6575b600080fd5b6100c66103ec565b604051808273ffffffffffffffffffffffffffffffffffffffff1673ffffffffffffffffffffffffffffffffffffffff16815260200191505060405180910390f35b610110610408565b604051808273ffffffffffffffffffffffffffffffffffffffff1673ffffffffffffffffffffffffffffffffffffffff16815260200191505060405180910390f35b61015a610424565b604051808273ffffffffffffffffffffffffffffffffffffffff1673ffffffffffffffffffffffffffffffffffffffff16815260200191505060405180910390f35b6101a4610440565b604051808273ffffffffffffffffffffffffffffffffffffffff1673ffffffffffffffffffffffffffffffffffffffff16815260200191505060405180910390f35b6101ee61045c565b604051808273ffffffffffffffffffffffffffffffffffffffff1673ffffffffffffffffffffffffffffffffffffffff16815260200191505060405180910390f35b610238610478565b604051808273ffffffffffffffffffffffffffffffffffffffff1673ffffffffffffffffffffffffffffffffffffffff16815260200191505060405180910390f35b610282610494565b604051808273ffffffffffffffffffffffffffffffffffffffff1673ffffffffffffffffffffffffffffffffffffffff16815260200191505060405180910390f35b6102cc6104b0565b604051808273ffffffffffffffffffffffffffffffffffffffff1673ffffffffffffffffffffffffffffffffffffffff16815260200191505060405180910390f35b6103166104cc565b604051808273ffffffffffffffffffffffffffffffffffffffff1673ffffffffffffffffffffffffffffffffffffffff16815260200191505060405180910390f35b6103606104e8565b604051808273ffffffffffffffffffffffffffffffffffffffff1673ffffffffffffffffffffffffffffffffffffffff16815260200191505060405180910390f35b6103aa610504565b604051808273ffffffffffffffffffffffffffffffffffffffff1673ffffffffffffffffffffffffffffffffffffffff16815260200191505060405180910390f35b6000733d9819210a31b4961b30ef54be2aed79b9c9cd3b905090565b600073e7664229833ae4abf4e269b8f23a86b657e2338d905090565b6000732c4bd064b998838076fa341a83d007fc2fa50957905090565b60007322be7f22e7ca2d4949d2b369d02bc9283ce7d285905090565b600073eeeeeeeeeeeeeeeeeeeeeeeeeeeeeeeeeeeeeeee905090565b600073729d19f657bd0614b4985cf1d82531c67569197b905090565b6000734ddc2d193948926d02f9b1fe9e1daa0718270ed5905090565b60007309cabec1ead1c0ba254b09efb3ee13841712be14905090565b60007389d24a6b4ccb1b6faa2625fe562bdd9a23260359905090565b600073448a5065aebb8e423f0896e6c5d525c040f59af3905090565b600073f5dce57282a584d2746faf1593d3121fcac444dc90509056fea265627a7a7231582088d6a1edb1e6ad81bc872f89c32ed1c9b39863b8ddb1ca25c4398657d7a3337064736f6c634300050b0032",
  "source": "pragma solidity ^0.5.7;\n\ninterface TubInterface {\n    function open() external returns (bytes32);\n    function join(uint) external;\n    function exit(uint) external;\n    function lock(bytes32, uint) external;\n    function free(bytes32, uint) external;\n    function draw(bytes32, uint) external;\n    function wipe(bytes32, uint) external;\n    function give(bytes32, address) external;\n    function shut(bytes32) external;\n    function cups(bytes32) external view returns (address, uint, uint, uint);\n    function gem() external view returns (TokenInterface);\n    function gov() external view returns (TokenInterface);\n    function skr() external view returns (TokenInterface);\n    function sai() external view returns (TokenInterface);\n    function ink(bytes32) external view returns (uint);\n    function tab(bytes32) external returns (uint);\n    function rap(bytes32) external returns (uint);\n    function per() external view returns (uint);\n    function pep() external view returns (PepInterface);\n}\n\ninterface TokenInterface {\n    function allowance(address, address) external view returns (uint);\n    function balanceOf(address) external view returns (uint);\n    function approve(address, uint) external;\n    function transfer(address, uint) external returns (bool);\n    function transferFrom(address, address, uint) external returns (bool);\n    function deposit() external payable;\n    function withdraw(uint) external;\n}\n\ninterface PepInterface {\n    function peek() external returns (bytes32, bool);\n}\n\ninterface MakerOracleInterface {\n    function read() external view returns (bytes32);\n}\n\ninterface UniswapExchange {\n    function getEthToTokenOutputPrice(uint256 tokensBought) external view returns (uint256 ethSold);\n    function getTokenToEthOutputPrice(uint256 ethBought) external view returns (uint256 tokensSold);\n    function tokenToTokenSwapOutput(\n        uint256 tokensBought,\n        uint256 maxTokensSold,\n        uint256 maxEthSold,\n        uint256 deadline,\n        address tokenAddr\n        ) external returns (uint256  tokensSold);\n}\n\ninterface LiquidityInterface {\n    function redeemTknAndTransfer(address tknAddr, address ctknAddr, uint tknAmt) external;\n    function mintTknBack(address tknAddr, address ctknAddr, uint tknAmt) external;\n    function borrowTknAndTransfer(address tknAddr, address ctknAddr, uint tknAmt) external;\n    function payBorrowBack(address tknAddr, address ctknAddr, uint tknAmt) external;\n}\n\ninterface CTokenInterface {\n    function redeem(uint redeemTokens) external returns (uint);\n    function redeemUnderlying(uint redeemAmount) external returns (uint);\n    function borrow(uint borrowAmount) external returns (uint);\n    function liquidateBorrow(address borrower, uint repayAmount, address cTokenCollateral) external returns (uint);\n    function liquidateBorrow(address borrower, address cTokenCollateral) external payable;\n    function exchangeRateCurrent() external returns (uint);\n    function getCash() external view returns (uint);\n    function totalBorrowsCurrent() external returns (uint);\n    function borrowRatePerBlock() external view returns (uint);\n    function supplyRatePerBlock() external view returns (uint);\n    function totalReserves() external view returns (uint);\n    function reserveFactorMantissa() external view returns (uint);\n    function borrowBalanceCurrent(address account) external returns (uint);\n\n    function totalSupply() external view returns (uint256);\n    function balanceOf(address owner) external view returns (uint256 balance);\n    function allowance(address, address) external view returns (uint);\n    function approve(address, uint) external;\n    function transfer(address, uint) external returns (bool);\n    function transferFrom(address, address, uint) external returns (bool);\n}\n\ninterface CERC20Interface {\n    function mint(uint mintAmount) external returns (uint); // For ERC20\n    function repayBorrow(uint repayAmount) external returns (uint); // For ERC20\n    function repayBorrowBehalf(address borrower, uint repayAmount) external returns (uint); // For ERC20\n    function borrowBalanceCurrent(address account) external returns (uint);\n}\n\ninterface CETHInterface {\n    function mint() external payable; // For ETH\n    function repayBorrow() external payable; // For ETH\n    function repayBorrowBehalf(address borrower) external payable; // For ETH\n    function borrowBalanceCurrent(address account) external returns (uint);\n}\n\ninterface ComptrollerInterface {\n    function enterMarkets(address[] calldata cTokens) external returns (uint[] memory);\n    function exitMarket(address cTokenAddress) external returns (uint);\n    function getAssetsIn(address account) external view returns (address[] memory);\n    function getAccountLiquidity(address account) external view returns (uint, uint, uint);\n}\n\ninterface CompOracleInterface {\n    function getUnderlyingPrice(address) external view returns (uint);\n}\n\n\ncontract DSMath {\n\n    function add(uint x, uint y) internal pure returns (uint z) {\n        require((z = x + y) >= x, \"math-not-safe\");\n    }\n\n    function mul(uint x, uint y) internal pure returns (uint z) {\n        require(y == 0 || (z = x * y) / y == x, \"math-not-safe\");\n    }\n\n    uint constant WAD = 10 ** 18;\n    uint constant RAY = 10 ** 27;\n\n    function rmul(uint x, uint y) internal pure returns (uint z) {\n        z = add(mul(x, y), RAY / 2) / RAY;\n    }\n\n    function rdiv(uint x, uint y) internal pure returns (uint z) {\n        z = add(mul(x, RAY), y / 2) / y;\n    }\n\n    function wmul(uint x, uint y) internal pure returns (uint z) {\n        z = add(mul(x, y), WAD / 2) / WAD;\n    }\n\n    function wdiv(uint x, uint y) internal pure returns (uint z) {\n        z = add(mul(x, WAD), y / 2) / y;\n    }\n\n}\n\n\ncontract Helper is DSMath {\n\n    /**\n     * @dev get ethereum address for trade\n     */\n    function getAddressETH() public pure returns (address eth) {\n        eth = 0xEeeeeEeeeEeEeeEeEeEeeEEEeeeeEeeeeeeeEEeE;\n    }\n\n    /**\n     * @dev get MakerDAO CDP engine\n     */\n    function getSaiTubAddress() public pure returns (address sai) {\n        sai = 0x448a5065aeBB8E423F0896E6c5D525C040f59af3;\n    }\n\n    /**\n     * @dev get MakerDAO Oracle for ETH price\n     */\n    function getOracleAddress() public pure returns (address oracle) {\n        oracle = 0x729D19f657BD0614b4985Cf1D82531c67569197B;\n    }\n\n    /**\n     * @dev get uniswap MKR exchange\n     */\n    function getUniswapMKRExchange() public pure returns (address ume) {\n        ume = 0x2C4Bd064b998838076fa341A83d007FC2FA50957;\n    }\n\n    /**\n     * @dev get uniswap DAI exchange\n     */\n    function getUniswapDAIExchange() public pure returns (address ude) {\n        ude = 0x09cabEC1eAd1c0Ba254B09efb3EE13841712bE14;\n    }\n\n    /**\n     * @dev get InstaDApp Liquidity contract\n     */\n    function getLiquidityAddr() public pure returns (address liquidity) {\n        liquidity = 0x22BE7F22E7ca2D4949d2B369d02bC9283CE7d285;\n    }\n\n    /**\n     * @dev get Compound Comptroller Address\n     */\n    function getComptrollerAddress() public pure returns (address troller) {\n        troller = 0x3d9819210A31b4961b30EF54bE2aeD79B9c9Cd3B;\n    }\n\n    /**\n     * @dev get Compound Oracle Address\n     */\n    function getCompOracleAddress() public pure returns (address troller) {\n        troller = 0xe7664229833AE4Abf4E269b8F23a86B657E2338D;\n    }\n\n    /**\n     * @dev get CETH Address\n     */\n    function getCETHAddress() public pure returns (address cEth) {\n        cEth = 0x4Ddc2D193948926D02f9B1fE9e1daa0718270ED5;\n    }\n\n    /**\n     * @dev get DAI Address\n     */\n    function getDAIAddress() public pure returns (address dai) {\n        dai = 0x89d24A6b4CcB1B6fAA2625fE562bDD9a23260359;\n    }\n\n    /**\n     * @dev get CDAI Address\n     */\n    function getCDAIAddress() public pure returns (address cDai) {\n        cDai = 0xF5DCe57282A584D2746FaF1593d3121Fcac444dC;\n    }\n\n    /**\n     * @dev setting allowance to compound contracts for the \"user proxy\" if required\n     */\n    function setApproval(address erc20, uint srcAmt, address to) internal {\n        TokenInterface erc20Contract = TokenInterface(erc20);\n        uint tokenAllowance = erc20Contract.allowance(address(this), to);\n        if (srcAmt > tokenAllowance) {\n            erc20Contract.approve(to, uint(-1));\n        }\n    }\n\n}\n\n\ncontract MakerHelper is Helper {\n\n    event LogOpen(uint cdpNum, address owner);\n    event LogLock(uint cdpNum, uint amtETH, uint amtPETH, address owner);\n    event LogFree(uint cdpNum, uint amtETH, uint amtPETH, address owner);\n    event LogDraw(uint cdpNum, uint amtDAI, address owner);\n    event LogWipe(uint cdpNum, uint daiAmt, uint mkrFee, uint daiFee, address owner);\n    event LogShut(uint cdpNum);\n\n    /**\n     * @dev Allowance to Maker's contract\n     */\n    function setMakerAllowance(TokenInterface _token, address _spender) internal {\n        if (_token.allowance(address(this), _spender) != uint(-1)) {\n            _token.approve(_spender, uint(-1));\n        }\n    }\n\n    /**\n     * @dev CDP stats by Bytes\n     */\n    function getCDPStats(bytes32 cup) internal view returns (uint ethCol, uint daiDebt) {\n        TubInterface tub = TubInterface(getSaiTubAddress());\n        (, uint pethCol, uint debt,) = tub.cups(cup);\n        ethCol = rmul(pethCol, tub.per()); // get ETH col from PETH col\n        daiDebt = debt;\n    }\n\n}\n\n\ncontract CompoundHelper is MakerHelper {\n\n    event LogMint(address erc20, address cErc20, uint tokenAmt, address owner);\n    event LogRedeem(address erc20, address cErc20, uint tokenAmt, address owner);\n    event LogBorrow(address erc20, address cErc20, uint tokenAmt, address owner);\n    event LogRepay(address erc20, address cErc20, uint tokenAmt, address owner);\n\n    /**\n     * @dev Compound Enter Market which allows borrowing\n     */\n    function enterMarket(address cErc20) internal {\n        ComptrollerInterface troller = ComptrollerInterface(getComptrollerAddress());\n        address[] memory markets = troller.getAssetsIn(address(this));\n        bool isEntered = false;\n        for (uint i = 0; i < markets.length; i++) {\n            if (markets[i] == cErc20) {\n                isEntered = true;\n            }\n        }\n        if (!isEntered) {\n            address[] memory toEnter = new address[](1);\n            toEnter[0] = cErc20;\n            troller.enterMarkets(toEnter);\n        }\n    }\n\n}\n\n\ncontract MakerResolver is CompoundHelper {\n\n    /**\n     * @dev Open new CDP\n     */\n    function open() internal returns (uint) {\n        bytes32 cup = TubInterface(getSaiTubAddress()).open();\n        emit LogOpen(uint(cup), address(this));\n        return uint(cup);\n    }\n\n    /**\n     * @dev transfer CDP ownership\n     */\n    function give(uint cdpNum, address nextOwner) internal {\n        TubInterface(getSaiTubAddress()).give(bytes32(cdpNum), nextOwner);\n    }\n\n    /**\n     * @dev Pay CDP debt\n     */\n    function wipe(uint cdpNum, uint _wad) internal returns (uint daiAmt) {\n        if (_wad > 0) {\n            TubInterface tub = TubInterface(getSaiTubAddress());\n            UniswapExchange daiEx = UniswapExchange(getUniswapDAIExchange());\n            UniswapExchange mkrEx = UniswapExchange(getUniswapMKRExchange());\n            TokenInterface dai = tub.sai();\n            TokenInterface mkr = tub.gov();\n\n            bytes32 cup = bytes32(cdpNum);\n\n            (address lad,,,) = tub.cups(cup);\n            require(lad == address(this), \"cup-not-owned\");\n\n            setMakerAllowance(dai, getSaiTubAddress());\n            setMakerAllowance(mkr, getSaiTubAddress());\n            setMakerAllowance(dai, getUniswapDAIExchange());\n\n            (bytes32 val, bool ok) = tub.pep().peek();\n\n            // MKR required for wipe = Stability fees accrued in Dai / MKRUSD value\n            uint mkrFee = wdiv(rmul(_wad, rdiv(tub.rap(cup), tub.tab(cup))), uint(val));\n\n            uint daiFeeAmt = daiEx.getTokenToEthOutputPrice(mkrEx.getEthToTokenOutputPrice(mkrFee));\n            daiAmt = add(_wad, daiFeeAmt);\n\n            // Getting Liquidity from Liquidity Contract\n            LiquidityInterface(getLiquidityAddr()).borrowTknAndTransfer(getDAIAddress(), getCDAIAddress(), daiAmt);\n\n            if (ok && val != 0) {\n                daiEx.tokenToTokenSwapOutput(\n                    mkrFee,\n                    daiAmt,\n                    uint(999000000000000000000),\n                    uint(1899063809), // 6th March 2030 GMT // no logic\n                    address(mkr)\n                );\n            }\n\n            tub.wipe(cup, _wad);\n\n            emit LogWipe(\n                cdpNum,\n                daiAmt,\n                mkrFee,\n                daiFeeAmt,\n                address(this)\n            );\n\n        }\n    }\n\n    /**\n     * @dev Withdraw CDP\n     */\n    function free(uint cdpNum, uint jam) internal {\n        if (jam > 0) {\n            bytes32 cup = bytes32(cdpNum);\n            address tubAddr = getSaiTubAddress();\n\n            TubInterface tub = TubInterface(tubAddr);\n            TokenInterface peth = tub.skr();\n            TokenInterface weth = tub.gem();\n\n            uint ink = rdiv(jam, tub.per());\n            ink = rmul(ink, tub.per()) <= jam ? ink : ink - 1;\n            tub.free(cup, ink);\n\n            setMakerAllowance(peth, tubAddr);\n\n            tub.exit(ink);\n            uint freeJam = weth.balanceOf(address(this)); // withdraw possible previous stuck WETH as well\n            weth.withdraw(freeJam);\n        }\n    }\n\n    /**\n     * @dev Deposit Collateral\n     */\n    function lock(uint cdpNum, uint ethAmt) internal {\n        if (ethAmt > 0) {\n            bytes32 cup = bytes32(cdpNum);\n            address tubAddr = getSaiTubAddress();\n\n            TubInterface tub = TubInterface(tubAddr);\n            TokenInterface weth = tub.gem();\n            TokenInterface peth = tub.skr();\n\n            (address lad,,,) = tub.cups(cup);\n            require(lad == address(this), \"cup-not-owned\");\n\n            weth.deposit.value(ethAmt)();\n\n            uint ink = rdiv(ethAmt, tub.per());\n            ink = rmul(ink, tub.per()) <= ethAmt ? ink : ink - 1;\n\n            setMakerAllowance(weth, tubAddr);\n            tub.join(ink);\n\n            setMakerAllowance(peth, tubAddr);\n            tub.lock(cup, ink);\n        }\n    }\n\n    /**\n     * @dev Borrow DAI Debt\n     */\n    function draw(uint cdpNum, uint _wad) internal {\n        bytes32 cup = bytes32(cdpNum);\n        if (_wad > 0) {\n            TubInterface tub = TubInterface(getSaiTubAddress());\n\n            tub.draw(cup, _wad);\n\n            // Returning Liquidity To Liquidity Contract\n            require(TokenInterface(getDAIAddress()).transfer(getLiquidityAddr(), _wad), \"Not-enough-DAI\");\n            LiquidityInterface(getLiquidityAddr()).payBorrowBack(getDAIAddress(), getCDAIAddress(), _wad);\n        }\n    }\n\n    /**\n     * @dev Check if entered amt is valid or not (Used in makerToCompound)\n     */\n    function checkCDP(bytes32 cup, uint ethAmt, uint daiAmt) internal returns (uint ethCol, uint daiDebt) {\n        TubInterface tub = TubInterface(getSaiTubAddress());\n        ethCol = rmul(tub.ink(cup), tub.per()) - 1; // get ETH col from PETH col\n        daiDebt = tub.tab(cup);\n        daiDebt = daiAmt < daiDebt ? daiAmt : daiDebt; // if DAI amount > max debt. Set max debt\n        ethCol = ethAmt < ethCol ? ethAmt : ethCol; // if ETH amount > max Col. Set max col\n    }\n\n    /**\n     * @dev Run wipe & Free function together\n     */\n    function wipeAndFreeMaker(uint cdpNum, uint jam, uint _wad) internal returns (uint daiAmt) {\n        daiAmt = wipe(cdpNum, _wad);\n        free(cdpNum, jam);\n    }\n\n    /**\n     * @dev Run Lock & Draw function together\n     */\n    function lockAndDrawMaker(uint cdpNum, uint jam, uint _wad) internal {\n        lock(cdpNum, jam);\n        draw(cdpNum, _wad);\n    }\n\n}\n\n\ncontract CompoundResolver is MakerResolver {\n\n    /**\n     * @dev Deposit ETH and mint CETH\n     */\n    function mintCEth(uint tokenAmt) internal {\n        enterMarket(getCETHAddress());\n        CETHInterface cToken = CETHInterface(getCETHAddress());\n        cToken.mint.value(tokenAmt)();\n        emit LogMint(\n            getAddressETH(),\n            getCETHAddress(),\n            tokenAmt,\n            msg.sender\n        );\n    }\n\n    /**\n     * @dev borrow DAI\n     */\n    function borrowDAIComp(uint daiAmt) internal {\n        enterMarket(getCDAIAddress());\n        require(CTokenInterface(getCDAIAddress()).borrow(daiAmt) == 0, \"got collateral?\");\n        // Returning Liquidity to Liquidity Contract\n        require(TokenInterface(getDAIAddress()).transfer(getLiquidityAddr(), daiAmt), \"Not-enough-DAI\");\n        LiquidityInterface(getLiquidityAddr()).payBorrowBack(getDAIAddress(), getCDAIAddress(), daiAmt);\n        emit LogBorrow(\n            getDAIAddress(),\n            getCDAIAddress(),\n            daiAmt,\n            address(this)\n        );\n    }\n\n    /**\n     * @dev Pay DAI Debt\n     */\n    function repayDaiComp(uint tokenAmt) internal returns (uint wipeAmt) {\n        CERC20Interface cToken = CERC20Interface(getCDAIAddress());\n        uint daiBorrowed = cToken.borrowBalanceCurrent(address(this));\n        wipeAmt = tokenAmt < daiBorrowed ? tokenAmt : daiBorrowed;\n        // Getting Liquidity from Liquidity Contract\n        LiquidityInterface(getLiquidityAddr()).borrowTknAndTransfer(getDAIAddress(), getCDAIAddress(), wipeAmt);\n        setApproval(getDAIAddress(), wipeAmt, getCDAIAddress());\n        require(cToken.repayBorrow(wipeAmt) == 0, \"transfer approved?\");\n        emit LogRepay(\n            getDAIAddress(),\n            getCDAIAddress(),\n            wipeAmt,\n            address(this)\n        );\n    }\n\n    /**\n     * @dev Redeem CETH\n     * @param tokenAmt Amount of token To Redeem\n     */\n    function redeemCETH(uint tokenAmt) internal returns(uint ethAmtReddemed) {\n        CTokenInterface cToken = CTokenInterface(getCETHAddress());\n        uint cethBal = cToken.balanceOf(address(this));\n        uint exchangeRate = cToken.exchangeRateCurrent();\n        uint cethInEth = wmul(cethBal, exchangeRate);\n        setApproval(getCETHAddress(), 2**128, getCETHAddress());\n        ethAmtReddemed = tokenAmt;\n        if (tokenAmt > cethInEth) {\n            require(cToken.redeem(cethBal) == 0, \"something went wrong\");\n            ethAmtReddemed = cethInEth;\n        } else {\n            require(cToken.redeemUnderlying(tokenAmt) == 0, \"something went wrong\");\n        }\n        emit LogRedeem(\n            getAddressETH(),\n            getCETHAddress(),\n            ethAmtReddemed,\n            address(this)\n        );\n    }\n\n    /**\n     * @dev run mint & borrow together\n     */\n    function mintAndBorrowComp(uint ethAmt, uint daiAmt) internal {\n        mintCEth(ethAmt);\n        borrowDAIComp(daiAmt);\n    }\n\n    /**\n     * @dev run payback & redeem together\n     */\n    function paybackAndRedeemComp(uint ethCol, uint daiDebt) internal returns (uint ethAmt, uint daiAmt) {\n        daiAmt = repayDaiComp(daiDebt);\n        ethAmt = redeemCETH(ethCol);\n    }\n\n    /**\n     * @dev Check if entered amt is valid or not (Used in makerToCompound)\n     */\n    function checkCompound(uint ethAmt, uint daiAmt) internal returns (uint ethCol, uint daiDebt) {\n        CTokenInterface cEthContract = CTokenInterface(getCETHAddress());\n        uint cEthBal = cEthContract.balanceOf(address(this));\n        uint ethExchangeRate = cEthContract.exchangeRateCurrent();\n        ethCol = wmul(cEthBal, ethExchangeRate);\n        ethCol = wdiv(ethCol, ethExchangeRate) <= cEthBal ? ethCol : ethCol - 1;\n        ethCol = ethCol <= ethAmt ? ethCol : ethAmt; // Set Max if amount is greater than the Col user have\n\n        daiDebt = CERC20Interface(getCDAIAddress()).borrowBalanceCurrent(address(this));\n        daiDebt = daiDebt <= daiAmt ? daiDebt : daiAmt; // Set Max if amount is greater than the Debt user have\n    }\n\n}\n\n\ncontract InstaMakerCompBridge is CompoundResolver {\n\n    event LogMakerToCompound(uint ethAmt, uint daiAmt);\n    event LogCompoundToMaker(uint ethAmt, uint daiAmt);\n\n    /**\n     * @dev convert Maker CDP into Compound Collateral\n     */\n    function makerToCompound(uint cdpId, uint ethQty, uint daiQty) external {\n        (uint ethAmt, uint daiDebt) = checkCDP(bytes32(cdpId), ethQty, daiQty);\n        uint daiAmt = wipeAndFreeMaker(cdpId, ethAmt, daiDebt); // Getting Liquidity inside Wipe function\n        enterMarket(getCETHAddress());\n        enterMarket(getCDAIAddress());\n        mintAndBorrowComp(ethAmt, daiAmt); // Returning Liquidity inside Borrow function\n        emit LogMakerToCompound(ethAmt, daiAmt);\n    }\n\n    /**\n     * @dev convert Compound Collateral into Maker CDP\n     * @param cdpId = 0, if user don't have any CDP\n     */\n    function compoundToMaker(uint cdpId, uint ethQty, uint daiQty) external {\n        uint cdpNum = cdpId > 0 ? cdpId : open();\n        (uint ethCol, uint daiDebt) = checkCompound(ethQty, daiQty);\n        (uint ethAmt, uint daiAmt) = paybackAndRedeemComp(ethCol, daiDebt); // Getting Liquidity inside Wipe function\n        ethAmt = ethAmt < address(this).balance ? ethAmt : address(this).balance;\n        lockAndDrawMaker(cdpNum, ethAmt, daiAmt); // Returning Liquidity inside Borrow function\n        emit LogCompoundToMaker(ethAmt, daiAmt);\n    }\n\n    function() external payable {}\n\n}",
  "sourcePath": "/Users/pierrick/Documents/04-OSS/08-Graph/02-InstaDApp/contract-v2/contracts/ProxyLogics/InstaMakerCompBridge.sol",
  "compiler": {
    "name": "solc",
    "version": "0.5.11+commit.c082d0b4.Emscripten.clang"
  },
  "schemaVersion": "3.0.16",
  "updatedAt": "2019-09-23T08:40:15.368Z",
  "devdoc": {
    "methods": {
      "getAddressETH()": {
        "details": "get ethereum address for trade"
      },
      "getCDAIAddress()": {
        "details": "get CDAI Address"
      },
      "getCETHAddress()": {
        "details": "get CETH Address"
      },
      "getCompOracleAddress()": {
        "details": "get Compound Oracle Address"
      },
      "getComptrollerAddress()": {
        "details": "get Compound Comptroller Address"
      },
      "getDAIAddress()": {
        "details": "get DAI Address"
      },
      "getLiquidityAddr()": {
        "details": "get InstaDApp Liquidity contract"
      },
      "getOracleAddress()": {
        "details": "get MakerDAO Oracle for ETH price"
      },
      "getSaiTubAddress()": {
        "details": "get MakerDAO CDP engine"
      },
      "getUniswapDAIExchange()": {
        "details": "get uniswap DAI exchange"
      },
      "getUniswapMKRExchange()": {
        "details": "get uniswap MKR exchange"
      }
    }
  },
  "userdoc": {
    "methods": {}
  }
}