{
  "contractName": "CompoundSave",
  "abi": [
    {
      "constant": true,
      "inputs": [],
      "name": "getComptrollerAddress",
      "outputs": [
        {
          "internalType": "address",
          "name": "troller",
          "type": "address"
        }
      ],
      "payable": false,
      "stateMutability": "pure",
      "type": "function"
    },
    {
      "constant": false,
      "inputs": [
        {
          "internalType": "address",
          "name": "user",
          "type": "address"
        },
        {
          "internalType": "uint256",
          "name": "ethToFree",
          "type": "uint256"
        },
        {
          "internalType": "address[]",
          "name": "cTokenAddr",
          "type": "address[]"
        },
        {
          "internalType": "uint256[]",
          "name": "ctokenFactor",
          "type": "uint256[]"
        }
      ],
      "name": "getSave",
      "outputs": [
        {
          "internalType": "uint256",
          "name": "finalColInEth",
          "type": "uint256"
        },
        {
          "internalType": "uint256",
          "name": "finalDebtInEth",
          "type": "uint256"
        },
        {
          "internalType": "uint256",
          "name": "daiDebt",
          "type": "uint256"
        },
        {
          "internalType": "bool",
          "name": "isOk",
          "type": "bool"
        }
      ],
      "payable": false,
      "stateMutability": "nonpayable",
      "type": "function"
    },
    {
      "constant": true,
      "inputs": [],
      "name": "getCompOracleAddress",
      "outputs": [
        {
          "internalType": "address",
          "name": "troller",
          "type": "address"
        }
      ],
      "payable": false,
      "stateMutability": "pure",
      "type": "function"
    },
    {
      "constant": false,
      "inputs": [
        {
          "internalType": "address",
          "name": "user",
          "type": "address"
        },
        {
          "internalType": "uint256",
          "name": "daiToBorrow",
          "type": "uint256"
        },
        {
          "internalType": "address[]",
          "name": "cTokenAddr",
          "type": "address[]"
        },
        {
          "internalType": "uint256[]",
          "name": "ctokenFactor",
          "type": "uint256[]"
        }
      ],
      "name": "getLeverage",
      "outputs": [
        {
          "internalType": "uint256",
          "name": "finalColInEth",
          "type": "uint256"
        },
        {
          "internalType": "uint256",
          "name": "finalDebtInEth",
          "type": "uint256"
        },
        {
          "internalType": "uint256",
          "name": "ethCol",
          "type": "uint256"
        }
      ],
      "payable": false,
      "stateMutability": "nonpayable",
      "type": "function"
    },
    {
      "constant": true,
      "inputs": [],
      "name": "getAddressETH",
      "outputs": [
        {
          "internalType": "address",
          "name": "eth",
          "type": "address"
        }
      ],
      "payable": false,
      "stateMutability": "pure",
      "type": "function"
    },
    {
      "constant": true,
      "inputs": [],
      "name": "getAddressDAI",
      "outputs": [
        {
          "internalType": "address",
          "name": "dai",
          "type": "address"
        }
      ],
      "payable": false,
      "stateMutability": "pure",
      "type": "function"
    },
    {
      "constant": true,
      "inputs": [],
      "name": "getCETHAddress",
      "outputs": [
        {
          "internalType": "address",
          "name": "cEth",
          "type": "address"
        }
      ],
      "payable": false,
      "stateMutability": "pure",
      "type": "function"
    },
    {
      "constant": false,
      "inputs": [
        {
          "internalType": "address",
          "name": "user",
          "type": "address"
        },
        {
          "internalType": "address[]",
          "name": "cTokenAddr",
          "type": "address[]"
        },
        {
          "internalType": "uint256[]",
          "name": "cTokenFactor",
          "type": "uint256[]"
        }
      ],
      "name": "getCompStats",
      "outputs": [
        {
          "internalType": "uint256",
          "name": "totalSupply",
          "type": "uint256"
        },
        {
          "internalType": "uint256",
          "name": "totalBorrow",
          "type": "uint256"
        },
        {
          "internalType": "uint256",
          "name": "maxBorrow",
          "type": "uint256"
        },
        {
          "internalType": "uint256",
          "name": "borrowRemain",
          "type": "uint256"
        },
        {
          "internalType": "uint256",
          "name": "maxWithdraw",
          "type": "uint256"
        },
        {
          "internalType": "uint256",
          "name": "ratio",
          "type": "uint256"
        }
      ],
      "payable": false,
      "stateMutability": "nonpayable",
      "type": "function"
    },
    {
      "constant": true,
      "inputs": [],
      "name": "getAddressSplitSwap",
      "outputs": [
        {
          "internalType": "address payable",
          "name": "splitSwap",
          "type": "address"
        }
      ],
      "payable": false,
      "stateMutability": "pure",
      "type": "function"
    },
    {
      "constant": true,
      "inputs": [],
      "name": "getCDAIAddress",
      "outputs": [
        {
          "internalType": "address",
          "name": "cDai",
          "type": "address"
        }
      ],
      "payable": false,
      "stateMutability": "pure",
      "type": "function"
    },
    {
      "anonymous": false,
      "inputs": [
        {
          "indexed": false,
          "internalType": "uint256",
          "name": "srcETH",
          "type": "uint256"
        },
        {
          "indexed": false,
          "internalType": "uint256",
          "name": "destDAI",
          "type": "uint256"
        }
      ],
      "name": "LogSaveCompound",
      "type": "event"
    },
    {
      "anonymous": false,
      "inputs": [
        {
          "indexed": false,
          "internalType": "uint256",
          "name": "srcDAI",
          "type": "uint256"
        },
        {
          "indexed": false,
          "internalType": "uint256",
          "name": "destETH",
          "type": "uint256"
        }
      ],
      "name": "LogLeverageCompound",
      "type": "event"
    },
    {
      "anonymous": false,
      "inputs": [
        {
          "indexed": false,
          "internalType": "address",
          "name": "erc20",
          "type": "address"
        },
        {
          "indexed": false,
          "internalType": "address",
          "name": "cErc20",
          "type": "address"
        },
        {
          "indexed": false,
          "internalType": "uint256",
          "name": "tokenAmt",
          "type": "uint256"
        },
        {
          "indexed": false,
          "internalType": "address",
          "name": "owner",
          "type": "address"
        }
      ],
      "name": "LogMint",
      "type": "event"
    },
    {
      "anonymous": false,
      "inputs": [
        {
          "indexed": false,
          "internalType": "address",
          "name": "erc20",
          "type": "address"
        },
        {
          "indexed": false,
          "internalType": "address",
          "name": "cErc20",
          "type": "address"
        },
        {
          "indexed": false,
          "internalType": "uint256",
          "name": "tokenAmt",
          "type": "uint256"
        },
        {
          "indexed": false,
          "internalType": "address",
          "name": "owner",
          "type": "address"
        }
      ],
      "name": "LogRedeem",
      "type": "event"
    },
    {
      "anonymous": false,
      "inputs": [
        {
          "indexed": false,
          "internalType": "address",
          "name": "erc20",
          "type": "address"
        },
        {
          "indexed": false,
          "internalType": "address",
          "name": "cErc20",
          "type": "address"
        },
        {
          "indexed": false,
          "internalType": "uint256",
          "name": "tokenAmt",
          "type": "uint256"
        },
        {
          "indexed": false,
          "internalType": "address",
          "name": "owner",
          "type": "address"
        }
      ],
      "name": "LogBorrow",
      "type": "event"
    },
    {
      "anonymous": false,
      "inputs": [
        {
          "indexed": false,
          "internalType": "address",
          "name": "erc20",
          "type": "address"
        },
        {
          "indexed": false,
          "internalType": "address",
          "name": "cErc20",
          "type": "address"
        },
        {
          "indexed": false,
          "internalType": "uint256",
          "name": "tokenAmt",
          "type": "uint256"
        },
        {
          "indexed": false,
          "internalType": "address",
          "name": "owner",
          "type": "address"
        }
      ],
      "name": "LogRepay",
      "type": "event"
    },
    {
      "constant": false,
      "inputs": [
        {
          "internalType": "uint256",
          "name": "ethToFree",
          "type": "uint256"
        },
        {
          "internalType": "address[]",
          "name": "ctokenAddr",
          "type": "address[]"
        },
        {
          "internalType": "uint256[]",
          "name": "ctokenFactor",
          "type": "uint256[]"
        },
        {
          "internalType": "uint256",
          "name": "splitAmt",
          "type": "uint256"
        },
        {
          "internalType": "uint256",
          "name": "slippageAmt",
          "type": "uint256"
        }
      ],
      "name": "save",
      "outputs": [],
      "payable": false,
      "stateMutability": "nonpayable",
      "type": "function"
    },
    {
      "constant": false,
      "inputs": [
        {
          "internalType": "uint256",
          "name": "daiToBorrow",
          "type": "uint256"
        },
        {
          "internalType": "address[]",
          "name": "cTokenAddr",
          "type": "address[]"
        },
        {
          "internalType": "uint256[]",
          "name": "ctokenFactor",
          "type": "uint256[]"
        },
        {
          "internalType": "uint256",
          "name": "splitAmt",
          "type": "uint256"
        },
        {
          "internalType": "uint256",
          "name": "slippageAmt",
          "type": "uint256"
        }
      ],
      "name": "leverage",
      "outputs": [],
      "payable": false,
      "stateMutability": "nonpayable",
      "type": "function"
    }
  ],
  "bytecode": "0x608060405234801561001057600080fd5b50612999806100206000396000f3fe608060405234801561001057600080fd5b50600436106100d45760003560e01c8063c865463c11610081578063d54d071f1161005b578063d54d071f1461085a578063d5a649db146109fd578063f9bda82614610a47576100d4565b8063c865463c1461065c578063c9ce5d86146106a6578063d1007142146106f0576100d4565b80636cd348ef116100b25780636cd348ef146104305780637e29fbb01461047a578063ab1be68614610612576100d4565b806334a8cf00146100d95780634ee9159a146102435780635a1d74771461028d575b600080fd5b610241600480360360a08110156100ef57600080fd5b81019080803590602001909291908035906020019064010000000081111561011657600080fd5b82018360208201111561012857600080fd5b8035906020019184602083028401116401000000008311171561014a57600080fd5b919080806020026020016040519081016040528093929190818152602001838360200280828437600081840152601f19601f820116905080830192505050505050509192919290803590602001906401000000008111156101aa57600080fd5b8201836020820111156101bc57600080fd5b803590602001918460208302840111640100000000831117156101de57600080fd5b919080806020026020016040519081016040528093929190818152602001838360200280828437600081840152601f19601f8201169050808301925050505050505091929192908035906020019092919080359060200190929190505050610a91565b005b61024b610c94565b604051808273ffffffffffffffffffffffffffffffffffffffff1673ffffffffffffffffffffffffffffffffffffffff16815260200191505060405180910390f35b610401600480360360808110156102a357600080fd5b81019080803573ffffffffffffffffffffffffffffffffffffffff16906020019092919080359060200190929190803590602001906401000000008111156102ea57600080fd5b8201836020820111156102fc57600080fd5b8035906020019184602083028401116401000000008311171561031e57600080fd5b919080806020026020016040519081016040528093929190818152602001838360200280828437600081840152601f19601f8201169050808301925050505050505091929192908035906020019064010000000081111561037e57600080fd5b82018360208201111561039057600080fd5b803590602001918460208302840111640100000000831117156103b257600080fd5b919080806020026020016040519081016040528093929190818152602001838360200280828437600081840152601f19601f820116905080830192505050505050509192919290505050610cb0565b604051808581526020018481526020018381526020018215151515815260200194505050505060405180910390f35b610438610f4a565b604051808273ffffffffffffffffffffffffffffffffffffffff1673ffffffffffffffffffffffffffffffffffffffff16815260200191505060405180910390f35b6105ee6004803603608081101561049057600080fd5b81019080803573ffffffffffffffffffffffffffffffffffffffff16906020019092919080359060200190929190803590602001906401000000008111156104d757600080fd5b8201836020820111156104e957600080fd5b8035906020019184602083028401116401000000008311171561050b57600080fd5b919080806020026020016040519081016040528093929190818152602001838360200280828437600081840152601f19601f8201169050808301925050505050505091929192908035906020019064010000000081111561056b57600080fd5b82018360208201111561057d57600080fd5b8035906020019184602083028401116401000000008311171561059f57600080fd5b919080806020026020016040519081016040528093929190818152602001838360200280828437600081840152601f19601f820116905080830192505050505050509192919290505050610f66565b60405180848152602001838152602001828152602001935050505060405180910390f35b61061a6111c7565b604051808273ffffffffffffffffffffffffffffffffffffffff1673ffffffffffffffffffffffffffffffffffffffff16815260200191505060405180910390f35b6106646111e3565b604051808273ffffffffffffffffffffffffffffffffffffffff1673ffffffffffffffffffffffffffffffffffffffff16815260200191505060405180910390f35b6106ae6111ff565b604051808273ffffffffffffffffffffffffffffffffffffffff1673ffffffffffffffffffffffffffffffffffffffff16815260200191505060405180910390f35b610858600480360360a081101561070657600080fd5b81019080803590602001909291908035906020019064010000000081111561072d57600080fd5b82018360208201111561073f57600080fd5b8035906020019184602083028401116401000000008311171561076157600080fd5b919080806020026020016040519081016040528093929190818152602001838360200280828437600081840152601f19601f820116905080830192505050505050509192919290803590602001906401000000008111156107c157600080fd5b8201836020820111156107d357600080fd5b803590602001918460208302840111640100000000831117156107f557600080fd5b919080806020026020016040519081016040528093929190818152602001838360200280828437600081840152601f19601f820116905080830192505050505050509192919290803590602001909291908035906020019092919050505061121b565b005b6109c46004803603606081101561087057600080fd5b81019080803573ffffffffffffffffffffffffffffffffffffffff169060200190929190803590602001906401000000008111156108ad57600080fd5b8201836020820111156108bf57600080fd5b803590602001918460208302840111640100000000831117156108e157600080fd5b919080806020026020016040519081016040528093929190818152602001838360200280828437600081840152601f19601f8201169050808301925050505050505091929192908035906020019064010000000081111561094157600080fd5b82018360208201111561095357600080fd5b8035906020019184602083028401116401000000008311171561097557600080fd5b919080806020026020016040519081016040528093929190818152602001838360200280828437600081840152601f19601f82011690508083019250505050505050919291929050505061135f565b60405180878152602001868152602001858152602001848152602001838152602001828152602001965050505050505060405180910390f35b610a05611443565b604051808273ffffffffffffffffffffffffffffffffffffffff1673ffffffffffffffffffffffffffffffffffffffff16815260200191505060405180910390f35b610a4f61145f565b604051808273ffffffffffffffffffffffffffffffffffffffff1673ffffffffffffffffffffffffffffffffffffffff16815260200191505060405180910390f35b610aa1610a9c6111ff565b61147b565b610ab1610aac61145f565b61147b565b6000610abe30868661135f565b505093505050506000610ad08261183f565b9050868110610adf5786610ae1565b805b9050610aec81611926565b610af46111e3565b73ffffffffffffffffffffffffffffffffffffffff1663095ea7b3610b17611443565b836040518363ffffffff1660e01b8152600401808373ffffffffffffffffffffffffffffffffffffffff1673ffffffffffffffffffffffffffffffffffffffff16815260200182815260200192505050600060405180830381600087803b158015610b8157600080fd5b505af1158015610b95573d6000803e3d6000fd5b505050506000610ba3611443565b73ffffffffffffffffffffffffffffffffffffffff16638aec35dc8387876040518463ffffffff1660e01b8152600401808481526020018381526020018281526020019350505050602060405180830381600087803b158015610c0557600080fd5b505af1158015610c19573d6000803e3d6000fd5b505050506040513d6020811015610c2f57600080fd5b81019080805190602001909291905050509050610c4b81611b14565b7f04b3a9a8b2209b37fbd2060080481a5af0b24872285b9505d21f3c57c8e1ac668282604051808381526020018281526020019250505060405180910390a15050505050505050565b6000733d9819210a31b4961b30ef54be2aed79b9c9cd3b905090565b6000806000806000806000610cc68b8a8a61135f565b5094505050925092506000818b10610cde5781610ce0565b8a5b90506000610cec611443565b73ffffffffffffffffffffffffffffffffffffffff166371396f6d610d0f6111c7565b610d176111e3565b856040518463ffffffff1660e01b8152600401808473ffffffffffffffffffffffffffffffffffffffff1673ffffffffffffffffffffffffffffffffffffffff1681526020018373ffffffffffffffffffffffffffffffffffffffff1673ffffffffffffffffffffffffffffffffffffffff1681526020018281526020019350505050604080518083038186803b158015610db157600080fd5b505afa158015610dc5573d6000803e3d6000fd5b505050506040513d6040811015610ddb57600080fd5b8101908080519060200190929190805190602001909291905050509150506000610e048e611c66565b90506000610e10610f4a565b73ffffffffffffffffffffffffffffffffffffffff1663fc57d4df610e3361145f565b6040518263ffffffff1660e01b8152600401808273ffffffffffffffffffffffffffffffffffffffff1673ffffffffffffffffffffffffffffffffffffffff16815260200191505060206040518083038186803b158015610e9357600080fd5b505afa158015610ea7573d6000803e3d6000fd5b505050506040513d6020811015610ebd57600080fd5b8101908080519060200190929190505050905082821015610f0657610ee28785611d35565b9a50610ef786610ef28484611d54565b611d35565b99506000985060009750610f38565b610f108785611d35565b9a50610f2586610f208584611d54565b611d35565b9950610f318284611d35565b9850600197505b50505050505050945094509450949050565b600073e7664229833ae4abf4e269b8f23a86b657e2338d905090565b600080600080600080610f7a8a898961135f565b5050935050925092506000610f8e8261183f565b9050898110610f9d5789610f9f565b805b90506000610fab611443565b73ffffffffffffffffffffffffffffffffffffffff166371396f6d610fce6111e3565b610fd66111c7565b856040518463ffffffff1660e01b8152600401808473ffffffffffffffffffffffffffffffffffffffff1673ffffffffffffffffffffffffffffffffffffffff1681526020018373ffffffffffffffffffffffffffffffffffffffff1673ffffffffffffffffffffffffffffffffffffffff1681526020018281526020019350505050604080518083038186803b15801561107057600080fd5b505afa158015611084573d6000803e3d6000fd5b505050506040513d604081101561109a57600080fd5b81019080805190602001909291908051906020019092919050505091505060006110c2610f4a565b73ffffffffffffffffffffffffffffffffffffffff1663fc57d4df6110e561145f565b6040518263ffffffff1660e01b8152600401808273ffffffffffffffffffffffffffffffffffffffff1673ffffffffffffffffffffffffffffffffffffffff16815260200191505060206040518083038186803b15801561114557600080fd5b505afa158015611159573d6000803e3d6000fd5b505050506040513d602081101561116f57600080fd5b8101908080519060200190929190505050905061118c8683611d94565b98506111a18561119c8584611d54565b611d94565b97506111b56111af8e611e17565b83611d94565b96505050505050509450945094915050565b600073eeeeeeeeeeeeeeeeeeeeeeeeeeeeeeeeeeeeeeee905090565b60007389d24a6b4ccb1b6faa2625fe562bdd9a23260359905090565b6000734ddc2d193948926d02f9b1fe9e1daa0718270ed5905090565b61122b6112266111ff565b61147b565b61123b61123661145f565b61147b565b600061124830868661135f565b50945050505050600081871061125e5781611260565b865b905061126b81611f85565b6000611275611443565b73ffffffffffffffffffffffffffffffffffffffff166323864c528387876040518463ffffffff1660e01b815260040180838152602001828152602001925050506020604051808303818588803b1580156112cf57600080fd5b505af11580156112e3573d6000803e3d6000fd5b50505050506040513d60208110156112fa57600080fd5b810190808051906020019092919050505090506113168161219f565b7fdcd0996d3d577b2bfba85ed0cc2aefd43b1411adbfdae36d639929867e48ff938282604051808381526020018281526020019250505060405180910390a15050505050505050565b60008060008060008060008090505b88518110156113e157600089828151811061138557fe5b60200260200101519050600089838151811061139d57fe5b602002602001015190506000806113b4848f6123ac565b91509150818b019a50808a0199506113cc8284611d54565b8901985050505050808060010191505061136e565b506113ec8486611d35565b925061140a61140384670a688906bd8b00006126d3565b600a611d35565b915060006114178a611e17565b90508281116114265780611428565b825b925061143486886126d3565b91505093975093979195509350565b6000735d05ea343c7a13cee09b14e56fcbe985c25521b7905090565b600073f5dce57282a584d2746faf1593d3121fcac444dc905090565b6000611485610c94565b905060608173ffffffffffffffffffffffffffffffffffffffff1663abfceffc306040518263ffffffff1660e01b8152600401808273ffffffffffffffffffffffffffffffffffffffff1673ffffffffffffffffffffffffffffffffffffffff16815260200191505060006040518083038186803b15801561150657600080fd5b505afa15801561151a573d6000803e3d6000fd5b505050506040513d6000823e3d601f19601f82011682018060405250602081101561154457600080fd5b810190808051604051939291908464010000000082111561156457600080fd5b8382019150602082018581111561157a57600080fd5b825186602082028301116401000000008211171561159757600080fd5b8083526020830192505050908051906020019060200280838360005b838110156115ce5780820151818401526020810190506115b3565b505050509050016040525050509050600080905060008090505b825181101561164a578473ffffffffffffffffffffffffffffffffffffffff1683828151811061161457fe5b602002602001015173ffffffffffffffffffffffffffffffffffffffff16141561163d57600191505b80806001019150506115e8565b508061183957606060016040519080825280602002602001820160405280156116825781602001602082028038833980820191505090505b509050848160008151811061169357fe5b602002602001019073ffffffffffffffffffffffffffffffffffffffff16908173ffffffffffffffffffffffffffffffffffffffff16815250508373ffffffffffffffffffffffffffffffffffffffff1663c2998238826040518263ffffffff1660e01b81526004018080602001828103825283818151815260200191508051906020019060200280838360005b8381101561173c578082015181840152602081019050611721565b5050505090500192505050600060405180830381600087803b15801561176157600080fd5b505af1158015611775573d6000803e3d6000fd5b505050506040513d6000823e3d601f19601f82011682018060405250602081101561179f57600080fd5b81019080805160405193929190846401000000008211156117bf57600080fd5b838201915060208201858111156117d557600080fd5b82518660208202830111640100000000821117156117f257600080fd5b8083526020830192505050908051906020019060200280838360005b8381101561182957808201518184015260208101905061180e565b5050505090500160405250505050505b50505050565b60008061184a610f4a565b73ffffffffffffffffffffffffffffffffffffffff1663fc57d4df61186d61145f565b6040518263ffffffff1660e01b8152600401808273ffffffffffffffffffffffffffffffffffffffff1673ffffffffffffffffffffffffffffffffffffffff16815260200191505060206040518083038186803b1580156118cd57600080fd5b505afa1580156118e1573d6000803e3d6000fd5b505050506040513d60208110156118f757600080fd5b8101908080519060200190929190505050905061191e61191784836126d3565b600a611d35565b915050919050565b600061193061145f565b73ffffffffffffffffffffffffffffffffffffffff1663c5ebeaec836040518263ffffffff1660e01b815260040180828152602001915050602060405180830381600087803b15801561198257600080fd5b505af1158015611996573d6000803e3d6000fd5b505050506040513d60208110156119ac57600080fd5b810190808051906020019092919050505014611a30576040517f08c379a000000000000000000000000000000000000000000000000000000000815260040180806020018281038252600f8152602001807f676f7420636f6c6c61746572616c3f000000000000000000000000000000000081525060200191505060405180910390fd5b7f9f31c249eb0814475f16a619e1fdf5e62f46db8cb233ff1b951adddcf7133b95611a596111e3565b611a6161145f565b8330604051808573ffffffffffffffffffffffffffffffffffffffff1673ffffffffffffffffffffffffffffffffffffffff1681526020018473ffffffffffffffffffffffffffffffffffffffff1673ffffffffffffffffffffffffffffffffffffffff1681526020018381526020018273ffffffffffffffffffffffffffffffffffffffff1673ffffffffffffffffffffffffffffffffffffffff16815260200194505050505060405180910390a150565b6000611b1e6111ff565b90508073ffffffffffffffffffffffffffffffffffffffff16631249c58b836040518263ffffffff1660e01b81526004016000604051808303818588803b158015611b6857600080fd5b505af1158015611b7c573d6000803e3d6000fd5b50505050507f252c64862cdd4fb87064b61720da12074c8fdddf7233c8d163c925c85072c42c611baa6111c7565b611bb26111ff565b8433604051808573ffffffffffffffffffffffffffffffffffffffff1673ffffffffffffffffffffffffffffffffffffffff1681526020018473ffffffffffffffffffffffffffffffffffffffff1673ffffffffffffffffffffffffffffffffffffffff1681526020018381526020018273ffffffffffffffffffffffffffffffffffffffff1673ffffffffffffffffffffffffffffffffffffffff16815260200194505050505060405180910390a15050565b600080611c7161145f565b90508073ffffffffffffffffffffffffffffffffffffffff166317bfdfbc846040518263ffffffff1660e01b8152600401808273ffffffffffffffffffffffffffffffffffffffff1673ffffffffffffffffffffffffffffffffffffffff168152602001915050602060405180830381600087803b158015611cf257600080fd5b505af1158015611d06573d6000803e3d6000fd5b505050506040513d6020811015611d1c57600080fd5b8101908080519060200190929190505050915050919050565b6000828284031115611d48576000611d4c565b8183035b905092915050565b6000670de0b6b3a7640000611d84611d6c858561270b565b6002670de0b6b3a764000081611d7e57fe5b04611d94565b81611d8b57fe5b04905092915050565b6000828284019150811015611e11576040517f08c379a000000000000000000000000000000000000000000000000000000000815260040180806020018281038252600d8152602001807f6d6174682d6e6f742d736166650000000000000000000000000000000000000081525060200191505060405180910390fd5b92915050565b600080611e226111ff565b90506000611ee88273ffffffffffffffffffffffffffffffffffffffff166370a08231866040518263ffffffff1660e01b8152600401808273ffffffffffffffffffffffffffffffffffffffff1673ffffffffffffffffffffffffffffffffffffffff16815260200191505060206040518083038186803b158015611ea657600080fd5b505afa158015611eba573d6000803e3d6000fd5b505050506040513d6020811015611ed057600080fd5b81019080805190602001909291905050506001611d35565b905060008273ffffffffffffffffffffffffffffffffffffffff1663bd6d894d6040518163ffffffff1660e01b8152600401602060405180830381600087803b158015611f3457600080fd5b505af1158015611f48573d6000803e3d6000fd5b505050506040513d6020811015611f5e57600080fd5b81019080805190602001909291905050509050611f7b8282611d54565b9350505050919050565b6000611f8f6111ff565b9050611fb7611f9c6111ff565b6c0c9f2c9cd04674edea40000000611fb26111ff565b6127a0565b60008173ffffffffffffffffffffffffffffffffffffffff1663852a12e3846040518263ffffffff1660e01b815260040180828152602001915050602060405180830381600087803b15801561200c57600080fd5b505af1158015612020573d6000803e3d6000fd5b505050506040513d602081101561203657600080fd5b8101908080519060200190929190505050146120ba576040517f08c379a00000000000000000000000000000000000000000000000000000000081526004018080602001828103825260148152602001807f736f6d657468696e672077656e742077726f6e6700000000000000000000000081525060200191505060405180910390fd5b7fd985ae7abab418a80621f7b292cdc98b964715f22de84b4f4c9183795b47d14b6120e36111c7565b6120eb6111ff565b8430604051808573ffffffffffffffffffffffffffffffffffffffff1673ffffffffffffffffffffffffffffffffffffffff1681526020018473ffffffffffffffffffffffffffffffffffffffff1673ffffffffffffffffffffffffffffffffffffffff1681526020018381526020018273ffffffffffffffffffffffffffffffffffffffff1673ffffffffffffffffffffffffffffffffffffffff16815260200194505050505060405180910390a15050565b60006121a961145f565b90506121c46121b66111e3565b836121bf61145f565b6127a0565b60008173ffffffffffffffffffffffffffffffffffffffff16630e752702846040518263ffffffff1660e01b815260040180828152602001915050602060405180830381600087803b15801561221957600080fd5b505af115801561222d573d6000803e3d6000fd5b505050506040513d602081101561224357600080fd5b8101908080519060200190929190505050146122c7576040517f08c379a00000000000000000000000000000000000000000000000000000000081526004018080602001828103825260128152602001807f7472616e7366657220617070726f7665643f000000000000000000000000000081525060200191505060405180910390fd5b7ff9c0c8ae7fcb0ae66722c0fd985dd186c5f04475693482e4836363ea60e00de26122f06111e3565b6122f861145f565b8430604051808573ffffffffffffffffffffffffffffffffffffffff1673ffffffffffffffffffffffffffffffffffffffff1681526020018473ffffffffffffffffffffffffffffffffffffffff1673ffffffffffffffffffffffffffffffffffffffff1681526020018381526020018273ffffffffffffffffffffffffffffffffffffffff1673ffffffffffffffffffffffffffffffffffffffff16815260200194505050505060405180910390a15050565b600080600084905060006123be610f4a565b73ffffffffffffffffffffffffffffffffffffffff1663fc57d4df876040518263ffffffff1660e01b8152600401808273ffffffffffffffffffffffffffffffffffffffff1673ffffffffffffffffffffffffffffffffffffffff16815260200191505060206040518083038186803b15801561243a57600080fd5b505afa15801561244e573d6000803e3d6000fd5b505050506040513d602081101561246457600080fd5b81019080805190602001909291905050509050600061253b8373ffffffffffffffffffffffffffffffffffffffff166370a08231886040518263ffffffff1660e01b8152600401808273ffffffffffffffffffffffffffffffffffffffff1673ffffffffffffffffffffffffffffffffffffffff16815260200191505060206040518083038186803b1580156124f957600080fd5b505afa15801561250d573d6000803e3d6000fd5b505050506040513d602081101561252357600080fd5b81019080805190602001909291905050506001611d35565b905060008373ffffffffffffffffffffffffffffffffffffffff1663bd6d894d6040518163ffffffff1660e01b8152600401602060405180830381600087803b15801561258757600080fd5b505af115801561259b573d6000803e3d6000fd5b505050506040513d60208110156125b157600080fd5b8101908080519060200190929190505050905060006125da6125d38484611d54565b6001611d35565b90506125f06125e98286611d54565b600a611d35565b965060008573ffffffffffffffffffffffffffffffffffffffff166317bfdfbc8a6040518263ffffffff1660e01b8152600401808273ffffffffffffffffffffffffffffffffffffffff1673ffffffffffffffffffffffffffffffffffffffff168152602001915050602060405180830381600087803b15801561267357600080fd5b505af1158015612687573d6000803e3d6000fd5b505050506040513d602081101561269d57600080fd5b810190808051906020019092919050505090506126c46126bd8287611d54565b600a611d94565b96505050505050509250929050565b6000816126fb6126eb85670de0b6b3a764000061270b565b600285816126f557fe5b04611d94565b8161270257fe5b04905092915050565b600080821480612728575082828385029250828161272557fe5b04145b61279a576040517f08c379a000000000000000000000000000000000000000000000000000000000815260040180806020018281038252600d8152602001807f6d6174682d6e6f742d736166650000000000000000000000000000000000000081525060200191505060405180910390fd5b92915050565b600083905060008173ffffffffffffffffffffffffffffffffffffffff1663dd62ed3e30856040518363ffffffff1660e01b8152600401808373ffffffffffffffffffffffffffffffffffffffff1673ffffffffffffffffffffffffffffffffffffffff1681526020018273ffffffffffffffffffffffffffffffffffffffff1673ffffffffffffffffffffffffffffffffffffffff1681526020019250505060206040518083038186803b15801561285857600080fd5b505afa15801561286c573d6000803e3d6000fd5b505050506040513d602081101561288257600080fd5b810190808051906020019092919050505090508084111561295d578173ffffffffffffffffffffffffffffffffffffffff1663095ea7b3847f80000000000000000000000000000000000000000000000000000000000000006040518363ffffffff1660e01b8152600401808373ffffffffffffffffffffffffffffffffffffffff1673ffffffffffffffffffffffffffffffffffffffff16815260200182815260200192505050600060405180830381600087803b15801561294457600080fd5b505af1158015612958573d6000803e3d6000fd5b505050505b505050505056fea265627a7a723158207da1f13b62821a40c55819fdc8d9a55ed3226185b022cce24daf42e8e2c9768964736f6c634300050b0032",
  "source": "pragma solidity ^0.5.7;\n\ninterface CTokenInterface {\n    function redeemUnderlying(uint redeemAmount) external returns (uint);\n    function borrow(uint borrowAmount) external returns (uint);\n    function exchangeRateCurrent() external returns (uint);\n    function borrowBalanceCurrent(address account) external returns (uint);\n\n    function totalSupply() external view returns (uint256);\n    function balanceOf(address owner) external view returns (uint256 balance);\n    function allowance(address, address) external view returns (uint);\n    function approve(address, uint) external;\n    function transfer(address, uint) external returns (bool);\n    function transferFrom(address, address, uint) external returns (bool);\n}\n\ninterface CERC20Interface {\n    function mint(uint mintAmount) external returns (uint); // For ERC20\n    function repayBorrow(uint repayAmount) external returns (uint); // For ERC20\n    function borrowBalanceCurrent(address account) external returns (uint);\n}\n\ninterface CETHInterface {\n    function mint() external payable; // For ETH\n    function repayBorrow() external payable; // For ETH\n    function borrowBalanceCurrent(address account) external returns (uint);\n}\n\ninterface ERC20Interface {\n    function allowance(address, address) external view returns (uint);\n    function balanceOf(address) external view returns (uint);\n    function approve(address, uint) external;\n    function transfer(address, uint) external returns (bool);\n    function transferFrom(address, address, uint) external returns (bool);\n}\n\ninterface ComptrollerInterface {\n    function enterMarkets(address[] calldata cTokens) external returns (uint[] memory);\n    function getAssetsIn(address account) external view returns (address[] memory);\n    function getAccountLiquidity(address account) external view returns (uint, uint, uint);\n}\n\ninterface CompOracleInterface {\n    function getUnderlyingPrice(address) external view returns (uint);\n}\n\ninterface SplitSwapInterface {\n    function getBest(address src, address dest, uint srcAmt) external view returns (uint bestExchange, uint destAmt);\n    function ethToDaiSwap(uint splitAmt, uint slippageAmt) external payable returns (uint destAmt);\n    function daiToEthSwap(uint srcAmt, uint splitAmt, uint slippageAmt) external returns (uint destAmt);\n}\n\n\ncontract DSMath {\n\n    function add(uint x, uint y) internal pure returns (uint z) {\n        require((z = x + y) >= x, \"math-not-safe\");\n    }\n\n    function sub(uint x, uint y) internal pure returns (uint z) {\n        z = x - y <= x ? x - y : 0;\n    }\n\n    function mul(uint x, uint y) internal pure returns (uint z) {\n        require(y == 0 || (z = x * y) / y == x, \"math-not-safe\");\n    }\n\n    uint constant WAD = 10 ** 18;\n\n    function wmul(uint x, uint y) internal pure returns (uint z) {\n        z = add(mul(x, y), WAD / 2) / WAD;\n    }\n\n    function wdiv(uint x, uint y) internal pure returns (uint z) {\n        z = add(mul(x, WAD), y / 2) / y;\n    }\n\n}\n\n\ncontract Helpers is DSMath {\n\n    /**\n     * @dev get ethereum address for trade\n     */\n    function getAddressETH() public pure returns (address eth) {\n        eth = 0xEeeeeEeeeEeEeeEeEeEeeEEEeeeeEeeeeeeeEEeE;\n    }\n\n    /**\n     * @dev get ethereum address for trade\n     */\n    function getAddressDAI() public pure returns (address dai) {\n        dai = 0x89d24A6b4CcB1B6fAA2625fE562bDD9a23260359;\n    }\n\n    /**\n     * @dev get Compound Comptroller Address\n     */\n    function getComptrollerAddress() public pure returns (address troller) {\n        troller = 0x3d9819210A31b4961b30EF54bE2aeD79B9c9Cd3B;\n    }\n\n    /**\n     * @dev get Compound Comptroller Address\n     */\n    function getCompOracleAddress() public pure returns (address troller) {\n        troller = 0xe7664229833AE4Abf4E269b8F23a86B657E2338D;\n    }\n\n    /**\n     * @dev get Compound Comptroller Address\n     */\n    function getCETHAddress() public pure returns (address cEth) {\n        cEth = 0x4Ddc2D193948926D02f9B1fE9e1daa0718270ED5;\n    }\n\n    /**\n     * @dev get Compound Comptroller Address\n     */\n    function getCDAIAddress() public pure returns (address cDai) {\n        cDai = 0xF5DCe57282A584D2746FaF1593d3121Fcac444dC;\n    }\n\n    /**\n     * @dev get admin address\n     */\n    function getAddressSplitSwap() public pure returns (address payable splitSwap) {\n        splitSwap = 0x5D05EA343C7a13cee09b14e56FCBe985c25521b7;\n    }\n\n    function enterMarket(address cErc20) internal {\n        ComptrollerInterface troller = ComptrollerInterface(getComptrollerAddress());\n        address[] memory markets = troller.getAssetsIn(address(this));\n        bool isEntered = false;\n        for (uint i = 0; i < markets.length; i++) {\n            if (markets[i] == cErc20) {\n                isEntered = true;\n            }\n        }\n        if (!isEntered) {\n            address[] memory toEnter = new address[](1);\n            toEnter[0] = cErc20;\n            troller.enterMarkets(toEnter);\n        }\n    }\n\n    /**\n     * @dev setting allowance to compound for the \"user proxy\" if required\n     */\n    function setApproval(address erc20, uint srcAmt, address to) internal {\n        ERC20Interface erc20Contract = ERC20Interface(erc20);\n        uint tokenAllowance = erc20Contract.allowance(address(this), to);\n        if (srcAmt > tokenAllowance) {\n            erc20Contract.approve(to, 2**255);\n        }\n    }\n\n}\n\n\ncontract CompoundHelper is Helpers {\n\n    /**\n     * @dev get users overall details for Compound\n     */\n    function getCompStats(\n        address user,\n        address[] memory cTokenAddr,\n        uint[] memory cTokenFactor\n    ) public returns (uint totalSupply, uint totalBorrow, uint maxBorrow, uint borrowRemain, uint maxWithdraw, uint ratio)\n    {\n        for (uint i = 0; i < cTokenAddr.length; i++) {\n            address cTokenAdd = cTokenAddr[i];\n            uint factor = cTokenFactor[i];\n            (uint supplyInEth, uint borrowInEth) = compSupplyBorrow(cTokenAdd, user);\n            totalSupply += supplyInEth;\n            totalBorrow += borrowInEth;\n            maxBorrow += wmul(supplyInEth, factor);\n        }\n        borrowRemain = sub(maxBorrow, totalBorrow);\n        maxWithdraw = sub(wdiv(borrowRemain, 750000000000000000), 10); // divide it by 0.75 (ETH Factor)\n        uint userEthSupply = getEthSupply(user);\n        maxWithdraw = userEthSupply > maxWithdraw ? maxWithdraw : userEthSupply;\n        ratio = wdiv(totalBorrow, totalSupply);\n    }\n\n    /**\n     * @dev get user's token supply and borrow in ETH\n     */\n    function compSupplyBorrow(address cTokenAdd, address user) internal returns(uint supplyInEth, uint borrowInEth) {\n        CTokenInterface cTokenContract = CTokenInterface(cTokenAdd);\n        uint tokenPriceInEth = CompOracleInterface(getCompOracleAddress()).getUnderlyingPrice(cTokenAdd);\n        uint cTokenBal = sub(cTokenContract.balanceOf(user), 1);\n        uint cTokenExchangeRate = cTokenContract.exchangeRateCurrent();\n        uint tokenSupply = sub(wmul(cTokenBal, cTokenExchangeRate), 1);\n        supplyInEth = sub(wmul(tokenSupply, tokenPriceInEth), 10);\n        uint tokenBorrowed = cTokenContract.borrowBalanceCurrent(user);\n        borrowInEth = add(wmul(tokenBorrowed, tokenPriceInEth), 10);\n    }\n\n    function getEthSupply(address user) internal returns (uint ethSupply) {\n        CTokenInterface cTokenContract = CTokenInterface(getCETHAddress());\n        uint cTokenBal = sub(cTokenContract.balanceOf(user), 1);\n        uint cTokenExchangeRate = cTokenContract.exchangeRateCurrent();\n        ethSupply = wmul(cTokenBal, cTokenExchangeRate);\n    }\n\n    function daiBorrowed(address user) internal returns (uint daiAmt) {\n        CTokenInterface cTokenContract = CTokenInterface(getCDAIAddress());\n        daiAmt = cTokenContract.borrowBalanceCurrent(user);\n    }\n\n    function getDaiRemainBorrow(uint daiInEth) internal view returns (uint daiAmt) {\n        uint tokenPriceInEth = CompOracleInterface(getCompOracleAddress()).getUnderlyingPrice(getCDAIAddress());\n        daiAmt = sub(wdiv(daiInEth, tokenPriceInEth), 10);\n    }\n\n}\n\n\ncontract CompoundResolver is CompoundHelper {\n\n    event LogMint(address erc20, address cErc20, uint tokenAmt, address owner);\n    event LogRedeem(address erc20, address cErc20, uint tokenAmt, address owner);\n    event LogBorrow(address erc20, address cErc20, uint tokenAmt, address owner);\n    event LogRepay(address erc20, address cErc20, uint tokenAmt, address owner);\n\n    function getSave(\n        address user,\n        uint ethToFree,\n        address[] memory cTokenAddr,\n        uint[] memory ctokenFactor\n    ) public returns (uint finalColInEth, uint finalDebtInEth, uint daiDebt, bool isOk)\n    {\n        (uint totalSupply, uint totalBorrow,,,uint maxWithdraw,) = getCompStats(user, cTokenAddr, ctokenFactor);\n        uint ethToSwap = ethToFree < maxWithdraw ? ethToFree : maxWithdraw;\n        (, uint expectedDAI) = SplitSwapInterface(getAddressSplitSwap()).getBest(getAddressETH(), getAddressDAI(), ethToSwap);\n        uint daiBorrowed = daiBorrowed(user);\n        uint daiInEth = CompOracleInterface(getCompOracleAddress()).getUnderlyingPrice(getCDAIAddress());\n        if (daiBorrowed < expectedDAI) {\n            finalColInEth = sub(totalSupply, ethToSwap);\n            finalDebtInEth = sub(totalBorrow, wmul(daiBorrowed, daiInEth));\n            daiDebt = 0;\n            isOk = false;\n        } else {\n            finalColInEth = sub(totalSupply, ethToSwap);\n            finalDebtInEth = sub(totalBorrow, wmul(expectedDAI, daiInEth));\n            daiDebt = sub(daiBorrowed, expectedDAI);\n            isOk = true;\n        }\n    }\n\n    function getLeverage(\n        address user,\n        uint daiToBorrow,\n        address[] memory cTokenAddr,\n        uint[] memory ctokenFactor\n    ) public returns (uint finalColInEth, uint finalDebtInEth, uint ethCol)\n    {\n        (uint totalSupply, uint totalBorrow,, uint borrowRemain,,) = getCompStats(user, cTokenAddr, ctokenFactor);\n        uint daiToSwap = getDaiRemainBorrow(borrowRemain);\n        daiToSwap = daiToSwap < daiToBorrow ? daiToSwap : daiToBorrow;\n        (, uint expectedETH) = SplitSwapInterface(getAddressSplitSwap()).getBest(getAddressDAI(), getAddressETH(), daiToSwap);\n        uint daiInEth = CompOracleInterface(getCompOracleAddress()).getUnderlyingPrice(getCDAIAddress());\n        finalColInEth = add(totalSupply, expectedETH);\n        finalDebtInEth = add(totalBorrow, wmul(daiToSwap, daiInEth));\n        ethCol = add(getEthSupply(user), expectedETH);\n    }\n\n    /**\n     * @dev Deposit ETH/ERC20 and mint Compound Tokens\n     */\n    function mintCEth(uint tokenAmt) internal {\n        CETHInterface cToken = CETHInterface(getCETHAddress());\n        cToken.mint.value(tokenAmt)();\n        emit LogMint(\n            getAddressETH(),\n            getCETHAddress(),\n            tokenAmt,\n            msg.sender\n        );\n    }\n\n    /**\n     * @dev Redeem ETH/ERC20 and mint Compound Tokens\n     * @param tokenAmt Amount of token To Redeem\n     */\n    function redeemEth(uint tokenAmt) internal {\n        CTokenInterface cToken = CTokenInterface(getCETHAddress());\n        setApproval(getCETHAddress(), 10**30, getCETHAddress());\n        require(cToken.redeemUnderlying(tokenAmt) == 0, \"something went wrong\");\n        emit LogRedeem(\n            getAddressETH(),\n            getCETHAddress(),\n            tokenAmt,\n            address(this)\n        );\n    }\n\n    /**\n     * @dev borrow ETH/ERC20\n     */\n    function borrow(uint tokenAmt) internal {\n        require(CTokenInterface(getCDAIAddress()).borrow(tokenAmt) == 0, \"got collateral?\");\n        emit LogBorrow(\n            getAddressDAI(),\n            getCDAIAddress(),\n            tokenAmt,\n            address(this)\n        );\n    }\n\n    /**\n     * @dev Pay Debt ETH/ERC20\n     */\n    function repayDai(uint tokenAmt) internal {\n        CERC20Interface cToken = CERC20Interface(getCDAIAddress());\n        setApproval(getAddressDAI(), tokenAmt, getCDAIAddress());\n        require(cToken.repayBorrow(tokenAmt) == 0, \"transfer approved?\");\n        emit LogRepay(\n            getAddressDAI(),\n            getCDAIAddress(),\n            tokenAmt,\n            address(this)\n        );\n    }\n\n}\n\n\ncontract CompoundSave is CompoundResolver {\n\n    event LogSaveCompound(uint srcETH, uint destDAI);\n\n    event LogLeverageCompound(uint srcDAI,uint destETH);\n\n    function save(\n        uint ethToFree,\n        address[] memory ctokenAddr,\n        uint[] memory ctokenFactor,\n        uint splitAmt,\n        uint slippageAmt\n    ) public\n    {\n        enterMarket(getCETHAddress());\n        enterMarket(getCDAIAddress());\n        (,,,,uint maxWithdraw,) = getCompStats(address(this), ctokenAddr, ctokenFactor);\n        uint ethToSwap = ethToFree < maxWithdraw ? ethToFree : maxWithdraw;\n        redeemEth(ethToSwap);\n        uint destAmt = SplitSwapInterface(getAddressSplitSwap()).ethToDaiSwap.value(ethToSwap)(splitAmt, slippageAmt);\n        repayDai(destAmt);\n        emit LogSaveCompound(ethToSwap, destAmt);\n    }\n\n    function leverage(\n        uint daiToBorrow,\n        address[] memory cTokenAddr,\n        uint[] memory ctokenFactor,\n        uint splitAmt,\n        uint slippageAmt\n    ) public\n    {\n        enterMarket(getCETHAddress());\n        enterMarket(getCDAIAddress());\n        (,,,uint borrowRemain,,) = getCompStats(address(this), cTokenAddr, ctokenFactor);\n        uint daiToSwap = getDaiRemainBorrow(borrowRemain);\n        daiToSwap = daiToSwap < daiToBorrow ? daiToSwap : daiToBorrow;\n        borrow(daiToSwap);\n        ERC20Interface(getAddressDAI()).approve(getAddressSplitSwap(), daiToSwap);\n        uint destAmt = SplitSwapInterface(getAddressSplitSwap()).daiToEthSwap(daiToSwap, splitAmt, slippageAmt);\n        mintCEth(destAmt);\n        emit LogLeverageCompound(daiToSwap, destAmt);\n    }\n\n}\n\n\ncontract InstaCompSave is CompoundSave {\n\n    function() external payable {}\n\n}",
  "sourcePath": "/Users/pierrick/Documents/04-OSS/08-Graph/02-InstaDApp/contract-v2/contracts/ProxyLogics/InstaCompSave.sol",
  "compiler": {
    "name": "solc",
    "version": "0.5.11+commit.c082d0b4.Emscripten.clang"
  },
  "schemaVersion": "3.0.16",
  "updatedAt": "2019-09-23T08:40:15.442Z",
  "devdoc": {
    "methods": {
      "getAddressDAI()": {
        "details": "get ethereum address for trade"
      },
      "getAddressETH()": {
        "details": "get ethereum address for trade"
      },
      "getAddressSplitSwap()": {
        "details": "get admin address"
      },
      "getCDAIAddress()": {
        "details": "get Compound Comptroller Address"
      },
      "getCETHAddress()": {
        "details": "get Compound Comptroller Address"
      },
      "getCompOracleAddress()": {
        "details": "get Compound Comptroller Address"
      },
      "getCompStats(address,address[],uint256[])": {
        "details": "get users overall details for Compound"
      },
      "getComptrollerAddress()": {
        "details": "get Compound Comptroller Address"
      }
    }
  },
  "userdoc": {
    "methods": {}
  }
}