{
  "contractName": "Eth2DaiWrapper",
  "abi": [
    {
      "constant": true,
      "inputs": [],
      "name": "WETH_ADDRESS",
      "outputs": [
        {
          "internalType": "address",
          "name": "",
          "type": "address"
        }
      ],
      "payable": false,
      "stateMutability": "view",
      "type": "function"
    },
    {
      "constant": true,
      "inputs": [],
      "name": "KYBER_ETH_ADDRESS",
      "outputs": [
        {
          "internalType": "address",
          "name": "",
          "type": "address"
        }
      ],
      "payable": false,
      "stateMutability": "view",
      "type": "function"
    },
    {
      "constant": true,
      "inputs": [],
      "name": "OTC_ADDRESS",
      "outputs": [
        {
          "internalType": "address",
          "name": "",
          "type": "address"
        }
      ],
      "payable": false,
      "stateMutability": "view",
      "type": "function"
    },
    {
      "payable": true,
      "stateMutability": "payable",
      "type": "fallback"
    },
    {
      "constant": false,
      "inputs": [
        {
          "internalType": "uint256",
          "name": "_ethAmount",
          "type": "uint256"
        },
        {
          "internalType": "address",
          "name": "_tokenAddress",
          "type": "address"
        },
        {
          "internalType": "uint256",
          "name": "_maxAmount",
          "type": "uint256"
        }
      ],
      "name": "swapEtherToToken",
      "outputs": [
        {
          "internalType": "uint256",
          "name": "",
          "type": "uint256"
        },
        {
          "internalType": "uint256",
          "name": "",
          "type": "uint256"
        }
      ],
      "payable": true,
      "stateMutability": "payable",
      "type": "function"
    },
    {
      "constant": false,
      "inputs": [
        {
          "internalType": "address",
          "name": "_tokenAddress",
          "type": "address"
        },
        {
          "internalType": "uint256",
          "name": "_amount",
          "type": "uint256"
        },
        {
          "internalType": "uint256",
          "name": "_maxAmount",
          "type": "uint256"
        }
      ],
      "name": "swapTokenToEther",
      "outputs": [
        {
          "internalType": "uint256",
          "name": "",
          "type": "uint256"
        }
      ],
      "payable": false,
      "stateMutability": "nonpayable",
      "type": "function"
    },
    {
      "constant": false,
      "inputs": [
        {
          "internalType": "address",
          "name": "_src",
          "type": "address"
        },
        {
          "internalType": "address",
          "name": "_dest",
          "type": "address"
        },
        {
          "internalType": "uint256",
          "name": "_srcQty",
          "type": "uint256"
        }
      ],
      "name": "getExpectedRate",
      "outputs": [
        {
          "internalType": "uint256",
          "name": "",
          "type": "uint256"
        },
        {
          "internalType": "uint256",
          "name": "",
          "type": "uint256"
        }
      ],
      "payable": false,
      "stateMutability": "nonpayable",
      "type": "function"
    }
  ],
  "bytecode": "0x608060405234801561001057600080fd5b50610d34806100206000396000f3fe6080604052600436106100655760003560e01c80633bba21dc116100435780633bba21dc1461016c57806343ac1dc6146101e5578063809a9e551461025857610065565b8063040141e51461006757806329f7fc9e146100be5780632a441f0514610115575b005b34801561007357600080fd5b5061007c6102ee565b604051808273ffffffffffffffffffffffffffffffffffffffff1673ffffffffffffffffffffffffffffffffffffffff16815260200191505060405180910390f35b3480156100ca57600080fd5b506100d3610306565b604051808273ffffffffffffffffffffffffffffffffffffffff1673ffffffffffffffffffffffffffffffffffffffff16815260200191505060405180910390f35b34801561012157600080fd5b5061012a61031e565b604051808273ffffffffffffffffffffffffffffffffffffffff1673ffffffffffffffffffffffffffffffffffffffff16815260200191505060405180910390f35b34801561017857600080fd5b506101cf6004803603606081101561018f57600080fd5b81019080803573ffffffffffffffffffffffffffffffffffffffff1690602001909291908035906020019092919080359060200190929190505050610336565b6040518082815260200191505060405180910390f35b61023b600480360360608110156101fb57600080fd5b8101908080359060200190929190803573ffffffffffffffffffffffffffffffffffffffff16906020019092919080359060200190929190505050610613565b604051808381526020018281526020019250505060405180910390f35b34801561026457600080fd5b506102d16004803603606081101561027b57600080fd5b81019080803573ffffffffffffffffffffffffffffffffffffffff169060200190929190803573ffffffffffffffffffffffffffffffffffffffff1690602001909291908035906020019092919050505061097f565b604051808381526020018281526020019250505060405180910390f35b73c02aaa39b223fe8d0a0e5c4f27ead9083c756cc281565b73eeeeeeeeeeeeeeeeeeeeeeeeeeeeeeeeeeeeeeee81565b7339755357759ce0d7f32dc8dc45414cca409ae24e81565b60008373ffffffffffffffffffffffffffffffffffffffff1663095ea7b37339755357759ce0d7f32dc8dc45414cca409ae24e856040518363ffffffff1660e01b8152600401808373ffffffffffffffffffffffffffffffffffffffff1673ffffffffffffffffffffffffffffffffffffffff16815260200182815260200192505050602060405180830381600087803b1580156103d357600080fd5b505af11580156103e7573d6000803e3d6000fd5b505050506040513d60208110156103fd57600080fd5b810190808051906020019092919050505061041757600080fd5b60007339755357759ce0d7f32dc8dc45414cca409ae24e73ffffffffffffffffffffffffffffffffffffffff16630621b4f6868673c02aaa39b223fe8d0a0e5c4f27ead9083c756cc260006040518563ffffffff1660e01b8152600401808573ffffffffffffffffffffffffffffffffffffffff1673ffffffffffffffffffffffffffffffffffffffff1681526020018481526020018373ffffffffffffffffffffffffffffffffffffffff1673ffffffffffffffffffffffffffffffffffffffff168152602001828152602001945050505050602060405180830381600087803b15801561050557600080fd5b505af1158015610519573d6000803e3d6000fd5b505050506040513d602081101561052f57600080fd5b8101908080519060200190929190505050905073c02aaa39b223fe8d0a0e5c4f27ead9083c756cc273ffffffffffffffffffffffffffffffffffffffff16632e1a7d4d826040518263ffffffff1660e01b815260040180828152602001915050600060405180830381600087803b1580156105a957600080fd5b505af11580156105bd573d6000803e3d6000fd5b505050503373ffffffffffffffffffffffffffffffffffffffff166108fc829081150290604051600060405180830381858888f19350505050158015610607573d6000803e3d6000fd5b50809150509392505050565b60008073c02aaa39b223fe8d0a0e5c4f27ead9083c756cc273ffffffffffffffffffffffffffffffffffffffff1663095ea7b37339755357759ce0d7f32dc8dc45414cca409ae24e876040518363ffffffff1660e01b8152600401808373ffffffffffffffffffffffffffffffffffffffff1673ffffffffffffffffffffffffffffffffffffffff16815260200182815260200192505050602060405180830381600087803b1580156106c557600080fd5b505af11580156106d9573d6000803e3d6000fd5b505050506040513d60208110156106ef57600080fd5b810190808051906020019092919050505061070957600080fd5b73c02aaa39b223fe8d0a0e5c4f27ead9083c756cc273ffffffffffffffffffffffffffffffffffffffff1663d0e30db0866040518263ffffffff1660e01b81526004016000604051808303818588803b15801561076557600080fd5b505af1158015610779573d6000803e3d6000fd5b505050505060007339755357759ce0d7f32dc8dc45414cca409ae24e73ffffffffffffffffffffffffffffffffffffffff16630621b4f673c02aaa39b223fe8d0a0e5c4f27ead9083c756cc2888860006040518563ffffffff1660e01b8152600401808573ffffffffffffffffffffffffffffffffffffffff1673ffffffffffffffffffffffffffffffffffffffff1681526020018481526020018373ffffffffffffffffffffffffffffffffffffffff1673ffffffffffffffffffffffffffffffffffffffff168152602001828152602001945050505050602060405180830381600087803b15801561086c57600080fd5b505af1158015610880573d6000803e3d6000fd5b505050506040513d602081101561089657600080fd5b810190808051906020019092919050505090508473ffffffffffffffffffffffffffffffffffffffff1663a9059cbb33836040518363ffffffff1660e01b8152600401808373ffffffffffffffffffffffffffffffffffffffff1673ffffffffffffffffffffffffffffffffffffffff16815260200182815260200192505050602060405180830381600087803b15801561093057600080fd5b505af1158015610944573d6000803e3d6000fd5b505050506040513d602081101561095a57600080fd5b8101908080519060200190929190505050508060008090509250925050935093915050565b60008073eeeeeeeeeeeeeeeeeeeeeeeeeeeeeeeeeeeeeeee73ffffffffffffffffffffffffffffffffffffffff168573ffffffffffffffffffffffffffffffffffffffff161415610afd57610aef7339755357759ce0d7f32dc8dc45414cca409ae24e73ffffffffffffffffffffffffffffffffffffffff1663144a27528673c02aaa39b223fe8d0a0e5c4f27ead9083c756cc2876040518463ffffffff1660e01b8152600401808473ffffffffffffffffffffffffffffffffffffffff1673ffffffffffffffffffffffffffffffffffffffff1681526020018373ffffffffffffffffffffffffffffffffffffffff1673ffffffffffffffffffffffffffffffffffffffff168152602001828152602001935050505060206040518083038186803b158015610aae57600080fd5b505afa158015610ac2573d6000803e3d6000fd5b505050506040513d6020811015610ad857600080fd5b810190808051906020019092919050505084610c81565b600080905091509150610c79565b73eeeeeeeeeeeeeeeeeeeeeeeeeeeeeeeeeeeeeeee73ffffffffffffffffffffffffffffffffffffffff168473ffffffffffffffffffffffffffffffffffffffff161415610c7857610c6a7339755357759ce0d7f32dc8dc45414cca409ae24e73ffffffffffffffffffffffffffffffffffffffff1663144a275273c02aaa39b223fe8d0a0e5c4f27ead9083c756cc288876040518463ffffffff1660e01b8152600401808473ffffffffffffffffffffffffffffffffffffffff1673ffffffffffffffffffffffffffffffffffffffff1681526020018373ffffffffffffffffffffffffffffffffffffffff1673ffffffffffffffffffffffffffffffffffffffff168152602001828152602001935050505060206040518083038186803b158015610c2957600080fd5b505afa158015610c3d573d6000803e3d6000fd5b505050506040513d6020811015610c5357600080fd5b810190808051906020019092919050505084610c81565b600080905091509150610c79565b5b935093915050565b600081610ca9610c9985670de0b6b3a7640000610cb9565b60028581610ca357fe5b04610ce5565b81610cb057fe5b04905092915050565b600080821480610cd65750828283850292508281610cd357fe5b04145b610cdf57600080fd5b92915050565b6000828284019150811015610cf957600080fd5b9291505056fea265627a7a723158202a9a029dd3e45fba1893fafb599ef31cef2b0541e7a7b93e9adcfbacdd1f292964736f6c634300050b0032",
  "source": "/**\n *Submitted for verification at Etherscan.io on 2019-06-19\n*/\n\npragma solidity ^0.5.7;\n\n\ninterface ERC20 {\n    function totalSupply() external view returns (uint supply);\n    function balanceOf(address _owner) external view returns (uint balance);\n    function transfer(address _to, uint _value) external returns (bool success);\n    function transferFrom(address _from, address _to, uint _value) external returns (bool success);\n    function approve(address _spender, uint _value) external returns (bool success);\n    function allowance(address _owner, address _spender) external view returns (uint remaining);\n    function decimals() external view returns(uint digits);\n    function allocateTo(address recipient, uint256 value) external;\n    event Approval(address indexed _owner, address indexed _spender, uint _value);\n}\n\n\ncontract KyberNetworkProxyInterface {\n    function maxGasPrice() external view returns(uint);\n    function getUserCapInWei(address user) external view returns(uint);\n    function getUserCapInTokenWei(address user, ERC20 token) external view returns(uint);\n    function enabled() external view returns(bool);\n    function info(bytes32 id) external view returns(uint);\n\n    function getExpectedRate(ERC20 src, ERC20 dest, uint srcQty) public\n        returns (uint expectedRate, uint slippageRate);\n\n    function tradeWithHint(ERC20 src, uint srcAmount, ERC20 dest, address destAddress, uint maxDestAmount,\n        uint minConversionRate, address walletId, bytes memory hint) public payable returns(uint);\n\n    function trade(ERC20 src, uint srcAmount, ERC20 dest, address destAddress, uint maxDestAmount,\n        uint minConversionRate, address walletId) public payable returns(uint);\n\n    function swapEtherToToken(ERC20 token, uint minConversionRate) external payable returns(uint);\n    function swapTokenToEther(ERC20 token, uint tokenQty, uint minRate) external payable returns(uint);\n    function swapTokenToToken(ERC20 src, uint srcAmount, ERC20 dest, uint minConversionRate) public returns(uint);\n}\n\ninterface ExchangeInterface {\n    function swapEtherToToken (uint _ethAmount, address _tokenAddress, uint _maxAmount) payable external returns(uint, uint);\n    function swapTokenToEther (address _tokenAddress, uint _amount, uint _maxAmount) external returns(uint);\n\n    function getExpectedRate(address src, address dest, uint srcQty) external\n        returns (uint expectedRate, uint slippageRate);\n}\n\ncontract Eth2DaiInterface {\n    function getBuyAmount(ERC20 tokenToBuy, ERC20 tokenToPay, uint256 amountToPay) external view returns(uint256 amountBought);\n\tfunction getPayAmount(ERC20 tokenToPay, ERC20 tokenToBuy, uint amountToBuy) public view returns (uint amountPaid);\n\n\tfunction sellAllAmount(ERC20 pay_gem, uint pay_amt, ERC20 buy_gem, uint min_fill_amount) public returns (uint fill_amt);\n\tfunction buyAllAmount(ERC20 buy_gem, uint buy_amt, ERC20 pay_gem, uint max_fill_amount) public returns (uint fill_amt);\n}\n\ncontract TokenInterface {\n    function allowance(address, address) public returns (uint);\n    function balanceOf(address) public returns (uint);\n    function approve(address, uint) public;\n    function transfer(address, uint) public returns (bool);\n    function transferFrom(address, address, uint) public returns (bool);\n    function deposit() public payable;\n    function withdraw(uint) public;\n}\n\ncontract DSMath {\n    function add(uint x, uint y) internal pure returns (uint z) {\n        require((z = x + y) >= x);\n    }\n    function sub(uint x, uint y) internal pure returns (uint z) {\n        require((z = x - y) <= x);\n    }\n    function mul(uint x, uint y) internal pure returns (uint z) {\n        require(y == 0 || (z = x * y) / y == x);\n    }\n\n    function min(uint x, uint y) internal pure returns (uint z) {\n        return x <= y ? x : y;\n    }\n    function max(uint x, uint y) internal pure returns (uint z) {\n        return x >= y ? x : y;\n    }\n    function imin(int x, int y) internal pure returns (int z) {\n        return x <= y ? x : y;\n    }\n    function imax(int x, int y) internal pure returns (int z) {\n        return x >= y ? x : y;\n    }\n\n    uint constant WAD = 10 ** 18;\n    uint constant RAY = 10 ** 27;\n\n    function wmul(uint x, uint y) internal pure returns (uint z) {\n        z = add(mul(x, y), WAD / 2) / WAD;\n    }\n    function rmul(uint x, uint y) internal pure returns (uint z) {\n        z = add(mul(x, y), RAY / 2) / RAY;\n    }\n    function wdiv(uint x, uint y) internal pure returns (uint z) {\n        z = add(mul(x, WAD), y / 2) / y;\n    }\n    function rdiv(uint x, uint y) internal pure returns (uint z) {\n        z = add(mul(x, RAY), y / 2) / y;\n    }\n\n    // This famous algorithm is called \"exponentiation by squaring\"\n    // and calculates x^n with x as fixed-point and n as regular unsigned.\n    //\n    // It's O(log n), instead of O(n) for naive repeated multiplication.\n    //\n    // These facts are why it works:\n    //\n    //  If n is even, then x^n = (x^2)^(n/2).\n    //  If n is odd,  then x^n = x * x^(n-1),\n    //   and applying the equation for even x gives\n    //    x^n = x * (x^2)^((n-1) / 2).\n    //\n    //  Also, EVM division is flooring and\n    //    floor[(n-1) / 2] = floor[n / 2].\n    //\n    function rpow(uint x, uint n) internal pure returns (uint z) {\n        z = n % 2 != 0 ? x : RAY;\n\n        for (n /= 2; n != 0; n /= 2) {\n            x = rmul(x, x);\n\n            if (n % 2 != 0) {\n                z = rmul(z, x);\n            }\n        }\n    }\n}\n\ncontract Eth2DaiWrapper is ExchangeInterface, DSMath {\n\n    address public constant KYBER_ETH_ADDRESS = 0xEeeeeEeeeEeEeeEeEeEeeEEEeeeeEeeeeeeeEEeE;\n\n    // Kovan\n    // address public constant OTC_ADDRESS = 0x4A6bC4e803c62081ffEbCc8d227B5a87a58f1F8F;\n    // address public constant WETH_ADDRESS = 0xd0A1E359811322d97991E03f863a0C30C2cF029C;\n    \n    // Mainnet\n    address public constant OTC_ADDRESS = 0x39755357759cE0d7f32dC8dC45414CCa409AE24e;\n    address public constant WETH_ADDRESS = 0xC02aaA39b223FE8D0A0e5C4F27eAD9083C756Cc2;\n\n    function swapEtherToToken (uint _ethAmount, address _tokenAddress, uint _maxAmount) external payable returns(uint, uint) {\n        require(ERC20(WETH_ADDRESS).approve(OTC_ADDRESS, _ethAmount));\n        TokenInterface(WETH_ADDRESS).deposit.value(_ethAmount)();\n\n        uint daiBought = Eth2DaiInterface(OTC_ADDRESS).sellAllAmount(ERC20(WETH_ADDRESS), _ethAmount,\n                 ERC20(_tokenAddress), 0);\n\n        ERC20(_tokenAddress).transfer(msg.sender, daiBought);\n\n        return (daiBought, 0);\n    }\n    \n    function swapTokenToEther (address _tokenAddress, uint _amount, uint _maxAmount) external returns(uint) {\n        require(ERC20(_tokenAddress).approve(OTC_ADDRESS, _amount));\n\n        uint ethBought = Eth2DaiInterface(OTC_ADDRESS).sellAllAmount(ERC20(_tokenAddress), _amount,\n         ERC20(WETH_ADDRESS), 0);\n\n        TokenInterface(WETH_ADDRESS).withdraw(ethBought);\n\n        msg.sender.transfer(ethBought);\n\n        return ethBought;\n    }\n\n    function getExpectedRate(address _src, address _dest, uint _srcQty) public returns (uint, uint) {\n        if(_src == KYBER_ETH_ADDRESS) {\n            return (wdiv(Eth2DaiInterface(OTC_ADDRESS).getBuyAmount(ERC20(_dest), ERC20(WETH_ADDRESS), _srcQty), _srcQty), 0);\n        } else if (_dest == KYBER_ETH_ADDRESS) {\n            return (wdiv(Eth2DaiInterface(OTC_ADDRESS).getBuyAmount(ERC20(WETH_ADDRESS), ERC20(_src), _srcQty), _srcQty), 0);\n        }\n    }\n\n    function() payable external {\n    }\n}",
  "sourcePath": "/Users/pierrick/Documents/04-OSS/08-Graph/02-InstaDApp/contract-v2/contracts/Bin/savetry.sol",
  "compiler": {
    "name": "solc",
    "version": "0.5.11+commit.c082d0b4.Emscripten.clang"
  },
  "schemaVersion": "3.0.16",
  "updatedAt": "2019-09-15T00:52:15.882Z",
  "devdoc": {
    "methods": {}
  },
  "userdoc": {
    "methods": {}
  }
}