{
  "contractName": "FreeProxy",
  "abi": [
    {
      "constant": true,
      "inputs": [],
      "name": "getSaiTubAddress",
      "outputs": [
        {
          "internalType": "address",
          "name": "sai",
          "type": "address"
        }
      ],
      "payable": false,
      "stateMutability": "pure",
      "type": "function"
    },
    {
      "constant": true,
      "inputs": [],
      "name": "getAddressWETH",
      "outputs": [
        {
          "internalType": "address",
          "name": "weth",
          "type": "address"
        }
      ],
      "payable": false,
      "stateMutability": "pure",
      "type": "function"
    },
    {
      "constant": false,
      "inputs": [
        {
          "internalType": "uint256",
          "name": "wamt",
          "type": "uint256"
        }
      ],
      "name": "freeWETH",
      "outputs": [],
      "payable": false,
      "stateMutability": "nonpayable",
      "type": "function"
    },
    {
      "constant": false,
      "inputs": [],
      "name": "withdrawWETH",
      "outputs": [],
      "payable": false,
      "stateMutability": "nonpayable",
      "type": "function"
    },
    {
      "constant": true,
      "inputs": [],
      "name": "getWETHBal",
      "outputs": [
        {
          "internalType": "uint256",
          "name": "freeJam",
          "type": "uint256"
        }
      ],
      "payable": false,
      "stateMutability": "view",
      "type": "function"
    },
    {
      "constant": true,
      "inputs": [],
      "name": "getSaiWETH",
      "outputs": [
        {
          "internalType": "address",
          "name": "",
          "type": "address"
        }
      ],
      "payable": false,
      "stateMutability": "view",
      "type": "function"
    }
  ],
  "bytecode": "0x608060405234801561001057600080fd5b50610824806100206000396000f3fe608060405234801561001057600080fd5b50600436106100725760003560e01c80634f985c3f116100505780634f985c3f146100e957806375da028914610133578063f1d9a1501461016157610072565b806313097b4b14610077578063269df589146100c15780634c02f62e146100df575b600080fd5b61007f6101ab565b604051808273ffffffffffffffffffffffffffffffffffffffff1673ffffffffffffffffffffffffffffffffffffffff16815260200191505060405180910390f35b6100c96101c7565b6040518082815260200191505060405180910390f35b6100e7610318565b005b6100f161052d565b604051808273ffffffffffffffffffffffffffffffffffffffff1673ffffffffffffffffffffffffffffffffffffffff16815260200191505060405180910390f35b61015f6004803603602081101561014957600080fd5b81019080803590602001909291905050506105c1565b005b6101696107d3565b604051808273ffffffffffffffffffffffffffffffffffffffff1673ffffffffffffffffffffffffffffffffffffffff16815260200191505060405180910390f35b600073c02aaa39b223fe8d0a0e5c4f27ead9083c756cc2905090565b6000806101d26107d3565b905060008173ffffffffffffffffffffffffffffffffffffffff16637bd2bea76040518163ffffffff1660e01b815260040160206040518083038186803b15801561021c57600080fd5b505afa158015610230573d6000803e3d6000fd5b505050506040513d602081101561024657600080fd5b810190808051906020019092919050505090508073ffffffffffffffffffffffffffffffffffffffff166370a08231306040518263ffffffff1660e01b8152600401808273ffffffffffffffffffffffffffffffffffffffff1673ffffffffffffffffffffffffffffffffffffffff16815260200191505060206040518083038186803b1580156102d657600080fd5b505afa1580156102ea573d6000803e3d6000fd5b505050506040513d602081101561030057600080fd5b81019080805190602001909291905050509250505090565b60006103226107d3565b905060008173ffffffffffffffffffffffffffffffffffffffff16637bd2bea76040518163ffffffff1660e01b815260040160206040518083038186803b15801561036c57600080fd5b505afa158015610380573d6000803e3d6000fd5b505050506040513d602081101561039657600080fd5b8101908080519060200190929190505050905060008173ffffffffffffffffffffffffffffffffffffffff166370a08231306040518263ffffffff1660e01b8152600401808273ffffffffffffffffffffffffffffffffffffffff1673ffffffffffffffffffffffffffffffffffffffff16815260200191505060206040518083038186803b15801561042857600080fd5b505afa15801561043c573d6000803e3d6000fd5b505050506040513d602081101561045257600080fd5b810190808051906020019092919050505090508173ffffffffffffffffffffffffffffffffffffffff1663a9059cbb33836040518363ffffffff1660e01b8152600401808373ffffffffffffffffffffffffffffffffffffffff1673ffffffffffffffffffffffffffffffffffffffff16815260200182815260200192505050602060405180830381600087803b1580156104ec57600080fd5b505af1158015610500573d6000803e3d6000fd5b505050506040513d602081101561051657600080fd5b810190808051906020019092919050505050505050565b6000806105386107d3565b90508073ffffffffffffffffffffffffffffffffffffffff16637bd2bea76040518163ffffffff1660e01b815260040160206040518083038186803b15801561058057600080fd5b505afa158015610594573d6000803e3d6000fd5b505050506040513d60208110156105aa57600080fd5b810190808051906020019092919050505091505090565b60006105cb6107d3565b905060008173ffffffffffffffffffffffffffffffffffffffff16637bd2bea76040518163ffffffff1660e01b815260040160206040518083038186803b15801561061557600080fd5b505afa158015610629573d6000803e3d6000fd5b505050506040513d602081101561063f57600080fd5b810190808051906020019092919050505090506000839050600081141561071b578173ffffffffffffffffffffffffffffffffffffffff166370a08231306040518263ffffffff1660e01b8152600401808273ffffffffffffffffffffffffffffffffffffffff1673ffffffffffffffffffffffffffffffffffffffff16815260200191505060206040518083038186803b1580156106dd57600080fd5b505afa1580156106f1573d6000803e3d6000fd5b505050506040513d602081101561070757600080fd5b810190808051906020019092919050505090505b8173ffffffffffffffffffffffffffffffffffffffff16632e1a7d4d826040518263ffffffff1660e01b815260040180828152602001915050600060405180830381600087803b15801561076e57600080fd5b505af1158015610782573d6000803e3d6000fd5b505050503373ffffffffffffffffffffffffffffffffffffffff166108fc829081150290604051600060405180830381858888f193505050501580156107cc573d6000803e3d6000fd5b5050505050565b600073448a5065aebb8e423f0896e6c5d525c040f59af390509056fea265627a7a72315820ef5a5fa374d309c310695b1bd7200a0d1e68de0a9af254e5866747c1aca9897364736f6c634300050b0032",
  "source": "pragma solidity ^0.5.2;\n\n\ninterface TubInterface {\n    function gem() external view returns (TokenInterface);\n}\n\n\ninterface TokenInterface {\n    function allowance(address, address) external view returns (uint);\n    function balanceOf(address) external view returns (uint);\n    function transfer(address, uint) external returns (bool);\n    function approve(address, uint) external;\n    function withdraw(uint) external;\n}\n\n\ncontract FreeProxy {\n\n    function getSaiTubAddress() public pure returns (address sai) {\n        sai = 0x448a5065aeBB8E423F0896E6c5D525C040f59af3;\n    }\n\n    function getAddressWETH() public pure returns (address weth) {\n        weth = 0xC02aaA39b223FE8D0A0e5C4F27eAD9083C756Cc2;\n    }\n\n    function freeWETH(uint wamt) public {\n        TubInterface tub = TubInterface(getSaiTubAddress());\n        TokenInterface weth = tub.gem();\n\n        uint freeJam = wamt;\n        if (freeJam == 0) {\n            freeJam = weth.balanceOf(address(this));\n        }\n\n        weth.withdraw(freeJam);\n        msg.sender.transfer(freeJam);\n    }\n\n    function withdrawWETH() public {\n        TubInterface tub = TubInterface(getSaiTubAddress());\n        TokenInterface weth = tub.gem();\n        uint freeJam = weth.balanceOf(address(this));\n        weth.transfer(msg.sender, freeJam);\n    }\n\n    function getWETHBal() public view returns (uint freeJam) {\n        TubInterface tub = TubInterface(getSaiTubAddress());\n        TokenInterface weth = tub.gem();\n        freeJam = weth.balanceOf(address(this));\n    }\n\n    function getSaiWETH() public view returns (address) {\n        TubInterface tub = TubInterface(getSaiTubAddress());\n        return address(tub.gem());\n    }\n\n    function setAllowance(TokenInterface token_, address spender_) private {\n        if (token_.allowance(address(this), spender_) != uint(-1)) {\n            token_.approve(spender_, uint(-1));\n        }\n    }\n\n}",
  "sourcePath": "/Users/pierrick/Documents/04-OSS/08-Graph/02-InstaDApp/contract-v2/contracts/Bin/FreeProxy.sol",
  "compiler": {
    "name": "solc",
    "version": "0.5.11+commit.c082d0b4.Emscripten.clang"
  },
  "schemaVersion": "3.0.16",
  "updatedAt": "2019-09-15T00:52:14.903Z",
  "devdoc": {
    "methods": {}
  },
  "userdoc": {
    "methods": {}
  }
}