{
  "contractName": "InstaMaker",
  "abi": [
    {
      "constant": false,
      "inputs": [
        {
          "internalType": "uint256",
          "name": "cdpNum",
          "type": "uint256"
        },
        {
          "internalType": "uint256",
          "name": "jam",
          "type": "uint256"
        }
      ],
      "name": "free",
      "outputs": [],
      "payable": false,
      "stateMutability": "nonpayable",
      "type": "function"
    },
    {
      "constant": false,
      "inputs": [
        {
          "internalType": "uint256",
          "name": "cdpNum",
          "type": "uint256"
        },
        {
          "internalType": "uint256",
          "name": "_wad",
          "type": "uint256"
        },
        {
          "internalType": "address",
          "name": "to",
          "type": "address"
        }
      ],
      "name": "drawSend",
      "outputs": [],
      "payable": false,
      "stateMutability": "nonpayable",
      "type": "function"
    },
    {
      "constant": false,
      "inputs": [],
      "name": "openAndLock",
      "outputs": [
        {
          "internalType": "uint256",
          "name": "cdpNum",
          "type": "uint256"
        }
      ],
      "payable": true,
      "stateMutability": "payable",
      "type": "function"
    },
    {
      "constant": true,
      "inputs": [],
      "name": "version",
      "outputs": [
        {
          "internalType": "uint256",
          "name": "",
          "type": "uint256"
        }
      ],
      "payable": false,
      "stateMutability": "view",
      "type": "function"
    },
    {
      "constant": true,
      "inputs": [
        {
          "internalType": "uint256",
          "name": "cdpNum",
          "type": "uint256"
        }
      ],
      "name": "getCDPBytes",
      "outputs": [
        {
          "internalType": "bytes32",
          "name": "cup",
          "type": "bytes32"
        }
      ],
      "payable": false,
      "stateMutability": "pure",
      "type": "function"
    },
    {
      "constant": true,
      "inputs": [],
      "name": "getUniswapMKRExchange",
      "outputs": [
        {
          "internalType": "address",
          "name": "ume",
          "type": "address"
        }
      ],
      "payable": false,
      "stateMutability": "pure",
      "type": "function"
    },
    {
      "constant": false,
      "inputs": [
        {
          "internalType": "uint256",
          "name": "cdpNum",
          "type": "uint256"
        },
        {
          "internalType": "uint256",
          "name": "_wad",
          "type": "uint256"
        }
      ],
      "name": "draw",
      "outputs": [],
      "payable": false,
      "stateMutability": "nonpayable",
      "type": "function"
    },
    {
      "constant": false,
      "inputs": [
        {
          "internalType": "uint256",
          "name": "cdpNum",
          "type": "uint256"
        },
        {
          "internalType": "uint256",
          "name": "_wad",
          "type": "uint256"
        }
      ],
      "name": "wipe",
      "outputs": [],
      "payable": false,
      "stateMutability": "nonpayable",
      "type": "function"
    },
    {
      "constant": true,
      "inputs": [],
      "name": "getUniswapDAIExchange",
      "outputs": [
        {
          "internalType": "address",
          "name": "ude",
          "type": "address"
        }
      ],
      "payable": false,
      "stateMutability": "pure",
      "type": "function"
    },
    {
      "constant": false,
      "inputs": [
        {
          "internalType": "uint256",
          "name": "cdpNum",
          "type": "uint256"
        }
      ],
      "name": "shut",
      "outputs": [],
      "payable": false,
      "stateMutability": "nonpayable",
      "type": "function"
    },
    {
      "constant": false,
      "inputs": [
        {
          "internalType": "uint256",
          "name": "cdpNum",
          "type": "uint256"
        }
      ],
      "name": "lock",
      "outputs": [],
      "payable": true,
      "stateMutability": "payable",
      "type": "function"
    },
    {
      "constant": false,
      "inputs": [
        {
          "internalType": "uint256",
          "name": "cdpNum",
          "type": "uint256"
        },
        {
          "internalType": "uint256",
          "name": "jam",
          "type": "uint256"
        },
        {
          "internalType": "uint256",
          "name": "_wad",
          "type": "uint256"
        }
      ],
      "name": "wipeAndFree",
      "outputs": [],
      "payable": true,
      "stateMutability": "payable",
      "type": "function"
    },
    {
      "constant": true,
      "inputs": [],
      "name": "getSaiTubAddress",
      "outputs": [
        {
          "internalType": "address",
          "name": "sai",
          "type": "address"
        }
      ],
      "payable": false,
      "stateMutability": "pure",
      "type": "function"
    },
    {
      "constant": false,
      "inputs": [
        {
          "internalType": "uint256",
          "name": "cdpNum",
          "type": "uint256"
        },
        {
          "internalType": "address",
          "name": "nextOwner",
          "type": "address"
        }
      ],
      "name": "give",
      "outputs": [],
      "payable": false,
      "stateMutability": "nonpayable",
      "type": "function"
    },
    {
      "constant": false,
      "inputs": [],
      "name": "open",
      "outputs": [
        {
          "internalType": "uint256",
          "name": "",
          "type": "uint256"
        }
      ],
      "payable": false,
      "stateMutability": "nonpayable",
      "type": "function"
    },
    {
      "inputs": [
        {
          "internalType": "uint256",
          "name": "_version",
          "type": "uint256"
        }
      ],
      "payable": false,
      "stateMutability": "nonpayable",
      "type": "constructor"
    },
    {
      "payable": true,
      "stateMutability": "payable",
      "type": "fallback"
    },
    {
      "anonymous": false,
      "inputs": [
        {
          "indexed": false,
          "internalType": "uint256",
          "name": "cdpNum",
          "type": "uint256"
        },
        {
          "indexed": false,
          "internalType": "address",
          "name": "owner",
          "type": "address"
        }
      ],
      "name": "LogOpen",
      "type": "event"
    },
    {
      "anonymous": false,
      "inputs": [
        {
          "indexed": false,
          "internalType": "uint256",
          "name": "cdpNum",
          "type": "uint256"
        },
        {
          "indexed": false,
          "internalType": "address",
          "name": "owner",
          "type": "address"
        },
        {
          "indexed": false,
          "internalType": "address",
          "name": "nextOwner",
          "type": "address"
        }
      ],
      "name": "LogGive",
      "type": "event"
    },
    {
      "anonymous": false,
      "inputs": [
        {
          "indexed": false,
          "internalType": "uint256",
          "name": "cdpNum",
          "type": "uint256"
        },
        {
          "indexed": false,
          "internalType": "uint256",
          "name": "amtETH",
          "type": "uint256"
        },
        {
          "indexed": false,
          "internalType": "uint256",
          "name": "amtPETH",
          "type": "uint256"
        },
        {
          "indexed": false,
          "internalType": "address",
          "name": "owner",
          "type": "address"
        }
      ],
      "name": "LogLock",
      "type": "event"
    },
    {
      "anonymous": false,
      "inputs": [
        {
          "indexed": false,
          "internalType": "uint256",
          "name": "cdpNum",
          "type": "uint256"
        },
        {
          "indexed": false,
          "internalType": "uint256",
          "name": "amtETH",
          "type": "uint256"
        },
        {
          "indexed": false,
          "internalType": "uint256",
          "name": "amtPETH",
          "type": "uint256"
        },
        {
          "indexed": false,
          "internalType": "address",
          "name": "owner",
          "type": "address"
        }
      ],
      "name": "LogFree",
      "type": "event"
    },
    {
      "anonymous": false,
      "inputs": [
        {
          "indexed": false,
          "internalType": "uint256",
          "name": "cdpNum",
          "type": "uint256"
        },
        {
          "indexed": false,
          "internalType": "uint256",
          "name": "amtDAI",
          "type": "uint256"
        },
        {
          "indexed": false,
          "internalType": "address",
          "name": "owner",
          "type": "address"
        }
      ],
      "name": "LogDraw",
      "type": "event"
    },
    {
      "anonymous": false,
      "inputs": [
        {
          "indexed": false,
          "internalType": "uint256",
          "name": "cdpNum",
          "type": "uint256"
        },
        {
          "indexed": false,
          "internalType": "uint256",
          "name": "amtDAI",
          "type": "uint256"
        },
        {
          "indexed": false,
          "internalType": "address",
          "name": "to",
          "type": "address"
        }
      ],
      "name": "LogDrawSend",
      "type": "event"
    },
    {
      "anonymous": false,
      "inputs": [
        {
          "indexed": false,
          "internalType": "uint256",
          "name": "cdpNum",
          "type": "uint256"
        },
        {
          "indexed": false,
          "internalType": "uint256",
          "name": "daiAmt",
          "type": "uint256"
        },
        {
          "indexed": false,
          "internalType": "uint256",
          "name": "mkrFee",
          "type": "uint256"
        },
        {
          "indexed": false,
          "internalType": "uint256",
          "name": "daiFee",
          "type": "uint256"
        },
        {
          "indexed": false,
          "internalType": "address",
          "name": "owner",
          "type": "address"
        }
      ],
      "name": "LogWipe",
      "type": "event"
    },
    {
      "anonymous": false,
      "inputs": [
        {
          "indexed": false,
          "internalType": "uint256",
          "name": "cdpNum",
          "type": "uint256"
        }
      ],
      "name": "LogShut",
      "type": "event"
    }
  ],
  "bytecode": "0x608060405234801561001057600080fd5b5060405161288b38038061288b8339818101604052602081101561003357600080fd5b810190808051906020019092919050505080600081905550506128308061005b6000396000f3fe6080604052600436106100e85760003560e01c8063d7bb5e0e1161008a578063ea16a20211610059578063ea16a202146103cd578063f1d9a1501461040f578063fcafcc6814610466578063fcfff16f146104c1576100e8565b8063d7bb5e0e146102c8578063db5a5d991461030d578063db5b5a8a14610364578063dd4670641461039f576100e8565b806354fd4d50116100c657806354fd4d50146101b257806373435d12146101dd57806394c4a1241461022c578063d2b8035a14610283576100e8565b806308185f93146100ea5780633e1e5cd91461012f578063442bef3014610194575b005b3480156100f657600080fd5b5061012d6004803603604081101561010d57600080fd5b8101908080359060200190929190803590602001909291905050506104ec565b005b34801561013b57600080fd5b506101926004803603606081101561015257600080fd5b810190808035906020019092919080359060200190929190803573ffffffffffffffffffffffffffffffffffffffff169060200190929190505050610a21565b005b61019c610d85565b6040518082815260200191505060405180910390f35b3480156101be57600080fd5b506101c7610d9d565b6040518082815260200191505060405180910390f35b3480156101e957600080fd5b506102166004803603602081101561020057600080fd5b8101908080359060200190929190505050610da3565b6040518082815260200191505060405180910390f35b34801561023857600080fd5b50610241610db0565b604051808273ffffffffffffffffffffffffffffffffffffffff1673ffffffffffffffffffffffffffffffffffffffff16815260200191505060405180910390f35b34801561028f57600080fd5b506102c6600480360360408110156102a657600080fd5b810190808035906020019092919080359060200190929190505050610dcc565b005b3480156102d457600080fd5b5061030b600480360360408110156102eb57600080fd5b810190808035906020019092919080359060200190929190505050611019565b005b34801561031957600080fd5b506103226119c3565b604051808273ffffffffffffffffffffffffffffffffffffffff1673ffffffffffffffffffffffffffffffffffffffff16815260200191505060405180910390f35b34801561037057600080fd5b5061039d6004803603602081101561038757600080fd5b81019080803590602001909291905050506119df565b005b6103cb600480360360208110156103b557600080fd5b8101908080359060200190929190505050611c46565b005b61040d600480360360608110156103e357600080fd5b810190808035906020019092919080359060200190929190803590602001909291905050506121c9565b005b34801561041b57600080fd5b506104246121e2565b604051808273ffffffffffffffffffffffffffffffffffffffff1673ffffffffffffffffffffffffffffffffffffffff16815260200191505060405180910390f35b34801561047257600080fd5b506104bf6004803603604081101561048957600080fd5b8101908080359060200190929190803573ffffffffffffffffffffffffffffffffffffffff1690602001909291905050506121fe565b005b3480156104cd57600080fd5b506104d661234a565b6040518082815260200191505060405180910390f35b6000811115610a1d5760008260001b905060006105076121e2565b9050600081905060008173ffffffffffffffffffffffffffffffffffffffff16630f8a771e6040518163ffffffff1660e01b815260040160206040518083038186803b15801561055657600080fd5b505afa15801561056a573d6000803e3d6000fd5b505050506040513d602081101561058057600080fd5b8101908080519060200190929190505050905060008273ffffffffffffffffffffffffffffffffffffffff16637bd2bea76040518163ffffffff1660e01b815260040160206040518083038186803b1580156105db57600080fd5b505afa1580156105ef573d6000803e3d6000fd5b505050506040513d602081101561060557600080fd5b8101908080519060200190929190505050905060006106a4878573ffffffffffffffffffffffffffffffffffffffff16637ec9c3b86040518163ffffffff1660e01b815260040160206040518083038186803b15801561066457600080fd5b505afa158015610678573d6000803e3d6000fd5b505050506040513d602081101561068e57600080fd5b8101908080519060200190929190505050612451565b905086610731828673ffffffffffffffffffffffffffffffffffffffff16637ec9c3b86040518163ffffffff1660e01b815260040160206040518083038186803b1580156106f157600080fd5b505afa158015610705573d6000803e3d6000fd5b505050506040513d602081101561071b57600080fd5b810190808051906020019092919050505061248d565b11156107405760018103610742565b805b90508373ffffffffffffffffffffffffffffffffffffffff1663a5cd184e87836040518363ffffffff1660e01b81526004018083815260200182815260200192505050600060405180830381600087803b15801561079f57600080fd5b505af11580156107b3573d6000803e3d6000fd5b505050506107c183866124d5565b8373ffffffffffffffffffffffffffffffffffffffff16637f8661a1826040518263ffffffff1660e01b815260040180828152602001915050600060405180830381600087803b15801561081457600080fd5b505af1158015610828573d6000803e3d6000fd5b5050505060008273ffffffffffffffffffffffffffffffffffffffff166370a08231306040518263ffffffff1660e01b8152600401808273ffffffffffffffffffffffffffffffffffffffff1673ffffffffffffffffffffffffffffffffffffffff16815260200191505060206040518083038186803b1580156108ab57600080fd5b505afa1580156108bf573d6000803e3d6000fd5b505050506040513d60208110156108d557600080fd5b810190808051906020019092919050505090508273ffffffffffffffffffffffffffffffffffffffff16632e1a7d4d826040518263ffffffff1660e01b815260040180828152602001915050600060405180830381600087803b15801561093b57600080fd5b505af115801561094f573d6000803e3d6000fd5b505050503373ffffffffffffffffffffffffffffffffffffffff166108fc829081150290604051600060405180830381858888f19350505050158015610999573d6000803e3d6000fd5b507fbc364e2c948b1a58aa818f1d663cbf625acb9d3e827d8ba7661ee805ae63506089828430604051808581526020018481526020018381526020018273ffffffffffffffffffffffffffffffffffffffff1673ffffffffffffffffffffffffffffffffffffffff16815260200194505050505060405180910390a1505050505050505b5050565b600073ffffffffffffffffffffffffffffffffffffffff168173ffffffffffffffffffffffffffffffffffffffff161415610ac4576040517f08c379a00000000000000000000000000000000000000000000000000000000081526004018080602001828103825260118152602001807f616464726573732d6e6f742d76616c696400000000000000000000000000000081525060200191505060405180910390fd5b60008360001b90506000831115610d7f576000610adf6121e2565b90508073ffffffffffffffffffffffffffffffffffffffff1663440f19ba83866040518363ffffffff1660e01b81526004018083815260200182815260200192505050600060405180830381600087803b158015610b3c57600080fd5b505af1158015610b50573d6000803e3d6000fd5b505050508073ffffffffffffffffffffffffffffffffffffffff16639166cba46040518163ffffffff1660e01b815260040160206040518083038186803b158015610b9a57600080fd5b505afa158015610bae573d6000803e3d6000fd5b505050506040513d6020811015610bc457600080fd5b810190808051906020019092919050505073ffffffffffffffffffffffffffffffffffffffff1663a9059cbb84866040518363ffffffff1660e01b8152600401808373ffffffffffffffffffffffffffffffffffffffff1673ffffffffffffffffffffffffffffffffffffffff16815260200182815260200192505050602060405180830381600087803b158015610c5b57600080fd5b505af1158015610c6f573d6000803e3d6000fd5b505050506040513d6020811015610c8557600080fd5b8101908080519060200190929190505050507f2552409de7c93ad237013bdc31f6351559f2d50c8b43d20b83fc75639a55e431858530604051808481526020018381526020018273ffffffffffffffffffffffffffffffffffffffff1673ffffffffffffffffffffffffffffffffffffffff168152602001935050505060405180910390a17fd51a9891791249d5659b14c7156ba5c155bd0838af90a6b44f4db87109367109858585604051808481526020018381526020018273ffffffffffffffffffffffffffffffffffffffff1673ffffffffffffffffffffffffffffffffffffffff168152602001935050505060405180910390a1505b50505050565b6000610d8f61234a565b9050610d9a81611c46565b90565b60005481565b60008160001b9050919050565b6000732c4bd064b998838076fa341a83d007fc2fa50957905090565b60008260001b90506000821115611014576000610de76121e2565b90508073ffffffffffffffffffffffffffffffffffffffff1663440f19ba83856040518363ffffffff1660e01b81526004018083815260200182815260200192505050600060405180830381600087803b158015610e4457600080fd5b505af1158015610e58573d6000803e3d6000fd5b505050508073ffffffffffffffffffffffffffffffffffffffff16639166cba46040518163ffffffff1660e01b815260040160206040518083038186803b158015610ea257600080fd5b505afa158015610eb6573d6000803e3d6000fd5b505050506040513d6020811015610ecc57600080fd5b810190808051906020019092919050505073ffffffffffffffffffffffffffffffffffffffff1663a9059cbb33856040518363ffffffff1660e01b8152600401808373ffffffffffffffffffffffffffffffffffffffff1673ffffffffffffffffffffffffffffffffffffffff16815260200182815260200192505050602060405180830381600087803b158015610f6357600080fd5b505af1158015610f77573d6000803e3d6000fd5b505050506040513d6020811015610f8d57600080fd5b8101908080519060200190929190505050507f2552409de7c93ad237013bdc31f6351559f2d50c8b43d20b83fc75639a55e431848430604051808481526020018381526020018273ffffffffffffffffffffffffffffffffffffffff1673ffffffffffffffffffffffffffffffffffffffff168152602001935050505060405180910390a1505b505050565b60008111156119bf57600061102c6121e2565b905060006110386119c3565b90506000611044610db0565b905060008373ffffffffffffffffffffffffffffffffffffffff16639166cba46040518163ffffffff1660e01b815260040160206040518083038186803b15801561108e57600080fd5b505afa1580156110a2573d6000803e3d6000fd5b505050506040513d60208110156110b857600080fd5b8101908080519060200190929190505050905060008473ffffffffffffffffffffffffffffffffffffffff166312d43a516040518163ffffffff1660e01b815260040160206040518083038186803b15801561111357600080fd5b505afa158015611127573d6000803e3d6000fd5b505050506040513d602081101561113d57600080fd5b8101908080519060200190929190505050905060008760001b905060008673ffffffffffffffffffffffffffffffffffffffff1663fdac0025836040518263ffffffff1660e01b81526004018082815260200191505060806040518083038186803b1580156111ab57600080fd5b505afa1580156111bf573d6000803e3d6000fd5b505050506040513d60808110156111d557600080fd5b810190808051906020019092919080519060200190929190805190602001909291908051906020019092919050505050505090503073ffffffffffffffffffffffffffffffffffffffff168173ffffffffffffffffffffffffffffffffffffffff16146112aa576040517f08c379a000000000000000000000000000000000000000000000000000000000815260040180806020018281038252600d8152602001807f6375702d6e6f742d6f776e65640000000000000000000000000000000000000081525060200191505060405180910390fd5b6112bb846112b66121e2565b6124d5565b6112cc836112c76121e2565b6124d5565b6112dd846112d86119c3565b6124d5565b6000808873ffffffffffffffffffffffffffffffffffffffff1663ace237f56040518163ffffffff1660e01b815260040160206040518083038186803b15801561132657600080fd5b505afa15801561133a573d6000803e3d6000fd5b505050506040513d602081101561135057600080fd5b810190808051906020019092919050505073ffffffffffffffffffffffffffffffffffffffff166359e02dd76040518163ffffffff1660e01b81526004016040805180830381600087803b1580156113a757600080fd5b505af11580156113bb573d6000803e3d6000fd5b505050506040513d60408110156113d157600080fd5b81019080805190602001909291908051906020019092919050505091509150600061152b6115228c61151d8d73ffffffffffffffffffffffffffffffffffffffff16636f78ee0d8a6040518263ffffffff1660e01b815260040180828152602001915050602060405180830381600087803b15801561144f57600080fd5b505af1158015611463573d6000803e3d6000fd5b505050506040513d602081101561147957600080fd5b81019080805190602001909291905050508e73ffffffffffffffffffffffffffffffffffffffff1663f7c8d6348b6040518263ffffffff1660e01b815260040180828152602001915050602060405180830381600087803b1580156114dd57600080fd5b505af11580156114f1573d6000803e3d6000fd5b505050506040513d602081101561150757600080fd5b8101908080519060200190929190505050612451565b61248d565b8460001c6126ab565b905060008973ffffffffffffffffffffffffffffffffffffffff16632640f62c8a73ffffffffffffffffffffffffffffffffffffffff166359e94862856040518263ffffffff1660e01b81526004018082815260200191505060206040518083038186803b15801561159c57600080fd5b505afa1580156115b0573d6000803e3d6000fd5b505050506040513d60208110156115c657600080fd5b81019080805190602001909291905050506040518263ffffffff1660e01b81526004018082815260200191505060206040518083038186803b15801561160b57600080fd5b505afa15801561161f573d6000803e3d6000fd5b505050506040513d602081101561163557600080fd5b8101908080519060200190929190505050905060006116548d836126e3565b90508873ffffffffffffffffffffffffffffffffffffffff166323b872dd3330846040518463ffffffff1660e01b8152600401808473ffffffffffffffffffffffffffffffffffffffff1673ffffffffffffffffffffffffffffffffffffffff1681526020018373ffffffffffffffffffffffffffffffffffffffff1673ffffffffffffffffffffffffffffffffffffffff1681526020018281526020019350505050602060405180830381600087803b15801561171157600080fd5b505af1158015611725573d6000803e3d6000fd5b505050506040513d602081101561173b57600080fd5b81019080805190602001909291905050506117be576040517f08c379a00000000000000000000000000000000000000000000000000000000081526004018080602001828103825260108152602001807f6e6f742d617070726f7665642d7965740000000000000000000000000000000081525060200191505060405180910390fd5b8380156117ce57506000801b8514155b156118bc578a73ffffffffffffffffffffffffffffffffffffffff1663b040d5458483683627e8f712373c00006371316a018d6040518663ffffffff1660e01b8152600401808681526020018581526020018481526020018381526020018273ffffffffffffffffffffffffffffffffffffffff1673ffffffffffffffffffffffffffffffffffffffff16815260200195505050505050602060405180830381600087803b15801561187f57600080fd5b505af1158015611893573d6000803e3d6000fd5b505050506040513d60208110156118a957600080fd5b8101908080519060200190929190505050505b8b73ffffffffffffffffffffffffffffffffffffffff166373b38101888f6040518363ffffffff1660e01b81526004018083815260200182815260200192505050600060405180830381600087803b15801561191757600080fd5b505af115801561192b573d6000803e3d6000fd5b505050507fc61fae64789cde417503f7bd67082d71c8379712017e446877dd1c26b1bf4c9c8e82858530604051808681526020018581526020018481526020018381526020018273ffffffffffffffffffffffffffffffffffffffff1673ffffffffffffffffffffffffffffffffffffffff1681526020019550505050505060405180910390a15050505050505050505050505b5050565b60007309cabec1ead1c0ba254b09efb3ee13841712be14905090565b60008160001b905060006119f16121e2565b9050611b9f83611b0c8373ffffffffffffffffffffffffffffffffffffffff16631f3634ed866040518263ffffffff1660e01b81526004018082815260200191505060206040518083038186803b158015611a4b57600080fd5b505afa158015611a5f573d6000803e3d6000fd5b505050506040513d6020811015611a7557600080fd5b81019080805190602001909291905050508473ffffffffffffffffffffffffffffffffffffffff16637ec9c3b86040518163ffffffff1660e01b815260040160206040518083038186803b158015611acc57600080fd5b505afa158015611ae0573d6000803e3d6000fd5b505050506040513d6020811015611af657600080fd5b810190808051906020019092919050505061248d565b8373ffffffffffffffffffffffffffffffffffffffff1663f7c8d634866040518263ffffffff1660e01b815260040180828152602001915050602060405180830381600087803b158015611b5f57600080fd5b505af1158015611b73573d6000803e3d6000fd5b505050506040513d6020811015611b8957600080fd5b81019080805190602001909291905050506121c9565b8073ffffffffffffffffffffffffffffffffffffffff1663b84d2106836040518263ffffffff1660e01b815260040180828152602001915050600060405180830381600087803b158015611bf257600080fd5b505af1158015611c06573d6000803e3d6000fd5b505050507f22e614250cc19ad2d607fbb456feb025b28699e8b854e7f1417f4a59395bd66c836040518082815260200191505060405180910390a1505050565b60003411156121c65760008160001b90506000611c616121e2565b9050600081905060008173ffffffffffffffffffffffffffffffffffffffff16637bd2bea76040518163ffffffff1660e01b815260040160206040518083038186803b158015611cb057600080fd5b505afa158015611cc4573d6000803e3d6000fd5b505050506040513d6020811015611cda57600080fd5b8101908080519060200190929190505050905060008273ffffffffffffffffffffffffffffffffffffffff16630f8a771e6040518163ffffffff1660e01b815260040160206040518083038186803b158015611d3557600080fd5b505afa158015611d49573d6000803e3d6000fd5b505050506040513d6020811015611d5f57600080fd5b8101908080519060200190929190505050905060008373ffffffffffffffffffffffffffffffffffffffff1663fdac0025876040518263ffffffff1660e01b81526004018082815260200191505060806040518083038186803b158015611dc557600080fd5b505afa158015611dd9573d6000803e3d6000fd5b505050506040513d6080811015611def57600080fd5b810190808051906020019092919080519060200190929190805190602001909291908051906020019092919050505050505090503073ffffffffffffffffffffffffffffffffffffffff168173ffffffffffffffffffffffffffffffffffffffff1614611ec4576040517f08c379a000000000000000000000000000000000000000000000000000000000815260040180806020018281038252600d8152602001807f6375702d6e6f742d6f776e65640000000000000000000000000000000000000081525060200191505060405180910390fd5b8273ffffffffffffffffffffffffffffffffffffffff1663d0e30db0346040518263ffffffff1660e01b81526004016000604051808303818588803b158015611f0c57600080fd5b505af1158015611f20573d6000803e3d6000fd5b50505050506000611fb1348673ffffffffffffffffffffffffffffffffffffffff16637ec9c3b86040518163ffffffff1660e01b815260040160206040518083038186803b158015611f7157600080fd5b505afa158015611f85573d6000803e3d6000fd5b505050506040513d6020811015611f9b57600080fd5b8101908080519060200190929190505050612451565b90503461203e828773ffffffffffffffffffffffffffffffffffffffff16637ec9c3b86040518163ffffffff1660e01b815260040160206040518083038186803b158015611ffe57600080fd5b505afa158015612012573d6000803e3d6000fd5b505050506040513d602081101561202857600080fd5b810190808051906020019092919050505061248d565b111561204d576001810361204f565b805b905061205b84876124d5565b8473ffffffffffffffffffffffffffffffffffffffff1663049878f3826040518263ffffffff1660e01b815260040180828152602001915050600060405180830381600087803b1580156120ae57600080fd5b505af11580156120c2573d6000803e3d6000fd5b505050506120d083876124d5565b8473ffffffffffffffffffffffffffffffffffffffff1663b3b77a5188836040518363ffffffff1660e01b81526004018083815260200182815260200192505050600060405180830381600087803b15801561212b57600080fd5b505af115801561213f573d6000803e3d6000fd5b505050507fa66947e0e444664290dad9ea8bdc946a0662a93c04cc0db7dc993a19319d39ed88348330604051808581526020018481526020018381526020018273ffffffffffffffffffffffffffffffffffffffff1673ffffffffffffffffffffffffffffffffffffffff16815260200194505050505060405180910390a1505050505050505b50565b6121d38382611019565b6121dd83836104ec565b505050565b600073448a5065aebb8e423f0896e6c5d525c040f59af3905090565b6122066121e2565b73ffffffffffffffffffffffffffffffffffffffff1663baa8529c8360001b836040518363ffffffff1660e01b8152600401808381526020018273ffffffffffffffffffffffffffffffffffffffff1673ffffffffffffffffffffffffffffffffffffffff16815260200192505050600060405180830381600087803b15801561228f57600080fd5b505af11580156122a3573d6000803e3d6000fd5b505050507f24ed171098cf7528ab3224b2dd4b27eb396bcd8ac689df02cb865b4ffb4a73cc823083604051808481526020018373ffffffffffffffffffffffffffffffffffffffff1673ffffffffffffffffffffffffffffffffffffffff1681526020018273ffffffffffffffffffffffffffffffffffffffff1673ffffffffffffffffffffffffffffffffffffffff168152602001935050505060405180910390a15050565b6000806123556121e2565b73ffffffffffffffffffffffffffffffffffffffff1663fcfff16f6040518163ffffffff1660e01b8152600401602060405180830381600087803b15801561239c57600080fd5b505af11580156123b0573d6000803e3d6000fd5b505050506040513d60208110156123c657600080fd5b810190808051906020019092919050505090507fdb6aca7fb1121b6919a3d633f359770bcadd20c9e848a2ad7dc6bcc94b3d5fdb8160001c30604051808381526020018273ffffffffffffffffffffffffffffffffffffffff1673ffffffffffffffffffffffffffffffffffffffff1681526020019250505060405180910390a18060001c91505090565b60008161247d61246d856b033b2e3c9fd0803ce8000000612766565b6002858161247757fe5b046126e3565b8161248457fe5b04905092915050565b60006b033b2e3c9fd0803ce80000006124c56124a98585612766565b60026b033b2e3c9fd0803ce8000000816124bf57fe5b046126e3565b816124cc57fe5b04905092915050565b7fffffffffffffffffffffffffffffffffffffffffffffffffffffffffffffffff8273ffffffffffffffffffffffffffffffffffffffff1663dd62ed3e30846040518363ffffffff1660e01b8152600401808373ffffffffffffffffffffffffffffffffffffffff1673ffffffffffffffffffffffffffffffffffffffff1681526020018273ffffffffffffffffffffffffffffffffffffffff1673ffffffffffffffffffffffffffffffffffffffff1681526020019250505060206040518083038186803b1580156125a757600080fd5b505afa1580156125bb573d6000803e3d6000fd5b505050506040513d60208110156125d157600080fd5b8101908080519060200190929190505050146126a7578173ffffffffffffffffffffffffffffffffffffffff1663095ea7b3827fffffffffffffffffffffffffffffffffffffffffffffffffffffffffffffffff6040518363ffffffff1660e01b8152600401808373ffffffffffffffffffffffffffffffffffffffff1673ffffffffffffffffffffffffffffffffffffffff16815260200182815260200192505050600060405180830381600087803b15801561268e57600080fd5b505af11580156126a2573d6000803e3d6000fd5b505050505b5050565b6000816126d36126c385670de0b6b3a7640000612766565b600285816126cd57fe5b046126e3565b816126da57fe5b04905092915050565b6000828284019150811015612760576040517f08c379a000000000000000000000000000000000000000000000000000000000815260040180806020018281038252600d8152602001807f6d6174682d6e6f742d736166650000000000000000000000000000000000000081525060200191505060405180910390fd5b92915050565b600080821480612783575082828385029250828161278057fe5b04145b6127f5576040517f08c379a000000000000000000000000000000000000000000000000000000000815260040180806020018281038252600d8152602001807f6d6174682d6e6f742d736166650000000000000000000000000000000000000081525060200191505060405180910390fd5b9291505056fea265627a7a723158208e85b3287ba0ece3be52419f016b1eec5f9e733b6d264f4c0998de03f475d16864736f6c634300050b0032",
  "source": "pragma solidity ^0.5.0;\n\ninterface TubInterface {\n    function open() external returns (bytes32);\n    function join(uint) external;\n    function exit(uint) external;\n    function lock(bytes32, uint) external;\n    function free(bytes32, uint) external;\n    function draw(bytes32, uint) external;\n    function wipe(bytes32, uint) external;\n    function give(bytes32, address) external;\n    function shut(bytes32) external;\n    function cups(bytes32) external view returns (address, uint, uint, uint);\n    function gem() external view returns (TokenInterface);\n    function gov() external view returns (TokenInterface);\n    function skr() external view returns (TokenInterface);\n    function sai() external view returns (TokenInterface);\n    function ink(bytes32) external view returns (uint);\n    function tab(bytes32) external returns (uint);\n    function rap(bytes32) external returns (uint);\n    function per() external view returns (uint);\n    function pep() external view returns (PepInterface);\n}\n\ninterface TokenInterface {\n    function allowance(address, address) external view returns (uint);\n    function balanceOf(address) external view returns (uint);\n    function approve(address, uint) external;\n    function transfer(address, uint) external returns (bool);\n    function transferFrom(address, address, uint) external returns (bool);\n    function deposit() external payable;\n    function withdraw(uint) external;\n}\n\ninterface PepInterface {\n    function peek() external returns (bytes32, bool);\n}\n\ninterface UniswapExchange {\n    function getEthToTokenOutputPrice(uint256 tokensBought) external view returns (uint256 ethSold);\n    function getTokenToEthOutputPrice(uint256 ethBought) external view returns (uint256 tokensSold);\n    function tokenToTokenSwapOutput(\n        uint256 tokensBought,\n        uint256 maxTokensSold,\n        uint256 maxEthSold,\n        uint256 deadline,\n        address tokenAddr\n        ) external returns (uint256  tokensSold);\n}\n\n\ncontract DSMath {\n\n    function add(uint x, uint y) internal pure returns (uint z) {\n        require((z = x + y) >= x, \"math-not-safe\");\n    }\n\n    function mul(uint x, uint y) internal pure returns (uint z) {\n        require(y == 0 || (z = x * y) / y == x, \"math-not-safe\");\n    }\n\n    uint constant WAD = 10 ** 18;\n    uint constant RAY = 10 ** 27;\n\n    function rmul(uint x, uint y) internal pure returns (uint z) {\n        z = add(mul(x, y), RAY / 2) / RAY;\n    }\n\n    function rdiv(uint x, uint y) internal pure returns (uint z) {\n        z = add(mul(x, RAY), y / 2) / y;\n    }\n\n    function wdiv(uint x, uint y) internal pure returns (uint z) {\n        z = add(mul(x, WAD), y / 2) / y;\n    }\n\n}\n\n\ncontract Helpers is DSMath {\n\n    /**\n     * @dev get MakerDAO CDP engine\n     */\n    function getSaiTubAddress() public pure returns (address sai) {\n        sai = 0x448a5065aeBB8E423F0896E6c5D525C040f59af3;\n    }\n\n    /**\n     * @dev get uniswap MKR exchange\n     */\n    function getUniswapMKRExchange() public pure returns (address ume) {\n        ume = 0x2C4Bd064b998838076fa341A83d007FC2FA50957;\n    }\n\n    /**\n     * @dev get uniswap DAI exchange\n     */\n    function getUniswapDAIExchange() public pure returns (address ude) {\n        ude = 0x09cabEC1eAd1c0Ba254B09efb3EE13841712bE14;\n    }\n\n    /**\n     * @dev get CDP bytes by CDP ID\n     */\n    function getCDPBytes(uint cdpNum) public pure returns (bytes32 cup) {\n        cup = bytes32(cdpNum);\n    }\n\n}\n\n\ncontract CDPResolver is Helpers {\n\n    event LogOpen(uint cdpNum, address owner);\n    event LogGive(uint cdpNum, address owner, address nextOwner);\n    event LogLock(uint cdpNum, uint amtETH, uint amtPETH, address owner);\n    event LogFree(uint cdpNum, uint amtETH, uint amtPETH, address owner);\n    event LogDraw(uint cdpNum, uint amtDAI, address owner);\n    event LogDrawSend(uint cdpNum, uint amtDAI, address to);\n    event LogWipe(uint cdpNum, uint daiAmt, uint mkrFee, uint daiFee, address owner);\n    event LogShut(uint cdpNum);\n\n    function open() public returns (uint) {\n        bytes32 cup = TubInterface(getSaiTubAddress()).open();\n        emit LogOpen(uint(cup), address(this));\n        return uint(cup);\n    }\n\n    /**\n     * @dev transfer CDP ownership\n     */\n    function give(uint cdpNum, address nextOwner) public {\n        TubInterface(getSaiTubAddress()).give(bytes32(cdpNum), nextOwner);\n        emit LogGive(cdpNum, address(this), nextOwner);\n    }\n\n    function lock(uint cdpNum) public payable {\n        if (msg.value > 0) {\n            bytes32 cup = bytes32(cdpNum);\n            address tubAddr = getSaiTubAddress();\n\n            TubInterface tub = TubInterface(tubAddr);\n            TokenInterface weth = tub.gem();\n            TokenInterface peth = tub.skr();\n\n            (address lad,,,) = tub.cups(cup);\n            require(lad == address(this), \"cup-not-owned\");\n\n            weth.deposit.value(msg.value)();\n\n            uint ink = rdiv(msg.value, tub.per());\n            ink = rmul(ink, tub.per()) <= msg.value ? ink : ink - 1;\n\n            setAllowance(weth, tubAddr);\n            tub.join(ink);\n\n            setAllowance(peth, tubAddr);\n            tub.lock(cup, ink);\n\n            emit LogLock(\n                cdpNum,\n                msg.value,\n                ink,\n                address(this)\n            );\n        }\n    }\n\n    function free(uint cdpNum, uint jam) public {\n        if (jam > 0) {\n            bytes32 cup = bytes32(cdpNum);\n            address tubAddr = getSaiTubAddress();\n\n            TubInterface tub = TubInterface(tubAddr);\n            TokenInterface peth = tub.skr();\n            TokenInterface weth = tub.gem();\n\n            uint ink = rdiv(jam, tub.per());\n            ink = rmul(ink, tub.per()) <= jam ? ink : ink - 1;\n            tub.free(cup, ink);\n\n            setAllowance(peth, tubAddr);\n\n            tub.exit(ink);\n            uint freeJam = weth.balanceOf(address(this)); // withdraw possible previous stuck WETH as well\n            weth.withdraw(freeJam);\n\n            address(msg.sender).transfer(freeJam);\n\n            emit LogFree(\n                cdpNum,\n                freeJam,\n                ink,\n                address(this)\n            );\n        }\n    }\n\n    function draw(uint cdpNum, uint _wad) public {\n        bytes32 cup = bytes32(cdpNum);\n        if (_wad > 0) {\n            TubInterface tub = TubInterface(getSaiTubAddress());\n\n            tub.draw(cup, _wad);\n            tub.sai().transfer(msg.sender, _wad);\n\n            emit LogDraw(cdpNum, _wad, address(this));\n        }\n    }\n\n    function drawSend(uint cdpNum, uint _wad, address to) public {\n        require(to != address(0x0), \"address-not-valid\");\n        bytes32 cup = bytes32(cdpNum);\n        if (_wad > 0) {\n            TubInterface tub = TubInterface(getSaiTubAddress());\n\n            tub.draw(cup, _wad);\n            tub.sai().transfer(to, _wad);\n\n            emit LogDraw(cdpNum, _wad, address(this));\n            emit LogDrawSend(cdpNum, _wad, to);\n        }\n    }\n\n    function wipe(uint cdpNum, uint _wad) public {\n        if (_wad > 0) {\n            TubInterface tub = TubInterface(getSaiTubAddress());\n            UniswapExchange daiEx = UniswapExchange(getUniswapDAIExchange());\n            UniswapExchange mkrEx = UniswapExchange(getUniswapMKRExchange());\n            TokenInterface dai = tub.sai();\n            TokenInterface mkr = tub.gov();\n\n            bytes32 cup = bytes32(cdpNum);\n\n            (address lad,,,) = tub.cups(cup);\n            require(lad == address(this), \"cup-not-owned\");\n\n            setAllowance(dai, getSaiTubAddress());\n            setAllowance(mkr, getSaiTubAddress());\n            setAllowance(dai, getUniswapDAIExchange());\n\n            (bytes32 val, bool ok) = tub.pep().peek();\n\n            // MKR required for wipe = Stability fees accrued in Dai / MKRUSD value\n            uint mkrFee = wdiv(rmul(_wad, rdiv(tub.rap(cup), tub.tab(cup))), uint(val));\n\n            uint daiFeeAmt = daiEx.getTokenToEthOutputPrice(mkrEx.getEthToTokenOutputPrice(mkrFee));\n            uint daiAmt = add(_wad, daiFeeAmt);\n            require(dai.transferFrom(msg.sender, address(this), daiAmt), \"not-approved-yet\");\n\n            if (ok && val != 0) {\n                daiEx.tokenToTokenSwapOutput(\n                    mkrFee,\n                    daiAmt,\n                    uint(999000000000000000000),\n                    uint(1899063809), // 6th March 2030 GMT // no logic\n                    address(mkr)\n                );\n            }\n\n            tub.wipe(cup, _wad);\n\n            emit LogWipe(\n                cdpNum,\n                daiAmt,\n                mkrFee,\n                daiFeeAmt,\n                address(this)\n            );\n\n        }\n    }\n\n    function setAllowance(TokenInterface _token, address _spender) private {\n        if (_token.allowance(address(this), _spender) != uint(-1)) {\n            _token.approve(_spender, uint(-1));\n        }\n    }\n\n}\n\n\ncontract CDPCluster is CDPResolver {\n\n    function wipeAndFree(uint cdpNum, uint jam, uint _wad) public payable {\n        wipe(cdpNum, _wad);\n        free(cdpNum, jam);\n    }\n\n    /**\n     * @dev close CDP\n     */\n    function shut(uint cdpNum) public {\n        bytes32 cup = bytes32(cdpNum);\n        TubInterface tub = TubInterface(getSaiTubAddress());\n        wipeAndFree(cdpNum, rmul(tub.ink(cup), tub.per()), tub.tab(cup));\n        tub.shut(cup);\n        emit LogShut(cdpNum); // fetch remaining data from WIPE & FREE events\n    }\n\n    /**\n     * @dev open a new CDP and lock ETH\n     */\n    function openAndLock() public payable returns (uint cdpNum) {\n        cdpNum = open();\n        lock(cdpNum);\n    }\n\n}\n\n\ncontract InstaMaker is CDPCluster {\n\n    uint public version;\n\n    /**\n     * @dev setting up variables on deployment\n     * 1...2...3 versioning in each subsequent deployments\n     */\n    constructor(uint _version) public {\n        version = _version;\n    }\n\n    function() external payable {}\n\n}",
  "sourcePath": "/Users/pierrick/Documents/04-OSS/08-Graph/02-InstaDApp/contract-v2/contracts/ProxyLogics/InstaMaker.sol",
  "compiler": {
    "name": "solc",
    "version": "0.5.11+commit.c082d0b4.Emscripten.clang"
  },
  "schemaVersion": "3.0.16",
  "updatedAt": "2019-09-15T00:52:16.057Z",
  "devdoc": {
    "methods": {
      "constructor": {
        "details": "setting up variables on deployment 1...2...3 versioning in each subsequent deployments"
      },
      "getCDPBytes(uint256)": {
        "details": "get CDP bytes by CDP ID"
      },
      "getSaiTubAddress()": {
        "details": "get MakerDAO CDP engine"
      },
      "getUniswapDAIExchange()": {
        "details": "get uniswap DAI exchange"
      },
      "getUniswapMKRExchange()": {
        "details": "get uniswap MKR exchange"
      },
      "give(uint256,address)": {
        "details": "transfer CDP ownership"
      },
      "openAndLock()": {
        "details": "open a new CDP and lock ETH"
      },
      "shut(uint256)": {
        "details": "close CDP"
      }
    }
  },
  "userdoc": {
    "methods": {}
  }
}