{
  "contractName": "InstaAccess",
  "abi": [
    {
      "constant": true,
      "inputs": [
        {
          "internalType": "address",
          "name": "",
          "type": "address"
        }
      ],
      "name": "owners",
      "outputs": [
        {
          "internalType": "bool",
          "name": "",
          "type": "bool"
        }
      ],
      "payable": false,
      "stateMutability": "view",
      "type": "function"
    },
    {
      "constant": false,
      "inputs": [
        {
          "internalType": "address",
          "name": "_owner",
          "type": "address"
        }
      ],
      "name": "removeOwner",
      "outputs": [],
      "payable": false,
      "stateMutability": "nonpayable",
      "type": "function"
    },
    {
      "constant": true,
      "inputs": [
        {
          "internalType": "address",
          "name": "_owner",
          "type": "address"
        }
      ],
      "name": "isOwner",
      "outputs": [
        {
          "internalType": "bool",
          "name": "",
          "type": "bool"
        }
      ],
      "payable": false,
      "stateMutability": "view",
      "type": "function"
    },
    {
      "constant": false,
      "inputs": [
        {
          "internalType": "address",
          "name": "_owner",
          "type": "address"
        }
      ],
      "name": "addOwner",
      "outputs": [],
      "payable": false,
      "stateMutability": "nonpayable",
      "type": "function"
    },
    {
      "constant": true,
      "inputs": [],
      "name": "registry",
      "outputs": [
        {
          "internalType": "address",
          "name": "",
          "type": "address"
        }
      ],
      "payable": false,
      "stateMutability": "view",
      "type": "function"
    },
    {
      "constant": true,
      "inputs": [],
      "name": "ownersCount",
      "outputs": [
        {
          "internalType": "uint256",
          "name": "",
          "type": "uint256"
        }
      ],
      "payable": false,
      "stateMutability": "view",
      "type": "function"
    },
    {
      "inputs": [
        {
          "internalType": "address",
          "name": "_registry",
          "type": "address"
        }
      ],
      "payable": false,
      "stateMutability": "nonpayable",
      "type": "constructor"
    },
    {
      "anonymous": false,
      "inputs": [
        {
          "indexed": false,
          "internalType": "address",
          "name": "addr",
          "type": "address"
        }
      ],
      "name": "LogAddOwner",
      "type": "event"
    },
    {
      "anonymous": false,
      "inputs": [
        {
          "indexed": false,
          "internalType": "address",
          "name": "addr",
          "type": "address"
        }
      ],
      "name": "LogRemoveOwner",
      "type": "event"
    },
    {
      "constant": false,
      "inputs": [
        {
          "internalType": "address",
          "name": "target",
          "type": "address"
        },
        {
          "internalType": "bytes",
          "name": "data",
          "type": "bytes"
        },
        {
          "internalType": "uint256",
          "name": "src",
          "type": "uint256"
        },
        {
          "internalType": "uint256",
          "name": "session",
          "type": "uint256"
        }
      ],
      "name": "execute",
      "outputs": [],
      "payable": true,
      "stateMutability": "payable",
      "type": "function"
    }
  ],
  "bytecode": "0x608060405234801561001057600080fd5b506040516109e93803806109e98339818101604052602081101561003357600080fd5b8101908080519060200190929190505050806000806101000a81548173ffffffffffffffffffffffffffffffffffffffff021916908373ffffffffffffffffffffffffffffffffffffffff16021790555060018060003373ffffffffffffffffffffffffffffffffffffffff1673ffffffffffffffffffffffffffffffffffffffff16815260200190815260200160002060006101000a81548160ff021916908315150217905550600260008154809291906001019190505550506108ec806100fd6000396000f3fe6080604052600436106100705760003560e01c80637065cb481161004e5780637065cb48146101985780637b103999146101e9578063b948854614610240578063f35419011461026b57610070565b8063022914a714610075578063173825d9146100de5780632f54bf6e1461012f575b600080fd5b34801561008157600080fd5b506100c46004803603602081101561009857600080fd5b81019080803573ffffffffffffffffffffffffffffffffffffffff16906020019092919050505061035a565b604051808215151515815260200191505060405180910390f35b3480156100ea57600080fd5b5061012d6004803603602081101561010157600080fd5b81019080803573ffffffffffffffffffffffffffffffffffffffff16906020019092919050505061037a565b005b34801561013b57600080fd5b5061017e6004803603602081101561015257600080fd5b81019080803573ffffffffffffffffffffffffffffffffffffffff1690602001909291905050506104db565b604051808215151515815260200191505060405180910390f35b3480156101a457600080fd5b506101e7600480360360208110156101bb57600080fd5b81019080803573ffffffffffffffffffffffffffffffffffffffff169060200190929190505050610531565b005b3480156101f557600080fd5b506101fe610618565b604051808273ffffffffffffffffffffffffffffffffffffffff1673ffffffffffffffffffffffffffffffffffffffff16815260200191505060405180910390f35b34801561024c57600080fd5b5061025561063d565b6040518082815260200191505060405180910390f35b6103586004803603608081101561028157600080fd5b81019080803573ffffffffffffffffffffffffffffffffffffffff169060200190929190803590602001906401000000008111156102be57600080fd5b8201836020820111156102d057600080fd5b803590602001918460018302840111640100000000831117156102f257600080fd5b91908080601f016020809104026020016040519081016040528093929190818152602001838380828437600081840152601f19601f8201169050808301925050505050505091929192908035906020019092919080359060200190929190505050610643565b005b60016020528060005260406000206000915054906101000a900460ff1681565b610383336104db565b6103f5576040517f08c379a00000000000000000000000000000000000000000000000000000000081526004018080602001828103825260118152602001807f7065726d697373696f6e2d64656e69656400000000000000000000000000000081525060200191505060405180910390fd5b6000600160008373ffffffffffffffffffffffffffffffffffffffff1673ffffffffffffffffffffffffffffffffffffffff16815260200190815260200160002060006101000a81548160ff021916908315150217905550600260008154809291906001900391905055506000600254116104d8576040517f08c379a00000000000000000000000000000000000000000000000000000000081526004018080602001828103825260168152602001807f7a65726f2d6f776e65722d6e6f742d616c6c6f7765640000000000000000000081525060200191505060405180910390fd5b50565b6000600160008373ffffffffffffffffffffffffffffffffffffffff1673ffffffffffffffffffffffffffffffffffffffff16815260200190815260200160002060009054906101000a900460ff169050919050565b61053a336104db565b6105ac576040517f08c379a00000000000000000000000000000000000000000000000000000000081526004018080602001828103825260118152602001807f7065726d697373696f6e2d64656e69656400000000000000000000000000000081525060200191505060405180910390fd5b60018060008373ffffffffffffffffffffffffffffffffffffffff1673ffffffffffffffffffffffffffffffffffffffff16815260200190815260200160002060006101000a81548160ff02191690831515021790555060026000815480929190600101919050555050565b6000809054906101000a900473ffffffffffffffffffffffffffffffffffffffff1681565b60025481565b61064c336104db565b6106be576040517f08c379a00000000000000000000000000000000000000000000000000000000081526004018080602001828103825260118152602001807f7065726d697373696f6e2d64656e69656400000000000000000000000000000081525060200191505060405180910390fd5b60008060009054906101000a900473ffffffffffffffffffffffffffffffffffffffff1673ffffffffffffffffffffffffffffffffffffffff1663c4552791306040518263ffffffff1660e01b8152600401808273ffffffffffffffffffffffffffffffffffffffff1673ffffffffffffffffffffffffffffffffffffffff16815260200191505060206040518083038186803b15801561075e57600080fd5b505afa158015610772573d6000803e3d6000fd5b505050506040513d602081101561078857600080fd5b810190808051906020019092919050505090508073ffffffffffffffffffffffffffffffffffffffff1663f354190134878787876040518663ffffffff1660e01b8152600401808573ffffffffffffffffffffffffffffffffffffffff1673ffffffffffffffffffffffffffffffffffffffff16815260200180602001848152602001838152602001828103825285818151815260200191508051906020019080838360005b8381101561084957808201518184015260208101905061082e565b50505050905090810190601f1680156108765780820380516001836020036101000a031916815260200191505b50955050505050506000604051808303818588803b15801561089757600080fd5b505af11580156108ab573d6000803e3d6000fd5b5050505050505050505056fea265627a7a723158201e433c4d23b19da0440f64136fa1c355d4464351e66affab2a746ec1e71f026f64736f6c634300050b0032",
  "source": "pragma solidity ^0.5.2;\n\ninterface UserWalletInterface {\n    function execute(\n        address _target,\n        bytes calldata _data,\n        uint _src,\n        uint _session\n    ) external payable;\n}\n\n/**\n * @title InstaRegistry Interface\n */\ninterface RegistryInterface {\n    function proxies(address owner) external view returns (address);\n}\n\n\n/// @title Owners\n/// @notice\n/// @dev\ncontract Owners {\n    event LogAddOwner(address addr);\n    event LogRemoveOwner(address addr);\n\n    address public registry;\n\n    /// @notice owners of the contracts\n    mapping(address => bool) public owners;\n    uint public ownersCount;\n\n    /**\n     * @dev Check if msg.sender is owner.\n     */\n    modifier onlyOwner() {\n        require(isOwner(msg.sender), \"permission-denied\");\n        _;\n    }\n\n    /// @dev Check if is owner.\n    /// @param _owner (address)\n    function isOwner(address _owner) public view returns (bool) {\n        return owners[_owner];\n    }\n\n    /// @dev add new owner\n    /// @param _owner (address)\n    function addOwner(address _owner) public onlyOwner {\n        owners[_owner] = true;\n        ownersCount++;\n    }\n\n    /// @dev removed existing owner\n    /// @param _owner (address)\n    function removeOwner(address _owner) public onlyOwner {\n        owners[_owner] = false;\n        ownersCount--;\n        require(ownersCount > 0, \"zero-owner-not-allowed\");\n    }\n\n}\n\n\n/// @title InstaAccess\n/// @dev Initializing Access Control\ncontract InstaAccess is Owners {\n\n    constructor(address _registry) public {\n        registry = _registry;\n        owners[msg.sender] = true;\n        ownersCount++;\n    }\n\n    function execute(\n        address target,\n        bytes memory data,\n        uint src,\n        uint session\n    ) public payable onlyOwner\n    {\n        address walletAddress = RegistryInterface(registry).proxies(address(this));\n        UserWalletInterface(walletAddress).execute.value(msg.value)(\n            target,\n            data,\n            src,\n            session\n        );\n    }\n\n}",
  "sourcePath": "/Users/pierrick/Documents/04-OSS/08-Graph/02-InstaDApp/contract-v2/contracts/Bin/AccessControls/InstaAccess.sol",
  "compiler": {
    "name": "solc",
    "version": "0.5.11+commit.c082d0b4.Emscripten.clang"
  },
  "schemaVersion": "3.0.16",
  "updatedAt": "2019-09-15T00:52:14.837Z",
  "devdoc": {
    "details": "Initializing Access Control",
    "methods": {
      "addOwner(address)": {
        "details": "add new owner",
        "params": {
          "_owner": "(address)"
        }
      },
      "isOwner(address)": {
        "details": "Check if is owner.",
        "params": {
          "_owner": "(address)"
        }
      },
      "removeOwner(address)": {
        "details": "removed existing owner",
        "params": {
          "_owner": "(address)"
        }
      }
    },
    "title": "InstaAccess"
  },
  "userdoc": {
    "methods": {}
  }
}