{
  "contractName": "InstaExit",
  "abi": [
    {
      "anonymous": false,
      "inputs": [
        {
          "indexed": false,
          "internalType": "address",
          "name": "dest",
          "type": "address"
        },
        {
          "indexed": false,
          "internalType": "uint256",
          "name": "amount",
          "type": "uint256"
        }
      ],
      "name": "LogTransferETH",
      "type": "event"
    },
    {
      "anonymous": false,
      "inputs": [
        {
          "indexed": false,
          "internalType": "address",
          "name": "token",
          "type": "address"
        },
        {
          "indexed": false,
          "internalType": "address",
          "name": "dest",
          "type": "address"
        },
        {
          "indexed": false,
          "internalType": "uint256",
          "name": "amount",
          "type": "uint256"
        }
      ],
      "name": "LogTransferERC20",
      "type": "event"
    },
    {
      "anonymous": false,
      "inputs": [
        {
          "indexed": false,
          "internalType": "uint256",
          "name": "num",
          "type": "uint256"
        },
        {
          "indexed": false,
          "internalType": "address",
          "name": "dest",
          "type": "address"
        }
      ],
      "name": "LogTransferCDP",
      "type": "event"
    },
    {
      "constant": true,
      "inputs": [],
      "name": "getSaiTubAddress",
      "outputs": [
        {
          "internalType": "address",
          "name": "sai",
          "type": "address"
        }
      ],
      "payable": false,
      "stateMutability": "pure",
      "type": "function"
    },
    {
      "constant": false,
      "inputs": [],
      "name": "transferETH",
      "outputs": [],
      "payable": true,
      "stateMutability": "payable",
      "type": "function"
    },
    {
      "constant": false,
      "inputs": [
        {
          "internalType": "address",
          "name": "tokenAddr",
          "type": "address"
        }
      ],
      "name": "transferERC20",
      "outputs": [],
      "payable": false,
      "stateMutability": "nonpayable",
      "type": "function"
    },
    {
      "constant": false,
      "inputs": [
        {
          "internalType": "uint256",
          "name": "num",
          "type": "uint256"
        }
      ],
      "name": "transferCDP",
      "outputs": [],
      "payable": false,
      "stateMutability": "nonpayable",
      "type": "function"
    }
  ],
  "bytecode": "0x608060405234801561001057600080fd5b506105a3806100206000396000f3fe60806040526004361061003f5760003560e01c80633053d42514610044578063d1d6b7391461007f578063e28d717b146100d0578063f1d9a150146100da575b600080fd5b34801561005057600080fd5b5061007d6004803603602081101561006757600080fd5b8101908080359060200190929190505050610131565b005b34801561008b57600080fd5b506100ce600480360360208110156100a257600080fd5b81019080803573ffffffffffffffffffffffffffffffffffffffff169060200190929190505050610248565b005b6100d8610470565b005b3480156100e657600080fd5b506100ef610552565b604051808273ffffffffffffffffffffffffffffffffffffffff1673ffffffffffffffffffffffffffffffffffffffff16815260200191505060405180910390f35b610139610552565b73ffffffffffffffffffffffffffffffffffffffff1663baa8529c8260001b336040518363ffffffff1660e01b8152600401808381526020018273ffffffffffffffffffffffffffffffffffffffff1673ffffffffffffffffffffffffffffffffffffffff16815260200192505050600060405180830381600087803b1580156101c257600080fd5b505af11580156101d6573d6000803e3d6000fd5b505050507f81edd4db25e5f4dd9ff05adc61a5f7367c7580d8377fc1515f123dc2f8f0660e8133604051808381526020018273ffffffffffffffffffffffffffffffffffffffff1673ffffffffffffffffffffffffffffffffffffffff1681526020019250505060405180910390a150565b600081905060008173ffffffffffffffffffffffffffffffffffffffff166370a08231306040518263ffffffff1660e01b8152600401808273ffffffffffffffffffffffffffffffffffffffff1673ffffffffffffffffffffffffffffffffffffffff16815260200191505060206040518083038186803b1580156102cc57600080fd5b505afa1580156102e0573d6000803e3d6000fd5b505050506040513d60208110156102f657600080fd5b810190808051906020019092919050505090508173ffffffffffffffffffffffffffffffffffffffff1663a9059cbb33836040518363ffffffff1660e01b8152600401808373ffffffffffffffffffffffffffffffffffffffff1673ffffffffffffffffffffffffffffffffffffffff16815260200182815260200192505050602060405180830381600087803b15801561039057600080fd5b505af11580156103a4573d6000803e3d6000fd5b505050506040513d60208110156103ba57600080fd5b8101908080519060200190929190505050507fd8f79f5d849793fdf5be89c8a0af0a3098da237cff4e584f0a1425d965f0a54b833383604051808473ffffffffffffffffffffffffffffffffffffffff1673ffffffffffffffffffffffffffffffffffffffff1681526020018373ffffffffffffffffffffffffffffffffffffffff1673ffffffffffffffffffffffffffffffffffffffff168152602001828152602001935050505060405180910390a1505050565b3373ffffffffffffffffffffffffffffffffffffffff166108fc3073ffffffffffffffffffffffffffffffffffffffff16319081150290604051600060405180830381858888f193505050501580156104cd573d6000803e3d6000fd5b507fe50f164895b3088b33908095af6c4942d11b68e181077937b8c0483e087a7b79333073ffffffffffffffffffffffffffffffffffffffff1631604051808373ffffffffffffffffffffffffffffffffffffffff1673ffffffffffffffffffffffffffffffffffffffff1681526020018281526020019250505060405180910390a1565b600073448a5065aebb8e423f0896e6c5d525c040f59af390509056fea265627a7a723158202aae044db57c34761eb2f8ff34bb7d119eb40a29047bbe94aa16aa396095f1b864736f6c634300050b0032",
  "source": "pragma solidity ^0.5.0;\n\ninterface IERC20 {\n    function transfer(address to, uint256 value) external returns (bool);\n    function balanceOf(address) external view returns (uint);\n}\n\ninterface ICDP {\n    function give(bytes32 cup, address guy) external;\n}\n\n\ncontract InstaExit {\n\n    event LogTransferETH(address dest, uint amount);\n    event LogTransferERC20(address token, address dest, uint amount);\n    event LogTransferCDP(uint num, address dest);\n\n    /**\n     * @dev MakerDAO CDP engine address\n     */\n    function getSaiTubAddress() public pure returns (address sai) {\n        sai = 0x448a5065aeBB8E423F0896E6c5D525C040f59af3;\n    }\n\n    /**\n     * @dev withdrawing ETH\n     */\n    function transferETH() public payable {\n        msg.sender.transfer(address(this).balance);\n        emit LogTransferETH(msg.sender, address(this).balance);\n    }\n\n    /**\n     * @dev withdrawing ERC20\n     */\n    function transferERC20(address tokenAddr) public {\n        IERC20 tkn = IERC20(tokenAddr);\n        uint tknBal = tkn.balanceOf(address(this));\n        tkn.transfer(msg.sender, tknBal);\n        emit LogTransferERC20(tokenAddr, msg.sender, tknBal);\n    }\n\n    /**\n     * @dev withdrawing CDP\n     */\n    function transferCDP(uint num) public {\n        ICDP(getSaiTubAddress()).give(bytes32(num), msg.sender);\n        emit LogTransferCDP(num, msg.sender);\n    }\n\n}",
  "sourcePath": "/Users/pierrick/Documents/04-OSS/08-Graph/02-InstaDApp/contract-v2/contracts/ProxyLogics/Static/InstaExit.sol",
  "compiler": {
    "name": "solc",
    "version": "0.5.11+commit.c082d0b4.Emscripten.clang"
  },
  "schemaVersion": "3.0.16",
  "updatedAt": "2019-09-15T00:52:16.248Z",
  "devdoc": {
    "methods": {
      "getSaiTubAddress()": {
        "details": "MakerDAO CDP engine address"
      },
      "transferCDP(uint256)": {
        "details": "withdrawing CDP"
      },
      "transferERC20(address)": {
        "details": "withdrawing ERC20"
      },
      "transferETH()": {
        "details": "withdrawing ETH"
      }
    }
  },
  "userdoc": {
    "methods": {}
  }
}