{
  "contractName": "InstaWallet",
  "abi": [
    {
      "constant": true,
      "inputs": [],
      "name": "activePeriod",
      "outputs": [
        {
          "internalType": "uint256",
          "name": "",
          "type": "uint256"
        }
      ],
      "payable": false,
      "stateMutability": "view",
      "type": "function"
    },
    {
      "constant": true,
      "inputs": [
        {
          "internalType": "address",
          "name": "_guardian",
          "type": "address"
        }
      ],
      "name": "isGuardian",
      "outputs": [
        {
          "internalType": "bool",
          "name": "",
          "type": "bool"
        }
      ],
      "payable": false,
      "stateMutability": "view",
      "type": "function"
    },
    {
      "constant": true,
      "inputs": [
        {
          "internalType": "address",
          "name": "src",
          "type": "address"
        }
      ],
      "name": "isAuth",
      "outputs": [
        {
          "internalType": "bool",
          "name": "",
          "type": "bool"
        }
      ],
      "payable": false,
      "stateMutability": "view",
      "type": "function"
    },
    {
      "constant": false,
      "inputs": [
        {
          "internalType": "uint256",
          "name": "num",
          "type": "uint256"
        },
        {
          "internalType": "address",
          "name": "_manager",
          "type": "address"
        }
      ],
      "name": "setManager",
      "outputs": [],
      "payable": false,
      "stateMutability": "nonpayable",
      "type": "function"
    },
    {
      "constant": true,
      "inputs": [
        {
          "internalType": "uint256",
          "name": "",
          "type": "uint256"
        }
      ],
      "name": "managers",
      "outputs": [
        {
          "internalType": "address",
          "name": "",
          "type": "address"
        }
      ],
      "payable": false,
      "stateMutability": "view",
      "type": "function"
    },
    {
      "constant": false,
      "inputs": [],
      "name": "setOwner",
      "outputs": [],
      "payable": false,
      "stateMutability": "nonpayable",
      "type": "function"
    },
    {
      "constant": false,
      "inputs": [
        {
          "internalType": "uint256",
          "name": "_activePeriod",
          "type": "uint256"
        }
      ],
      "name": "updateActivePeriod",
      "outputs": [],
      "payable": false,
      "stateMutability": "nonpayable",
      "type": "function"
    },
    {
      "constant": true,
      "inputs": [
        {
          "internalType": "address",
          "name": "logicAddr",
          "type": "address"
        }
      ],
      "name": "isLogicAuthorised",
      "outputs": [
        {
          "internalType": "bool",
          "name": "",
          "type": "bool"
        },
        {
          "internalType": "bool",
          "name": "",
          "type": "bool"
        }
      ],
      "payable": false,
      "stateMutability": "view",
      "type": "function"
    },
    {
      "constant": true,
      "inputs": [],
      "name": "lastActivity",
      "outputs": [
        {
          "internalType": "uint256",
          "name": "",
          "type": "uint256"
        }
      ],
      "payable": false,
      "stateMutability": "view",
      "type": "function"
    },
    {
      "constant": true,
      "inputs": [],
      "name": "registry",
      "outputs": [
        {
          "internalType": "address",
          "name": "",
          "type": "address"
        }
      ],
      "payable": false,
      "stateMutability": "view",
      "type": "function"
    },
    {
      "constant": true,
      "inputs": [],
      "name": "claimOnwershipTime",
      "outputs": [
        {
          "internalType": "uint256",
          "name": "",
          "type": "uint256"
        }
      ],
      "payable": false,
      "stateMutability": "view",
      "type": "function"
    },
    {
      "constant": true,
      "inputs": [],
      "name": "owner",
      "outputs": [
        {
          "internalType": "address",
          "name": "",
          "type": "address"
        }
      ],
      "payable": false,
      "stateMutability": "view",
      "type": "function"
    },
    {
      "constant": true,
      "inputs": [],
      "name": "gracePeriod",
      "outputs": [
        {
          "internalType": "uint256",
          "name": "",
          "type": "uint256"
        }
      ],
      "payable": false,
      "stateMutability": "view",
      "type": "function"
    },
    {
      "constant": false,
      "inputs": [
        {
          "internalType": "address",
          "name": "_owner",
          "type": "address"
        }
      ],
      "name": "setOwnerOnce",
      "outputs": [],
      "payable": false,
      "stateMutability": "nonpayable",
      "type": "function"
    },
    {
      "constant": false,
      "inputs": [
        {
          "internalType": "uint256",
          "name": "num",
          "type": "uint256"
        },
        {
          "internalType": "address",
          "name": "_guardian",
          "type": "address"
        }
      ],
      "name": "setGuardian",
      "outputs": [],
      "payable": false,
      "stateMutability": "nonpayable",
      "type": "function"
    },
    {
      "constant": false,
      "inputs": [
        {
          "internalType": "address",
          "name": "nextOwner",
          "type": "address"
        }
      ],
      "name": "setPendingOwner",
      "outputs": [],
      "payable": false,
      "stateMutability": "nonpayable",
      "type": "function"
    },
    {
      "constant": false,
      "inputs": [
        {
          "internalType": "address",
          "name": "nextOwner",
          "type": "address"
        },
        {
          "internalType": "uint256",
          "name": "num",
          "type": "uint256"
        }
      ],
      "name": "setOwnerViaGuardian",
      "outputs": [],
      "payable": false,
      "stateMutability": "nonpayable",
      "type": "function"
    },
    {
      "constant": true,
      "inputs": [],
      "name": "pendingOwner",
      "outputs": [
        {
          "internalType": "address",
          "name": "",
          "type": "address"
        }
      ],
      "payable": false,
      "stateMutability": "view",
      "type": "function"
    },
    {
      "constant": true,
      "inputs": [
        {
          "internalType": "address",
          "name": "_manager",
          "type": "address"
        }
      ],
      "name": "isManager",
      "outputs": [
        {
          "internalType": "bool",
          "name": "",
          "type": "bool"
        }
      ],
      "payable": false,
      "stateMutability": "view",
      "type": "function"
    },
    {
      "constant": true,
      "inputs": [
        {
          "internalType": "uint256",
          "name": "",
          "type": "uint256"
        }
      ],
      "name": "guardians",
      "outputs": [
        {
          "internalType": "address",
          "name": "",
          "type": "address"
        }
      ],
      "payable": false,
      "stateMutability": "view",
      "type": "function"
    },
    {
      "inputs": [],
      "payable": false,
      "stateMutability": "nonpayable",
      "type": "constructor"
    },
    {
      "payable": true,
      "stateMutability": "payable",
      "type": "fallback"
    },
    {
      "anonymous": false,
      "inputs": [
        {
          "indexed": false,
          "internalType": "address",
          "name": "sender",
          "type": "address"
        },
        {
          "indexed": false,
          "internalType": "address",
          "name": "target",
          "type": "address"
        },
        {
          "indexed": false,
          "internalType": "uint256",
          "name": "srcNum",
          "type": "uint256"
        },
        {
          "indexed": false,
          "internalType": "uint256",
          "name": "sessionNum",
          "type": "uint256"
        }
      ],
      "name": "LogExecute",
      "type": "event"
    },
    {
      "anonymous": false,
      "inputs": [
        {
          "indexed": true,
          "internalType": "bytes4",
          "name": "sig",
          "type": "bytes4"
        },
        {
          "indexed": true,
          "internalType": "address",
          "name": "guy",
          "type": "address"
        },
        {
          "indexed": true,
          "internalType": "bytes32",
          "name": "foo",
          "type": "bytes32"
        },
        {
          "indexed": false,
          "internalType": "bytes32",
          "name": "bar",
          "type": "bytes32"
        },
        {
          "indexed": false,
          "internalType": "uint256",
          "name": "wad",
          "type": "uint256"
        },
        {
          "indexed": false,
          "internalType": "bytes",
          "name": "fax",
          "type": "bytes"
        }
      ],
      "name": "LogNote",
      "type": "event"
    },
    {
      "anonymous": false,
      "inputs": [
        {
          "indexed": false,
          "internalType": "uint256",
          "name": "num",
          "type": "uint256"
        },
        {
          "indexed": true,
          "internalType": "address",
          "name": "prevManager",
          "type": "address"
        },
        {
          "indexed": true,
          "internalType": "address",
          "name": "newManager",
          "type": "address"
        }
      ],
      "name": "LogSetManager",
      "type": "event"
    },
    {
      "anonymous": false,
      "inputs": [
        {
          "indexed": false,
          "internalType": "uint256",
          "name": "num",
          "type": "uint256"
        },
        {
          "indexed": true,
          "internalType": "address",
          "name": "prevGuardian",
          "type": "address"
        },
        {
          "indexed": true,
          "internalType": "address",
          "name": "newGuardian",
          "type": "address"
        }
      ],
      "name": "LogSetGuardian",
      "type": "event"
    },
    {
      "anonymous": false,
      "inputs": [
        {
          "indexed": false,
          "internalType": "uint256",
          "name": "newActivePeriod",
          "type": "uint256"
        }
      ],
      "name": "LogNewActivePeriod",
      "type": "event"
    },
    {
      "anonymous": false,
      "inputs": [
        {
          "indexed": false,
          "internalType": "address",
          "name": "nextOwner",
          "type": "address"
        },
        {
          "indexed": true,
          "internalType": "address",
          "name": "guardian",
          "type": "address"
        }
      ],
      "name": "LogSetOwnerViaGuardian",
      "type": "event"
    },
    {
      "anonymous": false,
      "inputs": [
        {
          "indexed": true,
          "internalType": "address",
          "name": "owner",
          "type": "address"
        },
        {
          "indexed": false,
          "internalType": "address",
          "name": "setter",
          "type": "address"
        }
      ],
      "name": "LogSetOwner",
      "type": "event"
    },
    {
      "anonymous": false,
      "inputs": [
        {
          "indexed": true,
          "internalType": "address",
          "name": "pendingOwner",
          "type": "address"
        },
        {
          "indexed": false,
          "internalType": "address",
          "name": "setter",
          "type": "address"
        }
      ],
      "name": "LogSetPendingOwner",
      "type": "event"
    },
    {
      "constant": false,
      "inputs": [
        {
          "internalType": "address",
          "name": "_target",
          "type": "address"
        },
        {
          "internalType": "bytes",
          "name": "_data",
          "type": "bytes"
        },
        {
          "internalType": "uint256",
          "name": "srcNum",
          "type": "uint256"
        },
        {
          "internalType": "uint256",
          "name": "sessionNum",
          "type": "uint256"
        }
      ],
      "name": "execute",
      "outputs": [
        {
          "internalType": "bytes",
          "name": "response",
          "type": "bytes"
        }
      ],
      "payable": true,
      "stateMutability": "payable",
      "type": "function"
    }
  ],
  "bytecode": "0x608060405234801561001057600080fd5b506203f480600481905550336000806101000a81548173ffffffffffffffffffffffffffffffffffffffff021916908373ffffffffffffffffffffffffffffffffffffffff16021790555033600160006101000a81548173ffffffffffffffffffffffffffffffffffffffff021916908373ffffffffffffffffffffffffffffffffffffffff1602179055504260068190555062278d006007819055506127db806100bc6000396000f3fe60806040526004361061013a5760003560e01c806386bde544116100bb578063c42069ec1161007f578063f354190111610059578063f3541901146106b3578063f3ae24151461081b578063f560c734146108845761013a565b8063c42069ec146105b0578063ddad387e14610601578063e30c39781461065c5761013a565b806386bde544146104575780638da5cb5b14610482578063a06db7dc146104d9578063aa39e49814610504578063c02f5582146105555761013a565b806340caae061161010257806340caae061461030f5780634d9c27f4146103265780634fb3106d146103615780635fd51b37146103d55780637b103999146104005761013a565b80630a441f7b1461013c5780630c68ba21146101675780632520e7ff146101d05780632911c27d146102395780633d39c26014610294575b005b34801561014857600080fd5b506101516108ff565b6040518082815260200191505060405180910390f35b34801561017357600080fd5b506101b66004803603602081101561018a57600080fd5b81019080803573ffffffffffffffffffffffffffffffffffffffff169060200190929190505050610905565b604051808215151515815260200191505060405180910390f35b3480156101dc57600080fd5b5061021f600480360360208110156101f357600080fd5b81019080803573ffffffffffffffffffffffffffffffffffffffff169060200190929190505050610b2a565b604051808215151515815260200191505060405180910390f35b34801561024557600080fd5b506102926004803603604081101561025c57600080fd5b8101908080359060200190929190803573ffffffffffffffffffffffffffffffffffffffff169060200190929190505050610bd2565b005b3480156102a057600080fd5b506102cd600480360360208110156102b757600080fd5b8101908080359060200190929190505050610ed7565b604051808273ffffffffffffffffffffffffffffffffffffffff1673ffffffffffffffffffffffffffffffffffffffff16815260200191505060405180910390f35b34801561031b57600080fd5b50610324610f0a565b005b34801561033257600080fd5b5061035f6004803603602081101561034957600080fd5b81019080803590602001909291905050506111d7565b005b34801561036d57600080fd5b506103b06004803603602081101561038457600080fd5b81019080803573ffffffffffffffffffffffffffffffffffffffff1690602001909291905050506113ad565b6040518083151515158152602001821515151581526020019250505060405180910390f35b3480156103e157600080fd5b506103ea6114ac565b6040518082815260200191505060405180910390f35b34801561040c57600080fd5b506104156114b2565b604051808273ffffffffffffffffffffffffffffffffffffffff1673ffffffffffffffffffffffffffffffffffffffff16815260200191505060405180910390f35b34801561046357600080fd5b5061046c6114d7565b6040518082815260200191505060405180910390f35b34801561048e57600080fd5b506104976114dd565b604051808273ffffffffffffffffffffffffffffffffffffffff1673ffffffffffffffffffffffffffffffffffffffff16815260200191505060405180910390f35b3480156104e557600080fd5b506104ee611503565b6040518082815260200191505060405180910390f35b34801561051057600080fd5b506105536004803603602081101561052757600080fd5b81019080803573ffffffffffffffffffffffffffffffffffffffff169060200190929190505050611509565b005b34801561056157600080fd5b506105ae6004803603604081101561057857600080fd5b8101908080359060200190929190803573ffffffffffffffffffffffffffffffffffffffff169060200190929190505050611726565b005b3480156105bc57600080fd5b506105ff600480360360208110156105d357600080fd5b81019080803573ffffffffffffffffffffffffffffffffffffffff169060200190929190505050611a2b565b005b34801561060d57600080fd5b5061065a6004803603604081101561062457600080fd5b81019080803573ffffffffffffffffffffffffffffffffffffffff16906020019092919080359060200190929190505050611c0b565b005b34801561066857600080fd5b50610671611ff1565b604051808273ffffffffffffffffffffffffffffffffffffffff1673ffffffffffffffffffffffffffffffffffffffff16815260200191505060405180910390f35b6107a0600480360360808110156106c957600080fd5b81019080803573ffffffffffffffffffffffffffffffffffffffff1690602001909291908035906020019064010000000081111561070657600080fd5b82018360208201111561071857600080fd5b8035906020019184600183028401116401000000008311171561073a57600080fd5b91908080601f016020809104026020016040519081016040528093929190818152602001838380828437600081840152601f19601f8201169050808301925050505050505091929192908035906020019092919080359060200190929190505050612017565b6040518080602001828103825283818151815260200191508051906020019080838360005b838110156107e05780820151818401526020810190506107c5565b50505050905090810190601f16801561080d5780820380516001836020036101000a031916815260200191505b509250505060405180910390f35b34801561082757600080fd5b5061086a6004803603602081101561083e57600080fd5b81019080803573ffffffffffffffffffffffffffffffffffffffff1690602001909291905050506123d0565b604051808215151515815260200191505060405180910390f35b34801561089057600080fd5b506108bd600480360360208110156108a757600080fd5b81019080803590602001909291905050506125f5565b604051808273ffffffffffffffffffffffffffffffffffffffff1673ffffffffffffffffffffffffffffffffffffffff16815260200191505060405180910390f35b60075481565b6000600560006001815260200190815260200160002060009054906101000a900473ffffffffffffffffffffffffffffffffffffffff1673ffffffffffffffffffffffffffffffffffffffff168273ffffffffffffffffffffffffffffffffffffffff1614806109d45750600560006002815260200190815260200160002060009054906101000a900473ffffffffffffffffffffffffffffffffffffffff1673ffffffffffffffffffffffffffffffffffffffff168273ffffffffffffffffffffffffffffffffffffffff16145b80610a3e5750600560006003815260200190815260200160002060009054906101000a900473ffffffffffffffffffffffffffffffffffffffff1673ffffffffffffffffffffffffffffffffffffffff168273ffffffffffffffffffffffffffffffffffffffff16145b80610aa85750600560006004815260200190815260200160002060009054906101000a900473ffffffffffffffffffffffffffffffffffffffff1673ffffffffffffffffffffffffffffffffffffffff168273ffffffffffffffffffffffffffffffffffffffff16145b80610b125750600560006005815260200190815260200160002060009054906101000a900473ffffffffffffffffffffffffffffffffffffffff1673ffffffffffffffffffffffffffffffffffffffff168273ffffffffffffffffffffffffffffffffffffffff16145b15610b205760019050610b25565b600090505b919050565b60003073ffffffffffffffffffffffffffffffffffffffff168273ffffffffffffffffffffffffffffffffffffffff161415610b695760019050610bcd565b600160009054906101000a900473ffffffffffffffffffffffffffffffffffffffff1673ffffffffffffffffffffffffffffffffffffffff168273ffffffffffffffffffffffffffffffffffffffff161415610bc85760019050610bcd565b600090505b919050565b610bdb33610b2a565b610c4d576040517f08c379a00000000000000000000000000000000000000000000000000000000081526004018080602001828103825260118152602001807f7065726d697373696f6e2d64656e69656400000000000000000000000000000081525060200191505060405180910390fd5b60008060009054906101000a900473ffffffffffffffffffffffffffffffffffffffff1690508073ffffffffffffffffffffffffffffffffffffffff1663ab47ab6c6040518163ffffffff1660e01b815260040160206040518083038186803b158015610cb957600080fd5b505afa158015610ccd573d6000803e3d6000fd5b505050506040513d6020811015610ce357600080fd5b8101908080519060200190929190505050610d66576040517f08c379a00000000000000000000000000000000000000000000000000000000081526004018080602001828103825260118152602001807f61646d696e2d6e6f742d656e61626c656400000000000000000000000000000081525060200191505060405180910390fd5b600083118015610d765750600683105b610de8576040517f08c379a000000000000000000000000000000000000000000000000000000000815260040180806020018281038252601b8152602001807f677561726469616e732d63616e742d6578636565642d7468726565000000000081525060200191505060405180910390fd5b8173ffffffffffffffffffffffffffffffffffffffff166008600085815260200190815260200160002060009054906101000a900473ffffffffffffffffffffffffffffffffffffffff1673ffffffffffffffffffffffffffffffffffffffff167fa954707854d96a36ed395ff75a182c138183c6265b974d67a60d137b26e1c578856040518082815260200191505060405180910390a3816008600085815260200190815260200160002060006101000a81548173ffffffffffffffffffffffffffffffffffffffff021916908373ffffffffffffffffffffffffffffffffffffffff160217905550505050565b60086020528060005260406000206000915054906101000a900473ffffffffffffffffffffffffffffffffffffffff1681565b600073ffffffffffffffffffffffffffffffffffffffff16600260009054906101000a900473ffffffffffffffffffffffffffffffffffffffff1673ffffffffffffffffffffffffffffffffffffffff161415610fcf576040517f08c379a00000000000000000000000000000000000000000000000000000000081526004018080602001828103825260128152602001807f6e6f2d70656e64696e672d61646472657373000000000000000000000000000081525060200191505060405180910390fd5b6003544211611046576040517f08c379a00000000000000000000000000000000000000000000000000000000081526004018080602001828103825260168152602001807f6f776e65722d69732d7374696c6c2d70656e64696e670000000000000000000081525060200191505060405180910390fd5b611094600160009054906101000a900473ffffffffffffffffffffffffffffffffffffffff16600260009054906101000a900473ffffffffffffffffffffffffffffffffffffffff16612628565b600260009054906101000a900473ffffffffffffffffffffffffffffffffffffffff16600160006101000a81548173ffffffffffffffffffffffffffffffffffffffff021916908373ffffffffffffffffffffffffffffffffffffffff1602179055506000600260006101000a81548173ffffffffffffffffffffffffffffffffffffffff021916908373ffffffffffffffffffffffffffffffffffffffff160217905550600160009054906101000a900473ffffffffffffffffffffffffffffffffffffffff1673ffffffffffffffffffffffffffffffffffffffff167fc66d1d23a5b7baf1f496bb19f580d7b12070ad5a08a758c990db97d961fa33a633604051808273ffffffffffffffffffffffffffffffffffffffff1673ffffffffffffffffffffffffffffffffffffffff16815260200191505060405180910390a2565b6111e033610b2a565b611252576040517f08c379a00000000000000000000000000000000000000000000000000000000081526004018080602001828103825260118152602001807f7065726d697373696f6e2d64656e69656400000000000000000000000000000081525060200191505060405180910390fd5b60008060009054906101000a900473ffffffffffffffffffffffffffffffffffffffff1690508073ffffffffffffffffffffffffffffffffffffffff1663e6dc15dc6040518163ffffffff1660e01b815260040160206040518083038186803b1580156112be57600080fd5b505afa1580156112d2573d6000803e3d6000fd5b505050506040513d60208110156112e857600080fd5b810190808051906020019092919050505061136b576040517f08c379a00000000000000000000000000000000000000000000000000000000081526004018080602001828103825260148152602001807f677561726469616e2d6e6f742d656e61626c656400000000000000000000000081525060200191505060405180910390fd5b816007819055507f8d8652e03432d3fa4461909437b46aacbc32da3391c357f2ad4000101a46fa02826040518082815260200191505060405180910390a15050565b60008060008060009054906101000a900473ffffffffffffffffffffffffffffffffffffffff1690506000808273ffffffffffffffffffffffffffffffffffffffff1663a2efa3b7876040518263ffffffff1660e01b8152600401808273ffffffffffffffffffffffffffffffffffffffff1673ffffffffffffffffffffffffffffffffffffffff168152602001915050604080518083038186803b15801561145557600080fd5b505afa158015611469573d6000803e3d6000fd5b505050506040513d604081101561147f57600080fd5b81019080805190602001909291908051906020019092919050505091509150818194509450505050915091565b60065481565b6000809054906101000a900473ffffffffffffffffffffffffffffffffffffffff1681565b60035481565b600160009054906101000a900473ffffffffffffffffffffffffffffffffffffffff1681565b60045481565b61151233610b2a565b611584576040517f08c379a00000000000000000000000000000000000000000000000000000000081526004018080602001828103825260118152602001807f7065726d697373696f6e2d64656e69656400000000000000000000000000000081525060200191505060405180910390fd5b6000809054906101000a900473ffffffffffffffffffffffffffffffffffffffff1673ffffffffffffffffffffffffffffffffffffffff163373ffffffffffffffffffffffffffffffffffffffff1614611646576040517f08c379a00000000000000000000000000000000000000000000000000000000081526004018080602001828103825260118152602001807f7065726d697373696f6e2d64656e69656400000000000000000000000000000081525060200191505060405180910390fd5b80600160006101000a81548173ffffffffffffffffffffffffffffffffffffffff021916908373ffffffffffffffffffffffffffffffffffffffff160217905550600160009054906101000a900473ffffffffffffffffffffffffffffffffffffffff1673ffffffffffffffffffffffffffffffffffffffff167fc66d1d23a5b7baf1f496bb19f580d7b12070ad5a08a758c990db97d961fa33a633604051808273ffffffffffffffffffffffffffffffffffffffff1673ffffffffffffffffffffffffffffffffffffffff16815260200191505060405180910390a250565b61172f33610b2a565b6117a1576040517f08c379a00000000000000000000000000000000000000000000000000000000081526004018080602001828103825260118152602001807f7065726d697373696f6e2d64656e69656400000000000000000000000000000081525060200191505060405180910390fd5b60008060009054906101000a900473ffffffffffffffffffffffffffffffffffffffff1690508073ffffffffffffffffffffffffffffffffffffffff1663e6dc15dc6040518163ffffffff1660e01b815260040160206040518083038186803b15801561180d57600080fd5b505afa158015611821573d6000803e3d6000fd5b505050506040513d602081101561183757600080fd5b81019080805190602001909291905050506118ba576040517f08c379a00000000000000000000000000000000000000000000000000000000081526004018080602001828103825260148152602001807f677561726469616e2d6e6f742d656e61626c656400000000000000000000000081525060200191505060405180910390fd5b6000831180156118ca5750600683105b61193c576040517f08c379a000000000000000000000000000000000000000000000000000000000815260040180806020018281038252601b8152602001807f677561726469616e732d63616e742d6578636565642d7468726565000000000081525060200191505060405180910390fd5b8173ffffffffffffffffffffffffffffffffffffffff166005600085815260200190815260200160002060009054906101000a900473ffffffffffffffffffffffffffffffffffffffff1673ffffffffffffffffffffffffffffffffffffffff167f51f6f90877f5f4e545e762d70bb4f2de64e568e669d9ceb2c7340fad12f874b4856040518082815260200191505060405180910390a3816005600085815260200190815260200160002060006101000a81548173ffffffffffffffffffffffffffffffffffffffff021916908373ffffffffffffffffffffffffffffffffffffffff160217905550505050565b611a3433610b2a565b611aa6576040517f08c379a00000000000000000000000000000000000000000000000000000000081526004018080602001828103825260118152602001807f7065726d697373696f6e2d64656e69656400000000000000000000000000000081525060200191505060405180910390fd5b611abd60045460035461271e90919063ffffffff16565b4211611b31576040517f08c379a00000000000000000000000000000000000000000000000000000000081526004018080602001828103825260168152602001807f6f776e65722d69732d7374696c6c2d70656e64696e670000000000000000000081525060200191505060405180910390fd5b80600260006101000a81548173ffffffffffffffffffffffffffffffffffffffff021916908373ffffffffffffffffffffffffffffffffffffffff160217905550611b8862093a804261271e90919063ffffffff16565b6003819055508073ffffffffffffffffffffffffffffffffffffffff167f1208102bc3306a409a612b4195ca45055df8732311db2797be192b046adaa4c433604051808273ffffffffffffffffffffffffffffffffffffffff1673ffffffffffffffffffffffffffffffffffffffff16815260200191505060405180910390a250565b60008060009054906101000a900473ffffffffffffffffffffffffffffffffffffffff1690508073ffffffffffffffffffffffffffffffffffffffff1663e6dc15dc6040518163ffffffff1660e01b815260040160206040518083038186803b158015611c7757600080fd5b505afa158015611c8b573d6000803e3d6000fd5b505050506040513d6020811015611ca157600080fd5b8101908080519060200190929190505050611d24576040517f08c379a00000000000000000000000000000000000000000000000000000000081526004018080602001828103825260148152602001807f677561726469616e2d6e6f742d656e61626c656400000000000000000000000081525060200191505060405180910390fd5b611d2d33610905565b611d9f576040517f08c379a000000000000000000000000000000000000000000000000000000000815260040180806020018281038252600c8152602001807f6e6f742d677561726469616e000000000000000000000000000000000000000081525060200191505060405180910390fd5b6005600083815260200190815260200160002060009054906101000a900473ffffffffffffffffffffffffffffffffffffffff1673ffffffffffffffffffffffffffffffffffffffff163373ffffffffffffffffffffffffffffffffffffffff1614611e73576040517f08c379a00000000000000000000000000000000000000000000000000000000081526004018080602001828103825260118152602001807f7065726d697373696f6e2d64656e69656400000000000000000000000000000081525060200191505060405180910390fd5b611e8a60075460065461271e90919063ffffffff16565b4211611efe576040517f08c379a00000000000000000000000000000000000000000000000000000000081526004018080602001828103825260168152602001807f6163746976652d706572696f642d6e6f742d6f7665720000000000000000000081525060200191505060405180910390fd5b82600160006101000a81548173ffffffffffffffffffffffffffffffffffffffff021916908373ffffffffffffffffffffffffffffffffffffffff1602179055506005600083815260200190815260200160002060009054906101000a900473ffffffffffffffffffffffffffffffffffffffff1673ffffffffffffffffffffffffffffffffffffffff167f878b8a9d403d1f05fcd8f03dde7c2a981fbe9a246bc14fbce17337cc1ed3f80684604051808273ffffffffffffffffffffffffffffffffffffffff1673ffffffffffffffffffffffffffffffffffffffff16815260200191505060405180910390a2505050565b600260009054906101000a900473ffffffffffffffffffffffffffffffffffffffff1681565b606060008060043591506024359050813373ffffffffffffffffffffffffffffffffffffffff166000357fffffffff00000000000000000000000000000000000000000000000000000000167bffffffffffffffffffffffffffffffffffffffffffffffffffffffff19167f644843f351d3fba4abcd60109eaff9f54bac8fb8ccf0bab941009c21df21cf31843460003660405180858152602001848152602001806020018281038252848482818152602001925080828437600081840152601f19601f8201169050808301925050509550505050505060405180910390a486600073ffffffffffffffffffffffffffffffffffffffff168173ffffffffffffffffffffffffffffffffffffffff16141561219a576040517f08c379a000000000000000000000000000000000000000000000000000000000815260040180806020018281038252601c8152602001807f6c6f6769632d70726f78792d616464726573732d72657175697265640000000081525060200191505060405180910390fd5b6000806121a6836113ad565b915091508161221d576040517f08c379a000000000000000000000000000000000000000000000000000000000815260040180806020018281038252601f8152602001807f6c6f6769632d70726f78792d616464726573732d6e6f742d616c6c6f7765640081525060200191505060405180910390fd5b600080905061222b33610b2a565b156122395760019050612257565b612242336123d0565b801561224c575081155b1561225657600190505b5b806122ca576040517f08c379a000000000000000000000000000000000000000000000000000000000815260040180806020018281038252600e8152602001807f6e6f742d65786563757461626c6500000000000000000000000000000000000081525060200191505060405180910390fd5b426006819055507fbbe0bb7e25ad05930cc12ad50791eed41013fc3b5528aab7e97fa391f1827b24338c8b8b604051808573ffffffffffffffffffffffffffffffffffffffff1673ffffffffffffffffffffffffffffffffffffffff1681526020018473ffffffffffffffffffffffffffffffffffffffff1673ffffffffffffffffffffffffffffffffffffffff16815260200183815260200182815260200194505050505060405180910390a16000808b5160208d018e6113885a03f43d6040519850601f19601f602083010116890160405280895280600060208b013e8115600181146123b8576123bf565b8160208b01fd5b505050505050505050949350505050565b6000600860006001815260200190815260200160002060009054906101000a900473ffffffffffffffffffffffffffffffffffffffff1673ffffffffffffffffffffffffffffffffffffffff168273ffffffffffffffffffffffffffffffffffffffff16148061249f5750600860006002815260200190815260200160002060009054906101000a900473ffffffffffffffffffffffffffffffffffffffff1673ffffffffffffffffffffffffffffffffffffffff168273ffffffffffffffffffffffffffffffffffffffff16145b806125095750600860006003815260200190815260200160002060009054906101000a900473ffffffffffffffffffffffffffffffffffffffff1673ffffffffffffffffffffffffffffffffffffffff168273ffffffffffffffffffffffffffffffffffffffff16145b806125735750600860006004815260200190815260200160002060009054906101000a900473ffffffffffffffffffffffffffffffffffffffff1673ffffffffffffffffffffffffffffffffffffffff168273ffffffffffffffffffffffffffffffffffffffff16145b806125dd5750600860006005815260200190815260200160002060009054906101000a900473ffffffffffffffffffffffffffffffffffffffff1673ffffffffffffffffffffffffffffffffffffffff168273ffffffffffffffffffffffffffffffffffffffff16145b156125eb57600190506125f0565b600090505b919050565b60056020528060005260406000206000915054906101000a900473ffffffffffffffffffffffffffffffffffffffff1681565b60008060009054906101000a900473ffffffffffffffffffffffffffffffffffffffff1690508073ffffffffffffffffffffffffffffffffffffffff1663a17849ad84846040518363ffffffff1660e01b8152600401808373ffffffffffffffffffffffffffffffffffffffff1673ffffffffffffffffffffffffffffffffffffffff1681526020018273ffffffffffffffffffffffffffffffffffffffff1673ffffffffffffffffffffffffffffffffffffffff16815260200192505050600060405180830381600087803b15801561270157600080fd5b505af1158015612715573d6000803e3d6000fd5b50505050505050565b60008082840190508381101561279c576040517f08c379a000000000000000000000000000000000000000000000000000000000815260040180806020018281038252601b8152602001807f536166654d6174683a206164646974696f6e206f766572666c6f77000000000081525060200191505060405180910390fd5b809150509291505056fea265627a7a7231582023a0fed17e09c02ce1642f8a8dbdc62b38948f0504526db2b14d3e252b6b6c3664736f6c634300050b0032",
  "source": "// This Auth Model also includes UserWallet Logics\n// TODO => make it single Auth code for future launch where this Auth Contract will be the owner of UserWallet\n\npragma solidity ^0.5.2;\n\nimport \"openzeppelin-solidity/contracts/math/SafeMath.sol\";\n\n/**\n * @title AddressRegistryInterface Interface \n */\ninterface AddressRegistryInterface {\n    function isLogicAuth(address logicAddr) external view returns (bool, bool);\n    function updateProxyRecord(address currentOwner, address nextOwner) external;\n    function guardianEnabled() external view returns (bool);\n    function managerEnabled() external view returns (bool);\n}\n\n/**\n * @title UserWallet Interface\n */\n// interface UserWalletInterface {\n// get the wallet address based on the owner of this wallet\n// and use execute interface from main UserWallet to call execute on this contract\n// }\n\n\n/**\n * @title Address Registry Record\n */\ncontract AddressRecord {\n    /**\n     * @dev address registry of system, logic and wallet addresses\n     */\n    address public registry;\n\n    /**\n     * @param logicAddr is the logic proxy contract address\n     * @return the true boolean for logic proxy if authorised otherwise false\n     */\n    function isLogicAuthorised(address logicAddr) public view returns (bool, bool) {\n        AddressRegistryInterface logicProxy = AddressRegistryInterface(registry);\n        (bool isLogic, bool isDefault) = logicProxy.isLogicAuth(logicAddr);\n        return (isLogic, isDefault);\n    }\n\n    /**\n     * @dev this updates the internal proxy ownership on \"registry\" contract\n     * @param currentOwner is the current owner\n     * @param nextOwner is the new assigned owner\n     */\n    function setProxyRecordOwner(address currentOwner, address nextOwner) internal {\n        AddressRegistryInterface initCall = AddressRegistryInterface(registry);\n        initCall.updateProxyRecord(currentOwner, nextOwner);\n    }\n\n}\n\n\n/**\n * @title User Auth\n */\ncontract UserAuth is AddressRecord {\n    using SafeMath for uint;\n    using SafeMath for uint256;\n\n    event LogSetOwner(address indexed owner, address setter);\n    event LogSetPendingOwner(address indexed pendingOwner, address setter);\n    address public owner;\n    address public pendingOwner;\n    uint public claimOnwershipTime; // now + 7 days\n    uint public gracePeriod; // to set the new owner - defaults to 3 days\n\n    /**\n     * @dev defines the \"proxy registry\" contract and sets the owner\n     */\n    constructor() public {\n        gracePeriod = 3 days;\n    }\n\n    /**\n     * @dev Throws if not called by owner or contract itself\n     */\n    modifier auth {\n        require(isAuth(msg.sender), \"permission-denied\");\n        _;\n    }\n\n    /**\n     * @dev sets the \"pending owner\" and provide 3 days grace period to set the new owner via setOwner()\n     * Throws if called before 10 (i.e. 7 + 3) day after assigning \"pending owner\"\n     * @param nextOwner is the assigned \"pending owner\"\n     */\n    function setPendingOwner(address nextOwner) public auth {\n        require(block.timestamp > claimOnwershipTime.add(gracePeriod), \"owner-is-still-pending\");\n        pendingOwner = nextOwner;\n        claimOnwershipTime = block.timestamp.add(7 days);\n        emit LogSetPendingOwner(nextOwner, msg.sender);\n    }\n\n    /**\n     * @dev sets \"pending owner\" as real owner\n     * Throws if no \"pending owner\"\n     * Throws if called before 7 day after assigning \"pending owner\"\n     */\n    function setOwner() public {\n        require(pendingOwner != address(0), \"no-pending-address\");\n        require(block.timestamp > claimOnwershipTime, \"owner-is-still-pending\");\n        setProxyRecordOwner(owner, pendingOwner);\n        owner = pendingOwner;\n        pendingOwner = address(0);\n        emit LogSetOwner(owner, msg.sender);\n    }\n\n    /**\n     * @dev sets owner and function is only be called once by registry on build()\n     * and this hack verifiy the contract on etherscan automatically\n     * as no dynamic owner address is sent in the constructor\n     * @param _owner is the new owner of this contract wallet\n     */\n    function setOwnerOnce(address _owner) public auth {\n        require(msg.sender == registry, \"permission-denied\");\n        owner = _owner;\n        emit LogSetOwner(owner, msg.sender);\n    }\n\n    /**\n     * @dev checks if called by owner or contract itself\n     * @param src is the address initiating the call\n     */\n    function isAuth(address src) public view returns (bool) {\n        if (src == address(this)) {\n            return true;\n        } else if (src == owner) {\n            return true;\n        } else {\n            return false;\n        }\n    }\n\n}\n\n/**\n * @title User Guardians\n * @dev the assigned guardian addresses (upto 3) can set new owners\n * but only after certain period of owner's inactivity (i.e. activePeriod)\n */\ncontract UserGuardian is UserAuth {\n    event LogSetGuardian(uint num, address indexed prevGuardian, address indexed newGuardian);\n    event LogNewActivePeriod(uint newActivePeriod);\n    event LogSetOwnerViaGuardian(address nextOwner, address indexed guardian);\n\n    mapping(uint => address) public guardians;\n    uint public lastActivity; // time when called \"execute\" last time\n    uint public activePeriod; // the period over lastActivity when guardians have no rights\n\n    /**\n     * @dev Throws if guardians not enabled by system admin\n     */\n    modifier isGuardianEnabled() {\n        AddressRegistryInterface initCall = AddressRegistryInterface(registry);\n        require(initCall.guardianEnabled(), \"guardian-not-enabled\");\n        _;\n    }\n\n    /**\n     * @dev guardians can set \"owner\" after owner stay inactive for minimum \"activePeriod\"\n     * @param nextOwner is the new owner\n     * @param num is the assigned guardian number\n     */\n    function setOwnerViaGuardian(address nextOwner, uint num) public isGuardianEnabled {\n        require(isGuardian(msg.sender), \"not-guardian\");\n        require(msg.sender == guardians[num], \"permission-denied\");\n        require(block.timestamp > lastActivity.add(activePeriod), \"active-period-not-over\");\n        owner = nextOwner;\n        emit LogSetOwnerViaGuardian(nextOwner, guardians[num]);\n    }\n\n    /**\n     * @dev sets the guardian with assigned number (upto 5)\n     * @param num is the guardian assigned number\n     * @param _guardian is the new guardian address\n     */\n    function setGuardian(uint num, address _guardian) public auth isGuardianEnabled {\n        require(num > 0 && num < 6, \"guardians-cant-exceed-three\");\n        emit LogSetGuardian(num, guardians[num], _guardian);\n        guardians[num] = _guardian;\n    }\n\n    /**\n     * @dev sets the guardian with assigned number (upto 5)\n     * @param _activePeriod is the period when guardians have no rights to dethrone the owner\n     */\n    function updateActivePeriod(uint _activePeriod) public auth isGuardianEnabled {\n        activePeriod = _activePeriod;\n        emit LogNewActivePeriod(_activePeriod);\n    }\n\n    /**\n     * @dev Throws if the msg.sender is not guardian\n     */\n    function isGuardian(address _guardian) public view returns (bool) {\n        if (_guardian == guardians[1] || _guardian == guardians[2] || _guardian == guardians[3] || _guardian == guardians[4] || _guardian == guardians[5]) {\n            return true;\n        } else {\n            return false;\n        }\n    }\n\n}\n\n/**\n * @title User Manager\n * @dev the assigned manager addresses (upto 3) can manage the wealth in contract to contract fashion\n * but can't withdraw the assets on their personal address\n */\ncontract UserManager is UserGuardian {\n    event LogSetManager(uint num, address indexed prevManager, address indexed newManager);\n\n    mapping(uint => address) public managers;\n\n    /**\n     * @dev Throws if manager not enabled by system admin\n     */\n    modifier isManagerEnabled() {\n        AddressRegistryInterface initCall = AddressRegistryInterface(registry);\n        require(initCall.managerEnabled(), \"admin-not-enabled\");\n        _;\n    }\n\n    /**\n     * @dev sets the manager with assigned number (upto 5)\n     * @param num is the assigned number of manager\n     * @param _manager is the new admin address\n     */\n    function setManager(uint num, address _manager) public auth isManagerEnabled {\n        require(num > 0 && num < 6, \"guardians-cant-exceed-three\");\n        emit LogSetManager(num, managers[num], _manager);\n        managers[num] = _manager;\n    }\n\n    /**\n     * @dev Throws if the msg.sender is not manager\n     */\n    function isManager(address _manager) public view returns (bool) {\n        if (_manager == managers[1] || _manager == managers[2] || _manager == managers[3] || _manager == managers[4] || _manager == managers[5]) {\n            return true;\n        } else {\n            return false;\n        }\n    }\n\n}\n\n/**\n * @dev logging the execute events\n */\ncontract UserNote {\n    event LogNote(bytes4 indexed sig, address indexed guy, bytes32 indexed foo, bytes32 bar, uint wad, bytes fax);\n\n    modifier note {\n        bytes32 foo;\n        bytes32 bar;\n        assembly {\n            foo := calldataload(4)\n            bar := calldataload(36)\n        }\n        emit LogNote(msg.sig, msg.sender, foo, bar, msg.value, msg.data);\n        _;\n    }\n}\n\n/**\n * @title User Owned Contract Wallet\n */\ncontract InstaWallet is UserManager, UserNote {\n    event LogExecute(address sender, address target, uint srcNum, uint sessionNum);\n\n    /**\n     * @dev sets the \"address registry\", owner's last activity, owner's active period and initial owner\n     */\n    constructor() public {\n        registry = msg.sender;\n        owner = msg.sender; // will be changed in initial call itself\n        lastActivity = block.timestamp;\n        activePeriod = 30 days; // default on deployment and changeable afterwards\n    }\n\n    function() external payable {}\n\n    /**\n     * @dev execute authorised calls via delegate call\n     * @param _target logic proxy address\n     * @param _data delegate call data\n     * @param srcNum to find the source\n     * @param sessionNum to find the session\n     */\n    function execute(address _target, bytes memory _data, uint srcNum, uint sessionNum)\n        public\n        payable\n        note\n        isExecutable(_target)\n        returns (bytes memory response)\n    {\n        lastActivity = block.timestamp;\n        emit LogExecute(msg.sender, _target, srcNum, sessionNum);\n\n        // call contract in current context\n        assembly {\n            let succeeded := delegatecall(sub(gas, 5000), _target, add(_data, 0x20), mload(_data), 0, 0)\n            let size := returndatasize\n\n            response := mload(0x40)\n            mstore(0x40, add(response, and(add(add(size, 0x20), 0x1f), not(0x1f))))\n            mstore(response, size)\n            returndatacopy(add(response, 0x20), 0, size)\n\n            switch iszero(succeeded)\n                case 1 {\n                    // throw if delegatecall failed\n                    revert(add(response, 0x20), size)\n                }\n        }\n    }\n\n    /**\n     * @dev checks if the proxy is authorised\n     * and if the sender is owner or contract itself or manager\n     * and if manager then Throws if target is default proxy address\n     */\n    modifier isExecutable(address proxyTarget) {\n        require(proxyTarget != address(0), \"logic-proxy-address-required\");\n\n        (bool isLogic, bool isDefault) = isLogicAuthorised(proxyTarget);\n        require(isLogic, \"logic-proxy-address-not-allowed\");\n\n        bool enact = false;\n        if (isAuth(msg.sender)) {\n            enact = true;\n        } else if (isManager(msg.sender) && !isDefault) {\n            enact = true;\n        }\n\n        require(enact, \"not-executable\");\n        _;\n    }\n\n}\n",
  "sourcePath": "/Users/pierrick/Documents/04-OSS/08-Graph/02-InstaDApp/contract-v2/contracts/Bin/Reference/InstaWallet.sol",
  "compiler": {
    "name": "solc",
    "version": "0.5.11+commit.c082d0b4.Emscripten.clang"
  },
  "schemaVersion": "3.0.16",
  "updatedAt": "2019-09-15T00:52:15.585Z",
  "devdoc": {
    "methods": {
      "constructor": {
        "details": "sets the \"address registry\", owner's last activity, owner's active period and initial owner"
      },
      "execute(address,bytes,uint256,uint256)": {
        "details": "execute authorised calls via delegate call",
        "params": {
          "_data": "delegate call data",
          "_target": "logic proxy address",
          "sessionNum": "to find the session",
          "srcNum": "to find the source"
        }
      },
      "isAuth(address)": {
        "details": "checks if called by owner or contract itself",
        "params": {
          "src": "is the address initiating the call"
        }
      },
      "isGuardian(address)": {
        "details": "Throws if the msg.sender is not guardian"
      },
      "isLogicAuthorised(address)": {
        "params": {
          "logicAddr": "is the logic proxy contract address"
        },
        "return": "the true boolean for logic proxy if authorised otherwise false"
      },
      "isManager(address)": {
        "details": "Throws if the msg.sender is not manager"
      },
      "setGuardian(uint256,address)": {
        "details": "sets the guardian with assigned number (upto 5)",
        "params": {
          "_guardian": "is the new guardian address",
          "num": "is the guardian assigned number"
        }
      },
      "setManager(uint256,address)": {
        "details": "sets the manager with assigned number (upto 5)",
        "params": {
          "_manager": "is the new admin address",
          "num": "is the assigned number of manager"
        }
      },
      "setOwner()": {
        "details": "sets \"pending owner\" as real owner Throws if no \"pending owner\" Throws if called before 7 day after assigning \"pending owner\""
      },
      "setOwnerOnce(address)": {
        "details": "sets owner and function is only be called once by registry on build() and this hack verifiy the contract on etherscan automatically as no dynamic owner address is sent in the constructor",
        "params": {
          "_owner": "is the new owner of this contract wallet"
        }
      },
      "setOwnerViaGuardian(address,uint256)": {
        "details": "guardians can set \"owner\" after owner stay inactive for minimum \"activePeriod\"",
        "params": {
          "nextOwner": "is the new owner",
          "num": "is the assigned guardian number"
        }
      },
      "setPendingOwner(address)": {
        "details": "sets the \"pending owner\" and provide 3 days grace period to set the new owner via setOwner() Throws if called before 10 (i.e. 7 + 3) day after assigning \"pending owner\"",
        "params": {
          "nextOwner": "is the assigned \"pending owner\""
        }
      },
      "updateActivePeriod(uint256)": {
        "details": "sets the guardian with assigned number (upto 5)",
        "params": {
          "_activePeriod": "is the period when guardians have no rights to dethrone the owner"
        }
      }
    },
    "title": "User Owned Contract Wallet"
  },
  "userdoc": {
    "methods": {}
  }
}