{
  "contractName": "InstaKyber",
  "abi": [
    {
      "constant": true,
      "inputs": [
        {
          "internalType": "address",
          "name": "src",
          "type": "address"
        },
        {
          "internalType": "address",
          "name": "dest",
          "type": "address"
        },
        {
          "internalType": "uint256",
          "name": "srcAmt",
          "type": "uint256"
        }
      ],
      "name": "getExpectedRateKyber",
      "outputs": [
        {
          "internalType": "uint256",
          "name": "",
          "type": "uint256"
        },
        {
          "internalType": "uint256",
          "name": "",
          "type": "uint256"
        }
      ],
      "payable": false,
      "stateMutability": "view",
      "type": "function"
    },
    {
      "constant": false,
      "inputs": [
        {
          "internalType": "address",
          "name": "src",
          "type": "address"
        },
        {
          "internalType": "uint256",
          "name": "srcAmt",
          "type": "uint256"
        },
        {
          "internalType": "address",
          "name": "dest",
          "type": "address"
        },
        {
          "internalType": "uint256",
          "name": "minDestAmt",
          "type": "uint256"
        }
      ],
      "name": "tradeSrcKyber",
      "outputs": [
        {
          "internalType": "uint256",
          "name": "tokensBought",
          "type": "uint256"
        }
      ],
      "payable": true,
      "stateMutability": "payable",
      "type": "function"
    },
    {
      "constant": false,
      "inputs": [
        {
          "internalType": "address",
          "name": "src",
          "type": "address"
        },
        {
          "internalType": "uint256",
          "name": "maxSrcAmt",
          "type": "uint256"
        },
        {
          "internalType": "address",
          "name": "dest",
          "type": "address"
        },
        {
          "internalType": "uint256",
          "name": "destAmt",
          "type": "uint256"
        }
      ],
      "name": "tradeDestKyber",
      "outputs": [
        {
          "internalType": "uint256",
          "name": "tokensBought",
          "type": "uint256"
        }
      ],
      "payable": true,
      "stateMutability": "payable",
      "type": "function"
    },
    {
      "constant": true,
      "inputs": [],
      "name": "addressRegistry",
      "outputs": [
        {
          "internalType": "address",
          "name": "",
          "type": "address"
        }
      ],
      "payable": false,
      "stateMutability": "view",
      "type": "function"
    },
    {
      "inputs": [
        {
          "internalType": "address",
          "name": "rAddr",
          "type": "address"
        }
      ],
      "payable": false,
      "stateMutability": "nonpayable",
      "type": "constructor"
    },
    {
      "payable": true,
      "stateMutability": "payable",
      "type": "fallback"
    },
    {
      "anonymous": false,
      "inputs": [
        {
          "indexed": false,
          "internalType": "address",
          "name": "src",
          "type": "address"
        },
        {
          "indexed": false,
          "internalType": "uint256",
          "name": "srcAmt",
          "type": "uint256"
        },
        {
          "indexed": false,
          "internalType": "address",
          "name": "dest",
          "type": "address"
        },
        {
          "indexed": false,
          "internalType": "uint256",
          "name": "destAmt",
          "type": "uint256"
        },
        {
          "indexed": false,
          "internalType": "address",
          "name": "beneficiary",
          "type": "address"
        },
        {
          "indexed": false,
          "internalType": "uint256",
          "name": "minConversionRate",
          "type": "uint256"
        },
        {
          "indexed": false,
          "internalType": "address",
          "name": "affiliate",
          "type": "address"
        }
      ],
      "name": "KyberTrade",
      "type": "event"
    }
  ],
  "bytecode": "0x608060405234801561001057600080fd5b506040516114653803806114658339818101604052602081101561003357600080fd5b8101908080519060200190929190505050806000806101000a81548173ffffffffffffffffffffffffffffffffffffffff021916908373ffffffffffffffffffffffffffffffffffffffff160217905550506113d1806100946000396000f3fe60806040526004361061003f5760003560e01c80631cdb461114610041578063a9d1b6bd146100d7578063e438a51714610163578063f3ad65f4146101ef575b005b34801561004d57600080fd5b506100ba6004803603606081101561006457600080fd5b81019080803573ffffffffffffffffffffffffffffffffffffffff169060200190929190803573ffffffffffffffffffffffffffffffffffffffff16906020019092919080359060200190929190505050610246565b604051808381526020018281526020019250505060405180910390f35b61014d600480360360808110156100ed57600080fd5b81019080803573ffffffffffffffffffffffffffffffffffffffff16906020019092919080359060200190929190803573ffffffffffffffffffffffffffffffffffffffff16906020019092919080359060200190929190505050610395565b6040518082815260200191505060405180910390f35b6101d96004803603608081101561017957600080fd5b81019080803573ffffffffffffffffffffffffffffffffffffffff16906020019092919080359060200190929190803573ffffffffffffffffffffffffffffffffffffffff16906020019092919080359060200190929190505050610795565b6040518082815260200191505060405180910390f35b3480156101fb57600080fd5b50610204610df7565b604051808273ffffffffffffffffffffffffffffffffffffffff1673ffffffffffffffffffffffffffffffffffffffff16815260200191505060405180910390f35b60008060006102896040518060400160405280600581526020017f6b79626572000000000000000000000000000000000000000000000000000000815250610e1c565b90508073ffffffffffffffffffffffffffffffffffffffff1663809a9e558787876040518463ffffffff1660e01b8152600401808473ffffffffffffffffffffffffffffffffffffffff1673ffffffffffffffffffffffffffffffffffffffff1681526020018373ffffffffffffffffffffffffffffffffffffffff1673ffffffffffffffffffffffffffffffffffffffff1681526020018281526020019350505050604080518083038186803b15801561034357600080fd5b505afa158015610357573d6000803e3d6000fd5b505050506040513d604081101561036d57600080fd5b8101908080519060200190929190805190602001909291905050509250925050935093915050565b6000806103d66040518060400160405280600381526020017f6574680000000000000000000000000000000000000000000000000000000000815250610e1c565b905060006103e633888885610f3c565b90508173ffffffffffffffffffffffffffffffffffffffff168773ffffffffffffffffffffffffffffffffffffffff161461042657610424876110f9565b505b60006104666040518060400160405280600581526020017f6b79626572000000000000000000000000000000000000000000000000000000815250610e1c565b90508073ffffffffffffffffffffffffffffffffffffffff1663cb3c28c7838a8a8a337fffffffffffffffffffffffffffffffffffffffffffffffffffffffffffffffff8c6104e96040518060400160405280600581526020017f61646d696e000000000000000000000000000000000000000000000000000000815250610e1c565b6040518963ffffffff1660e01b8152600401808873ffffffffffffffffffffffffffffffffffffffff1673ffffffffffffffffffffffffffffffffffffffff1681526020018781526020018673ffffffffffffffffffffffffffffffffffffffff1673ffffffffffffffffffffffffffffffffffffffff1681526020018573ffffffffffffffffffffffffffffffffffffffff1673ffffffffffffffffffffffffffffffffffffffff1681526020018481526020018381526020018273ffffffffffffffffffffffffffffffffffffffff1673ffffffffffffffffffffffffffffffffffffffff1681526020019750505050505050506020604051808303818588803b1580156105f857600080fd5b505af115801561060c573d6000803e3d6000fd5b50505050506040513d602081101561062357600080fd5b810190808051906020019092919050505093507faf95114641285cac53dca41a5a81b1d27d822a892a3611d8d8b82d406539ed4088888887338a61069b6040518060400160405280600581526020017f61646d696e000000000000000000000000000000000000000000000000000000815250610e1c565b604051808873ffffffffffffffffffffffffffffffffffffffff1673ffffffffffffffffffffffffffffffffffffffff1681526020018781526020018673ffffffffffffffffffffffffffffffffffffffff1673ffffffffffffffffffffffffffffffffffffffff1681526020018581526020018473ffffffffffffffffffffffffffffffffffffffff1673ffffffffffffffffffffffffffffffffffffffff1681526020018381526020018273ffffffffffffffffffffffffffffffffffffffff1673ffffffffffffffffffffffffffffffffffffffff16815260200197505050505050505060405180910390a1505050949350505050565b6000806107d66040518060400160405280600381526020017f6574680000000000000000000000000000000000000000000000000000000000815250610e1c565b905060006107e633888885610f3c565b90508173ffffffffffffffffffffffffffffffffffffffff168773ffffffffffffffffffffffffffffffffffffffff161461082657610824876110f9565b505b60006108666040518060400160405280600581526020017f6b79626572000000000000000000000000000000000000000000000000000000815250610e1c565b90508073ffffffffffffffffffffffffffffffffffffffff1663cb3c28c7838a8a8a338b60018d036108cc6040518060400160405280600581526020017f61646d696e000000000000000000000000000000000000000000000000000000815250610e1c565b6040518963ffffffff1660e01b8152600401808873ffffffffffffffffffffffffffffffffffffffff1673ffffffffffffffffffffffffffffffffffffffff1681526020018781526020018673ffffffffffffffffffffffffffffffffffffffff1673ffffffffffffffffffffffffffffffffffffffff1681526020018573ffffffffffffffffffffffffffffffffffffffff1673ffffffffffffffffffffffffffffffffffffffff1681526020018481526020018381526020018273ffffffffffffffffffffffffffffffffffffffff1673ffffffffffffffffffffffffffffffffffffffff1681526020019750505050505050506020604051808303818588803b1580156109db57600080fd5b505af11580156109ef573d6000803e3d6000fd5b50505050506040513d6020811015610a0657600080fd5b810190808051906020019092919050505093508273ffffffffffffffffffffffffffffffffffffffff168873ffffffffffffffffffffffffffffffffffffffff16148015610a6b575060003073ffffffffffffffffffffffffffffffffffffffff1631115b15610ad3573373ffffffffffffffffffffffffffffffffffffffff166108fc3073ffffffffffffffffffffffffffffffffffffffff16319081150290604051600060405180830381858888f19350505050158015610acd573d6000803e3d6000fd5b50610c98565b8273ffffffffffffffffffffffffffffffffffffffff168873ffffffffffffffffffffffffffffffffffffffff1614610c9757600088905060008173ffffffffffffffffffffffffffffffffffffffff166370a08231306040518263ffffffff1660e01b8152600401808273ffffffffffffffffffffffffffffffffffffffff1673ffffffffffffffffffffffffffffffffffffffff16815260200191505060206040518083038186803b158015610b8a57600080fd5b505afa158015610b9e573d6000803e3d6000fd5b505050506040513d6020811015610bb457600080fd5b810190808051906020019092919050505090506000811115610c94578173ffffffffffffffffffffffffffffffffffffffff1663a9059cbb33836040518363ffffffff1660e01b8152600401808373ffffffffffffffffffffffffffffffffffffffff1673ffffffffffffffffffffffffffffffffffffffff16815260200182815260200192505050602060405180830381600087803b158015610c5757600080fd5b505af1158015610c6b573d6000803e3d6000fd5b505050506040513d6020811015610c8157600080fd5b8101908080519060200190929190505050505b50505b5b7faf95114641285cac53dca41a5a81b1d27d822a892a3611d8d8b82d406539ed4088888887338a610cfd6040518060400160405280600581526020017f61646d696e000000000000000000000000000000000000000000000000000000815250610e1c565b604051808873ffffffffffffffffffffffffffffffffffffffff1673ffffffffffffffffffffffffffffffffffffffff1681526020018781526020018673ffffffffffffffffffffffffffffffffffffffff1673ffffffffffffffffffffffffffffffffffffffff1681526020018581526020018473ffffffffffffffffffffffffffffffffffffffff1673ffffffffffffffffffffffffffffffffffffffff1681526020018381526020018273ffffffffffffffffffffffffffffffffffffffff1673ffffffffffffffffffffffffffffffffffffffff16815260200197505050505050505060405180910390a1505050949350505050565b6000809054906101000a900473ffffffffffffffffffffffffffffffffffffffff1681565b6000806000809054906101000a900473ffffffffffffffffffffffffffffffffffffffff1690508073ffffffffffffffffffffffffffffffffffffffff1663d502db97846040518263ffffffff1660e01b81526004018080602001828103825283818151815260200191508051906020019080838360005b83811015610eaf578082015181840152602081019050610e94565b50505050905090810190601f168015610edc5780820380516001836020036101000a031916815260200191505b509250505060206040518083038186803b158015610ef957600080fd5b505afa158015610f0d573d6000803e3d6000fd5b505050506040513d6020811015610f2357600080fd5b8101908080519060200190929190505050915050919050565b60008173ffffffffffffffffffffffffffffffffffffffff168473ffffffffffffffffffffffffffffffffffffffff161415610fef57823414610fe7576040517f08c379a00000000000000000000000000000000000000000000000000000000081526004018080602001828103825260118152602001807f496e76616c6964204f7065726174696f6e00000000000000000000000000000081525060200191505060405180910390fd5b8290506110f1565b60008490508073ffffffffffffffffffffffffffffffffffffffff166323b872dd8730876040518463ffffffff1660e01b8152600401808473ffffffffffffffffffffffffffffffffffffffff1673ffffffffffffffffffffffffffffffffffffffff1681526020018373ffffffffffffffffffffffffffffffffffffffff1673ffffffffffffffffffffffffffffffffffffffff1681526020018281526020019350505050602060405180830381600087803b1580156110af57600080fd5b505af11580156110c3573d6000803e3d6000fd5b505050506040513d60208110156110d957600080fd5b81019080805190602001909291905050505060009150505b949350505050565b6000806111058361112c565b905060008114156111215761111983611269565b915050611127565b60019150505b919050565b60008061116d6040518060400160405280600581526020017f6b79626572000000000000000000000000000000000000000000000000000000815250610e1c565b905060008390508073ffffffffffffffffffffffffffffffffffffffff1663dd62ed3e30846040518363ffffffff1660e01b8152600401808373ffffffffffffffffffffffffffffffffffffffff1673ffffffffffffffffffffffffffffffffffffffff1681526020018273ffffffffffffffffffffffffffffffffffffffff1673ffffffffffffffffffffffffffffffffffffffff1681526020019250505060206040518083038186803b15801561122557600080fd5b505afa158015611239573d6000803e3d6000fd5b505050506040513d602081101561124f57600080fd5b810190808051906020019092919050505092505050919050565b6000806112aa6040518060400160405280600581526020017f6b79626572000000000000000000000000000000000000000000000000000000815250610e1c565b905060008390508073ffffffffffffffffffffffffffffffffffffffff1663095ea7b3837fffffffffffffffffffffffffffffffffffffffffffffffffffffffffffffffff6040518363ffffffff1660e01b8152600401808373ffffffffffffffffffffffffffffffffffffffff1673ffffffffffffffffffffffffffffffffffffffff16815260200182815260200192505050602060405180830381600087803b15801561135857600080fd5b505af115801561136c573d6000803e3d6000fd5b505050506040513d602081101561138257600080fd5b81019080805190602001909291905050509250505091905056fea265627a7a7231582094fcf2cd60de2fd7e62e9bf25cf93f6b9f79c8e949a4c37720738712fa985b7864736f6c634300050b0032",
  "source": "pragma solidity ^0.5.2;\n\nimport \"openzeppelin-solidity/contracts/math/SafeMath.sol\";\nimport \"openzeppelin-solidity/contracts/token/ERC20/IERC20.sol\";\n\ninterface AddressRegistry {\n    function getAddr(string calldata name) external view returns (address);\n}\n\ninterface Kyber {\n    // Kyber's trade function\n    function trade(\n        address src,\n        uint srcAmount,\n        address dest,\n        address destAddress,\n        uint maxDestAmount,\n        uint minConversionRate,\n        address walletId\n    ) external payable returns (uint);\n    // Kyber's Get expected Rate function\n    function getExpectedRate(address src, address dest, uint srcQty) external view returns (uint, uint);\n}\n\ncontract Registry {\n    address public addressRegistry;\n    modifier onlyAdmin() {\n        require(msg.sender == _getAddress(\"admin\"), \"Permission Denied\");\n        _;\n    }\n    function _getAddress(string memory name) internal view returns (address) {\n        AddressRegistry addrReg = AddressRegistry(addressRegistry);\n        return addrReg.getAddr(name);\n    }\n}\n\ncontract helper is Registry {\n    function _getToken(address trader, address src, uint srcAmt, address eth) internal returns (uint ethQty) {\n        if (src == eth) {\n            require(msg.value == srcAmt, \"Invalid Operation\");\n            ethQty = srcAmt;\n        } else {\n            IERC20 tokenFunctions = IERC20(src);\n            tokenFunctions.transferFrom(trader, address(this), srcAmt);\n            ethQty = 0;\n        }\n    }\n\n    // approve to Kyber Proxy contract\n    function _approveKyber(address token) internal returns (bool) {\n        address kyberProxy = _getAddress(\"kyber\");\n        IERC20 tokenFunctions = IERC20(token);\n        return tokenFunctions.approve(kyberProxy, uint(0 - 1));\n    }\n\n    // Check Allowance to Kyber Proxy contract\n    function _allowanceKyber(address token) internal view returns (uint) {\n        address kyberProxy = _getAddress(\"kyber\");\n        IERC20 tokenFunctions = IERC20(token);\n        return tokenFunctions.allowance(address(this), kyberProxy);\n    }\n\n    // Check allowance, if not approve\n    function _allowanceApproveKyber(address token) internal returns (bool) {\n        uint allowanceGiven = _allowanceKyber(token);\n        if (allowanceGiven == 0) {\n            return _approveKyber(token);\n        } else {\n            return true;\n        }\n    }\n}\n\ncontract Trade is helper {\n    using SafeMath for uint;\n\n    event KyberTrade(address src, uint srcAmt, address dest, uint destAmt, address beneficiary, uint minConversionRate, address affiliate);\n\n    function getExpectedRateKyber(address src, address dest, uint srcAmt) public view returns (uint, uint) {\n        Kyber kyberFunctions = Kyber(_getAddress(\"kyber\"));\n        return kyberFunctions.getExpectedRate(src, dest, srcAmt);\n    }\n\n    /**\n     * @dev Kyber's trade when token to sell Amount fixed\n     * @param src - Token address to sell (for ETH it's \"0xeeeeeeeeeeeeeeeeeeeeeeeeeeeeeeeeeeeeeeee\")\n     * @param srcAmt - amount of token for sell\n     * @param dest - Token address to buy (for ETH it's \"0xeeeeeeeeeeeeeeeeeeeeeeeeeeeeeeeeeeeeeeee\")\n     * @param minDestAmt - min amount of token to buy (slippage)\n    */\n    function tradeSrcKyber(\n        address src, // token to sell\n        uint srcAmt, // amount of token for sell\n        address dest, // token to buy\n        uint minDestAmt // minimum slippage rate\n    ) public payable returns (uint tokensBought) {\n        address eth = _getAddress(\"eth\");\n        uint ethQty = _getToken(msg.sender, src, srcAmt, eth);\n\n        if (src != eth) {\n            _allowanceApproveKyber(src);\n        }\n\n        // Interacting with Kyber Proxy Contract\n        Kyber kyberFunctions = Kyber(_getAddress(\"kyber\"));\n        tokensBought = kyberFunctions.trade.value(ethQty)(src, srcAmt, dest, msg.sender, uint(0 - 1), minDestAmt, _getAddress(\"admin\"));\n\n        emit KyberTrade(src, srcAmt, dest, tokensBought, msg.sender, minDestAmt, _getAddress(\"admin\"));\n\n    }\n\n    /**\n     * @dev Kyber's trade when token to sell Amount fixed\n     * @param src - Token address to sell (for ETH it's \"0xeeeeeeeeeeeeeeeeeeeeeeeeeeeeeeeeeeeeeeee\")\n     * @param maxSrcAmt - max amount of token for sell (slippage)\n     * @param dest - Token address to buy (for ETH it's \"0xeeeeeeeeeeeeeeeeeeeeeeeeeeeeeeeeeeeeeeee\")\n     * @param destAmt - amount of token to buy\n    */\n    function tradeDestKyber(\n        address src, // token to sell\n        uint maxSrcAmt, // amount of token for sell\n        address dest, // token to buy\n        uint destAmt // minimum slippage rate\n    ) public payable returns (uint tokensBought) {\n        address eth = _getAddress(\"eth\");\n        uint ethQty = _getToken(msg.sender, src, maxSrcAmt, eth);\n\n        if (src != eth) {\n            _allowanceApproveKyber(src);\n        }\n\n        // Interacting with Kyber Proxy Contract\n        Kyber kyberFunctions = Kyber(_getAddress(\"kyber\"));\n        tokensBought = kyberFunctions.trade.value(ethQty)(src, maxSrcAmt, dest, msg.sender, destAmt, destAmt - 1, _getAddress(\"admin\"));\n\n        // maxDestAmt usecase implementated\n        if (src == eth && address(this).balance > 0) {\n            msg.sender.transfer(address(this).balance);\n        } else if (src != eth) {\n            // as there is no balanceOf of eth\n            IERC20 srcTkn = IERC20(src);\n            uint srcBal = srcTkn.balanceOf(address(this));\n            if (srcBal > 0) {\n                srcTkn.transfer(msg.sender, srcBal);\n            }\n        }\n\n        emit KyberTrade(src, maxSrcAmt, dest, tokensBought, msg.sender, destAmt, _getAddress(\"admin\"));\n\n    }\n\n}\n\n\ncontract InstaKyber is Trade {\n    constructor(address rAddr) public {\n        addressRegistry = rAddr;\n    }\n\n    function() external payable {}\n}\n",
  "sourcePath": "/Users/pierrick/Documents/04-OSS/08-Graph/02-InstaDApp/contract-v2/contracts/Bin/Kyber.sol",
  "compiler": {
    "name": "solc",
    "version": "0.5.11+commit.c082d0b4.Emscripten.clang"
  },
  "schemaVersion": "3.0.16",
  "updatedAt": "2019-09-15T00:52:15.465Z",
  "devdoc": {
    "methods": {
      "tradeDestKyber(address,uint256,address,uint256)": {
        "details": "Kyber's trade when token to sell Amount fixed",
        "params": {
          "dest": "- Token address to buy (for ETH it's \"0xeeeeeeeeeeeeeeeeeeeeeeeeeeeeeeeeeeeeeeee\")",
          "destAmt": "- amount of token to buy",
          "maxSrcAmt": "- max amount of token for sell (slippage)",
          "src": "- Token address to sell (for ETH it's \"0xeeeeeeeeeeeeeeeeeeeeeeeeeeeeeeeeeeeeeeee\")"
        }
      },
      "tradeSrcKyber(address,uint256,address,uint256)": {
        "details": "Kyber's trade when token to sell Amount fixed",
        "params": {
          "dest": "- Token address to buy (for ETH it's \"0xeeeeeeeeeeeeeeeeeeeeeeeeeeeeeeeeeeeeeeee\")",
          "minDestAmt": "- min amount of token to buy (slippage)",
          "src": "- Token address to sell (for ETH it's \"0xeeeeeeeeeeeeeeeeeeeeeeeeeeeeeeeeeeeeeeee\")",
          "srcAmt": "- amount of token for sell"
        }
      }
    }
  },
  "userdoc": {
    "methods": {}
  }
}