{
  "contractName": "InstaBridge",
  "abi": [
    {
      "constant": true,
      "inputs": [],
      "name": "getComptrollerAddress",
      "outputs": [
        {
          "internalType": "address",
          "name": "troller",
          "type": "address"
        }
      ],
      "payable": false,
      "stateMutability": "pure",
      "type": "function"
    },
    {
      "constant": true,
      "inputs": [],
      "name": "version",
      "outputs": [
        {
          "internalType": "uint256",
          "name": "",
          "type": "uint256"
        }
      ],
      "payable": false,
      "stateMutability": "view",
      "type": "function"
    },
    {
      "constant": false,
      "inputs": [
        {
          "internalType": "uint256",
          "name": "cdpId",
          "type": "uint256"
        },
        {
          "internalType": "uint256",
          "name": "ethCol",
          "type": "uint256"
        },
        {
          "internalType": "uint256",
          "name": "daiDebt",
          "type": "uint256"
        }
      ],
      "name": "makerToCompound",
      "outputs": [],
      "payable": false,
      "stateMutability": "nonpayable",
      "type": "function"
    },
    {
      "constant": false,
      "inputs": [
        {
          "internalType": "uint256",
          "name": "cdpId",
          "type": "uint256"
        },
        {
          "internalType": "uint256",
          "name": "ethCol",
          "type": "uint256"
        },
        {
          "internalType": "uint256",
          "name": "daiDebt",
          "type": "uint256"
        }
      ],
      "name": "compoundToMaker",
      "outputs": [],
      "payable": false,
      "stateMutability": "nonpayable",
      "type": "function"
    },
    {
      "constant": true,
      "inputs": [],
      "name": "getCETHAddress",
      "outputs": [
        {
          "internalType": "address",
          "name": "cEth",
          "type": "address"
        }
      ],
      "payable": false,
      "stateMutability": "pure",
      "type": "function"
    },
    {
      "constant": true,
      "inputs": [],
      "name": "getDAIAddress",
      "outputs": [
        {
          "internalType": "address",
          "name": "dai",
          "type": "address"
        }
      ],
      "payable": false,
      "stateMutability": "pure",
      "type": "function"
    },
    {
      "constant": true,
      "inputs": [],
      "name": "getSaiTubAddress",
      "outputs": [
        {
          "internalType": "address",
          "name": "sai",
          "type": "address"
        }
      ],
      "payable": false,
      "stateMutability": "pure",
      "type": "function"
    },
    {
      "constant": true,
      "inputs": [],
      "name": "getCDAIAddress",
      "outputs": [
        {
          "internalType": "address",
          "name": "cDai",
          "type": "address"
        }
      ],
      "payable": false,
      "stateMutability": "pure",
      "type": "function"
    },
    {
      "constant": true,
      "inputs": [],
      "name": "getBridgeAddress",
      "outputs": [
        {
          "internalType": "address",
          "name": "bridge",
          "type": "address"
        }
      ],
      "payable": false,
      "stateMutability": "pure",
      "type": "function"
    },
    {
      "inputs": [
        {
          "internalType": "uint256",
          "name": "_version",
          "type": "uint256"
        }
      ],
      "payable": false,
      "stateMutability": "nonpayable",
      "type": "constructor"
    },
    {
      "payable": true,
      "stateMutability": "payable",
      "type": "fallback"
    }
  ],
  "bytecode": "0x608060405234801561001057600080fd5b50604051610e2f380380610e2f8339818101604052602081101561003357600080fd5b81019080805190602001909291905050508060008190555050610dd48061005b6000396000f3fe6080604052600436106100865760003560e01c8063c9ce5d8611610059578063c9ce5d86146101a8578063e6029515146101ff578063f1d9a15014610256578063f9bda826146102ad578063fb32c5081461030457610086565b80634ee9159a1461008857806354fd4d50146100df57806389de93c81461010a578063c7b4b11c14610159575b005b34801561009457600080fd5b5061009d61035b565b604051808273ffffffffffffffffffffffffffffffffffffffff1673ffffffffffffffffffffffffffffffffffffffff16815260200191505060405180910390f35b3480156100eb57600080fd5b506100f4610377565b6040518082815260200191505060405180910390f35b34801561011657600080fd5b506101576004803603606081101561012d57600080fd5b8101908080359060200190929190803590602001909291908035906020019092919050505061037d565b005b34801561016557600080fd5b506101a66004803603606081101561017c57600080fd5b810190808035906020019092919080359060200190929190803590602001909291905050506104da565b005b3480156101b457600080fd5b506101bd6105b1565b604051808273ffffffffffffffffffffffffffffffffffffffff1673ffffffffffffffffffffffffffffffffffffffff16815260200191505060405180910390f35b34801561020b57600080fd5b506102146105cd565b604051808273ffffffffffffffffffffffffffffffffffffffff1673ffffffffffffffffffffffffffffffffffffffff16815260200191505060405180910390f35b34801561026257600080fd5b5061026b6105e9565b604051808273ffffffffffffffffffffffffffffffffffffffff1673ffffffffffffffffffffffffffffffffffffffff16815260200191505060405180910390f35b3480156102b957600080fd5b506102c2610605565b604051808273ffffffffffffffffffffffffffffffffffffffff1673ffffffffffffffffffffffffffffffffffffffff16815260200191505060405180910390f35b34801561031057600080fd5b50610319610621565b604051808273ffffffffffffffffffffffffffffffffffffffff1673ffffffffffffffffffffffffffffffffffffffff16815260200191505060405180910390f35b6000733d9819210a31b4961b30ef54be2aed79b9c9cd3b905090565b60005481565b61038e83610389610621565b61063d565b6000610398610621565b905060008173ffffffffffffffffffffffffffffffffffffffff166389de93c88686866040518463ffffffff1660e01b8152600401808481526020018381526020018281526020019350505050602060405180830381600087803b1580156103ff57600080fd5b505af1158015610413573d6000803e3d6000fd5b505050506040513d602081101561042957600080fd5b8101908080519060200190929190505050905060008111156104d35761044e816106ea565b6104676104596105cd565b82610462610621565b610817565b8173ffffffffffffffffffffffffffffffffffffffff1663f999f9da826040518263ffffffff1660e01b815260040180828152602001915050600060405180830381600087803b1580156104ba57600080fd5b505af11580156104ce573d6000803e3d6000fd5b505050505b5050505050565b600083146104f4576104f3836104ee610621565b61063d565b5b600082111561052a576105296105086105b1565b7240000000000000000000000000000000000000610524610621565b610817565b5b610532610621565b73ffffffffffffffffffffffffffffffffffffffff1663c7b4b11c8484846040518463ffffffff1660e01b8152600401808481526020018381526020018281526020019350505050600060405180830381600087803b15801561059457600080fd5b505af11580156105a8573d6000803e3d6000fd5b50505050505050565b6000734ddc2d193948926d02f9b1fe9e1daa0718270ed5905090565b60007389d24a6b4ccb1b6faa2625fe562bdd9a23260359905090565b600073448a5065aebb8e423f0896e6c5d525c040f59af3905090565b600073f5dce57282a584d2746faf1593d3121fcac444dc905090565b60007337acfef331e6063c8507c2a69c97b4f78c770a5a905090565b6106456105e9565b73ffffffffffffffffffffffffffffffffffffffff1663baa8529c8360001b836040518363ffffffff1660e01b8152600401808381526020018273ffffffffffffffffffffffffffffffffffffffff1673ffffffffffffffffffffffffffffffffffffffff16815260200192505050600060405180830381600087803b1580156106ce57600080fd5b505af11580156106e2573d6000803e3d6000fd5b505050505050565b6106fa6106f56105b1565b6109db565b61070a610705610605565b6109db565b6000610714610605565b73ffffffffffffffffffffffffffffffffffffffff1663c5ebeaec836040518263ffffffff1660e01b815260040180828152602001915050602060405180830381600087803b15801561076657600080fd5b505af115801561077a573d6000803e3d6000fd5b505050506040513d602081101561079057600080fd5b810190808051906020019092919050505014610814576040517f08c379a000000000000000000000000000000000000000000000000000000000815260040180806020018281038252600f8152602001807f676f7420636f6c6c61746572616c3f000000000000000000000000000000000081525060200191505060405180910390fd5b50565b600083905060008173ffffffffffffffffffffffffffffffffffffffff1663dd62ed3e30856040518363ffffffff1660e01b8152600401808373ffffffffffffffffffffffffffffffffffffffff1673ffffffffffffffffffffffffffffffffffffffff1681526020018273ffffffffffffffffffffffffffffffffffffffff1673ffffffffffffffffffffffffffffffffffffffff1681526020019250505060206040518083038186803b1580156108cf57600080fd5b505afa1580156108e3573d6000803e3d6000fd5b505050506040513d60208110156108f957600080fd5b81019080805190602001909291905050509050808411156109d4578173ffffffffffffffffffffffffffffffffffffffff1663095ea7b3847f80000000000000000000000000000000000000000000000000000000000000006040518363ffffffff1660e01b8152600401808373ffffffffffffffffffffffffffffffffffffffff1673ffffffffffffffffffffffffffffffffffffffff16815260200182815260200192505050600060405180830381600087803b1580156109bb57600080fd5b505af11580156109cf573d6000803e3d6000fd5b505050505b5050505050565b60006109e561035b565b905060608173ffffffffffffffffffffffffffffffffffffffff1663abfceffc306040518263ffffffff1660e01b8152600401808273ffffffffffffffffffffffffffffffffffffffff1673ffffffffffffffffffffffffffffffffffffffff16815260200191505060006040518083038186803b158015610a6657600080fd5b505afa158015610a7a573d6000803e3d6000fd5b505050506040513d6000823e3d601f19601f820116820180604052506020811015610aa457600080fd5b8101908080516040519392919084640100000000821115610ac457600080fd5b83820191506020820185811115610ada57600080fd5b8251866020820283011164010000000082111715610af757600080fd5b8083526020830192505050908051906020019060200280838360005b83811015610b2e578082015181840152602081019050610b13565b505050509050016040525050509050600080905060008090505b8251811015610baa578473ffffffffffffffffffffffffffffffffffffffff16838281518110610b7457fe5b602002602001015173ffffffffffffffffffffffffffffffffffffffff161415610b9d57600191505b8080600101915050610b48565b5080610d995760606001604051908082528060200260200182016040528015610be25781602001602082028038833980820191505090505b5090508481600081518110610bf357fe5b602002602001019073ffffffffffffffffffffffffffffffffffffffff16908173ffffffffffffffffffffffffffffffffffffffff16815250508373ffffffffffffffffffffffffffffffffffffffff1663c2998238826040518263ffffffff1660e01b81526004018080602001828103825283818151815260200191508051906020019060200280838360005b83811015610c9c578082015181840152602081019050610c81565b5050505090500192505050600060405180830381600087803b158015610cc157600080fd5b505af1158015610cd5573d6000803e3d6000fd5b505050506040513d6000823e3d601f19601f820116820180604052506020811015610cff57600080fd5b8101908080516040519392919084640100000000821115610d1f57600080fd5b83820191506020820185811115610d3557600080fd5b8251866020820283011164010000000082111715610d5257600080fd5b8083526020830192505050908051906020019060200280838360005b83811015610d89578082015181840152602081019050610d6e565b5050505090500160405250505050505b5050505056fea265627a7a72315820885146b0a8a8bc4c2bf9aad9684feb9cc09714a301e094f0bc5a4ef17689b11164736f6c634300050b0032",
  "source": "pragma solidity ^0.5.7;\n\ninterface ERC20Interface {\n    function allowance(address, address) external view returns (uint);\n    function approve(address, uint) external;\n}\n\ninterface TubInterface {\n    function give(bytes32, address) external;\n}\n\ninterface PepInterface {\n    function peek() external returns (bytes32, bool);\n}\n\ninterface ComptrollerInterface {\n    function enterMarkets(address[] calldata cTokens) external returns (uint[] memory);\n    function getAssetsIn(address account) external view returns (address[] memory);\n}\n\ninterface CTokenInterface {\n    function borrow(uint borrowAmount) external returns (uint);\n}\n\ninterface BridgeInterface {\n    function makerToCompound(uint, uint, uint) external returns (uint);\n    function compoundToMaker(uint, uint, uint) external;\n    function refillFunds(uint) external;\n}\n\n\ncontract Helper {\n\n    /**\n     * @dev get MakerDAO CDP engine\n     */\n    function getSaiTubAddress() public pure returns (address sai) {\n        sai = 0x448a5065aeBB8E423F0896E6c5D525C040f59af3;\n    }\n\n    /**\n     * @dev get Compound Comptroller Address\n     */\n    function getComptrollerAddress() public pure returns (address troller) {\n        troller = 0x3d9819210A31b4961b30EF54bE2aeD79B9c9Cd3B;\n    }\n\n    /**\n     * @dev get DAI Token Addrewss\n     */\n    function getDAIAddress() public pure returns (address dai) {\n        dai = 0x89d24A6b4CcB1B6fAA2625fE562bDD9a23260359;\n    }\n\n    /**\n     * @dev get Compound CETH Address\n     */\n    function getCETHAddress() public pure returns (address cEth) {\n        cEth = 0x4Ddc2D193948926D02f9B1fE9e1daa0718270ED5;\n    }\n\n    /**\n     * @dev get Compound CDAI Address\n     */\n    function getCDAIAddress() public pure returns (address cDai) {\n        cDai = 0xF5DCe57282A584D2746FaF1593d3121Fcac444dC;\n    }\n\n    /**\n     * @dev get MakerDAO<>Compound Bridge Contract\n     */\n    function getBridgeAddress() public pure returns (address bridge) {\n        bridge = 0x37aCfEf331e6063C8507C2A69c97B4f78c770A5A;\n    }\n\n    /**\n     * @dev setting allowance if required\n     */\n    function setApproval(address erc20, uint srcAmt, address to) internal {\n        ERC20Interface erc20Contract = ERC20Interface(erc20);\n        uint tokenAllowance = erc20Contract.allowance(address(this), to);\n        if (srcAmt > tokenAllowance) {\n            erc20Contract.approve(to, 2**255);\n        }\n    }\n\n    /**\n     * @dev transfer CDP ownership\n     */\n    function give(uint cdpNum, address nextOwner) internal {\n        TubInterface(getSaiTubAddress()).give(bytes32(cdpNum), nextOwner);\n    }\n\n    /**\n     * @dev enter compound market\n     */\n    function enterMarket(address cErc20) internal {\n        ComptrollerInterface troller = ComptrollerInterface(getComptrollerAddress());\n        address[] memory markets = troller.getAssetsIn(address(this));\n        bool isEntered = false;\n        for (uint i = 0; i < markets.length; i++) {\n            if (markets[i] == cErc20) {\n                isEntered = true;\n            }\n        }\n        if (!isEntered) {\n            address[] memory toEnter = new address[](1);\n            toEnter[0] = cErc20;\n            troller.enterMarkets(toEnter);\n        }\n    }\n\n    /**\n     * @dev borrow DAI from compound\n     */\n    function borrowDAI(uint tokenAmt) internal {\n        enterMarket(getCETHAddress());\n        enterMarket(getCDAIAddress());\n        require(CTokenInterface(getCDAIAddress()).borrow(tokenAmt) == 0, \"got collateral?\");\n    }\n\n}\n\n\ncontract Bridge is Helper {\n\n    /**\n     * @dev MakerDAO to Compound\n     */\n    function makerToCompound(uint cdpId, uint ethCol, uint daiDebt) public {\n        give(cdpId, getBridgeAddress());\n        BridgeInterface bridge = BridgeInterface(getBridgeAddress());\n        uint daiAmt = bridge.makerToCompound(cdpId, ethCol, daiDebt);\n        if (daiAmt > 0) {\n            borrowDAI(daiAmt);\n            setApproval(getDAIAddress(), daiAmt, getBridgeAddress());\n            bridge.refillFunds(daiAmt);\n        }\n    }\n\n    /**\n     * @dev Compound to MakerDAO\n     */\n    function compoundToMaker(uint cdpId, uint ethCol, uint daiDebt) public {\n        if (cdpId != 0) {\n            give(cdpId, getBridgeAddress());\n        }\n        if (ethCol > 0) {\n            setApproval(getCETHAddress(), 2**150, getBridgeAddress());\n        }\n        BridgeInterface(getBridgeAddress()).compoundToMaker(cdpId, ethCol, daiDebt);\n    }\n\n}\n\n\ncontract InstaBridge is Bridge {\n\n    uint public version;\n\n    /**\n     * @dev setting up variables on deployment\n     * 1...2...3 versioning in each subsequent deployments\n     */\n    constructor(uint _version) public {\n        version = _version;\n    }\n\n    function() external payable {}\n\n}",
  "sourcePath": "/Users/pierrick/Documents/04-OSS/08-Graph/02-InstaDApp/contract-v2/contracts/ProxyLogics/InstaBridge.sol",
  "compiler": {
    "name": "solc",
    "version": "0.5.11+commit.c082d0b4.Emscripten.clang"
  },
  "schemaVersion": "3.0.16",
  "updatedAt": "2019-09-17T17:43:05.792Z",
  "devdoc": {
    "methods": {
      "compoundToMaker(uint256,uint256,uint256)": {
        "details": "Compound to MakerDAO"
      },
      "constructor": {
        "details": "setting up variables on deployment 1...2...3 versioning in each subsequent deployments"
      },
      "getBridgeAddress()": {
        "details": "get MakerDAO<>Compound Bridge Contract"
      },
      "getCDAIAddress()": {
        "details": "get Compound CDAI Address"
      },
      "getCETHAddress()": {
        "details": "get Compound CETH Address"
      },
      "getComptrollerAddress()": {
        "details": "get Compound Comptroller Address"
      },
      "getDAIAddress()": {
        "details": "get DAI Token Addrewss"
      },
      "getSaiTubAddress()": {
        "details": "get MakerDAO CDP engine"
      },
      "makerToCompound(uint256,uint256,uint256)": {
        "details": "MakerDAO to Compound"
      }
    }
  },
  "userdoc": {
    "methods": {}
  }
}