{
  "contractName": "InstaTrade",
  "abi": [
    {
      "constant": false,
      "inputs": [
        {
          "internalType": "address",
          "name": "src",
          "type": "address"
        },
        {
          "internalType": "address",
          "name": "dest",
          "type": "address"
        },
        {
          "internalType": "uint256",
          "name": "srcAmt",
          "type": "uint256"
        },
        {
          "internalType": "uint256",
          "name": "slippageRate",
          "type": "uint256"
        }
      ],
      "name": "sell",
      "outputs": [
        {
          "internalType": "uint256",
          "name": "destAmt",
          "type": "uint256"
        }
      ],
      "payable": true,
      "stateMutability": "payable",
      "type": "function"
    },
    {
      "constant": true,
      "inputs": [],
      "name": "version",
      "outputs": [
        {
          "internalType": "uint256",
          "name": "",
          "type": "uint256"
        }
      ],
      "payable": false,
      "stateMutability": "view",
      "type": "function"
    },
    {
      "constant": false,
      "inputs": [
        {
          "internalType": "address",
          "name": "src",
          "type": "address"
        },
        {
          "internalType": "address",
          "name": "dest",
          "type": "address"
        },
        {
          "internalType": "uint256",
          "name": "srcAmt",
          "type": "uint256"
        },
        {
          "internalType": "uint256",
          "name": "maxDestAmt",
          "type": "uint256"
        },
        {
          "internalType": "uint256",
          "name": "slippageRate",
          "type": "uint256"
        }
      ],
      "name": "buy",
      "outputs": [
        {
          "internalType": "uint256",
          "name": "destAmt",
          "type": "uint256"
        }
      ],
      "payable": true,
      "stateMutability": "payable",
      "type": "function"
    },
    {
      "constant": true,
      "inputs": [
        {
          "internalType": "address",
          "name": "src",
          "type": "address"
        },
        {
          "internalType": "address",
          "name": "dest",
          "type": "address"
        },
        {
          "internalType": "uint256",
          "name": "srcAmt",
          "type": "uint256"
        }
      ],
      "name": "getExpectedRate",
      "outputs": [
        {
          "internalType": "uint256",
          "name": "expectedRate",
          "type": "uint256"
        },
        {
          "internalType": "uint256",
          "name": "slippageRate",
          "type": "uint256"
        }
      ],
      "payable": false,
      "stateMutability": "view",
      "type": "function"
    },
    {
      "constant": true,
      "inputs": [],
      "name": "getAddressKyber",
      "outputs": [
        {
          "internalType": "address",
          "name": "kyber",
          "type": "address"
        }
      ],
      "payable": false,
      "stateMutability": "pure",
      "type": "function"
    },
    {
      "constant": true,
      "inputs": [],
      "name": "getAddressETH",
      "outputs": [
        {
          "internalType": "address",
          "name": "eth",
          "type": "address"
        }
      ],
      "payable": false,
      "stateMutability": "pure",
      "type": "function"
    },
    {
      "constant": true,
      "inputs": [],
      "name": "getAddressAdmin",
      "outputs": [
        {
          "internalType": "address",
          "name": "admin",
          "type": "address"
        }
      ],
      "payable": false,
      "stateMutability": "pure",
      "type": "function"
    },
    {
      "constant": true,
      "inputs": [
        {
          "internalType": "address",
          "name": "src",
          "type": "address"
        },
        {
          "internalType": "address",
          "name": "_owner",
          "type": "address"
        }
      ],
      "name": "getBal",
      "outputs": [
        {
          "internalType": "uint256",
          "name": "",
          "type": "uint256"
        },
        {
          "internalType": "uint256",
          "name": "",
          "type": "uint256"
        }
      ],
      "payable": false,
      "stateMutability": "view",
      "type": "function"
    },
    {
      "inputs": [
        {
          "internalType": "uint256",
          "name": "_version",
          "type": "uint256"
        }
      ],
      "payable": false,
      "stateMutability": "nonpayable",
      "type": "constructor"
    },
    {
      "anonymous": false,
      "inputs": [
        {
          "indexed": false,
          "internalType": "uint256",
          "name": "what",
          "type": "uint256"
        },
        {
          "indexed": false,
          "internalType": "address",
          "name": "src",
          "type": "address"
        },
        {
          "indexed": false,
          "internalType": "uint256",
          "name": "srcAmt",
          "type": "uint256"
        },
        {
          "indexed": false,
          "internalType": "address",
          "name": "dest",
          "type": "address"
        },
        {
          "indexed": false,
          "internalType": "uint256",
          "name": "destAmt",
          "type": "uint256"
        },
        {
          "indexed": false,
          "internalType": "address",
          "name": "beneficiary",
          "type": "address"
        },
        {
          "indexed": false,
          "internalType": "uint256",
          "name": "minConversionRate",
          "type": "uint256"
        },
        {
          "indexed": false,
          "internalType": "address",
          "name": "affiliate",
          "type": "address"
        }
      ],
      "name": "LogTrade",
      "type": "event"
    }
  ],
  "bytecode": "0x608060405234801561001057600080fd5b506040516112cb3803806112cb8339818101604052602081101561003357600080fd5b810190808051906020019092919050505080600081905550506112708061005b6000396000f3fe60806040526004361061007b5760003560e01c806391b0b6181161004e57806391b0b61814610263578063ab1be686146102ba578063adbd80b014610311578063c7d85a56146103685761007b565b806331de7d151461008057806354fd4d501461010c57806376165adf14610137578063809a9e55146101cd575b600080fd5b6100f66004803603608081101561009657600080fd5b81019080803573ffffffffffffffffffffffffffffffffffffffff169060200190929190803573ffffffffffffffffffffffffffffffffffffffff16906020019092919080359060200190929190803590602001909291905050506103f4565b6040518082815260200191505060405180910390f35b34801561011857600080fd5b506101216106d3565b6040518082815260200191505060405180910390f35b6101b7600480360360a081101561014d57600080fd5b81019080803573ffffffffffffffffffffffffffffffffffffffff169060200190929190803573ffffffffffffffffffffffffffffffffffffffff1690602001909291908035906020019092919080359060200190929190803590602001909291905050506106d9565b6040518082815260200191505060405180910390f35b3480156101d957600080fd5b50610246600480360360608110156101f057600080fd5b81019080803573ffffffffffffffffffffffffffffffffffffffff169060200190929190803573ffffffffffffffffffffffffffffffffffffffff16906020019092919080359060200190929190505050610be8565b604051808381526020018281526020019250505060405180910390f35b34801561026f57600080fd5b50610278610d0c565b604051808273ffffffffffffffffffffffffffffffffffffffff1673ffffffffffffffffffffffffffffffffffffffff16815260200191505060405180910390f35b3480156102c657600080fd5b506102cf610d28565b604051808273ffffffffffffffffffffffffffffffffffffffff1673ffffffffffffffffffffffffffffffffffffffff16815260200191505060405180910390f35b34801561031d57600080fd5b50610326610d44565b604051808273ffffffffffffffffffffffffffffffffffffffff1673ffffffffffffffffffffffffffffffffffffffff16815260200191505060405180910390f35b34801561037457600080fd5b506103d76004803603604081101561038b57600080fd5b81019080803573ffffffffffffffffffffffffffffffffffffffff169060200190929190803573ffffffffffffffffffffffffffffffffffffffff169060200190929190505050610d60565b604051808381526020018281526020019250505060405180910390f35b600080610402338786610e7f565b905061040c610d0c565b73ffffffffffffffffffffffffffffffffffffffff1663cb3c28c782888789337f80000000000000000000000000000000000000000000000000000000000000008a610456610d44565b6040518963ffffffff1660e01b8152600401808873ffffffffffffffffffffffffffffffffffffffff1673ffffffffffffffffffffffffffffffffffffffff1681526020018781526020018673ffffffffffffffffffffffffffffffffffffffff1673ffffffffffffffffffffffffffffffffffffffff1681526020018573ffffffffffffffffffffffffffffffffffffffff1673ffffffffffffffffffffffffffffffffffffffff1681526020018481526020018381526020018273ffffffffffffffffffffffffffffffffffffffff1673ffffffffffffffffffffffffffffffffffffffff1681526020019750505050505050506020604051808303818588803b15801561056557600080fd5b505af1158015610579573d6000803e3d6000fd5b50505050506040513d602081101561059057600080fd5b810190808051906020019092919050505091507f11e25872c1ff01460756fe30988d586790d81915aa1ed26f716b966a0fcc196c60018786888633896105d4610d44565b604051808981526020018873ffffffffffffffffffffffffffffffffffffffff1673ffffffffffffffffffffffffffffffffffffffff1681526020018781526020018673ffffffffffffffffffffffffffffffffffffffff1673ffffffffffffffffffffffffffffffffffffffff1681526020018581526020018473ffffffffffffffffffffffffffffffffffffffff1673ffffffffffffffffffffffffffffffffffffffff1681526020018381526020018273ffffffffffffffffffffffffffffffffffffffff1673ffffffffffffffffffffffffffffffffffffffff1681526020019850505050505050505060405180910390a150949350505050565b60005481565b6000806106e7338887610e7f565b90506106f1610d0c565b73ffffffffffffffffffffffffffffffffffffffff1663cb3c28c78289888a338a8a61071b610d44565b6040518963ffffffff1660e01b8152600401808873ffffffffffffffffffffffffffffffffffffffff1673ffffffffffffffffffffffffffffffffffffffff1681526020018781526020018673ffffffffffffffffffffffffffffffffffffffff1673ffffffffffffffffffffffffffffffffffffffff1681526020018573ffffffffffffffffffffffffffffffffffffffff1673ffffffffffffffffffffffffffffffffffffffff1681526020018481526020018381526020018273ffffffffffffffffffffffffffffffffffffffff1673ffffffffffffffffffffffffffffffffffffffff1681526020019750505050505050506020604051808303818588803b15801561082a57600080fd5b505af115801561083e573d6000803e3d6000fd5b50505050506040513d602081101561085557600080fd5b8101908080519060200190929190505050915060003073ffffffffffffffffffffffffffffffffffffffff163111156108eb573373ffffffffffffffffffffffffffffffffffffffff166108fc3073ffffffffffffffffffffffffffffffffffffffff16319081150290604051600060405180830381858888f193505050501580156108e5573d6000803e3d6000fd5b50610ab7565b6108f3610d28565b73ffffffffffffffffffffffffffffffffffffffff168773ffffffffffffffffffffffffffffffffffffffff1614610ab657600087905060008173ffffffffffffffffffffffffffffffffffffffff166370a08231306040518263ffffffff1660e01b8152600401808273ffffffffffffffffffffffffffffffffffffffff1673ffffffffffffffffffffffffffffffffffffffff16815260200191505060206040518083038186803b1580156109a957600080fd5b505afa1580156109bd573d6000803e3d6000fd5b505050506040513d60208110156109d357600080fd5b810190808051906020019092919050505090506000811115610ab3578173ffffffffffffffffffffffffffffffffffffffff1663a9059cbb33836040518363ffffffff1660e01b8152600401808373ffffffffffffffffffffffffffffffffffffffff1673ffffffffffffffffffffffffffffffffffffffff16815260200182815260200192505050602060405180830381600087803b158015610a7657600080fd5b505af1158015610a8a573d6000803e3d6000fd5b505050506040513d6020811015610aa057600080fd5b8101908080519060200190929190505050505b50505b5b7f11e25872c1ff01460756fe30988d586790d81915aa1ed26f716b966a0fcc196c6000888789863389610ae8610d44565b604051808981526020018873ffffffffffffffffffffffffffffffffffffffff1673ffffffffffffffffffffffffffffffffffffffff1681526020018781526020018673ffffffffffffffffffffffffffffffffffffffff1673ffffffffffffffffffffffffffffffffffffffff1681526020018581526020018473ffffffffffffffffffffffffffffffffffffffff1673ffffffffffffffffffffffffffffffffffffffff1681526020018381526020018273ffffffffffffffffffffffffffffffffffffffff1673ffffffffffffffffffffffffffffffffffffffff1681526020019850505050505050505060405180910390a15095945050505050565b600080610bf3610d0c565b73ffffffffffffffffffffffffffffffffffffffff1663809a9e558686866040518463ffffffff1660e01b8152600401808473ffffffffffffffffffffffffffffffffffffffff1673ffffffffffffffffffffffffffffffffffffffff1681526020018373ffffffffffffffffffffffffffffffffffffffff1673ffffffffffffffffffffffffffffffffffffffff1681526020018281526020019350505050604080518083038186803b158015610caa57600080fd5b505afa158015610cbe573d6000803e3d6000fd5b505050506040513d6040811015610cd457600080fd5b8101908080519060200190929190805190602001909291905050505080925050606360648381610d0057fe5b04029050935093915050565b600073818e6fecd516ecc3849daf6845e3ec868087b755905090565b600073eeeeeeeeeeeeeeeeeeeeeeeeeeeeeeeeeeeeeeee905090565b6000737284a8451d9a0e7dc62b3a71c0593ea2ec5c5638905090565b6000806000610d6d610d28565b73ffffffffffffffffffffffffffffffffffffffff168573ffffffffffffffffffffffffffffffffffffffff1614610e5a578473ffffffffffffffffffffffffffffffffffffffff166370a08231856040518263ffffffff1660e01b8152600401808273ffffffffffffffffffffffffffffffffffffffff1673ffffffffffffffffffffffffffffffffffffffff16815260200191505060206040518083038186803b158015610e1c57600080fd5b505afa158015610e30573d6000803e3d6000fd5b505050506040513d6020811015610e4657600080fd5b810190808051906020019092919050505090505b8373ffffffffffffffffffffffffffffffffffffffff16318192509250509250929050565b6000610e89610d28565b73ffffffffffffffffffffffffffffffffffffffff168373ffffffffffffffffffffffffffffffffffffffff161415610f3957813414610f31576040517f08c379a000000000000000000000000000000000000000000000000000000000815260040180806020018281038252600e8152602001807f6e6f742d656e6f7567682d73726300000000000000000000000000000000000081525060200191505060405180910390fd5b819050611042565b6000839050610f488184611049565b508073ffffffffffffffffffffffffffffffffffffffff166323b872dd8630866040518463ffffffff1660e01b8152600401808473ffffffffffffffffffffffffffffffffffffffff1673ffffffffffffffffffffffffffffffffffffffff1681526020018373ffffffffffffffffffffffffffffffffffffffff1673ffffffffffffffffffffffffffffffffffffffff1681526020018281526020019350505050602060405180830381600087803b15801561100457600080fd5b505af1158015611018573d6000803e3d6000fd5b505050506040513d602081101561102e57600080fd5b810190808051906020019092919050505050505b9392505050565b6000808373ffffffffffffffffffffffffffffffffffffffff1663dd62ed3e30611071610d0c565b6040518363ffffffff1660e01b8152600401808373ffffffffffffffffffffffffffffffffffffffff1673ffffffffffffffffffffffffffffffffffffffff1681526020018273ffffffffffffffffffffffffffffffffffffffff1673ffffffffffffffffffffffffffffffffffffffff1681526020019250505060206040518083038186803b15801561110457600080fd5b505afa158015611118573d6000803e3d6000fd5b505050506040513d602081101561112e57600080fd5b8101908080519060200190929190505050905080831115611234578373ffffffffffffffffffffffffffffffffffffffff1663095ea7b361116d610d0c565b7f80000000000000000000000000000000000000000000000000000000000000006040518363ffffffff1660e01b8152600401808373ffffffffffffffffffffffffffffffffffffffff1673ffffffffffffffffffffffffffffffffffffffff16815260200182815260200192505050602060405180830381600087803b1580156111f757600080fd5b505af115801561120b573d6000803e3d6000fd5b505050506040513d602081101561122157600080fd5b8101908080519060200190929190505050505b509291505056fea265627a7a72315820077dcd5d1f8a5b7014df4af89f9274cebb909abf0635bff7e05f7cb4a0f3a85a64736f6c634300050b0032",
  "source": "pragma solidity ^0.5.0;\n\ninterface IERC20 {\n    function transfer(address to, uint256 value) external returns (bool);\n    function approve(address spender, uint256 value) external returns (bool);\n    function transferFrom(address from, address to, uint256 value) external returns (bool);\n    function balanceOf(address who) external view returns (uint256);\n    function allowance(address owner, address spender) external view returns (uint256);\n}\n\n\ncontract KyberInterface {\n    function trade(\n        address src,\n        uint srcAmount,\n        address dest,\n        address destAddress,\n        uint maxDestAmount,\n        uint minConversionRate,\n        address walletId\n        ) public payable returns (uint);\n\n    function getExpectedRate(\n        address src,\n        address dest,\n        uint srcQty\n        ) public view returns (uint, uint);\n}\n\n\ncontract Helper {\n\n    /**\n     * @dev get ethereum address for trade\n     */\n    function getAddressETH() public pure returns (address eth) {\n        eth = 0xEeeeeEeeeEeEeeEeEeEeeEEEeeeeEeeeeeeeEEeE;\n    }\n\n    /**\n     * @dev get kyber proxy address\n     */\n    function getAddressKyber() public pure returns (address kyber) {\n        kyber = 0x818E6FECD516Ecc3849DAf6845e3EC868087B755;\n    }\n\n    /**\n     * @dev get admin address\n     */\n    function getAddressAdmin() public pure returns (address admin) {\n        admin = 0x7284a8451d9a0e7Dc62B3a71C0593eA2eC5c5638;\n    }\n\n    /**\n     * @dev gets ETH & token balance\n     * @param src is the token being sold\n     * @return ethBal - if not erc20, eth balance\n     * @return tknBal - if not eth, erc20 balance\n     */\n    function getBal(address src, address _owner) public view returns (uint, uint) {\n        uint tknBal;\n        if (src != getAddressETH()) {\n            tknBal = IERC20(src).balanceOf(address(_owner));\n        }\n        return (address(_owner).balance, tknBal);\n    }\n\n    /**\n     * @dev getting rates from Kyber\n     * @param src is the token being sold\n     * @param dest is the token being bought\n     * @param srcAmt is the amount of token being sold\n     * @return expectedRate - the current rate\n     * @return slippageRate - rate with 3% slippage\n     */\n    function getExpectedRate(\n        address src,\n        address dest,\n        uint srcAmt\n    ) public view returns (\n        uint expectedRate,\n        uint slippageRate\n    )\n    {\n        (expectedRate,) = KyberInterface(getAddressKyber()).getExpectedRate(src, dest, srcAmt);\n        slippageRate = (expectedRate / 100) * 99; // changing slippage rate upto 99%\n    }\n\n    /**\n     * @dev fetching token from the trader if ERC20\n     * @param trader is the trader\n     * @param src is the token which is being sold\n     * @param srcAmt is the amount of token being sold\n     */\n    function getToken(address trader, address src, uint srcAmt) internal returns (uint ethQty) {\n        if (src == getAddressETH()) {\n            require(msg.value == srcAmt, \"not-enough-src\");\n            ethQty = srcAmt;\n        } else {\n            IERC20 tknContract = IERC20(src);\n            setApproval(tknContract, srcAmt);\n            tknContract.transferFrom(trader, address(this), srcAmt);\n        }\n    }\n\n    /**\n     * @dev setting allowance to kyber for the \"user proxy\" if required\n     * @param tknContract is the token\n     * @param srcAmt is the amount of token to sell\n     */\n    function setApproval(IERC20 tknContract, uint srcAmt) internal returns (uint) {\n        uint tokenAllowance = tknContract.allowance(address(this), getAddressKyber());\n        if (srcAmt > tokenAllowance) {\n            tknContract.approve(getAddressKyber(), 2**255);\n        }\n    }\n\n}\n\n\ncontract Swap is Helper {\n\n    /**\n     * @param what 0 for BUY & 1 for SELL\n     */\n    event LogTrade(\n        uint what, // 0 for BUY & 1 for SELL\n        address src,\n        uint srcAmt,\n        address dest,\n        uint destAmt,\n        address beneficiary,\n        uint minConversionRate,\n        address affiliate\n    );\n\n    /**\n     * @dev buying token where destAmt is fixed\n     * @param src - token to sell\n     * @param dest - token to buy\n     * @param srcAmt - token amount to sell\n     * @param maxDestAmt is the max amount of token to be bought\n     */\n    function buy(\n        address src,\n        address dest,\n        uint srcAmt,\n        uint maxDestAmt,\n        uint slippageRate\n    ) public payable returns (uint destAmt)\n    {\n        uint ethQty = getToken(msg.sender, src, srcAmt);\n\n        destAmt = KyberInterface(getAddressKyber()).trade.value(ethQty)(\n            src,\n            srcAmt,\n            dest,\n            msg.sender,\n            maxDestAmt,\n            slippageRate,\n            getAddressAdmin()\n        );\n\n        // maxDestAmt usecase implementated on user proxy\n        if (address(this).balance > 0) {\n            msg.sender.transfer(address(this).balance);\n        } else if (src != getAddressETH()) {\n            IERC20 srcTkn = IERC20(src);\n            uint srcBal = srcTkn.balanceOf(address(this));\n            if (srcBal > 0) {\n                srcTkn.transfer(msg.sender, srcBal);\n            }\n        }\n\n        emit LogTrade(\n            0,\n            src,\n            srcAmt,\n            dest,\n            destAmt,\n            msg.sender,\n            slippageRate,\n            getAddressAdmin()\n        );\n\n    }\n\n    /**\n     * @dev selling token where srcAmt is fixed\n     * @param src - token to sell\n     * @param dest - token to buy\n     * @param srcAmt - token amount to sell\n     */\n    function sell(\n        address src,\n        address dest,\n        uint srcAmt,\n        uint slippageRate\n    ) public payable returns (uint destAmt)\n    {\n        uint ethQty = getToken(msg.sender, src, srcAmt);\n\n        destAmt = KyberInterface(getAddressKyber()).trade.value(ethQty)(\n            src,\n            srcAmt,\n            dest,\n            msg.sender,\n            2**255,\n            slippageRate,\n            getAddressAdmin()\n        );\n\n        emit LogTrade(\n            1,\n            src,\n            srcAmt,\n            dest,\n            destAmt,\n            msg.sender,\n            slippageRate,\n            getAddressAdmin()\n        );\n\n    }\n\n}\n\n\ncontract InstaTrade is Swap {\n\n    uint public version;\n\n    /**\n     * @dev setting up variables on deployment\n     * 1...2...3 versioning in each subsequent deployments\n     */\n    constructor(uint _version) public {\n        version = _version;\n    }\n\n}",
  "sourcePath": "/Users/pierrick/Documents/04-OSS/08-Graph/02-InstaDApp/contract-v2/contracts/ProxyLogics/InstaKyber.sol",
  "compiler": {
    "name": "solc",
    "version": "0.5.11+commit.c082d0b4.Emscripten.clang"
  },
  "schemaVersion": "3.0.16",
  "updatedAt": "2019-09-15T00:52:16.026Z",
  "devdoc": {
    "methods": {
      "buy(address,address,uint256,uint256,uint256)": {
        "details": "buying token where destAmt is fixed",
        "params": {
          "dest": "- token to buy",
          "maxDestAmt": "is the max amount of token to be bought",
          "src": "- token to sell",
          "srcAmt": "- token amount to sell"
        }
      },
      "constructor": {
        "details": "setting up variables on deployment 1...2...3 versioning in each subsequent deployments"
      },
      "getAddressAdmin()": {
        "details": "get admin address"
      },
      "getAddressETH()": {
        "details": "get ethereum address for trade"
      },
      "getAddressKyber()": {
        "details": "get kyber proxy address"
      },
      "getBal(address,address)": {
        "details": "gets ETH & token balance",
        "params": {
          "src": "is the token being sold"
        },
        "return": "ethBal - if not erc20, eth balancetknBal - if not eth, erc20 balance"
      },
      "getExpectedRate(address,address,uint256)": {
        "details": "getting rates from Kyber",
        "params": {
          "dest": "is the token being bought",
          "src": "is the token being sold",
          "srcAmt": "is the amount of token being sold"
        },
        "return": "expectedRate - the current rateslippageRate - rate with 3% slippage"
      },
      "sell(address,address,uint256,uint256)": {
        "details": "selling token where srcAmt is fixed",
        "params": {
          "dest": "- token to buy",
          "src": "- token to sell",
          "srcAmt": "- token amount to sell"
        }
      }
    }
  },
  "userdoc": {
    "methods": {}
  }
}