{
  "contractName": "InstaCompSaveUsdc",
  "abi": [
    {
      "constant": true,
      "inputs": [],
      "name": "getAddressWETH",
      "outputs": [
        {
          "internalType": "address",
          "name": "eth",
          "type": "address"
        }
      ],
      "payable": false,
      "stateMutability": "pure",
      "type": "function"
    },
    {
      "constant": true,
      "inputs": [],
      "name": "getAddressUSDC",
      "outputs": [
        {
          "internalType": "address",
          "name": "usdc",
          "type": "address"
        }
      ],
      "payable": false,
      "stateMutability": "pure",
      "type": "function"
    },
    {
      "constant": false,
      "inputs": [
        {
          "internalType": "uint256",
          "name": "usdcToBorrow",
          "type": "uint256"
        },
        {
          "internalType": "uint256",
          "name": "zrxUsdcAmt",
          "type": "uint256"
        },
        {
          "internalType": "bytes",
          "name": "calldataHexString",
          "type": "bytes"
        },
        {
          "internalType": "bool",
          "name": "isKyber",
          "type": "bool"
        },
        {
          "internalType": "address[]",
          "name": "cTokenAddr",
          "type": "address[]"
        },
        {
          "internalType": "uint256[]",
          "name": "ctokenFactor",
          "type": "uint256[]"
        }
      ],
      "name": "leverage",
      "outputs": [],
      "payable": false,
      "stateMutability": "nonpayable",
      "type": "function"
    },
    {
      "constant": true,
      "inputs": [],
      "name": "getAddressZRXERC20",
      "outputs": [
        {
          "internalType": "address",
          "name": "zrxerc20",
          "type": "address"
        }
      ],
      "payable": false,
      "stateMutability": "pure",
      "type": "function"
    },
    {
      "constant": true,
      "inputs": [],
      "name": "getComptrollerAddress",
      "outputs": [
        {
          "internalType": "address",
          "name": "troller",
          "type": "address"
        }
      ],
      "payable": false,
      "stateMutability": "pure",
      "type": "function"
    },
    {
      "constant": true,
      "inputs": [],
      "name": "version",
      "outputs": [
        {
          "internalType": "uint256",
          "name": "",
          "type": "uint256"
        }
      ],
      "payable": false,
      "stateMutability": "view",
      "type": "function"
    },
    {
      "constant": true,
      "inputs": [],
      "name": "getCUSDCAddress",
      "outputs": [
        {
          "internalType": "address",
          "name": "cUsdc",
          "type": "address"
        }
      ],
      "payable": false,
      "stateMutability": "pure",
      "type": "function"
    },
    {
      "constant": true,
      "inputs": [],
      "name": "getAddressKyberProxy",
      "outputs": [
        {
          "internalType": "address",
          "name": "kyberProxy",
          "type": "address"
        }
      ],
      "payable": false,
      "stateMutability": "pure",
      "type": "function"
    },
    {
      "constant": true,
      "inputs": [],
      "name": "getAddressZRXExchange",
      "outputs": [
        {
          "internalType": "address",
          "name": "zrxExchange",
          "type": "address"
        }
      ],
      "payable": false,
      "stateMutability": "pure",
      "type": "function"
    },
    {
      "constant": false,
      "inputs": [
        {
          "internalType": "uint256",
          "name": "ethToFree",
          "type": "uint256"
        },
        {
          "internalType": "uint256",
          "name": "zrxEthAmt",
          "type": "uint256"
        },
        {
          "internalType": "bool",
          "name": "isKyber",
          "type": "bool"
        },
        {
          "internalType": "bytes",
          "name": "calldataHexString",
          "type": "bytes"
        },
        {
          "internalType": "address[]",
          "name": "ctokenAddr",
          "type": "address[]"
        },
        {
          "internalType": "uint256[]",
          "name": "ctokenFactor",
          "type": "uint256[]"
        }
      ],
      "name": "save",
      "outputs": [],
      "payable": false,
      "stateMutability": "nonpayable",
      "type": "function"
    },
    {
      "constant": true,
      "inputs": [],
      "name": "getCompOracleAddress",
      "outputs": [
        {
          "internalType": "address",
          "name": "troller",
          "type": "address"
        }
      ],
      "payable": false,
      "stateMutability": "pure",
      "type": "function"
    },
    {
      "constant": true,
      "inputs": [],
      "name": "getAddressETH",
      "outputs": [
        {
          "internalType": "address",
          "name": "eth",
          "type": "address"
        }
      ],
      "payable": false,
      "stateMutability": "pure",
      "type": "function"
    },
    {
      "constant": true,
      "inputs": [],
      "name": "getAddressAdmin",
      "outputs": [
        {
          "internalType": "address",
          "name": "admin",
          "type": "address"
        }
      ],
      "payable": false,
      "stateMutability": "pure",
      "type": "function"
    },
    {
      "constant": true,
      "inputs": [],
      "name": "getCETHAddress",
      "outputs": [
        {
          "internalType": "address",
          "name": "cEth",
          "type": "address"
        }
      ],
      "payable": false,
      "stateMutability": "pure",
      "type": "function"
    },
    {
      "constant": false,
      "inputs": [
        {
          "internalType": "address",
          "name": "user",
          "type": "address"
        },
        {
          "internalType": "address[]",
          "name": "cTokenAddr",
          "type": "address[]"
        },
        {
          "internalType": "uint256[]",
          "name": "cTokenFactor",
          "type": "uint256[]"
        }
      ],
      "name": "getCompStats",
      "outputs": [
        {
          "internalType": "uint256",
          "name": "totalSupply",
          "type": "uint256"
        },
        {
          "internalType": "uint256",
          "name": "totalBorrow",
          "type": "uint256"
        },
        {
          "internalType": "uint256",
          "name": "maxBorrow",
          "type": "uint256"
        },
        {
          "internalType": "uint256",
          "name": "borrowRemain",
          "type": "uint256"
        },
        {
          "internalType": "uint256",
          "name": "maxWithdraw",
          "type": "uint256"
        },
        {
          "internalType": "uint256",
          "name": "ratio",
          "type": "uint256"
        }
      ],
      "payable": false,
      "stateMutability": "nonpayable",
      "type": "function"
    },
    {
      "inputs": [
        {
          "internalType": "uint256",
          "name": "_version",
          "type": "uint256"
        }
      ],
      "payable": false,
      "stateMutability": "nonpayable",
      "type": "constructor"
    },
    {
      "payable": true,
      "stateMutability": "payable",
      "type": "fallback"
    },
    {
      "anonymous": false,
      "inputs": [
        {
          "indexed": false,
          "internalType": "uint256",
          "name": "srcETH",
          "type": "uint256"
        },
        {
          "indexed": false,
          "internalType": "uint256",
          "name": "destDAI",
          "type": "uint256"
        }
      ],
      "name": "LogSaveCompoundUsdc",
      "type": "event"
    },
    {
      "anonymous": false,
      "inputs": [
        {
          "indexed": false,
          "internalType": "uint256",
          "name": "srcDAI",
          "type": "uint256"
        },
        {
          "indexed": false,
          "internalType": "uint256",
          "name": "destETH",
          "type": "uint256"
        }
      ],
      "name": "LogLeverageCompoundUsdc",
      "type": "event"
    },
    {
      "anonymous": false,
      "inputs": [
        {
          "indexed": false,
          "internalType": "address",
          "name": "erc20",
          "type": "address"
        },
        {
          "indexed": false,
          "internalType": "address",
          "name": "cErc20",
          "type": "address"
        },
        {
          "indexed": false,
          "internalType": "uint256",
          "name": "tokenAmt",
          "type": "uint256"
        },
        {
          "indexed": false,
          "internalType": "address",
          "name": "owner",
          "type": "address"
        }
      ],
      "name": "LogMint",
      "type": "event"
    },
    {
      "anonymous": false,
      "inputs": [
        {
          "indexed": false,
          "internalType": "address",
          "name": "erc20",
          "type": "address"
        },
        {
          "indexed": false,
          "internalType": "address",
          "name": "cErc20",
          "type": "address"
        },
        {
          "indexed": false,
          "internalType": "uint256",
          "name": "tokenAmt",
          "type": "uint256"
        },
        {
          "indexed": false,
          "internalType": "address",
          "name": "owner",
          "type": "address"
        }
      ],
      "name": "LogRedeem",
      "type": "event"
    },
    {
      "anonymous": false,
      "inputs": [
        {
          "indexed": false,
          "internalType": "address",
          "name": "erc20",
          "type": "address"
        },
        {
          "indexed": false,
          "internalType": "address",
          "name": "cErc20",
          "type": "address"
        },
        {
          "indexed": false,
          "internalType": "uint256",
          "name": "tokenAmt",
          "type": "uint256"
        },
        {
          "indexed": false,
          "internalType": "address",
          "name": "owner",
          "type": "address"
        }
      ],
      "name": "LogBorrow",
      "type": "event"
    },
    {
      "anonymous": false,
      "inputs": [
        {
          "indexed": false,
          "internalType": "address",
          "name": "erc20",
          "type": "address"
        },
        {
          "indexed": false,
          "internalType": "address",
          "name": "cErc20",
          "type": "address"
        },
        {
          "indexed": false,
          "internalType": "uint256",
          "name": "tokenAmt",
          "type": "uint256"
        },
        {
          "indexed": false,
          "internalType": "address",
          "name": "owner",
          "type": "address"
        }
      ],
      "name": "LogRepay",
      "type": "event"
    }
  ],
  "bytecode": "0x608060405234801561001057600080fd5b50604051612d26380380612d268339818101604052602081101561003357600080fd5b81019080805190602001909291905050508060008190555050612ccb8061005b6000396000f3fe6080604052600436106100e85760003560e01c80636717f9271161008a578063ab1be68611610059578063ab1be686146107ed578063adbd80b014610844578063c9ce5d861461089b578063d54d071f146108f2576100e8565b80636717f927146104d8578063681f41d01461052f5780636b5358c4146105865780636cd348ef14610796576100e8565b80634e668078116100c65780634e668078146103a85780634ee9159a146103ff57806354fd4d5014610456578063559c48ca14610481576100e8565b806313097b4b146100ea578063173980421461014157806340ebabab14610198575b005b3480156100f657600080fd5b506100ff610aa2565b604051808273ffffffffffffffffffffffffffffffffffffffff1673ffffffffffffffffffffffffffffffffffffffff16815260200191505060405180910390f35b34801561014d57600080fd5b50610156610abe565b604051808273ffffffffffffffffffffffffffffffffffffffff1673ffffffffffffffffffffffffffffffffffffffff16815260200191505060405180910390f35b3480156101a457600080fd5b506103a6600480360360c08110156101bb57600080fd5b810190808035906020019092919080359060200190929190803590602001906401000000008111156101ec57600080fd5b8201836020820111156101fe57600080fd5b8035906020019184600183028401116401000000008311171561022057600080fd5b91908080601f016020809104026020016040519081016040528093929190818152602001838380828437600081840152601f19601f8201169050808301925050505050505091929192908035151590602001909291908035906020019064010000000081111561028f57600080fd5b8201836020820111156102a157600080fd5b803590602001918460208302840111640100000000831117156102c357600080fd5b919080806020026020016040519081016040528093929190818152602001838360200280828437600081840152601f19601f8201169050808301925050505050505091929192908035906020019064010000000081111561032357600080fd5b82018360208201111561033557600080fd5b8035906020019184602083028401116401000000008311171561035757600080fd5b919080806020026020016040519081016040528093929190818152602001838360200280828437600081840152601f19601f820116905080830192505050505050509192919290505050610ada565b005b3480156103b457600080fd5b506103bd611180565b604051808273ffffffffffffffffffffffffffffffffffffffff1673ffffffffffffffffffffffffffffffffffffffff16815260200191505060405180910390f35b34801561040b57600080fd5b5061041461119c565b604051808273ffffffffffffffffffffffffffffffffffffffff1673ffffffffffffffffffffffffffffffffffffffff16815260200191505060405180910390f35b34801561046257600080fd5b5061046b6111b8565b6040518082815260200191505060405180910390f35b34801561048d57600080fd5b506104966111be565b604051808273ffffffffffffffffffffffffffffffffffffffff1673ffffffffffffffffffffffffffffffffffffffff16815260200191505060405180910390f35b3480156104e457600080fd5b506104ed6111da565b604051808273ffffffffffffffffffffffffffffffffffffffff1673ffffffffffffffffffffffffffffffffffffffff16815260200191505060405180910390f35b34801561053b57600080fd5b506105446111f6565b604051808273ffffffffffffffffffffffffffffffffffffffff1673ffffffffffffffffffffffffffffffffffffffff16815260200191505060405180910390f35b34801561059257600080fd5b50610794600480360360c08110156105a957600080fd5b810190808035906020019092919080359060200190929190803515159060200190929190803590602001906401000000008111156105e657600080fd5b8201836020820111156105f857600080fd5b8035906020019184600183028401116401000000008311171561061a57600080fd5b91908080601f016020809104026020016040519081016040528093929190818152602001838380828437600081840152601f19601f8201169050808301925050505050505091929192908035906020019064010000000081111561067d57600080fd5b82018360208201111561068f57600080fd5b803590602001918460208302840111640100000000831117156106b157600080fd5b919080806020026020016040519081016040528093929190818152602001838360200280828437600081840152601f19601f8201169050808301925050505050505091929192908035906020019064010000000081111561071157600080fd5b82018360208201111561072357600080fd5b8035906020019184602083028401116401000000008311171561074557600080fd5b919080806020026020016040519081016040528093929190818152602001838360200280828437600081840152601f19601f820116905080830192505050505050509192919290505050611212565b005b3480156107a257600080fd5b506107ab611728565b604051808273ffffffffffffffffffffffffffffffffffffffff1673ffffffffffffffffffffffffffffffffffffffff16815260200191505060405180910390f35b3480156107f957600080fd5b50610802611744565b604051808273ffffffffffffffffffffffffffffffffffffffff1673ffffffffffffffffffffffffffffffffffffffff16815260200191505060405180910390f35b34801561085057600080fd5b50610859611760565b604051808273ffffffffffffffffffffffffffffffffffffffff1673ffffffffffffffffffffffffffffffffffffffff16815260200191505060405180910390f35b3480156108a757600080fd5b506108b061177c565b604051808273ffffffffffffffffffffffffffffffffffffffff1673ffffffffffffffffffffffffffffffffffffffff16815260200191505060405180910390f35b3480156108fe57600080fd5b50610a696004803603606081101561091557600080fd5b81019080803573ffffffffffffffffffffffffffffffffffffffff1690602001909291908035906020019064010000000081111561095257600080fd5b82018360208201111561096457600080fd5b8035906020019184602083028401116401000000008311171561098657600080fd5b919080806020026020016040519081016040528093929190818152602001838360200280828437600081840152601f19601f820116905080830192505050505050509192919290803590602001906401000000008111156109e657600080fd5b8201836020820111156109f857600080fd5b80359060200191846020830284011164010000000083111715610a1a57600080fd5b919080806020026020016040519081016040528093929190818152602001838360200280828437600081840152601f19601f820116905080830192505050505050509192919290505050611798565b60405180878152602001868152602001858152602001848152602001838152602001828152602001965050505050505060405180910390f35b600073c02aaa39b223fe8d0a0e5c4f27ead9083c756cc2905090565b600073a0b86991c6218b36c1d19d4a2e9eb0ce3606eb48905090565b610aea610ae561177c565b61187c565b610afa610af56111be565b61187c565b6000610b07308484611798565b505093505050506000610b1982611c40565b9050878110610b285787610b2a565b805b9050610b3581611d27565b6000610b3f610abe565b90508073ffffffffffffffffffffffffffffffffffffffff1663095ea7b3610b65611180565b8a6040518363ffffffff1660e01b8152600401808373ffffffffffffffffffffffffffffffffffffffff1673ffffffffffffffffffffffffffffffffffffffff16815260200182815260200192505050600060405180830381600087803b158015610bcf57600080fd5b505af1158015610be3573d6000803e3d6000fd5b505050506000610bf16111f6565b73ffffffffffffffffffffffffffffffffffffffff16886040518082805190602001908083835b60208310610c3b5780518252602082019150602081019050602083039250610c18565b6001836020036101000a0380198251168184511680821785525050505050509050019150506000604051808303816000865af19150503d8060008114610c9d576040519150601f19603f3d011682016040523d82523d6000602084013e610ca2565b606091505b5050905080610cad57fe5b6000610cb9848b611f15565b9050600081118015610cc85750875b15610f22578273ffffffffffffffffffffffffffffffffffffffff1663095ea7b3610cf16111da565b836040518363ffffffff1660e01b8152600401808373ffffffffffffffffffffffffffffffffffffffff1673ffffffffffffffffffffffffffffffffffffffff16815260200182815260200192505050600060405180830381600087803b158015610d5b57600080fd5b505af1158015610d6f573d6000803e3d6000fd5b50505050610d7b6111da565b73ffffffffffffffffffffffffffffffffffffffff1663cb3c28c76000610da0610abe565b84610da9611744565b307f80000000000000000000000000000000000000000000000000000000000000006000610dd5611760565b6040518963ffffffff1660e01b8152600401808873ffffffffffffffffffffffffffffffffffffffff1673ffffffffffffffffffffffffffffffffffffffff1681526020018781526020018673ffffffffffffffffffffffffffffffffffffffff1673ffffffffffffffffffffffffffffffffffffffff1681526020018573ffffffffffffffffffffffffffffffffffffffff1673ffffffffffffffffffffffffffffffffffffffff1681526020018481526020018381526020018273ffffffffffffffffffffffffffffffffffffffff1673ffffffffffffffffffffffffffffffffffffffff1681526020019750505050505050506020604051808303818588803b158015610ee457600080fd5b505af1158015610ef8573d6000803e3d6000fd5b50505050506040513d6020811015610f0f57600080fd5b8101908080519060200190929190505050505b6000610f2c610aa2565b905060008173ffffffffffffffffffffffffffffffffffffffff166370a08231306040518263ffffffff1660e01b8152600401808273ffffffffffffffffffffffffffffffffffffffff1673ffffffffffffffffffffffffffffffffffffffff16815260200191505060206040518083038186803b158015610fad57600080fd5b505afa158015610fc1573d6000803e3d6000fd5b505050506040513d6020811015610fd757600080fd5b810190808051906020019092919050505090508173ffffffffffffffffffffffffffffffffffffffff1663095ea7b361100e610aa2565b836040518363ffffffff1660e01b8152600401808373ffffffffffffffffffffffffffffffffffffffff1673ffffffffffffffffffffffffffffffffffffffff16815260200182815260200192505050600060405180830381600087803b15801561107857600080fd5b505af115801561108c573d6000803e3d6000fd5b505050508173ffffffffffffffffffffffffffffffffffffffff16632e1a7d4d826040518263ffffffff1660e01b815260040180828152602001915050600060405180830381600087803b1580156110e357600080fd5b505af11580156110f7573d6000803e3d6000fd5b5050505061111b3073ffffffffffffffffffffffffffffffffffffffff1631611f34565b7ffee4cab167b41c7d48308040aedd89f3177160fb6a94095eead604d82eb749a3863073ffffffffffffffffffffffffffffffffffffffff1631604051808381526020018281526020019250505060405180910390a150505050505050505050505050565b60007395e6f48254609a6ee006f7d493c8e5fb97094cef905090565b6000733d9819210a31b4961b30ef54be2aed79b9c9cd3b905090565b60005481565b60007339aa39c021dfbae8fac545936693ac917d5e7563905090565b600073818e6fecd516ecc3849daf6845e3ec868087b755905090565b600073080bf510fcbf18b91105470639e9561022937712905090565b61122261121d61177c565b61187c565b61123261122d6111be565b61187c565b600061123f308484611798565b5094505050505060008188106112555781611257565b875b905061126281612086565b600061126c610aa2565b90508073ffffffffffffffffffffffffffffffffffffffff1663d0e30db0896040518263ffffffff1660e01b81526004016000604051808303818588803b1580156112b657600080fd5b505af11580156112ca573d6000803e3d6000fd5b50505050508073ffffffffffffffffffffffffffffffffffffffff1663095ea7b36112f3611180565b8a6040518363ffffffff1660e01b8152600401808373ffffffffffffffffffffffffffffffffffffffff1673ffffffffffffffffffffffffffffffffffffffff16815260200182815260200192505050600060405180830381600087803b15801561135d57600080fd5b505af1158015611371573d6000803e3d6000fd5b50505050600061137f6111f6565b73ffffffffffffffffffffffffffffffffffffffff16876040518082805190602001908083835b602083106113c957805182526020820191506020810190506020830392506113a6565b6001836020036101000a0380198251168184511680821785525050505050509050019150506000604051808303816000865af19150503d806000811461142b576040519150601f19603f3d011682016040523d82523d6000602084013e611430565b606091505b505090508061143b57fe5b6000611447848b611f15565b90506000811180156114565750885b15611609576114636111da565b73ffffffffffffffffffffffffffffffffffffffff1663cb3c28c782611487611744565b84611490610abe565b307f800000000000000000000000000000000000000000000000000000000000000060006114bc611760565b6040518963ffffffff1660e01b8152600401808873ffffffffffffffffffffffffffffffffffffffff1673ffffffffffffffffffffffffffffffffffffffff1681526020018781526020018673ffffffffffffffffffffffffffffffffffffffff1673ffffffffffffffffffffffffffffffffffffffff1681526020018573ffffffffffffffffffffffffffffffffffffffff1673ffffffffffffffffffffffffffffffffffffffff1681526020018481526020018381526020018273ffffffffffffffffffffffffffffffffffffffff1673ffffffffffffffffffffffffffffffffffffffff1681526020019750505050505050506020604051808303818588803b1580156115cb57600080fd5b505af11580156115df573d6000803e3d6000fd5b50505050506040513d60208110156115f657600080fd5b8101908080519060200190929190505050505b6000611613610abe565b905060008173ffffffffffffffffffffffffffffffffffffffff166370a08231306040518263ffffffff1660e01b8152600401808273ffffffffffffffffffffffffffffffffffffffff1673ffffffffffffffffffffffffffffffffffffffff16815260200191505060206040518083038186803b15801561169457600080fd5b505afa1580156116a8573d6000803e3d6000fd5b505050506040513d60208110156116be57600080fd5b810190808051906020019092919050505090506116da816122a0565b7f18f2e1dfffa16fb775d7821752b6875c247bbaf6edc200c67859daa36760a0d18682604051808381526020018281526020019250505060405180910390a150505050505050505050505050565b600073e7664229833ae4abf4e269b8f23a86b657e2338d905090565b600073eeeeeeeeeeeeeeeeeeeeeeeeeeeeeeeeeeeeeeee905090565b600073a7615cd307f323172331865181dc8b80a2834324905090565b6000734ddc2d193948926d02f9b1fe9e1daa0718270ed5905090565b60008060008060008060008090505b885181101561181a5760008982815181106117be57fe5b6020026020010151905060008983815181106117d657fe5b602002602001015190506000806117ed848f6124ad565b91509150818b019a50808a01995061180582846127d4565b890198505050505080806001019150506117a7565b506118258486611f15565b925061184361183c84670a688906bd8b0000612814565b600a611f15565b915060006118508a61284c565b905082811161185f5780611861565b825b925061186d8688612814565b91505093975093979195509350565b600061188661119c565b905060608173ffffffffffffffffffffffffffffffffffffffff1663abfceffc306040518263ffffffff1660e01b8152600401808273ffffffffffffffffffffffffffffffffffffffff1673ffffffffffffffffffffffffffffffffffffffff16815260200191505060006040518083038186803b15801561190757600080fd5b505afa15801561191b573d6000803e3d6000fd5b505050506040513d6000823e3d601f19601f82011682018060405250602081101561194557600080fd5b810190808051604051939291908464010000000082111561196557600080fd5b8382019150602082018581111561197b57600080fd5b825186602082028301116401000000008211171561199857600080fd5b8083526020830192505050908051906020019060200280838360005b838110156119cf5780820151818401526020810190506119b4565b505050509050016040525050509050600080905060008090505b8251811015611a4b578473ffffffffffffffffffffffffffffffffffffffff16838281518110611a1557fe5b602002602001015173ffffffffffffffffffffffffffffffffffffffff161415611a3e57600191505b80806001019150506119e9565b5080611c3a5760606001604051908082528060200260200182016040528015611a835781602001602082028038833980820191505090505b5090508481600081518110611a9457fe5b602002602001019073ffffffffffffffffffffffffffffffffffffffff16908173ffffffffffffffffffffffffffffffffffffffff16815250508373ffffffffffffffffffffffffffffffffffffffff1663c2998238826040518263ffffffff1660e01b81526004018080602001828103825283818151815260200191508051906020019060200280838360005b83811015611b3d578082015181840152602081019050611b22565b5050505090500192505050600060405180830381600087803b158015611b6257600080fd5b505af1158015611b76573d6000803e3d6000fd5b505050506040513d6000823e3d601f19601f820116820180604052506020811015611ba057600080fd5b8101908080516040519392919084640100000000821115611bc057600080fd5b83820191506020820185811115611bd657600080fd5b8251866020820283011164010000000082111715611bf357600080fd5b8083526020830192505050908051906020019060200280838360005b83811015611c2a578082015181840152602081019050611c0f565b5050505090500160405250505050505b50505050565b600080611c4b611728565b73ffffffffffffffffffffffffffffffffffffffff1663fc57d4df611c6e6111be565b6040518263ffffffff1660e01b8152600401808273ffffffffffffffffffffffffffffffffffffffff1673ffffffffffffffffffffffffffffffffffffffff16815260200191505060206040518083038186803b158015611cce57600080fd5b505afa158015611ce2573d6000803e3d6000fd5b505050506040513d6020811015611cf857600080fd5b81019080805190602001909291905050509050611d1f611d188483612814565b600a611f15565b915050919050565b6000611d316111be565b73ffffffffffffffffffffffffffffffffffffffff1663c5ebeaec836040518263ffffffff1660e01b815260040180828152602001915050602060405180830381600087803b158015611d8357600080fd5b505af1158015611d97573d6000803e3d6000fd5b505050506040513d6020811015611dad57600080fd5b810190808051906020019092919050505014611e31576040517f08c379a000000000000000000000000000000000000000000000000000000000815260040180806020018281038252600f8152602001807f676f7420636f6c6c61746572616c3f000000000000000000000000000000000081525060200191505060405180910390fd5b7f9f31c249eb0814475f16a619e1fdf5e62f46db8cb233ff1b951adddcf7133b95611e5a610abe565b611e626111be565b8330604051808573ffffffffffffffffffffffffffffffffffffffff1673ffffffffffffffffffffffffffffffffffffffff1681526020018473ffffffffffffffffffffffffffffffffffffffff1673ffffffffffffffffffffffffffffffffffffffff1681526020018381526020018273ffffffffffffffffffffffffffffffffffffffff1673ffffffffffffffffffffffffffffffffffffffff16815260200194505050505060405180910390a150565b6000828284031115611f28576000611f2c565b8183035b905092915050565b6000611f3e61177c565b90508073ffffffffffffffffffffffffffffffffffffffff16631249c58b836040518263ffffffff1660e01b81526004016000604051808303818588803b158015611f8857600080fd5b505af1158015611f9c573d6000803e3d6000fd5b50505050507f252c64862cdd4fb87064b61720da12074c8fdddf7233c8d163c925c85072c42c611fca611744565b611fd261177c565b8433604051808573ffffffffffffffffffffffffffffffffffffffff1673ffffffffffffffffffffffffffffffffffffffff1681526020018473ffffffffffffffffffffffffffffffffffffffff1673ffffffffffffffffffffffffffffffffffffffff1681526020018381526020018273ffffffffffffffffffffffffffffffffffffffff1673ffffffffffffffffffffffffffffffffffffffff16815260200194505050505060405180910390a15050565b600061209061177c565b90506120b861209d61177c565b6c0c9f2c9cd04674edea400000006120b361177c565b6129ba565b60008173ffffffffffffffffffffffffffffffffffffffff1663852a12e3846040518263ffffffff1660e01b815260040180828152602001915050602060405180830381600087803b15801561210d57600080fd5b505af1158015612121573d6000803e3d6000fd5b505050506040513d602081101561213757600080fd5b8101908080519060200190929190505050146121bb576040517f08c379a00000000000000000000000000000000000000000000000000000000081526004018080602001828103825260148152602001807f736f6d657468696e672077656e742077726f6e6700000000000000000000000081525060200191505060405180910390fd5b7fd985ae7abab418a80621f7b292cdc98b964715f22de84b4f4c9183795b47d14b6121e4611744565b6121ec61177c565b8430604051808573ffffffffffffffffffffffffffffffffffffffff1673ffffffffffffffffffffffffffffffffffffffff1681526020018473ffffffffffffffffffffffffffffffffffffffff1673ffffffffffffffffffffffffffffffffffffffff1681526020018381526020018273ffffffffffffffffffffffffffffffffffffffff1673ffffffffffffffffffffffffffffffffffffffff16815260200194505050505060405180910390a15050565b60006122aa6111be565b90506122c56122b7610abe565b836122c06111be565b6129ba565b60008173ffffffffffffffffffffffffffffffffffffffff16630e752702846040518263ffffffff1660e01b815260040180828152602001915050602060405180830381600087803b15801561231a57600080fd5b505af115801561232e573d6000803e3d6000fd5b505050506040513d602081101561234457600080fd5b8101908080519060200190929190505050146123c8576040517f08c379a00000000000000000000000000000000000000000000000000000000081526004018080602001828103825260128152602001807f7472616e7366657220617070726f7665643f000000000000000000000000000081525060200191505060405180910390fd5b7ff9c0c8ae7fcb0ae66722c0fd985dd186c5f04475693482e4836363ea60e00de26123f1610abe565b6123f96111be565b8430604051808573ffffffffffffffffffffffffffffffffffffffff1673ffffffffffffffffffffffffffffffffffffffff1681526020018473ffffffffffffffffffffffffffffffffffffffff1673ffffffffffffffffffffffffffffffffffffffff1681526020018381526020018273ffffffffffffffffffffffffffffffffffffffff1673ffffffffffffffffffffffffffffffffffffffff16815260200194505050505060405180910390a15050565b600080600084905060006124bf611728565b73ffffffffffffffffffffffffffffffffffffffff1663fc57d4df876040518263ffffffff1660e01b8152600401808273ffffffffffffffffffffffffffffffffffffffff1673ffffffffffffffffffffffffffffffffffffffff16815260200191505060206040518083038186803b15801561253b57600080fd5b505afa15801561254f573d6000803e3d6000fd5b505050506040513d602081101561256557600080fd5b81019080805190602001909291905050509050600061263c8373ffffffffffffffffffffffffffffffffffffffff166370a08231886040518263ffffffff1660e01b8152600401808273ffffffffffffffffffffffffffffffffffffffff1673ffffffffffffffffffffffffffffffffffffffff16815260200191505060206040518083038186803b1580156125fa57600080fd5b505afa15801561260e573d6000803e3d6000fd5b505050506040513d602081101561262457600080fd5b81019080805190602001909291905050506001611f15565b905060008373ffffffffffffffffffffffffffffffffffffffff1663bd6d894d6040518163ffffffff1660e01b8152600401602060405180830381600087803b15801561268857600080fd5b505af115801561269c573d6000803e3d6000fd5b505050506040513d60208110156126b257600080fd5b8101908080519060200190929190505050905060006126db6126d484846127d4565b6001611f15565b90506126f16126ea82866127d4565b600a611f15565b965060008573ffffffffffffffffffffffffffffffffffffffff166317bfdfbc8a6040518263ffffffff1660e01b8152600401808273ffffffffffffffffffffffffffffffffffffffff1673ffffffffffffffffffffffffffffffffffffffff168152602001915050602060405180830381600087803b15801561277457600080fd5b505af1158015612788573d6000803e3d6000fd5b505050506040513d602081101561279e57600080fd5b810190808051906020019092919050505090506127c56127be82876127d4565b600a612b7e565b96505050505050509250929050565b6000670de0b6b3a76400006128046127ec8585612c01565b6002670de0b6b3a7640000816127fe57fe5b04612b7e565b8161280b57fe5b04905092915050565b60008161283c61282c85670de0b6b3a7640000612c01565b6002858161283657fe5b04612b7e565b8161284357fe5b04905092915050565b60008061285761177c565b9050600061291d8273ffffffffffffffffffffffffffffffffffffffff166370a08231866040518263ffffffff1660e01b8152600401808273ffffffffffffffffffffffffffffffffffffffff1673ffffffffffffffffffffffffffffffffffffffff16815260200191505060206040518083038186803b1580156128db57600080fd5b505afa1580156128ef573d6000803e3d6000fd5b505050506040513d602081101561290557600080fd5b81019080805190602001909291905050506001611f15565b905060008273ffffffffffffffffffffffffffffffffffffffff1663bd6d894d6040518163ffffffff1660e01b8152600401602060405180830381600087803b15801561296957600080fd5b505af115801561297d573d6000803e3d6000fd5b505050506040513d602081101561299357600080fd5b810190808051906020019092919050505090506129b082826127d4565b9350505050919050565b600083905060008173ffffffffffffffffffffffffffffffffffffffff1663dd62ed3e30856040518363ffffffff1660e01b8152600401808373ffffffffffffffffffffffffffffffffffffffff1673ffffffffffffffffffffffffffffffffffffffff1681526020018273ffffffffffffffffffffffffffffffffffffffff1673ffffffffffffffffffffffffffffffffffffffff1681526020019250505060206040518083038186803b158015612a7257600080fd5b505afa158015612a86573d6000803e3d6000fd5b505050506040513d6020811015612a9c57600080fd5b8101908080519060200190929190505050905080841115612b77578173ffffffffffffffffffffffffffffffffffffffff1663095ea7b3847f80000000000000000000000000000000000000000000000000000000000000006040518363ffffffff1660e01b8152600401808373ffffffffffffffffffffffffffffffffffffffff1673ffffffffffffffffffffffffffffffffffffffff16815260200182815260200192505050600060405180830381600087803b158015612b5e57600080fd5b505af1158015612b72573d6000803e3d6000fd5b505050505b5050505050565b6000828284019150811015612bfb576040517f08c379a000000000000000000000000000000000000000000000000000000000815260040180806020018281038252600d8152602001807f6d6174682d6e6f742d736166650000000000000000000000000000000000000081525060200191505060405180910390fd5b92915050565b600080821480612c1e5750828283850292508281612c1b57fe5b04145b612c90576040517f08c379a000000000000000000000000000000000000000000000000000000000815260040180806020018281038252600d8152602001807f6d6174682d6e6f742d736166650000000000000000000000000000000000000081525060200191505060405180910390fd5b9291505056fea265627a7a72315820fbd6d0b25b501c11b6b2951b64feed9d7bf50a6df156ea9ca8dd4b81043ad3ae64736f6c634300050b0032",
  "source": "pragma solidity ^0.5.7;\n\ninterface CTokenInterface {\n    function redeemUnderlying(uint redeemAmount) external returns (uint);\n    function borrow(uint borrowAmount) external returns (uint);\n    function exchangeRateCurrent() external returns (uint);\n    function borrowBalanceCurrent(address account) external returns (uint);\n\n    function totalSupply() external view returns (uint256);\n    function balanceOf(address owner) external view returns (uint256 balance);\n    function allowance(address, address) external view returns (uint);\n    function approve(address, uint) external;\n    function transfer(address, uint) external returns (bool);\n    function transferFrom(address, address, uint) external returns (bool);\n}\n\ninterface CERC20Interface {\n    function mint(uint mintAmount) external returns (uint); // For ERC20\n    function repayBorrow(uint repayAmount) external returns (uint); // For ERC20\n    function borrowBalanceCurrent(address account) external returns (uint);\n}\n\ninterface CETHInterface {\n    function mint() external payable; // For ETH\n    function repayBorrow() external payable; // For ETH\n    function borrowBalanceCurrent(address account) external returns (uint);\n}\n\ninterface ERC20Interface {\n    function allowance(address, address) external view returns (uint);\n    function balanceOf(address) external view returns (uint);\n    function approve(address, uint) external;\n    function transfer(address, uint) external returns (bool);\n    function transferFrom(address, address, uint) external returns (bool);\n    function deposit() external payable;\n    function withdraw(uint) external;\n}\n\ninterface ComptrollerInterface {\n    function enterMarkets(address[] calldata cTokens) external returns (uint[] memory);\n    function getAssetsIn(address account) external view returns (address[] memory);\n    function getAccountLiquidity(address account) external view returns (uint, uint, uint);\n}\n\ninterface CompOracleInterface {\n    function getUnderlyingPrice(address) external view returns (uint);\n}\n\ninterface KyberInterface {\n    function trade(\n        address src,\n        uint srcAmount,\n        address dest,\n        address destAddress,\n        uint maxDestAmount,\n        uint minConversionRate,\n        address walletId\n        ) external payable returns (uint);\n}\n\n\ncontract DSMath {\n\n    function add(uint x, uint y) internal pure returns (uint z) {\n        require((z = x + y) >= x, \"math-not-safe\");\n    }\n\n    function sub(uint x, uint y) internal pure returns (uint z) {\n        z = x - y <= x ? x - y : 0;\n    }\n\n    function mul(uint x, uint y) internal pure returns (uint z) {\n        require(y == 0 || (z = x * y) / y == x, \"math-not-safe\");\n    }\n\n    uint constant WAD = 10 ** 18;\n\n    function wmul(uint x, uint y) internal pure returns (uint z) {\n        z = add(mul(x, y), WAD / 2) / WAD;\n    }\n\n    function wdiv(uint x, uint y) internal pure returns (uint z) {\n        z = add(mul(x, WAD), y / 2) / y;\n    }\n\n}\n\n\ncontract Helpers is DSMath {\n\n    /**\n     * @dev get ethereum address for trade\n     */\n    function getAddressETH() public pure returns (address eth) {\n        eth = 0xEeeeeEeeeEeEeeEeEeEeeEEEeeeeEeeeeeeeEEeE;\n    }\n\n    /**\n     * @dev get ethereum address for trade\n     */\n    function getAddressWETH() public pure returns (address eth) {\n        eth = 0xC02aaA39b223FE8D0A0e5C4F27eAD9083C756Cc2;\n    }\n\n    /**\n     * @dev get ethereum address for trade\n     */\n    function getAddressUSDC() public pure returns (address usdc) {\n        usdc = 0xA0b86991c6218b36c1d19D4a2e9Eb0cE3606eB48;\n    }\n\n    /**\n     * @dev get ethereum address for trade\n     */\n    function getAddressZRXExchange() public pure returns (address zrxExchange) {\n        zrxExchange = 0x080bf510FCbF18b91105470639e9561022937712;\n    }\n\n    function getAddressZRXERC20() public pure returns (address zrxerc20) {\n        zrxerc20 = 0x95E6F48254609A6ee006F7D493c8e5fB97094ceF;\n    }\n\n    /**\n     * @dev get ethereum address for trade\n     */\n    function getAddressKyberProxy() public pure returns (address kyberProxy) {\n        kyberProxy = 0x818E6FECD516Ecc3849DAf6845e3EC868087B755;\n    }\n\n    /**\n     * @dev get Compound Comptroller Address\n     */\n    function getComptrollerAddress() public pure returns (address troller) {\n        troller = 0x3d9819210A31b4961b30EF54bE2aeD79B9c9Cd3B;\n    }\n\n    /**\n     * @dev get Compound Comptroller Address\n     */\n    function getCompOracleAddress() public pure returns (address troller) {\n        troller = 0xe7664229833AE4Abf4E269b8F23a86B657E2338D;\n    }\n\n    /**\n     * @dev get Compound Comptroller Address\n     */\n    function getCETHAddress() public pure returns (address cEth) {\n        cEth = 0x4Ddc2D193948926D02f9B1fE9e1daa0718270ED5;\n    }\n\n    /**\n     * @dev get Compound Comptroller Address\n     */\n    function getCUSDCAddress() public pure returns (address cUsdc) {\n        cUsdc = 0x39AA39c021dfbaE8faC545936693aC917d5E7563;\n    }\n\n    /**\n     * @dev get Compound Comptroller Address\n     */\n    function getAddressAdmin() public pure returns (address admin) {\n        admin = 0xa7615CD307F323172331865181DC8b80a2834324;\n    }\n\n    function enterMarket(address cErc20) internal {\n        ComptrollerInterface troller = ComptrollerInterface(getComptrollerAddress());\n        address[] memory markets = troller.getAssetsIn(address(this));\n        bool isEntered = false;\n        for (uint i = 0; i < markets.length; i++) {\n            if (markets[i] == cErc20) {\n                isEntered = true;\n            }\n        }\n        if (!isEntered) {\n            address[] memory toEnter = new address[](1);\n            toEnter[0] = cErc20;\n            troller.enterMarkets(toEnter);\n        }\n    }\n\n    /**\n     * @dev setting allowance to compound for the \"user proxy\" if required\n     */\n    function setApproval(address erc20, uint srcAmt, address to) internal {\n        ERC20Interface erc20Contract = ERC20Interface(erc20);\n        uint tokenAllowance = erc20Contract.allowance(address(this), to);\n        if (srcAmt > tokenAllowance) {\n            erc20Contract.approve(to, 2**255);\n        }\n    }\n\n}\n\n\ncontract CompoundHelper is Helpers {\n\n    /**\n     * @dev get users overall details for Compound\n     */\n    function getCompStats(\n        address user,\n        address[] memory cTokenAddr,\n        uint[] memory cTokenFactor\n    ) public returns (uint totalSupply, uint totalBorrow, uint maxBorrow, uint borrowRemain, uint maxWithdraw, uint ratio)\n    {\n        for (uint i = 0; i < cTokenAddr.length; i++) {\n            address cTokenAdd = cTokenAddr[i];\n            uint factor = cTokenFactor[i];\n            (uint supplyInEth, uint borrowInEth) = compSupplyBorrow(cTokenAdd, user);\n            totalSupply += supplyInEth;\n            totalBorrow += borrowInEth;\n            maxBorrow += wmul(supplyInEth, factor);\n        }\n        borrowRemain = sub(maxBorrow, totalBorrow);\n        maxWithdraw = sub(wdiv(borrowRemain, 750000000000000000), 10); // divide it by 0.75 (ETH Factor)\n        uint userEthSupply = getEthSupply(user);\n        maxWithdraw = userEthSupply > maxWithdraw ? maxWithdraw : userEthSupply;\n        ratio = wdiv(totalBorrow, totalSupply);\n    }\n\n    /**\n     * @dev get user's token supply and borrow in ETH\n     */\n    function compSupplyBorrow(address cTokenAdd, address user) internal returns(uint supplyInEth, uint borrowInEth) {\n        CTokenInterface cTokenContract = CTokenInterface(cTokenAdd);\n        uint tokenPriceInEth = CompOracleInterface(getCompOracleAddress()).getUnderlyingPrice(cTokenAdd);\n        uint cTokenBal = sub(cTokenContract.balanceOf(user), 1);\n        uint cTokenExchangeRate = cTokenContract.exchangeRateCurrent();\n        uint tokenSupply = sub(wmul(cTokenBal, cTokenExchangeRate), 1);\n        supplyInEth = sub(wmul(tokenSupply, tokenPriceInEth), 10);\n        uint tokenBorrowed = cTokenContract.borrowBalanceCurrent(user);\n        borrowInEth = add(wmul(tokenBorrowed, tokenPriceInEth), 10);\n    }\n\n    function getEthSupply(address user) internal returns (uint ethSupply) {\n        CTokenInterface cTokenContract = CTokenInterface(getCETHAddress());\n        uint cTokenBal = sub(cTokenContract.balanceOf(user), 1);\n        uint cTokenExchangeRate = cTokenContract.exchangeRateCurrent();\n        ethSupply = wmul(cTokenBal, cTokenExchangeRate);\n    }\n\n    function usdcBorrowed(address user) internal returns (uint usdcAmt) {\n        CTokenInterface cTokenContract = CTokenInterface(getCUSDCAddress());\n        usdcAmt = cTokenContract.borrowBalanceCurrent(user);\n    }\n\n    function getUsdcRemainBorrow(uint usdcInEth) internal view returns (uint usdcAmt) {\n        uint tokenPriceInEth = CompOracleInterface(getCompOracleAddress()).getUnderlyingPrice(getCUSDCAddress());\n        usdcAmt = sub(wdiv(usdcInEth, tokenPriceInEth), 10);\n    }\n\n}\n\n\ncontract CompoundResolver is CompoundHelper {\n\n    event LogMint(address erc20, address cErc20, uint tokenAmt, address owner);\n    event LogRedeem(address erc20, address cErc20, uint tokenAmt, address owner);\n    event LogBorrow(address erc20, address cErc20, uint tokenAmt, address owner);\n    event LogRepay(address erc20, address cErc20, uint tokenAmt, address owner);\n\n    /**\n     * @dev Deposit ETH/ERC20 and mint Compound Tokens\n     */\n    function mintCEth(uint tokenAmt) internal {\n        CETHInterface cToken = CETHInterface(getCETHAddress());\n        cToken.mint.value(tokenAmt)();\n        emit LogMint(\n            getAddressETH(),\n            getCETHAddress(),\n            tokenAmt,\n            msg.sender\n        );\n    }\n\n    /**\n     * @dev Redeem ETH/ERC20 and mint Compound Tokens\n     * @param tokenAmt Amount of token To Redeem\n     */\n    function redeemEth(uint tokenAmt) internal {\n        CTokenInterface cToken = CTokenInterface(getCETHAddress());\n        setApproval(getCETHAddress(), 10**30, getCETHAddress());\n        require(cToken.redeemUnderlying(tokenAmt) == 0, \"something went wrong\");\n        emit LogRedeem(\n            getAddressETH(),\n            getCETHAddress(),\n            tokenAmt,\n            address(this)\n        );\n    }\n\n    /**\n     * @dev borrow ETH/ERC20\n     */\n    function borrow(uint tokenAmt) internal {\n        require(CTokenInterface(getCUSDCAddress()).borrow(tokenAmt) == 0, \"got collateral?\");\n        emit LogBorrow(\n            getAddressUSDC(),\n            getCUSDCAddress(),\n            tokenAmt,\n            address(this)\n        );\n    }\n\n    /**\n     * @dev Pay Debt ETH/ERC20\n     */\n    function repayUsdc(uint tokenAmt) internal {\n        CERC20Interface cToken = CERC20Interface(getCUSDCAddress());\n        setApproval(getAddressUSDC(), tokenAmt, getCUSDCAddress());\n        require(cToken.repayBorrow(tokenAmt) == 0, \"transfer approved?\");\n        emit LogRepay(\n            getAddressUSDC(),\n            getCUSDCAddress(),\n            tokenAmt,\n            address(this)\n        );\n    }\n\n}\n\n\ncontract CompoundSave is CompoundResolver {\n\n    event LogSaveCompoundUsdc(uint srcETH, uint destDAI);\n\n    event LogLeverageCompoundUsdc(uint srcDAI,uint destETH);\n\n    function save(\n        uint ethToFree,\n        uint zrxEthAmt,\n        bool isKyber,\n        bytes memory calldataHexString,\n        address[] memory ctokenAddr,\n        uint[] memory ctokenFactor\n    ) public\n    {\n        enterMarket(getCETHAddress());\n        enterMarket(getCUSDCAddress());\n        (,,,,uint maxWithdraw,) = getCompStats(address(this), ctokenAddr, ctokenFactor);\n        uint ethToSwap = ethToFree < maxWithdraw ? ethToFree : maxWithdraw;\n        redeemEth(ethToSwap);\n        ERC20Interface wethContract = ERC20Interface(getAddressWETH());\n        wethContract.deposit.value(zrxEthAmt)();\n        wethContract.approve(getAddressZRXERC20(), zrxEthAmt);\n        (bool swapSuccess,) = getAddressZRXExchange().call(calldataHexString);\n        assert(swapSuccess);\n        uint remainEth = sub(ethToSwap, zrxEthAmt);\n        if (remainEth > 0 && isKyber) {\n            KyberInterface(getAddressKyberProxy()).trade.value(remainEth)(\n                    getAddressETH(),\n                    remainEth,\n                    getAddressUSDC(),\n                    address(this),\n                    2**255,\n                    0,\n                    getAddressAdmin()\n                );\n        }\n        ERC20Interface usdcContract = ERC20Interface(getAddressUSDC());\n        uint usdcBal = usdcContract.balanceOf(address(this));\n        repayUsdc(usdcBal);\n        emit LogSaveCompoundUsdc(ethToSwap, usdcBal);\n    }\n\n    function leverage(\n        uint usdcToBorrow,\n        uint zrxUsdcAmt,\n        bytes memory calldataHexString,\n        bool isKyber,\n        address[] memory cTokenAddr,\n        uint[] memory ctokenFactor\n    ) public\n    {\n        enterMarket(getCETHAddress());\n        enterMarket(getCUSDCAddress());\n        (,,,uint borrowRemain,,) = getCompStats(address(this), cTokenAddr, ctokenFactor);\n        uint usdcToSwap = getUsdcRemainBorrow(borrowRemain);\n        usdcToSwap = usdcToSwap < usdcToBorrow ? usdcToSwap : usdcToBorrow;\n        borrow(usdcToSwap);\n        ERC20Interface usdcContract = ERC20Interface(getAddressUSDC());\n        usdcContract.approve(getAddressZRXERC20(), zrxUsdcAmt);\n        (bool swapSuccess,) = getAddressZRXExchange().call(calldataHexString);\n        assert(swapSuccess);\n        uint usdcRemain = sub(usdcToSwap, zrxUsdcAmt);\n        if (usdcRemain > 0 && isKyber) {\n            usdcContract.approve(getAddressKyberProxy(), usdcRemain);\n            KyberInterface(getAddressKyberProxy()).trade.value(uint(0))(\n                    getAddressUSDC(),\n                    usdcRemain,\n                    getAddressETH(),\n                    address(this),\n                    2**255,\n                    0,\n                    getAddressAdmin()\n                );\n        }\n        ERC20Interface wethContract = ERC20Interface(getAddressWETH());\n        uint wethBal = wethContract.balanceOf(address(this));\n        wethContract.approve(getAddressWETH(), wethBal);\n        wethContract.withdraw(wethBal);\n        mintCEth(address(this).balance);\n        emit LogLeverageCompoundUsdc(usdcToSwap, address(this).balance);\n    }\n\n}\n\n\ncontract InstaCompSaveUsdc is CompoundSave {\n\n    uint public version;\n\n    /**\n     * @dev setting up variables on deployment\n     * 1...2...3 versioning in each subsequent deployments\n     */\n    constructor(uint _version) public {\n        version = _version;\n    }\n\n    function() external payable {}\n\n}",
  "sourcePath": "/Users/pierrick/Documents/04-OSS/08-Graph/02-InstaDApp/contract-v2/contracts/ProxyLogics/InstaCompSaveUsdc.sol",
  "compiler": {
    "name": "solc",
    "version": "0.5.11+commit.c082d0b4.Emscripten.clang"
  },
  "schemaVersion": "3.0.16",
  "updatedAt": "2019-09-15T00:52:15.994Z",
  "devdoc": {
    "methods": {
      "constructor": {
        "details": "setting up variables on deployment 1...2...3 versioning in each subsequent deployments"
      },
      "getAddressAdmin()": {
        "details": "get Compound Comptroller Address"
      },
      "getAddressETH()": {
        "details": "get ethereum address for trade"
      },
      "getAddressKyberProxy()": {
        "details": "get ethereum address for trade"
      },
      "getAddressUSDC()": {
        "details": "get ethereum address for trade"
      },
      "getAddressWETH()": {
        "details": "get ethereum address for trade"
      },
      "getAddressZRXExchange()": {
        "details": "get ethereum address for trade"
      },
      "getCETHAddress()": {
        "details": "get Compound Comptroller Address"
      },
      "getCUSDCAddress()": {
        "details": "get Compound Comptroller Address"
      },
      "getCompOracleAddress()": {
        "details": "get Compound Comptroller Address"
      },
      "getCompStats(address,address[],uint256[])": {
        "details": "get users overall details for Compound"
      },
      "getComptrollerAddress()": {
        "details": "get Compound Comptroller Address"
      }
    }
  },
  "userdoc": {
    "methods": {}
  }
}