{
  "contractName": "MakerCompoundBridge",
  "abi": [
    {
      "constant": false,
      "inputs": [
        {
          "internalType": "uint256",
          "name": "amt",
          "type": "uint256"
        }
      ],
      "name": "withdrawCDAI",
      "outputs": [],
      "payable": false,
      "stateMutability": "nonpayable",
      "type": "function"
    },
    {
      "constant": false,
      "inputs": [
        {
          "internalType": "uint256",
          "name": "num",
          "type": "uint256"
        }
      ],
      "name": "collectCDAI",
      "outputs": [],
      "payable": false,
      "stateMutability": "nonpayable",
      "type": "function"
    },
    {
      "constant": false,
      "inputs": [
        {
          "internalType": "uint256",
          "name": "amt",
          "type": "uint256"
        }
      ],
      "name": "depositDAI",
      "outputs": [],
      "payable": false,
      "stateMutability": "nonpayable",
      "type": "function"
    },
    {
      "constant": true,
      "inputs": [],
      "name": "ude",
      "outputs": [
        {
          "internalType": "address",
          "name": "",
          "type": "address"
        }
      ],
      "payable": false,
      "stateMutability": "view",
      "type": "function"
    },
    {
      "constant": false,
      "inputs": [
        {
          "internalType": "uint256",
          "name": "amt",
          "type": "uint256"
        }
      ],
      "name": "setFees",
      "outputs": [],
      "payable": false,
      "stateMutability": "nonpayable",
      "type": "function"
    },
    {
      "constant": true,
      "inputs": [],
      "name": "feeOne",
      "outputs": [
        {
          "internalType": "address",
          "name": "",
          "type": "address"
        }
      ],
      "payable": false,
      "stateMutability": "view",
      "type": "function"
    },
    {
      "constant": false,
      "inputs": [
        {
          "internalType": "uint256",
          "name": "num",
          "type": "uint256"
        },
        {
          "internalType": "address",
          "name": "token",
          "type": "address"
        }
      ],
      "name": "collectTokens",
      "outputs": [],
      "payable": false,
      "stateMutability": "nonpayable",
      "type": "function"
    },
    {
      "constant": true,
      "inputs": [],
      "name": "ume",
      "outputs": [
        {
          "internalType": "address",
          "name": "",
          "type": "address"
        }
      ],
      "payable": false,
      "stateMutability": "view",
      "type": "function"
    },
    {
      "constant": true,
      "inputs": [],
      "name": "daiAddr",
      "outputs": [
        {
          "internalType": "address",
          "name": "",
          "type": "address"
        }
      ],
      "payable": false,
      "stateMutability": "view",
      "type": "function"
    },
    {
      "constant": true,
      "inputs": [],
      "name": "registry",
      "outputs": [
        {
          "internalType": "address",
          "name": "",
          "type": "address"
        }
      ],
      "payable": false,
      "stateMutability": "view",
      "type": "function"
    },
    {
      "constant": true,
      "inputs": [],
      "name": "totalDeposits",
      "outputs": [
        {
          "internalType": "uint256",
          "name": "",
          "type": "uint256"
        }
      ],
      "payable": false,
      "stateMutability": "view",
      "type": "function"
    },
    {
      "constant": false,
      "inputs": [
        {
          "internalType": "uint256",
          "name": "cdpId",
          "type": "uint256"
        },
        {
          "internalType": "uint256",
          "name": "ethCol",
          "type": "uint256"
        },
        {
          "internalType": "uint256",
          "name": "daiDebt",
          "type": "uint256"
        }
      ],
      "name": "makerToCompound",
      "outputs": [
        {
          "internalType": "uint256",
          "name": "daiAmt",
          "type": "uint256"
        }
      ],
      "payable": true,
      "stateMutability": "payable",
      "type": "function"
    },
    {
      "constant": false,
      "inputs": [
        {
          "internalType": "uint256",
          "name": "amt",
          "type": "uint256"
        }
      ],
      "name": "depositCDAI",
      "outputs": [],
      "payable": false,
      "stateMutability": "nonpayable",
      "type": "function"
    },
    {
      "constant": true,
      "inputs": [],
      "name": "sai",
      "outputs": [
        {
          "internalType": "address",
          "name": "",
          "type": "address"
        }
      ],
      "payable": false,
      "stateMutability": "view",
      "type": "function"
    },
    {
      "constant": false,
      "inputs": [
        {
          "internalType": "uint256",
          "name": "amt",
          "type": "uint256"
        }
      ],
      "name": "withdrawDAI",
      "outputs": [],
      "payable": false,
      "stateMutability": "nonpayable",
      "type": "function"
    },
    {
      "constant": true,
      "inputs": [],
      "name": "fees",
      "outputs": [
        {
          "internalType": "uint256",
          "name": "",
          "type": "uint256"
        }
      ],
      "payable": false,
      "stateMutability": "view",
      "type": "function"
    },
    {
      "constant": true,
      "inputs": [],
      "name": "cDai",
      "outputs": [
        {
          "internalType": "address",
          "name": "",
          "type": "address"
        }
      ],
      "payable": false,
      "stateMutability": "view",
      "type": "function"
    },
    {
      "constant": true,
      "inputs": [],
      "name": "cEth",
      "outputs": [
        {
          "internalType": "address",
          "name": "",
          "type": "address"
        }
      ],
      "payable": false,
      "stateMutability": "view",
      "type": "function"
    },
    {
      "constant": true,
      "inputs": [],
      "name": "ethAddr",
      "outputs": [
        {
          "internalType": "address",
          "name": "",
          "type": "address"
        }
      ],
      "payable": false,
      "stateMutability": "view",
      "type": "function"
    },
    {
      "constant": false,
      "inputs": [
        {
          "internalType": "uint256",
          "name": "cdpId",
          "type": "uint256"
        },
        {
          "internalType": "uint256",
          "name": "ethCol",
          "type": "uint256"
        },
        {
          "internalType": "uint256",
          "name": "daiDebt",
          "type": "uint256"
        }
      ],
      "name": "compoundToMaker",
      "outputs": [],
      "payable": true,
      "stateMutability": "payable",
      "type": "function"
    },
    {
      "constant": false,
      "inputs": [
        {
          "internalType": "uint256",
          "name": "cdpNum",
          "type": "uint256"
        },
        {
          "internalType": "uint256",
          "name": "num",
          "type": "uint256"
        }
      ],
      "name": "transferUnmappedCDP",
      "outputs": [],
      "payable": false,
      "stateMutability": "nonpayable",
      "type": "function"
    },
    {
      "constant": true,
      "inputs": [],
      "name": "feeTwo",
      "outputs": [
        {
          "internalType": "address",
          "name": "",
          "type": "address"
        }
      ],
      "payable": false,
      "stateMutability": "view",
      "type": "function"
    },
    {
      "constant": false,
      "inputs": [
        {
          "internalType": "uint256",
          "name": "daiDebt",
          "type": "uint256"
        }
      ],
      "name": "refillFunds",
      "outputs": [],
      "payable": false,
      "stateMutability": "nonpayable",
      "type": "function"
    },
    {
      "constant": true,
      "inputs": [
        {
          "internalType": "address",
          "name": "",
          "type": "address"
        }
      ],
      "name": "deposits",
      "outputs": [
        {
          "internalType": "uint256",
          "name": "",
          "type": "uint256"
        }
      ],
      "payable": false,
      "stateMutability": "view",
      "type": "function"
    },
    {
      "inputs": [],
      "payable": false,
      "stateMutability": "nonpayable",
      "type": "constructor"
    },
    {
      "payable": true,
      "stateMutability": "payable",
      "type": "fallback"
    },
    {
      "anonymous": false,
      "inputs": [
        {
          "indexed": false,
          "internalType": "uint256",
          "name": "cdpNum",
          "type": "uint256"
        },
        {
          "indexed": false,
          "internalType": "uint256",
          "name": "ethAmt",
          "type": "uint256"
        },
        {
          "indexed": false,
          "internalType": "uint256",
          "name": "daiAmt",
          "type": "uint256"
        },
        {
          "indexed": false,
          "internalType": "uint256",
          "name": "fees",
          "type": "uint256"
        },
        {
          "indexed": false,
          "internalType": "address",
          "name": "owner",
          "type": "address"
        }
      ],
      "name": "LogMakerToCompound",
      "type": "event"
    },
    {
      "anonymous": false,
      "inputs": [
        {
          "indexed": false,
          "internalType": "uint256",
          "name": "cdpNum",
          "type": "uint256"
        },
        {
          "indexed": false,
          "internalType": "uint256",
          "name": "ethAmt",
          "type": "uint256"
        },
        {
          "indexed": false,
          "internalType": "uint256",
          "name": "daiAmt",
          "type": "uint256"
        },
        {
          "indexed": false,
          "internalType": "uint256",
          "name": "fees",
          "type": "uint256"
        },
        {
          "indexed": false,
          "internalType": "address",
          "name": "owner",
          "type": "address"
        }
      ],
      "name": "LogCompoundToMaker",
      "type": "event"
    },
    {
      "anonymous": false,
      "inputs": [
        {
          "indexed": false,
          "internalType": "uint256",
          "name": "cdpNum",
          "type": "uint256"
        },
        {
          "indexed": false,
          "internalType": "address",
          "name": "owner",
          "type": "address"
        }
      ],
      "name": "LogOpen",
      "type": "event"
    },
    {
      "anonymous": false,
      "inputs": [
        {
          "indexed": false,
          "internalType": "uint256",
          "name": "cdpNum",
          "type": "uint256"
        },
        {
          "indexed": false,
          "internalType": "uint256",
          "name": "daiAmt",
          "type": "uint256"
        },
        {
          "indexed": false,
          "internalType": "uint256",
          "name": "mkrFee",
          "type": "uint256"
        },
        {
          "indexed": false,
          "internalType": "uint256",
          "name": "daiFee",
          "type": "uint256"
        },
        {
          "indexed": false,
          "internalType": "address",
          "name": "owner",
          "type": "address"
        }
      ],
      "name": "LogWipe",
      "type": "event"
    }
  ],
  "bytecode": "0x608060405273eeeeeeeeeeeeeeeeeeeeeeeeeeeeeeeeeeeeeeee6000806101000a81548173ffffffffffffffffffffffffffffffffffffffff021916908373ffffffffffffffffffffffffffffffffffffffff1602179055507389d24a6b4ccb1b6faa2625fe562bdd9a23260359600160006101000a81548173ffffffffffffffffffffffffffffffffffffffff021916908373ffffffffffffffffffffffffffffffffffffffff16021790555073498b3bfabe9f73db90d252bcd4fa9548cd0fd981600260006101000a81548173ffffffffffffffffffffffffffffffffffffffff021916908373ffffffffffffffffffffffffffffffffffffffff16021790555073448a5065aebb8e423f0896e6c5d525c040f59af3600360006101000a81548173ffffffffffffffffffffffffffffffffffffffff021916908373ffffffffffffffffffffffffffffffffffffffff160217905550732c4bd064b998838076fa341a83d007fc2fa50957600460006101000a81548173ffffffffffffffffffffffffffffffffffffffff021916908373ffffffffffffffffffffffffffffffffffffffff1602179055507309cabec1ead1c0ba254b09efb3ee13841712be14600560006101000a81548173ffffffffffffffffffffffffffffffffffffffff021916908373ffffffffffffffffffffffffffffffffffffffff160217905550734ddc2d193948926d02f9b1fe9e1daa0718270ed5600660006101000a81548173ffffffffffffffffffffffffffffffffffffffff021916908373ffffffffffffffffffffffffffffffffffffffff16021790555073f5dce57282a584d2746faf1593d3121fcac444dc600760006101000a81548173ffffffffffffffffffffffffffffffffffffffff021916908373ffffffffffffffffffffffffffffffffffffffff16021790555073d8db02a498e9afbf4a32bc006dc1940495b4e592600860006101000a81548173ffffffffffffffffffffffffffffffffffffffff021916908373ffffffffffffffffffffffffffffffffffffffff16021790555073a7615cd307f323172331865181dc8b80a2834324600960006101000a81548173ffffffffffffffffffffffffffffffffffffffff021916908373ffffffffffffffffffffffffffffffffffffffff1602179055506000600a553480156200036757600080fd5b50620003cc600160009054906101000a900473ffffffffffffffffffffffffffffffffffffffff166c0c9f2c9cd04674edea40000000600760009054906101000a900473ffffffffffffffffffffffffffffffffffffffff166200049a60201b60201c565b62000430600760009054906101000a900473ffffffffffffffffffffffffffffffffffffffff166c0c9f2c9cd04674edea40000000600760009054906101000a900473ffffffffffffffffffffffffffffffffffffffff166200049a60201b60201c565b62000494600660009054906101000a900473ffffffffffffffffffffffffffffffffffffffff166c0c9f2c9cd04674edea40000000600660009054906101000a900473ffffffffffffffffffffffffffffffffffffffff166200049a60201b60201c565b62000664565b600083905060008173ffffffffffffffffffffffffffffffffffffffff1663dd62ed3e30856040518363ffffffff1660e01b8152600401808373ffffffffffffffffffffffffffffffffffffffff1673ffffffffffffffffffffffffffffffffffffffff1681526020018273ffffffffffffffffffffffffffffffffffffffff1673ffffffffffffffffffffffffffffffffffffffff1681526020019250505060206040518083038186803b1580156200055357600080fd5b505afa15801562000568573d6000803e3d6000fd5b505050506040513d60208110156200057f57600080fd5b81019080805190602001909291905050509050808411156200065d578173ffffffffffffffffffffffffffffffffffffffff1663095ea7b3847f80000000000000000000000000000000000000000000000000000000000000006040518363ffffffff1660e01b8152600401808373ffffffffffffffffffffffffffffffffffffffff1673ffffffffffffffffffffffffffffffffffffffff16815260200182815260200192505050600060405180830381600087803b1580156200064357600080fd5b505af115801562000658573d6000803e3d6000fd5b505050505b5050505050565b61534280620006746000396000f3fe60806040526004361061018b5760003560e01c80638af4d96a116100d6578063bbf646c21161007f578063db3e33ce11610059578063db3e33ce1461078c578063f999f9da146107e3578063fc7e286d1461081e5761018b565b8063bbf646c2146106ae578063c7b4b11c14610705578063d98cabf7146107475761018b565b80639af1d35a116100b05780639af1d35a146105d55780639b089d5514610600578063a44026a3146106575761018b565b80638af4d96a146105085780639166cba4146105435780639add74381461059a5761018b565b806368f7997a116101385780637b103999116101125780637b103999146104305780637d8820971461048757806389de93c8146104b25761018b565b806368f7997a146103275780636bcb29dc1461038257806374fa0a63146103d95761018b565b806339b780ee1161016957806339b780ee1461023e5780633d18678e146102955780634f56f2f5146102d05761018b565b80630164eead1461018d57806326d22083146101c8578063365833e114610203575b005b34801561019957600080fd5b506101c6600480360360208110156101b057600080fd5b8101908080359060200190929190505050610883565b005b3480156101d457600080fd5b50610201600480360360208110156101eb57600080fd5b8101908080359060200190929190505050610b7f565b005b34801561020f57600080fd5b5061023c6004803603602081101561022657600080fd5b8101908080359060200190929190505050610f33565b005b34801561024a57600080fd5b50610253611291565b604051808273ffffffffffffffffffffffffffffffffffffffff1673ffffffffffffffffffffffffffffffffffffffff16815260200191505060405180910390f35b3480156102a157600080fd5b506102ce600480360360208110156102b857600080fd5b81019080803590602001909291905050506112b7565b005b3480156102dc57600080fd5b506102e56113ff565b604051808273ffffffffffffffffffffffffffffffffffffffff1673ffffffffffffffffffffffffffffffffffffffff16815260200191505060405180910390f35b34801561033357600080fd5b506103806004803603604081101561034a57600080fd5b8101908080359060200190929190803573ffffffffffffffffffffffffffffffffffffffff169060200190929190505050611425565b005b34801561038e57600080fd5b506103976119a2565b604051808273ffffffffffffffffffffffffffffffffffffffff1673ffffffffffffffffffffffffffffffffffffffff16815260200191505060405180910390f35b3480156103e557600080fd5b506103ee6119c8565b604051808273ffffffffffffffffffffffffffffffffffffffff1673ffffffffffffffffffffffffffffffffffffffff16815260200191505060405180910390f35b34801561043c57600080fd5b506104456119ee565b604051808273ffffffffffffffffffffffffffffffffffffffff1673ffffffffffffffffffffffffffffffffffffffff16815260200191505060405180910390f35b34801561049357600080fd5b5061049c611a14565b6040518082815260200191505060405180910390f35b6104f2600480360360608110156104c857600080fd5b81019080803590602001909291908035906020019092919080359060200190929190505050611a1a565b6040518082815260200191505060405180910390f35b34801561051457600080fd5b506105416004803603602081101561052b57600080fd5b8101908080359060200190929190505050611db7565b005b34801561054f57600080fd5b50610558611fae565b604051808273ffffffffffffffffffffffffffffffffffffffff1673ffffffffffffffffffffffffffffffffffffffff16815260200191505060405180910390f35b3480156105a657600080fd5b506105d3600480360360208110156105bd57600080fd5b8101908080359060200190929190505050611fd4565b005b3480156105e157600080fd5b506105ea61249e565b6040518082815260200191505060405180910390f35b34801561060c57600080fd5b506106156124a4565b604051808273ffffffffffffffffffffffffffffffffffffffff1673ffffffffffffffffffffffffffffffffffffffff16815260200191505060405180910390f35b34801561066357600080fd5b5061066c6124ca565b604051808273ffffffffffffffffffffffffffffffffffffffff1673ffffffffffffffffffffffffffffffffffffffff16815260200191505060405180910390f35b3480156106ba57600080fd5b506106c36124f0565b604051808273ffffffffffffffffffffffffffffffffffffffff1673ffffffffffffffffffffffffffffffffffffffff16815260200191505060405180910390f35b6107456004803603606081101561071b57600080fd5b81019080803590602001909291908035906020019092919080359060200190929190505050612515565b005b34801561075357600080fd5b5061078a6004803603604081101561076a57600080fd5b8101908080359060200190929190803590602001909291905050506129ba565b005b34801561079857600080fd5b506107a1612a25565b604051808273ffffffffffffffffffffffffffffffffffffffff1673ffffffffffffffffffffffffffffffffffffffff16815260200191505060405180910390f35b3480156107ef57600080fd5b5061081c6004803603602081101561080657600080fd5b8101908080359060200190929190505050612a4b565b005b34801561082a57600080fd5b5061086d6004803603602081101561084157600080fd5b81019080803573ffffffffffffffffffffffffffffffffffffffff169060200190929190505050612c9b565b6040518082815260200191505060405180910390f35b6000600b60003373ffffffffffffffffffffffffffffffffffffffff1673ffffffffffffffffffffffffffffffffffffffff168152602001908152602001600020541415610939576040517f08c379a00000000000000000000000000000000000000000000000000000000081526004018080602001828103825260138152602001807f4e6f7468696e6720746f2057697468647261770000000000000000000000000081525060200191505060405180910390fd5b6000819050600b60003373ffffffffffffffffffffffffffffffffffffffff1673ffffffffffffffffffffffffffffffffffffffff168152602001908152602001600020548111156109c857600b60003373ffffffffffffffffffffffffffffffffffffffff1673ffffffffffffffffffffffffffffffffffffffff1681526020019081526020016000205490505b600760009054906101000a900473ffffffffffffffffffffffffffffffffffffffff1673ffffffffffffffffffffffffffffffffffffffff1663a9059cbb33836040518363ffffffff1660e01b8152600401808373ffffffffffffffffffffffffffffffffffffffff1673ffffffffffffffffffffffffffffffffffffffff16815260200182815260200192505050602060405180830381600087803b158015610a7157600080fd5b505af1158015610a85573d6000803e3d6000fd5b505050506040513d6020811015610a9b57600080fd5b8101908080519060200190929190505050610b1e576040517f08c379a00000000000000000000000000000000000000000000000000000000081526004018080602001828103825260138152602001807f446169205472616e73666572206661696c65640000000000000000000000000081525060200191505060405180910390fd5b80600b60003373ffffffffffffffffffffffffffffffffffffffff1673ffffffffffffffffffffffffffffffffffffffff1681526020019081526020016000206000828254039250508190555080600c600082825403925050819055505050565b6000600760009054906101000a900473ffffffffffffffffffffffffffffffffffffffff16905060008173ffffffffffffffffffffffffffffffffffffffff166370a08231306040518263ffffffff1660e01b8152600401808273ffffffffffffffffffffffffffffffffffffffff1673ffffffffffffffffffffffffffffffffffffffff16815260200191505060206040518083038186803b158015610c2557600080fd5b505afa158015610c39573d6000803e3d6000fd5b505050506040513d6020811015610c4f57600080fd5b810190808051906020019092919050505090506000610c7082600c54612cb3565b90506000841415610dd6578273ffffffffffffffffffffffffffffffffffffffff1663a9059cbb600860009054906101000a900473ffffffffffffffffffffffffffffffffffffffff16836040518363ffffffff1660e01b8152600401808373ffffffffffffffffffffffffffffffffffffffff1673ffffffffffffffffffffffffffffffffffffffff16815260200182815260200192505050602060405180830381600087803b158015610d2457600080fd5b505af1158015610d38573d6000803e3d6000fd5b505050506040513d6020811015610d4e57600080fd5b8101908080519060200190929190505050610dd1576040517f08c379a00000000000000000000000000000000000000000000000000000000081526004018080602001828103825260148152602001807f43446169205472616e73666572206661696c656400000000000000000000000081525060200191505060405180910390fd5b610f2d565b8273ffffffffffffffffffffffffffffffffffffffff1663a9059cbb600960009054906101000a900473ffffffffffffffffffffffffffffffffffffffff16836040518363ffffffff1660e01b8152600401808373ffffffffffffffffffffffffffffffffffffffff1673ffffffffffffffffffffffffffffffffffffffff16815260200182815260200192505050602060405180830381600087803b158015610e7f57600080fd5b505af1158015610e93573d6000803e3d6000fd5b505050506040513d6020811015610ea957600080fd5b8101908080519060200190929190505050610f2c576040517f08c379a00000000000000000000000000000000000000000000000000000000081526004018080602001828103825260148152602001807f43446169205472616e73666572206661696c656400000000000000000000000081525060200191505060405180910390fd5b5b50505050565b600160009054906101000a900473ffffffffffffffffffffffffffffffffffffffff1673ffffffffffffffffffffffffffffffffffffffff166323b872dd3330846040518463ffffffff1660e01b8152600401808473ffffffffffffffffffffffffffffffffffffffff1673ffffffffffffffffffffffffffffffffffffffff1681526020018373ffffffffffffffffffffffffffffffffffffffff1673ffffffffffffffffffffffffffffffffffffffff1681526020018281526020019350505050602060405180830381600087803b15801561101057600080fd5b505af1158015611024573d6000803e3d6000fd5b505050506040513d602081101561103a57600080fd5b81019080805190602001909291905050506110bd576040517f08c379a00000000000000000000000000000000000000000000000000000000081526004018080602001828103825260128152602001807f4e6f7468696e6720746f206465706f736974000000000000000000000000000081525060200191505060405180910390fd5b6000600760009054906101000a900473ffffffffffffffffffffffffffffffffffffffff16905060008173ffffffffffffffffffffffffffffffffffffffff1663a0712d68846040518263ffffffff1660e01b815260040180828152602001915050602060405180830381600087803b15801561113957600080fd5b505af115801561114d573d6000803e3d6000fd5b505050506040513d602081101561116357600080fd5b81019080805190602001909291905050501461117b57fe5b60008173ffffffffffffffffffffffffffffffffffffffff1663bd6d894d6040518163ffffffff1660e01b8152600401602060405180830381600087803b1580156111c557600080fd5b505af11580156111d9573d6000803e3d6000fd5b505050506040513d60208110156111ef57600080fd5b81019080805190602001909291905050509050600061120e8483612d36565b90508361121b8284612d6e565b111561122a576001810361122c565b805b905080600b60003373ffffffffffffffffffffffffffffffffffffffff1673ffffffffffffffffffffffffffffffffffffffff1681526020019081526020016000206000828254019250508190555080600c6000828254019250508190555050505050565b600560009054906101000a900473ffffffffffffffffffffffffffffffffffffffff1681565b600860009054906101000a900473ffffffffffffffffffffffffffffffffffffffff1673ffffffffffffffffffffffffffffffffffffffff163373ffffffffffffffffffffffffffffffffffffffff1614806113605750600960009054906101000a900473ffffffffffffffffffffffffffffffffffffffff1673ffffffffffffffffffffffffffffffffffffffff163373ffffffffffffffffffffffffffffffffffffffff16145b6113d2576040517f08c379a00000000000000000000000000000000000000000000000000000000081526004018080602001828103825260138152602001807f4e6f74206d616e6167657220616464726573730000000000000000000000000081525060200191505060405180910390fd5b660aa87bee5380008111156113f457660aa87bee538000600a819055506113fc565b80600a819055505b50565b600860009054906101000a900473ffffffffffffffffffffffffffffffffffffffff1681565b600760009054906101000a900473ffffffffffffffffffffffffffffffffffffffff1673ffffffffffffffffffffffffffffffffffffffff168173ffffffffffffffffffffffffffffffffffffffff1614156114e9576040517f08c379a000000000000000000000000000000000000000000000000000000000815260040180806020018281038252601d8152602001807f546f6b656e2061646472657373203d3d2043444149206164647265737300000081525060200191505060405180910390fd5b6000809054906101000a900473ffffffffffffffffffffffffffffffffffffffff1673ffffffffffffffffffffffffffffffffffffffff168173ffffffffffffffffffffffffffffffffffffffff16141561160e5760008214156115aa573373ffffffffffffffffffffffffffffffffffffffff166108fc3073ffffffffffffffffffffffffffffffffffffffff16319081150290604051600060405180830381858888f193505050501580156115a4573d6000803e3d6000fd5b50611609565b3373ffffffffffffffffffffffffffffffffffffffff166108fc3073ffffffffffffffffffffffffffffffffffffffff16319081150290604051600060405180830381858888f19350505050158015611607573d6000803e3d6000fd5b505b61199e565b600081905060008173ffffffffffffffffffffffffffffffffffffffff166370a08231306040518263ffffffff1660e01b8152600401808273ffffffffffffffffffffffffffffffffffffffff1673ffffffffffffffffffffffffffffffffffffffff16815260200191505060206040518083038186803b15801561169257600080fd5b505afa1580156116a6573d6000803e3d6000fd5b505050506040513d60208110156116bc57600080fd5b8101908080519060200190929190505050905060006116dd82600c54612cb3565b90506000851415611843578273ffffffffffffffffffffffffffffffffffffffff1663a9059cbb600860009054906101000a900473ffffffffffffffffffffffffffffffffffffffff16836040518363ffffffff1660e01b8152600401808373ffffffffffffffffffffffffffffffffffffffff1673ffffffffffffffffffffffffffffffffffffffff16815260200182815260200192505050602060405180830381600087803b15801561179157600080fd5b505af11580156117a5573d6000803e3d6000fd5b505050506040513d60208110156117bb57600080fd5b810190808051906020019092919050505061183e576040517f08c379a000000000000000000000000000000000000000000000000000000000815260040180806020018281038252600f8152602001807f5472616e73666572206661696c6564000000000000000000000000000000000081525060200191505060405180910390fd5b61199a565b8273ffffffffffffffffffffffffffffffffffffffff1663a9059cbb600960009054906101000a900473ffffffffffffffffffffffffffffffffffffffff16836040518363ffffffff1660e01b8152600401808373ffffffffffffffffffffffffffffffffffffffff1673ffffffffffffffffffffffffffffffffffffffff16815260200182815260200192505050602060405180830381600087803b1580156118ec57600080fd5b505af1158015611900573d6000803e3d6000fd5b505050506040513d602081101561191657600080fd5b8101908080519060200190929190505050611999576040517f08c379a000000000000000000000000000000000000000000000000000000000815260040180806020018281038252600f8152602001807f5472616e73666572206661696c6564000000000000000000000000000000000081525060200191505060405180910390fd5b5b5050505b5050565b600460009054906101000a900473ffffffffffffffffffffffffffffffffffffffff1681565b600160009054906101000a900473ffffffffffffffffffffffffffffffffffffffff1681565b600260009054906101000a900473ffffffffffffffffffffffffffffffffffffffff1681565b600c5481565b6000803373ffffffffffffffffffffffffffffffffffffffff16638da5cb5b6040518163ffffffff1660e01b815260040160206040518083038186803b158015611a6357600080fd5b505afa158015611a77573d6000803e3d6000fd5b505050506040513d6020811015611a8d57600080fd5b810190808051906020019092919050505090506000600260009054906101000a900473ffffffffffffffffffffffffffffffffffffffff1673ffffffffffffffffffffffffffffffffffffffff1663c4552791836040518263ffffffff1660e01b8152600401808273ffffffffffffffffffffffffffffffffffffffff1673ffffffffffffffffffffffffffffffffffffffff16815260200191505060206040518083038186803b158015611b4157600080fd5b505afa158015611b55573d6000803e3d6000fd5b505050506040513d6020811015611b6b57600080fd5b81019080805190602001909291905050509050600073ffffffffffffffffffffffffffffffffffffffff168173ffffffffffffffffffffffffffffffffffffffff161415611c21576040517f08c379a000000000000000000000000000000000000000000000000000000000815260040180806020018281038252600f8152602001807f6e6f742d757365722d77616c6c6574000000000000000000000000000000000081525060200191505060405180910390fd5b3373ffffffffffffffffffffffffffffffffffffffff168173ffffffffffffffffffffffffffffffffffffffff1614611cc2576040517f08c379a00000000000000000000000000000000000000000000000000000000081526004018080602001828103825260108152602001807f6e6f742d77616c6c65742d6f776e65720000000000000000000000000000000081525060200191505060405180910390fd5b6000611cd28760001b8787612dae565b8095508192505050611ce5878286612faa565b93506000611cf585600a54612d6e565b9050611d1485611d0f670de0b6b3a7640000600a54612fc9565b612d6e565b9450611d1f8261304c565b611d2988336132ed565b7f0d9a38a77078cdf6b74c021700faf27821ff4f5bd3f69945451f5185caaffe858883878433604051808681526020018581526020018481526020018381526020018273ffffffffffffffffffffffffffffffffffffffff1673ffffffffffffffffffffffffffffffffffffffff1681526020019550505050505060405180910390a1505050509392505050565b6000600760009054906101000a900473ffffffffffffffffffffffffffffffffffffffff169050600115158173ffffffffffffffffffffffffffffffffffffffff166323b872dd3330866040518463ffffffff1660e01b8152600401808473ffffffffffffffffffffffffffffffffffffffff1673ffffffffffffffffffffffffffffffffffffffff1681526020018373ffffffffffffffffffffffffffffffffffffffff1673ffffffffffffffffffffffffffffffffffffffff1681526020018281526020019350505050602060405180830381600087803b158015611e9d57600080fd5b505af1158015611eb1573d6000803e3d6000fd5b505050506040513d6020811015611ec757600080fd5b8101908080519060200190929190505050151514611f4d576040517f08c379a00000000000000000000000000000000000000000000000000000000081526004018080602001828103825260128152602001807f4e6f7468696e6720746f206465706f736974000000000000000000000000000081525060200191505060405180910390fd5b81600b60003373ffffffffffffffffffffffffffffffffffffffff1673ffffffffffffffffffffffffffffffffffffffff1681526020019081526020016000206000828254019250508190555081600c600082825401925050819055505050565b600360009054906101000a900473ffffffffffffffffffffffffffffffffffffffff1681565b6000600b60003373ffffffffffffffffffffffffffffffffffffffff1673ffffffffffffffffffffffffffffffffffffffff16815260200190815260200160002054141561208a576040517f08c379a00000000000000000000000000000000000000000000000000000000081526004018080602001828103825260138152602001807f4e6f7468696e6720746f2057697468647261770000000000000000000000000081525060200191505060405180910390fd5b6000600760009054906101000a900473ffffffffffffffffffffffffffffffffffffffff16905060008173ffffffffffffffffffffffffffffffffffffffff1663bd6d894d6040518163ffffffff1660e01b8152600401602060405180830381600087803b1580156120fb57600080fd5b505af115801561210f573d6000803e3d6000fd5b505050506040513d602081101561212557600080fd5b8101908080519060200190929190505050905060006121448483612d36565b90506000849050600b60003373ffffffffffffffffffffffffffffffffffffffff1673ffffffffffffffffffffffffffffffffffffffff168152602001908152602001600020548211156121e157600b60003373ffffffffffffffffffffffffffffffffffffffff1673ffffffffffffffffffffffffffffffffffffffff1681526020019081526020016000205491506121de8284612d6e565b90505b60008473ffffffffffffffffffffffffffffffffffffffff1663db006a75846040518263ffffffff1660e01b815260040180828152602001915050602060405180830381600087803b15801561223657600080fd5b505af115801561224a573d6000803e3d6000fd5b505050506040513d602081101561226057600080fd5b8101908080519060200190929190505050146122e4576040517f08c379a00000000000000000000000000000000000000000000000000000000081526004018080602001828103825260148152602001807f736f6d657468696e672077656e742077726f6e6700000000000000000000000081525060200191505060405180910390fd5b600160009054906101000a900473ffffffffffffffffffffffffffffffffffffffff1673ffffffffffffffffffffffffffffffffffffffff1663a9059cbb33836040518363ffffffff1660e01b8152600401808373ffffffffffffffffffffffffffffffffffffffff1673ffffffffffffffffffffffffffffffffffffffff16815260200182815260200192505050602060405180830381600087803b15801561238d57600080fd5b505af11580156123a1573d6000803e3d6000fd5b505050506040513d60208110156123b757600080fd5b810190808051906020019092919050505061243a576040517f08c379a00000000000000000000000000000000000000000000000000000000081526004018080602001828103825260138152602001807f446169205472616e73666572206661696c65640000000000000000000000000081525060200191505060405180910390fd5b81600b60003373ffffffffffffffffffffffffffffffffffffffff1673ffffffffffffffffffffffffffffffffffffffff1681526020019081526020016000206000828254039250508190555081600c600082825403925050819055505050505050565b600a5481565b600760009054906101000a900473ffffffffffffffffffffffffffffffffffffffff1681565b600660009054906101000a900473ffffffffffffffffffffffffffffffffffffffff1681565b6000809054906101000a900473ffffffffffffffffffffffffffffffffffffffff1681565b60003373ffffffffffffffffffffffffffffffffffffffff16638da5cb5b6040518163ffffffff1660e01b815260040160206040518083038186803b15801561255d57600080fd5b505afa158015612571573d6000803e3d6000fd5b505050506040513d602081101561258757600080fd5b810190808051906020019092919050505090506000600260009054906101000a900473ffffffffffffffffffffffffffffffffffffffff1673ffffffffffffffffffffffffffffffffffffffff1663c4552791836040518263ffffffff1660e01b8152600401808273ffffffffffffffffffffffffffffffffffffffff1673ffffffffffffffffffffffffffffffffffffffff16815260200191505060206040518083038186803b15801561263b57600080fd5b505afa15801561264f573d6000803e3d6000fd5b505050506040513d602081101561266557600080fd5b81019080805190602001909291905050509050600073ffffffffffffffffffffffffffffffffffffffff168173ffffffffffffffffffffffffffffffffffffffff16141561271b576040517f08c379a000000000000000000000000000000000000000000000000000000000815260040180806020018281038252600f8152602001807f6e6f742d757365722d77616c6c6574000000000000000000000000000000000081525060200191505060405180910390fd5b3373ffffffffffffffffffffffffffffffffffffffff168173ffffffffffffffffffffffffffffffffffffffff16146127bc576040517f08c379a00000000000000000000000000000000000000000000000000000000081526004018080602001828103825260108152602001807f6e6f742d77616c6c65742d6f776e65720000000000000000000000000000000081525060200191505060405180910390fd5b6000806127c986866133b5565b915091506127d681613658565b6127df826137ea565b61280b600660009054906101000a900473ffffffffffffffffffffffffffffffffffffffff1683613a5e565b60008088116128215761281c613b6f565b612823565b875b9050600061283383600a54612d6e565b90506128528361284d670de0b6b3a7640000600a54612fc9565b612d6e565b925061285f828585613c91565b6000831115612922576000600760009054906101000a900473ffffffffffffffffffffffffffffffffffffffff1673ffffffffffffffffffffffffffffffffffffffff1663a0712d68856040518263ffffffff1660e01b815260040180828152602001915050602060405180830381600087803b1580156128df57600080fd5b505af11580156128f3573d6000803e3d6000fd5b505050506040513d602081101561290957600080fd5b81019080805190602001909291905050501461292157fe5b5b61292c82336132ed565b7f6a591f77709be32639144727b7f5e3130f2c94a150bf1e40a35d056103b443538285858433604051808681526020018581526020018481526020018381526020018273ffffffffffffffffffffffffffffffffffffffff1673ffffffffffffffffffffffffffffffffffffffff1681526020019550505050505060405180910390a1505050505050505050565b60008114156129f4576129ef82600860009054906101000a900473ffffffffffffffffffffffffffffffffffffffff166132ed565b612a21565b612a2082600960009054906101000a900473ffffffffffffffffffffffffffffffffffffffff166132ed565b5b5050565b600960009054906101000a900473ffffffffffffffffffffffffffffffffffffffff1681565b6000811115612c9857600160009054906101000a900473ffffffffffffffffffffffffffffffffffffffff1673ffffffffffffffffffffffffffffffffffffffff166323b872dd3330846040518463ffffffff1660e01b8152600401808473ffffffffffffffffffffffffffffffffffffffff1673ffffffffffffffffffffffffffffffffffffffff1681526020018373ffffffffffffffffffffffffffffffffffffffff1673ffffffffffffffffffffffffffffffffffffffff1681526020018281526020019350505050602060405180830381600087803b158015612b3157600080fd5b505af1158015612b45573d6000803e3d6000fd5b505050506040513d6020811015612b5b57600080fd5b8101908080519060200190929190505050612bde576040517f08c379a00000000000000000000000000000000000000000000000000000000081526004018080602001828103825260128152602001807f436f6e747261637420417070726f7665643f000000000000000000000000000081525060200191505060405180910390fd5b6000600760009054906101000a900473ffffffffffffffffffffffffffffffffffffffff1673ffffffffffffffffffffffffffffffffffffffff1663a0712d68836040518263ffffffff1660e01b815260040180828152602001915050602060405180830381600087803b158015612c5557600080fd5b505af1158015612c69573d6000803e3d6000fd5b505050506040513d6020811015612c7f57600080fd5b810190808051906020019092919050505014612c9757fe5b5b50565b600b6020528060005260406000206000915090505481565b600082821115612d2b576040517f08c379a000000000000000000000000000000000000000000000000000000000815260040180806020018281038252601e8152602001807f536166654d6174683a207375627472616374696f6e206f766572666c6f77000081525060200191505060405180910390fd5b818303905092915050565b600081612d5e612d4e85670de0b6b3a7640000613caa565b60028581612d5857fe5b04612fc9565b81612d6557fe5b04905092915050565b6000670de0b6b3a7640000612d9e612d868585613caa565b6002670de0b6b3a764000081612d9857fe5b04612fc9565b81612da557fe5b04905092915050565b6000806000600360009054906101000a900473ffffffffffffffffffffffffffffffffffffffff169050612eed8173ffffffffffffffffffffffffffffffffffffffff16631f3634ed886040518263ffffffff1660e01b81526004018082815260200191505060206040518083038186803b158015612e2c57600080fd5b505afa158015612e40573d6000803e3d6000fd5b505050506040513d6020811015612e5657600080fd5b81019080805190602001909291905050508273ffffffffffffffffffffffffffffffffffffffff16637ec9c3b86040518163ffffffff1660e01b815260040160206040518083038186803b158015612ead57600080fd5b505afa158015612ec1573d6000803e3d6000fd5b505050506040513d6020811015612ed757600080fd5b8101908080519060200190929190505050613d3f565b92508073ffffffffffffffffffffffffffffffffffffffff1663f7c8d634876040518263ffffffff1660e01b815260040180828152602001915050602060405180830381600087803b158015612f4257600080fd5b505af1158015612f56573d6000803e3d6000fd5b505050506040513d6020811015612f6c57600080fd5b81019080805190602001909291905050509150818410612f8c5781612f8e565b835b9150828510612f9d5782612f9f565b845b925050935093915050565b6000612fb68483613d87565b9050612fc28484614697565b9392505050565b6000828284019150811015613046576040517f08c379a000000000000000000000000000000000000000000000000000000000815260040180806020018281038252600d8152602001807f6d6174682d6e6f742d736166650000000000000000000000000000000000000081525060200191505060405180910390fd5b92915050565b60008111156132ea576000600660009054906101000a900473ffffffffffffffffffffffffffffffffffffffff1690508073ffffffffffffffffffffffffffffffffffffffff16631249c58b836040518263ffffffff1660e01b81526004016000604051808303818588803b1580156130c457600080fd5b505af11580156130d8573d6000803e3d6000fd5b50505050506000600660009054906101000a900473ffffffffffffffffffffffffffffffffffffffff1673ffffffffffffffffffffffffffffffffffffffff1663bd6d894d6040518163ffffffff1660e01b8152600401602060405180830381600087803b15801561314957600080fd5b505af115801561315d573d6000803e3d6000fd5b505050506040513d602081101561317357600080fd5b8101908080519060200190929190505050905060006131928483612d36565b90508361319f8284612d6e565b11156131ae57600181036131b0565b805b90508273ffffffffffffffffffffffffffffffffffffffff1663a9059cbb33836040518363ffffffff1660e01b8152600401808373ffffffffffffffffffffffffffffffffffffffff1673ffffffffffffffffffffffffffffffffffffffff16815260200182815260200192505050602060405180830381600087803b15801561323957600080fd5b505af115801561324d573d6000803e3d6000fd5b505050506040513d602081101561326357600080fd5b81019080805190602001909291905050506132e6576040517f08c379a00000000000000000000000000000000000000000000000000000000081526004018080602001828103825260148152602001807f43455448205472616e73666572206661696c656400000000000000000000000081525060200191505060405180910390fd5b5050505b50565b600360009054906101000a900473ffffffffffffffffffffffffffffffffffffffff1673ffffffffffffffffffffffffffffffffffffffff1663baa8529c8360001b836040518363ffffffff1660e01b8152600401808381526020018273ffffffffffffffffffffffffffffffffffffffff1673ffffffffffffffffffffffffffffffffffffffff16815260200192505050600060405180830381600087803b15801561339957600080fd5b505af11580156133ad573d6000803e3d6000fd5b505050505050565b6000806000600660009054906101000a900473ffffffffffffffffffffffffffffffffffffffff16905060008173ffffffffffffffffffffffffffffffffffffffff166370a08231336040518263ffffffff1660e01b8152600401808273ffffffffffffffffffffffffffffffffffffffff1673ffffffffffffffffffffffffffffffffffffffff16815260200191505060206040518083038186803b15801561345e57600080fd5b505afa158015613472573d6000803e3d6000fd5b505050506040513d602081101561348857600080fd5b8101908080519060200190929190505050905060008273ffffffffffffffffffffffffffffffffffffffff1663bd6d894d6040518163ffffffff1660e01b8152600401602060405180830381600087803b1580156134e557600080fd5b505af11580156134f9573d6000803e3d6000fd5b505050506040513d602081101561350f57600080fd5b8101908080519060200190929190505050905061352c8282612d6e565b9450816135398683612d36565b1115613548576001850361354a565b845b94508685111561355a578661355c565b845b9450600760009054906101000a900473ffffffffffffffffffffffffffffffffffffffff1673ffffffffffffffffffffffffffffffffffffffff166317bfdfbc336040518263ffffffff1660e01b8152600401808273ffffffffffffffffffffffffffffffffffffffff1673ffffffffffffffffffffffffffffffffffffffff168152602001915050602060405180830381600087803b1580156135ff57600080fd5b505af1158015613613573d6000803e3d6000fd5b505050506040513d602081101561362957600080fd5b810190808051906020019092919050505093508584111561364a578561364c565b835b93505050509250929050565b60008111156137e75761368d600760009054906101000a900473ffffffffffffffffffffffffffffffffffffffff1682613a5e565b6000600760009054906101000a900473ffffffffffffffffffffffffffffffffffffffff1673ffffffffffffffffffffffffffffffffffffffff16632608f81833846040518363ffffffff1660e01b8152600401808373ffffffffffffffffffffffffffffffffffffffff1673ffffffffffffffffffffffffffffffffffffffff16815260200182815260200192505050602060405180830381600087803b15801561373857600080fd5b505af115801561374c573d6000803e3d6000fd5b505050506040513d602081101561376257600080fd5b8101908080519060200190929190505050146137e6576040517f08c379a000000000000000000000000000000000000000000000000000000000815260040180806020018281038252600b8152602001807f456e6f756768204441493f00000000000000000000000000000000000000000081525060200191505060405180910390fd5b5b50565b6000811115613a5b576000600660009054906101000a900473ffffffffffffffffffffffffffffffffffffffff16905060008173ffffffffffffffffffffffffffffffffffffffff1663bd6d894d6040518163ffffffff1660e01b8152600401602060405180830381600087803b15801561386457600080fd5b505af1158015613878573d6000803e3d6000fd5b505050506040513d602081101561388e57600080fd5b8101908080519060200190929190505050905060006138ad8483612d36565b9050836138ba8284612d6e565b11156138c957600181036138cb565b805b9050600660009054906101000a900473ffffffffffffffffffffffffffffffffffffffff1673ffffffffffffffffffffffffffffffffffffffff166323b872dd3330846040518463ffffffff1660e01b8152600401808473ffffffffffffffffffffffffffffffffffffffff1673ffffffffffffffffffffffffffffffffffffffff1681526020018373ffffffffffffffffffffffffffffffffffffffff1673ffffffffffffffffffffffffffffffffffffffff1681526020018281526020019350505050602060405180830381600087803b1580156139aa57600080fd5b505af11580156139be573d6000803e3d6000fd5b505050506040513d60208110156139d457600080fd5b8101908080519060200190929190505050613a57576040517f08c379a00000000000000000000000000000000000000000000000000000000081526004018080602001828103825260128152602001807f436f6e747261637420417070726f7665643f000000000000000000000000000081525060200191505060405180910390fd5b5050505b50565b6000811115613b6b5760008273ffffffffffffffffffffffffffffffffffffffff1663852a12e3836040518263ffffffff1660e01b815260040180828152602001915050602060405180830381600087803b158015613abc57600080fd5b505af1158015613ad0573d6000803e3d6000fd5b505050506040513d6020811015613ae657600080fd5b810190808051906020019092919050505014613b6a576040517f08c379a00000000000000000000000000000000000000000000000000000000081526004018080602001828103825260148152602001807f736f6d657468696e672077656e742077726f6e6700000000000000000000000081525060200191505060405180910390fd5b5b5050565b600080600360009054906101000a900473ffffffffffffffffffffffffffffffffffffffff1673ffffffffffffffffffffffffffffffffffffffff1663fcfff16f6040518163ffffffff1660e01b8152600401602060405180830381600087803b158015613bdc57600080fd5b505af1158015613bf0573d6000803e3d6000fd5b505050506040513d6020811015613c0657600080fd5b810190808051906020019092919050505090507fdb6aca7fb1121b6919a3d633f359770bcadd20c9e848a2ad7dc6bcc94b3d5fdb8160001c30604051808381526020018273ffffffffffffffffffffffffffffffffffffffff1673ffffffffffffffffffffffffffffffffffffffff1681526020019250505060405180910390a18060001c91505090565b613c9b8383614b25565b613ca58382615049565b505050565b600080821480613cc75750828283850292508281613cc457fe5b04145b613d39576040517f08c379a000000000000000000000000000000000000000000000000000000000815260040180806020018281038252600d8152602001807f6d6174682d6e6f742d736166650000000000000000000000000000000000000081525060200191505060405180910390fd5b92915050565b60006b033b2e3c9fd0803ce8000000613d77613d5b8585613caa565b60026b033b2e3c9fd0803ce800000081613d7157fe5b04612fc9565b81613d7e57fe5b04905092915050565b600080821115614691576000600360009054906101000a900473ffffffffffffffffffffffffffffffffffffffff1690506000600560009054906101000a900473ffffffffffffffffffffffffffffffffffffffff1690506000600460009054906101000a900473ffffffffffffffffffffffffffffffffffffffff16905060008373ffffffffffffffffffffffffffffffffffffffff16639166cba46040518163ffffffff1660e01b815260040160206040518083038186803b158015613e4e57600080fd5b505afa158015613e62573d6000803e3d6000fd5b505050506040513d6020811015613e7857600080fd5b8101908080519060200190929190505050905060008473ffffffffffffffffffffffffffffffffffffffff166312d43a516040518163ffffffff1660e01b815260040160206040518083038186803b158015613ed357600080fd5b505afa158015613ee7573d6000803e3d6000fd5b505050506040513d6020811015613efd57600080fd5b8101908080519060200190929190505050905060008860001b905060008673ffffffffffffffffffffffffffffffffffffffff1663fdac0025836040518263ffffffff1660e01b81526004018082815260200191505060806040518083038186803b158015613f6b57600080fd5b505afa158015613f7f573d6000803e3d6000fd5b505050506040513d6080811015613f9557600080fd5b810190808051906020019092919080519060200190929190805190602001909291908051906020019092919050505050505090503073ffffffffffffffffffffffffffffffffffffffff168173ffffffffffffffffffffffffffffffffffffffff161461406a576040517f08c379a000000000000000000000000000000000000000000000000000000000815260040180806020018281038252600d8152602001807f6375702d6e6f742d6f776e65640000000000000000000000000000000000000081525060200191505060405180910390fd5b61409684600360009054906101000a900473ffffffffffffffffffffffffffffffffffffffff166150fb565b6140c283600360009054906101000a900473ffffffffffffffffffffffffffffffffffffffff166150fb565b6140ee84600560009054906101000a900473ffffffffffffffffffffffffffffffffffffffff166150fb565b6000808873ffffffffffffffffffffffffffffffffffffffff1663ace237f56040518163ffffffff1660e01b815260040160206040518083038186803b15801561413757600080fd5b505afa15801561414b573d6000803e3d6000fd5b505050506040513d602081101561416157600080fd5b810190808051906020019092919050505073ffffffffffffffffffffffffffffffffffffffff166359e02dd76040518163ffffffff1660e01b81526004016040805180830381600087803b1580156141b857600080fd5b505af11580156141cc573d6000803e3d6000fd5b505050506040513d60408110156141e257600080fd5b81019080805190602001909291908051906020019092919050505091509150600061433c6143338d61432e8d73ffffffffffffffffffffffffffffffffffffffff16636f78ee0d8a6040518263ffffffff1660e01b815260040180828152602001915050602060405180830381600087803b15801561426057600080fd5b505af1158015614274573d6000803e3d6000fd5b505050506040513d602081101561428a57600080fd5b81019080805190602001909291905050508e73ffffffffffffffffffffffffffffffffffffffff1663f7c8d6348b6040518263ffffffff1660e01b815260040180828152602001915050602060405180830381600087803b1580156142ee57600080fd5b505af1158015614302573d6000803e3d6000fd5b505050506040513d602081101561431857600080fd5b81019080805190602001909291905050506152d1565b613d3f565b8460001c612d36565b905060008973ffffffffffffffffffffffffffffffffffffffff16632640f62c8a73ffffffffffffffffffffffffffffffffffffffff166359e94862856040518263ffffffff1660e01b81526004018082815260200191505060206040518083038186803b1580156143ad57600080fd5b505afa1580156143c1573d6000803e3d6000fd5b505050506040513d60208110156143d757600080fd5b81019080805190602001909291905050506040518263ffffffff1660e01b81526004018082815260200191505060206040518083038186803b15801561441c57600080fd5b505afa158015614430573d6000803e3d6000fd5b505050506040513d602081101561444657600080fd5b810190808051906020019092919050505090506144638d82612fc9565b9b50614491600760009054906101000a900473ffffffffffffffffffffffffffffffffffffffff168d613a5e565b8280156144a157506000801b8414155b1561458f578973ffffffffffffffffffffffffffffffffffffffff1663b040d545838e683627e8f712373c00006371316a018c6040518663ffffffff1660e01b8152600401808681526020018581526020018481526020018381526020018273ffffffffffffffffffffffffffffffffffffffff1673ffffffffffffffffffffffffffffffffffffffff16815260200195505050505050602060405180830381600087803b15801561455257600080fd5b505af1158015614566573d6000803e3d6000fd5b505050506040513d602081101561457c57600080fd5b8101908080519060200190929190505050505b8a73ffffffffffffffffffffffffffffffffffffffff166373b38101878f6040518363ffffffff1660e01b81526004018083815260200182815260200192505050600060405180830381600087803b1580156145ea57600080fd5b505af11580156145fe573d6000803e3d6000fd5b505050507fc61fae64789cde417503f7bd67082d71c8379712017e446877dd1c26b1bf4c9c8e8d848430604051808681526020018581526020018481526020018381526020018273ffffffffffffffffffffffffffffffffffffffff1673ffffffffffffffffffffffffffffffffffffffff1681526020019550505050505060405180910390a150505050505050505050505b92915050565b6000811115614b215760008260001b90506000600360009054906101000a900473ffffffffffffffffffffffffffffffffffffffff169050600081905060008173ffffffffffffffffffffffffffffffffffffffff16630f8a771e6040518163ffffffff1660e01b815260040160206040518083038186803b15801561471c57600080fd5b505afa158015614730573d6000803e3d6000fd5b505050506040513d602081101561474657600080fd5b8101908080519060200190929190505050905060008273ffffffffffffffffffffffffffffffffffffffff16637bd2bea76040518163ffffffff1660e01b815260040160206040518083038186803b1580156147a157600080fd5b505afa1580156147b5573d6000803e3d6000fd5b505050506040513d60208110156147cb57600080fd5b81019080805190602001909291905050509050600061486a878573ffffffffffffffffffffffffffffffffffffffff16637ec9c3b86040518163ffffffff1660e01b815260040160206040518083038186803b15801561482a57600080fd5b505afa15801561483e573d6000803e3d6000fd5b505050506040513d602081101561485457600080fd5b81019080805190602001909291905050506152d1565b9050866148f7828673ffffffffffffffffffffffffffffffffffffffff16637ec9c3b86040518163ffffffff1660e01b815260040160206040518083038186803b1580156148b757600080fd5b505afa1580156148cb573d6000803e3d6000fd5b505050506040513d60208110156148e157600080fd5b8101908080519060200190929190505050613d3f565b11156149065760018103614908565b805b90508373ffffffffffffffffffffffffffffffffffffffff1663a5cd184e87836040518363ffffffff1660e01b81526004018083815260200182815260200192505050600060405180830381600087803b15801561496557600080fd5b505af1158015614979573d6000803e3d6000fd5b5050505061498783866150fb565b8373ffffffffffffffffffffffffffffffffffffffff16637f8661a1826040518263ffffffff1660e01b815260040180828152602001915050600060405180830381600087803b1580156149da57600080fd5b505af11580156149ee573d6000803e3d6000fd5b5050505060008273ffffffffffffffffffffffffffffffffffffffff166370a08231306040518263ffffffff1660e01b8152600401808273ffffffffffffffffffffffffffffffffffffffff1673ffffffffffffffffffffffffffffffffffffffff16815260200191505060206040518083038186803b158015614a7157600080fd5b505afa158015614a85573d6000803e3d6000fd5b505050506040513d6020811015614a9b57600080fd5b810190808051906020019092919050505090508273ffffffffffffffffffffffffffffffffffffffff16632e1a7d4d826040518263ffffffff1660e01b815260040180828152602001915050600060405180830381600087803b158015614b0157600080fd5b505af1158015614b15573d6000803e3d6000fd5b50505050505050505050505b5050565b60008111156150455760008260001b90506000600360009054906101000a900473ffffffffffffffffffffffffffffffffffffffff169050600081905060008173ffffffffffffffffffffffffffffffffffffffff16637bd2bea76040518163ffffffff1660e01b815260040160206040518083038186803b158015614baa57600080fd5b505afa158015614bbe573d6000803e3d6000fd5b505050506040513d6020811015614bd457600080fd5b8101908080519060200190929190505050905060008273ffffffffffffffffffffffffffffffffffffffff16630f8a771e6040518163ffffffff1660e01b815260040160206040518083038186803b158015614c2f57600080fd5b505afa158015614c43573d6000803e3d6000fd5b505050506040513d6020811015614c5957600080fd5b8101908080519060200190929190505050905060008373ffffffffffffffffffffffffffffffffffffffff1663fdac0025876040518263ffffffff1660e01b81526004018082815260200191505060806040518083038186803b158015614cbf57600080fd5b505afa158015614cd3573d6000803e3d6000fd5b505050506040513d6080811015614ce957600080fd5b810190808051906020019092919080519060200190929190805190602001909291908051906020019092919050505050505090503073ffffffffffffffffffffffffffffffffffffffff168173ffffffffffffffffffffffffffffffffffffffff1614614dbe576040517f08c379a000000000000000000000000000000000000000000000000000000000815260040180806020018281038252600d8152602001807f6375702d6e6f742d6f776e65640000000000000000000000000000000000000081525060200191505060405180910390fd5b8273ffffffffffffffffffffffffffffffffffffffff1663d0e30db0886040518263ffffffff1660e01b81526004016000604051808303818588803b158015614e0657600080fd5b505af1158015614e1a573d6000803e3d6000fd5b50505050506000614eab888673ffffffffffffffffffffffffffffffffffffffff16637ec9c3b86040518163ffffffff1660e01b815260040160206040518083038186803b158015614e6b57600080fd5b505afa158015614e7f573d6000803e3d6000fd5b505050506040513d6020811015614e9557600080fd5b81019080805190602001909291905050506152d1565b905087614f38828773ffffffffffffffffffffffffffffffffffffffff16637ec9c3b86040518163ffffffff1660e01b815260040160206040518083038186803b158015614ef857600080fd5b505afa158015614f0c573d6000803e3d6000fd5b505050506040513d6020811015614f2257600080fd5b8101908080519060200190929190505050613d3f565b1115614f475760018103614f49565b805b9050614f5584876150fb565b8473ffffffffffffffffffffffffffffffffffffffff1663049878f3826040518263ffffffff1660e01b815260040180828152602001915050600060405180830381600087803b158015614fa857600080fd5b505af1158015614fbc573d6000803e3d6000fd5b50505050614fca83876150fb565b8473ffffffffffffffffffffffffffffffffffffffff1663b3b77a5188836040518363ffffffff1660e01b81526004018083815260200182815260200192505050600060405180830381600087803b15801561502557600080fd5b505af1158015615039573d6000803e3d6000fd5b50505050505050505050505b5050565b60008260001b905060008211156150f6576000600360009054906101000a900473ffffffffffffffffffffffffffffffffffffffff1690508073ffffffffffffffffffffffffffffffffffffffff1663440f19ba83856040518363ffffffff1660e01b81526004018083815260200182815260200192505050600060405180830381600087803b1580156150dc57600080fd5b505af11580156150f0573d6000803e3d6000fd5b50505050505b505050565b7fffffffffffffffffffffffffffffffffffffffffffffffffffffffffffffffff8273ffffffffffffffffffffffffffffffffffffffff1663dd62ed3e30846040518363ffffffff1660e01b8152600401808373ffffffffffffffffffffffffffffffffffffffff1673ffffffffffffffffffffffffffffffffffffffff1681526020018273ffffffffffffffffffffffffffffffffffffffff1673ffffffffffffffffffffffffffffffffffffffff1681526020019250505060206040518083038186803b1580156151cd57600080fd5b505afa1580156151e1573d6000803e3d6000fd5b505050506040513d60208110156151f757600080fd5b8101908080519060200190929190505050146152cd578173ffffffffffffffffffffffffffffffffffffffff1663095ea7b3827fffffffffffffffffffffffffffffffffffffffffffffffffffffffffffffffff6040518363ffffffff1660e01b8152600401808373ffffffffffffffffffffffffffffffffffffffff1673ffffffffffffffffffffffffffffffffffffffff16815260200182815260200192505050600060405180830381600087803b1580156152b457600080fd5b505af11580156152c8573d6000803e3d6000fd5b505050505b5050565b6000816152fd6152ed856b033b2e3c9fd0803ce8000000613caa565b600285816152f757fe5b04612fc9565b8161530457fe5b0490509291505056fea265627a7a72315820a8cebf4ab0a583f65dc3644e6a8c7c777a008f2f5ba76f16dccce88bb1b001f164736f6c634300050b0032",
  "source": "pragma solidity ^0.5.7;\n\ninterface RegistryInterface {\n    function proxies(address) external view returns (address);\n}\n\ninterface UserWalletInterface {\n    function owner() external view returns (address);\n}\n\ninterface TubInterface {\n    function open() external returns (bytes32);\n    function join(uint) external;\n    function exit(uint) external;\n    function lock(bytes32, uint) external;\n    function free(bytes32, uint) external;\n    function draw(bytes32, uint) external;\n    function wipe(bytes32, uint) external;\n    function give(bytes32, address) external;\n    function shut(bytes32) external;\n    function cups(bytes32) external view returns (address, uint, uint, uint);\n    function gem() external view returns (ERC20Interface);\n    function gov() external view returns (ERC20Interface);\n    function skr() external view returns (ERC20Interface);\n    function sai() external view returns (ERC20Interface);\n    function ink(bytes32) external view returns (uint);\n    function tab(bytes32) external returns (uint);\n    function rap(bytes32) external returns (uint);\n    function per() external view returns (uint);\n    function pep() external view returns (PepInterface);\n}\n\ninterface PepInterface {\n    function peek() external returns (bytes32, bool);\n}\n\ninterface ERC20Interface {\n    function allowance(address, address) external view returns (uint);\n    function balanceOf(address) external view returns (uint);\n    function approve(address, uint) external;\n    function transfer(address, uint) external returns (bool);\n    function transferFrom(address, address, uint) external returns (bool);\n    function deposit() external payable;\n    function withdraw(uint) external;\n}\n\ninterface UniswapExchange {\n    function getEthToTokenOutputPrice(uint256 tokensBought) external view returns (uint256 ethSold);\n    function getTokenToEthOutputPrice(uint256 ethBought) external view returns (uint256 tokensSold);\n    function tokenToTokenSwapOutput(\n        uint256 tokensBought,\n        uint256 maxTokensSold,\n        uint256 maxEthSold,\n        uint256 deadline,\n        address tokenAddr\n        ) external returns (uint256  tokensSold);\n}\n\ninterface CTokenInterface {\n    function mint(uint mintAmount) external returns (uint); // For ERC20\n    function redeem(uint redeemTokens) external returns (uint);\n    function redeemUnderlying(uint redeemAmount) external returns (uint);\n    function exchangeRateCurrent() external returns (uint);\n    function transfer(address, uint) external returns (bool);\n    function transferFrom(address, address, uint) external returns (bool);\n    function balanceOf(address) external view returns (uint);\n}\n\ninterface CETHInterface {\n    function mint() external payable; // For ETH\n    function transfer(address, uint) external returns (bool);\n}\n\ninterface CDAIInterface {\n    function mint(uint mintAmount) external returns (uint); // For ERC20\n    function repayBorrowBehalf(address borrower, uint repayAmount) external returns (uint);\n    function borrowBalanceCurrent(address account) external returns (uint);\n}\n\n\ncontract DSMath {\n\n    function add(uint x, uint y) internal pure returns (uint z) {\n        require((z = x + y) >= x, \"math-not-safe\");\n    }\n\n    function mul(uint x, uint y) internal pure returns (uint z) {\n        require(y == 0 || (z = x * y) / y == x, \"math-not-safe\");\n    }\n\n    uint constant WAD = 10 ** 18;\n    uint constant RAY = 10 ** 27;\n\n    function rmul(uint x, uint y) internal pure returns (uint z) {\n        z = add(mul(x, y), RAY / 2) / RAY;\n    }\n\n    function rdiv(uint x, uint y) internal pure returns (uint z) {\n        z = add(mul(x, RAY), y / 2) / y;\n    }\n\n    function wmul(uint x, uint y) internal pure returns (uint z) {\n        z = add(mul(x, y), WAD / 2) / WAD;\n    }\n\n    function wdiv(uint x, uint y) internal pure returns (uint z) {\n        z = add(mul(x, WAD), y / 2) / y;\n    }\n\n    function sub(uint a, uint b) internal pure returns (uint c) {\n        require(b <= a, \"SafeMath: subtraction overflow\");\n        c = a - b;\n    }\n\n}\n\n\ncontract Helper is DSMath {\n\n    address public ethAddr = 0xEeeeeEeeeEeEeeEeEeEeeEEEeeeeEeeeeeeeEEeE;\n    address public daiAddr = 0x89d24A6b4CcB1B6fAA2625fE562bDD9a23260359;\n    address public registry = 0x498b3BfaBE9F73db90D252bCD4Fa9548Cd0Fd981;\n    address public sai = 0x448a5065aeBB8E423F0896E6c5D525C040f59af3;\n    address public ume = 0x2C4Bd064b998838076fa341A83d007FC2FA50957; // Uniswap Maker Exchange\n    address public ude = 0x09cabEC1eAd1c0Ba254B09efb3EE13841712bE14; // Uniswap DAI Exchange\n    address public cEth = 0x4Ddc2D193948926D02f9B1fE9e1daa0718270ED5;\n    address public cDai = 0xF5DCe57282A584D2746FaF1593d3121Fcac444dC;\n\n    address public feeOne = 0xd8db02A498E9AFbf4A32BC006DC1940495b4e592;\n    address public feeTwo = 0xa7615CD307F323172331865181DC8b80a2834324;\n    uint public fees = 0;\n\n    /**\n     * @dev setting allowance to compound for the \"user proxy\" if required\n     */\n    function setApproval(address erc20, uint srcAmt, address to) internal {\n        ERC20Interface erc20Contract = ERC20Interface(erc20);\n        uint tokenAllowance = erc20Contract.allowance(address(this), to);\n        if (srcAmt > tokenAllowance) {\n            erc20Contract.approve(to, 2**255);\n        }\n    }\n\n    function setAllowance(ERC20Interface _token, address _spender) internal {\n        if (_token.allowance(address(this), _spender) != uint(-1)) {\n            _token.approve(_spender, uint(-1));\n        }\n    }\n\n}\n\n\ncontract CompoundResolver is Helper {\n\n    /**\n     * @dev Redeem ETH/ERC20 and mint Compound Tokens\n     * @param tokenAmt Amount of token To Redeem\n     */\n    function redeemUnderlying(address cErc20, uint tokenAmt) internal {\n        if (tokenAmt > 0) {\n            require(CTokenInterface(cErc20).redeemUnderlying(tokenAmt) == 0, \"something went wrong\");\n        }\n    }\n\n    /**\n     * @dev Deposit ETH/ERC20 and mint Compound Tokens\n     */\n    function mintCETH(uint ethAmt) internal {\n        if (ethAmt > 0) {\n            CETHInterface cToken = CETHInterface(cEth);\n            cToken.mint.value(ethAmt)();\n            uint exchangeRate = CTokenInterface(cEth).exchangeRateCurrent();\n            uint cEthToReturn = wdiv(ethAmt, exchangeRate);\n            cEthToReturn = wmul(cEthToReturn, exchangeRate) <= ethAmt ? cEthToReturn : cEthToReturn - 1;\n            require(cToken.transfer(msg.sender, cEthToReturn), \"CETH Transfer failed\");\n        }\n    }\n\n    /**\n     * @dev Deposit ETH/ERC20 and mint Compound Tokens\n     */\n    function fetchCETH(uint ethAmt) internal {\n        if (ethAmt > 0) {\n            CTokenInterface cToken = CTokenInterface(cEth);\n            uint exchangeRate = cToken.exchangeRateCurrent();\n            uint cTokenAmt = wdiv(ethAmt, exchangeRate);\n            cTokenAmt = wmul(cTokenAmt, exchangeRate) <= ethAmt ? cTokenAmt : cTokenAmt - 1;\n            require(ERC20Interface(cEth).transferFrom(msg.sender, address(this), cTokenAmt), \"Contract Approved?\");\n        }\n    }\n\n    /**\n     * @dev If col/debt > user's balance/borrow. Then set max\n     */\n    function checkCompound(uint ethAmt, uint daiAmt) internal returns (uint ethCol, uint daiDebt) {\n        CTokenInterface cEthContract = CTokenInterface(cEth);\n        uint cEthBal = cEthContract.balanceOf(msg.sender);\n        uint ethExchangeRate = cEthContract.exchangeRateCurrent();\n        ethCol = wmul(cEthBal, ethExchangeRate);\n        ethCol = wdiv(ethCol, ethExchangeRate) <= cEthBal ? ethCol : ethCol - 1;\n        ethCol = ethCol <= ethAmt ? ethCol : ethAmt; // Set Max if amount is greater than the Col user have\n\n        daiDebt = CDAIInterface(cDai).borrowBalanceCurrent(msg.sender);\n        daiDebt = daiDebt <= daiAmt ? daiDebt : daiAmt; // Set Max if amount is greater than the Debt user have\n    }\n\n}\n\n\ncontract MakerResolver is CompoundResolver {\n\n    event LogOpen(uint cdpNum, address owner);\n    event LogWipe(uint cdpNum, uint daiAmt, uint mkrFee, uint daiFee, address owner);\n\n    function open() internal returns (uint) {\n        bytes32 cup = TubInterface(sai).open();\n        emit LogOpen(uint(cup), address(this));\n        return uint(cup);\n    }\n\n    /**\n     * @dev transfer CDP ownership\n     */\n    function give(uint cdpNum, address nextOwner) internal {\n        TubInterface(sai).give(bytes32(cdpNum), nextOwner);\n    }\n\n    function wipe(uint cdpNum, uint _wad) internal returns (uint daiAmt) {\n        if (_wad > 0) {\n            TubInterface tub = TubInterface(sai);\n            UniswapExchange daiEx = UniswapExchange(ude);\n            UniswapExchange mkrEx = UniswapExchange(ume);\n            ERC20Interface dai = tub.sai();\n            ERC20Interface mkr = tub.gov();\n\n            bytes32 cup = bytes32(cdpNum);\n\n            (address lad,,,) = tub.cups(cup);\n            require(lad == address(this), \"cup-not-owned\");\n\n            setAllowance(dai, sai);\n            setAllowance(mkr, sai);\n            setAllowance(dai, ude);\n\n            (bytes32 val, bool ok) = tub.pep().peek();\n\n            // MKR required for wipe = Stability fees accrued in Dai / MKRUSD value\n            uint mkrFee = wdiv(rmul(_wad, rdiv(tub.rap(cup), tub.tab(cup))), uint(val));\n\n            uint daiFeeAmt = daiEx.getTokenToEthOutputPrice(mkrEx.getEthToTokenOutputPrice(mkrFee));\n            daiAmt = add(_wad, daiFeeAmt);\n\n            redeemUnderlying(cDai, daiAmt);\n\n            if (ok && val != 0) {\n                daiEx.tokenToTokenSwapOutput(\n                    mkrFee,\n                    daiAmt,\n                    uint(999000000000000000000),\n                    uint(1899063809), // 6th March 2030 GMT // no logic\n                    address(mkr)\n                );\n            }\n\n            tub.wipe(cup, _wad);\n\n            emit LogWipe(\n                cdpNum,\n                daiAmt,\n                mkrFee,\n                daiFeeAmt,\n                address(this)\n            );\n\n        }\n    }\n\n    function free(uint cdpNum, uint jam) internal {\n        if (jam > 0) {\n            bytes32 cup = bytes32(cdpNum);\n            address tubAddr = sai;\n\n            TubInterface tub = TubInterface(tubAddr);\n            ERC20Interface peth = tub.skr();\n            ERC20Interface weth = tub.gem();\n\n            uint ink = rdiv(jam, tub.per());\n            ink = rmul(ink, tub.per()) <= jam ? ink : ink - 1;\n            tub.free(cup, ink);\n\n            setAllowance(peth, tubAddr);\n\n            tub.exit(ink);\n            uint freeJam = weth.balanceOf(address(this)); // withdraw possible previous stuck WETH as well\n            weth.withdraw(freeJam);\n        }\n    }\n\n    function lock(uint cdpNum, uint ethAmt) internal {\n        if (ethAmt > 0) {\n            bytes32 cup = bytes32(cdpNum);\n            address tubAddr = sai;\n\n            TubInterface tub = TubInterface(tubAddr);\n            ERC20Interface weth = tub.gem();\n            ERC20Interface peth = tub.skr();\n\n            (address lad,,,) = tub.cups(cup);\n            require(lad == address(this), \"cup-not-owned\");\n\n            weth.deposit.value(ethAmt)();\n\n            uint ink = rdiv(ethAmt, tub.per());\n            ink = rmul(ink, tub.per()) <= ethAmt ? ink : ink - 1;\n\n            setAllowance(weth, tubAddr);\n            tub.join(ink);\n\n            setAllowance(peth, tubAddr);\n            tub.lock(cup, ink);\n        }\n    }\n\n    function draw(uint cdpNum, uint _wad) internal {\n        bytes32 cup = bytes32(cdpNum);\n        if (_wad > 0) {\n            TubInterface tub = TubInterface(sai);\n\n            tub.draw(cup, _wad);\n        }\n    }\n\n    function checkCDP(bytes32 cup, uint ethAmt, uint daiAmt) internal returns (uint ethCol, uint daiDebt) {\n        TubInterface tub = TubInterface(sai);\n        ethCol = rmul(tub.ink(cup), tub.per()); // get ETH col from PETH col\n        daiDebt = tub.tab(cup);\n        daiDebt = daiAmt < daiDebt ? daiAmt : daiDebt; // if DAI amount > max debt. Set max debt\n        ethCol = ethAmt < ethCol ? ethAmt : ethCol; // if ETH amount > max Col. Set max col\n    }\n\n    function wipeAndFree(uint cdpNum, uint jam, uint _wad) internal returns (uint daiAmt) {\n        daiAmt = wipe(cdpNum, _wad);\n        free(cdpNum, jam);\n    }\n\n    function lockAndDraw(uint cdpNum, uint jam, uint _wad) internal {\n        lock(cdpNum, jam);\n        draw(cdpNum, _wad);\n    }\n\n}\n\n\ncontract BridgeResolver is MakerResolver {\n\n    event LogMakerToCompound(uint cdpNum, uint ethAmt, uint daiAmt, uint fees, address owner);\n    event LogCompoundToMaker(uint cdpNum, uint ethAmt, uint daiAmt, uint fees, address owner);\n\n    /**\n     * @dev initiated from user wallet to reimburse temporary DAI debt\n     */\n    function refillFunds(uint daiDebt) external {\n        if (daiDebt > 0) {\n            require(ERC20Interface(daiAddr).transferFrom(msg.sender, address(this), daiDebt), \"Contract Approved?\");\n            assert(CDAIInterface(cDai).mint(daiDebt) == 0);\n        }\n    }\n\n    /**\n     * @dev paying back users debt\n     */\n    function payUserDebt(uint daiDebt) internal {\n        if (daiDebt > 0) {\n            redeemUnderlying(cDai, daiDebt);\n            require(CDAIInterface(cDai).repayBorrowBehalf(msg.sender, daiDebt) == 0, \"Enough DAI?\");\n        }\n    }\n\n}\n\n\ncontract LiquidityProvider is BridgeResolver {\n\n    mapping (address => uint) public deposits; // amount of CDAI deposits\n    uint public totalDeposits;\n\n    /**\n     * @dev Deposit DAI for liquidity\n     */\n    function depositDAI(uint amt) public {\n        require(ERC20Interface(daiAddr).transferFrom(msg.sender, address(this), amt), \"Nothing to deposit\");\n        CTokenInterface cToken = CTokenInterface(cDai);\n        assert(cToken.mint(amt) == 0);\n        uint exchangeRate = cToken.exchangeRateCurrent();\n        uint cDaiAmt = wdiv(amt, exchangeRate);\n        cDaiAmt = wmul(cDaiAmt, exchangeRate) <= amt ? cDaiAmt : cDaiAmt - 1;\n        deposits[msg.sender] += cDaiAmt;\n        totalDeposits += cDaiAmt;\n    }\n\n    /**\n     * @dev Withdraw DAI from liquidity\n     */\n    function withdrawDAI(uint amt) public {\n        require(deposits[msg.sender] != 0, \"Nothing to Withdraw\");\n        CTokenInterface cToken = CTokenInterface(cDai);\n        uint exchangeRate = cToken.exchangeRateCurrent();\n        uint withdrawAmt = wdiv(amt, exchangeRate);\n        uint daiAmt = amt;\n        if (withdrawAmt > deposits[msg.sender]) {\n            withdrawAmt = deposits[msg.sender];\n            daiAmt = wmul(withdrawAmt, exchangeRate);\n        }\n        require(cToken.redeem(withdrawAmt) == 0, \"something went wrong\");\n        require(ERC20Interface(daiAddr).transfer(msg.sender, daiAmt), \"Dai Transfer failed\");\n        deposits[msg.sender] -= withdrawAmt;\n        totalDeposits -= withdrawAmt;\n    }\n\n    /**\n     * @dev Deposit CDAI for liquidity\n     */\n    function depositCDAI(uint amt) public {\n        CTokenInterface cToken = CTokenInterface(cDai);\n        require(cToken.transferFrom(msg.sender, address(this), amt) == true, \"Nothing to deposit\");\n        deposits[msg.sender] += amt;\n        totalDeposits += amt;\n    }\n\n    /**\n     * @dev Withdraw CDAI from liquidity\n     */\n    function withdrawCDAI(uint amt) public {\n        require(deposits[msg.sender] != 0, \"Nothing to Withdraw\");\n        uint withdrawAmt = amt;\n        if (withdrawAmt > deposits[msg.sender]) {\n            withdrawAmt = deposits[msg.sender];\n        }\n        require(CTokenInterface(cDai).transfer(msg.sender, withdrawAmt), \"Dai Transfer failed\");\n        deposits[msg.sender] -= withdrawAmt;\n        totalDeposits -= withdrawAmt;\n    }\n\n    /**\n     * collecting unmapped CDAI\n     */\n    function collectCDAI(uint num) public {\n        CTokenInterface cToken = CTokenInterface(cDai);\n        uint cDaiBal = cToken.balanceOf(address(this));\n        uint withdrawAmt = sub(cDaiBal, totalDeposits);\n        if (num == 0) {\n            require(cToken.transfer(feeOne, withdrawAmt), \"CDai Transfer failed\");\n        } else {\n            require(cToken.transfer(feeTwo, withdrawAmt), \"CDai Transfer failed\");\n        }\n    }\n\n    /**\n     * (HIGHLY UNLIKELY TO HAPPEN)\n     * collecting Tokens/ETH other than CDAI\n     */\n    function collectTokens(uint num, address token) public {\n        require(token != cDai, \"Token address == CDAI address\");\n        if (token == ethAddr) {\n            if (num == 0) {\n                msg.sender.transfer(address(this).balance);\n            } else {\n                msg.sender.transfer(address(this).balance);\n            }\n        } else {\n            ERC20Interface tokenContract = ERC20Interface(token);\n            uint tokenBal = tokenContract.balanceOf(address(this));\n            uint withdrawAmt = sub(tokenBal, totalDeposits);\n            if (num == 0) {\n                require(tokenContract.transfer(feeOne, withdrawAmt), \"Transfer failed\");\n            } else {\n                require(tokenContract.transfer(feeTwo, withdrawAmt), \"Transfer failed\");\n            }\n        }\n    }\n\n    /**\n     * (HIGHLY UNLIKELY TO HAPPEN)\n     * Transfer CDP ownership (Just in case this contract has ownership of any CDP)\n     */\n    function transferUnmappedCDP(uint cdpNum, uint num) public {\n        if (num == 0) {\n            give(cdpNum, feeOne);\n        } else {\n            give(cdpNum, feeTwo);\n        }\n    }\n\n    function setFees(uint amt) public {\n        require(msg.sender == feeOne || msg.sender == feeTwo, \"Not manager address\");\n        if (amt > 3000000000000000) {\n            fees = 3000000000000000; // max fees 0.3%\n        } else {\n            fees = amt;\n        }\n    }\n\n}\n\n\ncontract Bridge is LiquidityProvider {\n\n    /**\n     * FOR SECURITY PURPOSE\n     * checks if only InstaDApp contract wallets can access the bridge\n     */\n    modifier isUserWallet {\n        address userAdd = UserWalletInterface(msg.sender).owner();\n        address walletAdd = RegistryInterface(registry).proxies(userAdd);\n        require(walletAdd != address(0), \"not-user-wallet\");\n        require(walletAdd == msg.sender, \"not-wallet-owner\");\n        _;\n    }\n\n    /**\n     * @dev MakerDAO to Compound\n     */\n    function makerToCompound(uint cdpId, uint ethCol, uint daiDebt) public payable isUserWallet returns (uint daiAmt) {\n        uint ethAmt;\n        (ethAmt, daiAmt) = checkCDP(bytes32(cdpId), ethCol, daiDebt);\n        daiAmt = wipeAndFree(cdpId, ethAmt, daiAmt);\n        uint cut = wmul(daiAmt, fees);\n        daiAmt = wmul(daiAmt, add(1000000000000000000, fees));\n        mintCETH(ethAmt);\n        give(cdpId, msg.sender);\n        emit LogMakerToCompound(\n            cdpId,\n            ethAmt,\n            daiAmt,\n            cut,\n            msg.sender\n        );\n    }\n\n    /**\n     * @dev Compound to MakerDAO\n     */\n    function compoundToMaker(uint cdpId, uint ethCol, uint daiDebt) public payable isUserWallet {\n        (uint ethAmt, uint daiAmt) = checkCompound(ethCol, daiDebt);\n        payUserDebt(daiAmt);\n        fetchCETH(ethAmt);\n        redeemUnderlying(cEth, ethAmt);\n        uint cdpNum = cdpId > 0 ? cdpId : open();\n        uint cut = wmul(daiAmt, fees);\n        daiAmt = wmul(daiAmt, add(1000000000000000000, fees));\n        lockAndDraw(cdpNum, ethAmt, daiAmt);\n        if (daiAmt > 0) {\n            assert(CDAIInterface(cDai).mint(daiAmt) == 0);\n        }\n        give(cdpNum, msg.sender);\n        emit LogCompoundToMaker(\n            cdpNum,\n            ethAmt,\n            daiAmt,\n            cut,\n            msg.sender\n        );\n    }\n\n}\n\n\ncontract MakerCompoundBridge is Bridge {\n\n    /**\n     * @dev setting up all required token approvals\n     */\n    constructor() public {\n        setApproval(daiAddr, 10**30, cDai);\n        setApproval(cDai, 10**30, cDai);\n        setApproval(cEth, 10**30, cEth);\n    }\n\n    function() external payable {}\n\n}",
  "sourcePath": "/Users/pierrick/Documents/04-OSS/08-Graph/02-InstaDApp/contract-v2/contracts/bridges/MakerCompound.sol",
  "compiler": {
    "name": "solc",
    "version": "0.5.11+commit.c082d0b4.Emscripten.clang"
  },
  "schemaVersion": "3.0.16",
  "updatedAt": "2019-09-15T00:52:16.441Z",
  "devdoc": {
    "methods": {
      "compoundToMaker(uint256,uint256,uint256)": {
        "details": "Compound to MakerDAO"
      },
      "constructor": {
        "details": "setting up all required token approvals"
      },
      "depositCDAI(uint256)": {
        "details": "Deposit CDAI for liquidity"
      },
      "depositDAI(uint256)": {
        "details": "Deposit DAI for liquidity"
      },
      "makerToCompound(uint256,uint256,uint256)": {
        "details": "MakerDAO to Compound"
      },
      "refillFunds(uint256)": {
        "details": "initiated from user wallet to reimburse temporary DAI debt"
      },
      "withdrawCDAI(uint256)": {
        "details": "Withdraw CDAI from liquidity"
      },
      "withdrawDAI(uint256)": {
        "details": "Withdraw DAI from liquidity"
      }
    }
  },
  "userdoc": {
    "methods": {
      "collectCDAI(uint256)": {
        "notice": "collecting unmapped CDAI"
      },
      "collectTokens(uint256,address)": {
        "notice": "(HIGHLY UNLIKELY TO HAPPEN) collecting Tokens/ETH other than CDAI"
      },
      "transferUnmappedCDP(uint256,uint256)": {
        "notice": "(HIGHLY UNLIKELY TO HAPPEN) Transfer CDP ownership (Just in case this contract has ownership of any CDP)"
      }
    }
  }
}