{
  "contractName": "MakerCompBridge",
  "abi": [
    {
      "constant": false,
      "inputs": [
        {
          "internalType": "uint256",
          "name": "amt",
          "type": "uint256"
        }
      ],
      "name": "withdrawCDAI",
      "outputs": [],
      "payable": false,
      "stateMutability": "nonpayable",
      "type": "function"
    },
    {
      "constant": true,
      "inputs": [
        {
          "internalType": "uint256",
          "name": "",
          "type": "uint256"
        }
      ],
      "name": "cTokenAddr",
      "outputs": [
        {
          "internalType": "address",
          "name": "cTokenAdd",
          "type": "address"
        },
        {
          "internalType": "uint256",
          "name": "factor",
          "type": "uint256"
        }
      ],
      "payable": false,
      "stateMutability": "view",
      "type": "function"
    },
    {
      "constant": true,
      "inputs": [
        {
          "internalType": "address",
          "name": "",
          "type": "address"
        }
      ],
      "name": "isAdmin",
      "outputs": [
        {
          "internalType": "bool",
          "name": "",
          "type": "bool"
        }
      ],
      "payable": false,
      "stateMutability": "view",
      "type": "function"
    },
    {
      "constant": false,
      "inputs": [
        {
          "internalType": "uint256",
          "name": "amt",
          "type": "uint256"
        }
      ],
      "name": "depositDAI",
      "outputs": [],
      "payable": false,
      "stateMutability": "nonpayable",
      "type": "function"
    },
    {
      "constant": true,
      "inputs": [],
      "name": "cdaiAddr",
      "outputs": [
        {
          "internalType": "address",
          "name": "",
          "type": "address"
        }
      ],
      "payable": false,
      "stateMutability": "view",
      "type": "function"
    },
    {
      "constant": true,
      "inputs": [],
      "name": "registryAddr",
      "outputs": [
        {
          "internalType": "address",
          "name": "",
          "type": "address"
        }
      ],
      "payable": false,
      "stateMutability": "view",
      "type": "function"
    },
    {
      "constant": true,
      "inputs": [],
      "name": "version",
      "outputs": [
        {
          "internalType": "uint256",
          "name": "",
          "type": "uint256"
        }
      ],
      "payable": false,
      "stateMutability": "view",
      "type": "function"
    },
    {
      "constant": true,
      "inputs": [],
      "name": "daiAddr",
      "outputs": [
        {
          "internalType": "address",
          "name": "",
          "type": "address"
        }
      ],
      "payable": false,
      "stateMutability": "view",
      "type": "function"
    },
    {
      "constant": false,
      "inputs": [
        {
          "internalType": "uint256",
          "name": "amt",
          "type": "uint256"
        }
      ],
      "name": "depositCDAI",
      "outputs": [],
      "payable": false,
      "stateMutability": "nonpayable",
      "type": "function"
    },
    {
      "constant": false,
      "inputs": [
        {
          "internalType": "uint256",
          "name": "amt",
          "type": "uint256"
        }
      ],
      "name": "transferDAI",
      "outputs": [],
      "payable": false,
      "stateMutability": "nonpayable",
      "type": "function"
    },
    {
      "constant": false,
      "inputs": [
        {
          "internalType": "uint256",
          "name": "amt",
          "type": "uint256"
        }
      ],
      "name": "withdrawDAI",
      "outputs": [],
      "payable": false,
      "stateMutability": "nonpayable",
      "type": "function"
    },
    {
      "constant": true,
      "inputs": [],
      "name": "cArrLength",
      "outputs": [
        {
          "internalType": "uint256",
          "name": "",
          "type": "uint256"
        }
      ],
      "payable": false,
      "stateMutability": "view",
      "type": "function"
    },
    {
      "constant": false,
      "inputs": [
        {
          "internalType": "uint256",
          "name": "amt",
          "type": "uint256"
        }
      ],
      "name": "transferBackDAI",
      "outputs": [],
      "payable": false,
      "stateMutability": "nonpayable",
      "type": "function"
    },
    {
      "constant": true,
      "inputs": [
        {
          "internalType": "address",
          "name": "",
          "type": "address"
        }
      ],
      "name": "deposited",
      "outputs": [
        {
          "internalType": "uint256",
          "name": "",
          "type": "uint256"
        }
      ],
      "payable": false,
      "stateMutability": "view",
      "type": "function"
    },
    {
      "constant": false,
      "inputs": [
        {
          "internalType": "address",
          "name": "cToken",
          "type": "address"
        },
        {
          "internalType": "uint256",
          "name": "factor",
          "type": "uint256"
        }
      ],
      "name": "addCToken",
      "outputs": [],
      "payable": false,
      "stateMutability": "nonpayable",
      "type": "function"
    },
    {
      "inputs": [
        {
          "internalType": "uint256",
          "name": "_version",
          "type": "uint256"
        }
      ],
      "payable": false,
      "stateMutability": "nonpayable",
      "type": "constructor"
    },
    {
      "payable": true,
      "stateMutability": "payable",
      "type": "fallback"
    }
  ],
  "bytecode": "0x60806040527389d24a6b4ccb1b6faa2625fe562bdd9a232603596000806101000a81548173ffffffffffffffffffffffffffffffffffffffff021916908373ffffffffffffffffffffffffffffffffffffffff16021790555073f5dce57282a584d2746faf1593d3121fcac444dc600160006101000a81548173ffffffffffffffffffffffffffffffffffffffff021916908373ffffffffffffffffffffffffffffffffffffffff16021790555073498b3bfabe9f73db90d252bcd4fa9548cd0fd981600260006101000a81548173ffffffffffffffffffffffffffffffffffffffff021916908373ffffffffffffffffffffffffffffffffffffffff16021790555060006006553480156200011457600080fd5b50604051620026a8380380620026a8833981810160405260208110156200013a57600080fd5b8101908080519060200190929190505050600160046000737284a8451d9a0e7dc62b3a71c0593ea2ec5c563873ffffffffffffffffffffffffffffffffffffffff1673ffffffffffffffffffffffffffffffffffffffff16815260200190815260200160002060006101000a81548160ff02191690831515021790555060016004600073a7615cd307f323172331865181dc8b80a283432473ffffffffffffffffffffffffffffffffffffffff1673ffffffffffffffffffffffffffffffffffffffff16815260200190815260200160002060006101000a81548160ff02191690831515021790555062000251736c8c6b02e7b2be14d4fa6022dfd6d75921d90e4e670853a0d2313c00006200040c60201b60201c565b6200027f73f5dce57282a584d2746faf1593d3121fcac444dc670a688906bd8b00006200040c60201b60201c565b620002ad734ddc2d193948926d02f9b1fe9e1daa0718270ed5670a688906bd8b00006200040c60201b60201c565b620002db73158079ee67fce2f58472a96584a73c7ab9ac95c16706f05b59d3b200006200040c60201b60201c565b620003097339aa39c021dfbae8fac545936693ac917d5e7563670a688906bd8b00006200040c60201b60201c565b6200033773b3319f5d18bc0d84dd1b4825dcde5d5f7266d407670853a0d2313c00006200040c60201b60201c565b6200039a6000809054906101000a900473ffffffffffffffffffffffffffffffffffffffff166c0c9f2c9cd04674edea40000000600160009054906101000a900473ffffffffffffffffffffffffffffffffffffffff166200059c60201b60201c565b620003fe600160009054906101000a900473ffffffffffffffffffffffffffffffffffffffff166c0c9f2c9cd04674edea40000000600160009054906101000a900473ffffffffffffffffffffffffffffffffffffffff166200059c60201b60201c565b806007819055505062000796565b600460003373ffffffffffffffffffffffffffffffffffffffff1673ffffffffffffffffffffffffffffffffffffffff16815260200190815260200160002060009054906101000a900460ff16620004cc576040517f08c379a00000000000000000000000000000000000000000000000000000000081526004018080602001828103825260148152602001807f41646472657373206e6f7420616e2061646d696e00000000000000000000000081525060200191505060405180910390fd5b620004d662000766565b60405180604001604052808473ffffffffffffffffffffffffffffffffffffffff1681526020018381525090506005819080600181540180825580915050906001820390600052602060002090600202016000909192909190915060008201518160000160006101000a81548173ffffffffffffffffffffffffffffffffffffffff021916908373ffffffffffffffffffffffffffffffffffffffff16021790555060208201518160010155505050600660008154809291906001019190505550505050565b600083905060008173ffffffffffffffffffffffffffffffffffffffff1663dd62ed3e30856040518363ffffffff1660e01b8152600401808373ffffffffffffffffffffffffffffffffffffffff1673ffffffffffffffffffffffffffffffffffffffff1681526020018273ffffffffffffffffffffffffffffffffffffffff1673ffffffffffffffffffffffffffffffffffffffff1681526020019250505060206040518083038186803b1580156200065557600080fd5b505afa1580156200066a573d6000803e3d6000fd5b505050506040513d60208110156200068157600080fd5b81019080805190602001909291905050509050808411156200075f578173ffffffffffffffffffffffffffffffffffffffff1663095ea7b3847f80000000000000000000000000000000000000000000000000000000000000006040518363ffffffff1660e01b8152600401808373ffffffffffffffffffffffffffffffffffffffff1673ffffffffffffffffffffffffffffffffffffffff16815260200182815260200192505050600060405180830381600087803b1580156200074557600080fd5b505af11580156200075a573d6000803e3d6000fd5b505050505b5050505050565b6040518060400160405280600073ffffffffffffffffffffffffffffffffffffffff168152602001600081525090565b611f0280620007a66000396000f3fe6080604052600436106100e85760003560e01c806374fa0a631161008a578063c90b010111610059578063c90b01011461042c578063caf181ea14610457578063cb13cddb14610492578063efd6f422146104f7576100e8565b806374fa0a63146103245780638af4d96a1461037b5780638bb36e6e146103b65780639add7438146103f1576100e8565b8063365833e1116100c6578063365833e11461021057806350b84a6b1461024b57806351da2eaa146102a257806354fd4d50146102f9576100e8565b80630164eead146100ea57806312416bad1461012557806324d7806c146101a7575b005b3480156100f657600080fd5b506101236004803603602081101561010d57600080fd5b8101908080359060200190929190505050610552565b005b34801561013157600080fd5b5061015e6004803603602081101561014857600080fd5b81019080803590602001909291905050506107d3565b604051808373ffffffffffffffffffffffffffffffffffffffff1673ffffffffffffffffffffffffffffffffffffffff1681526020018281526020019250505060405180910390f35b3480156101b357600080fd5b506101f6600480360360208110156101ca57600080fd5b81019080803573ffffffffffffffffffffffffffffffffffffffff169060200190929190505050610824565b604051808215151515815260200191505060405180910390f35b34801561021c57600080fd5b506102496004803603602081101561023357600080fd5b8101908080359060200190929190505050610844565b005b34801561025757600080fd5b50610260610afc565b604051808273ffffffffffffffffffffffffffffffffffffffff1673ffffffffffffffffffffffffffffffffffffffff16815260200191505060405180910390f35b3480156102ae57600080fd5b506102b7610b22565b604051808273ffffffffffffffffffffffffffffffffffffffff1673ffffffffffffffffffffffffffffffffffffffff16815260200191505060405180910390f35b34801561030557600080fd5b5061030e610b48565b6040518082815260200191505060405180910390f35b34801561033057600080fd5b50610339610b4e565b604051808273ffffffffffffffffffffffffffffffffffffffff1673ffffffffffffffffffffffffffffffffffffffff16815260200191505060405180910390f35b34801561038757600080fd5b506103b46004803603602081101561039e57600080fd5b8101908080359060200190929190505050610b73565b005b3480156103c257600080fd5b506103ef600480360360208110156103d957600080fd5b8101908080359060200190929190505050610d5a565b005b3480156103fd57600080fd5b5061042a6004803603602081101561041457600080fd5b8101908080359060200190929190505050611215565b005b34801561043857600080fd5b506104416116d9565b6040518082815260200191505060405180910390f35b34801561046357600080fd5b506104906004803603602081101561047a57600080fd5b81019080803590602001909291905050506116df565b005b34801561049e57600080fd5b506104e1600480360360208110156104b557600080fd5b81019080803573ffffffffffffffffffffffffffffffffffffffff169060200190929190505050611b68565b6040518082815260200191505060405180910390f35b34801561050357600080fd5b506105506004803603604081101561051a57600080fd5b81019080803573ffffffffffffffffffffffffffffffffffffffff16906020019092919080359060200190929190505050611b80565b005b6000600360003373ffffffffffffffffffffffffffffffffffffffff1673ffffffffffffffffffffffffffffffffffffffff168152602001908152602001600020541415610608576040517f08c379a00000000000000000000000000000000000000000000000000000000081526004018080602001828103825260138152602001807f4e6f7468696e6720746f2057697468647261770000000000000000000000000081525060200191505060405180910390fd5b6000600160009054906101000a900473ffffffffffffffffffffffffffffffffffffffff1690506000829050600360003373ffffffffffffffffffffffffffffffffffffffff1673ffffffffffffffffffffffffffffffffffffffff168152602001908152602001600020548111156106be57600360003373ffffffffffffffffffffffffffffffffffffffff1673ffffffffffffffffffffffffffffffffffffffff1681526020019081526020016000205490505b8173ffffffffffffffffffffffffffffffffffffffff1663a9059cbb33836040518363ffffffff1660e01b8152600401808373ffffffffffffffffffffffffffffffffffffffff1673ffffffffffffffffffffffffffffffffffffffff16815260200182815260200192505050602060405180830381600087803b15801561074557600080fd5b505af1158015610759573d6000803e3d6000fd5b505050506040513d602081101561076f57600080fd5b81019080805190602001909291905050505080600360003373ffffffffffffffffffffffffffffffffffffffff1673ffffffffffffffffffffffffffffffffffffffff16815260200190815260200160002060008282540392505081905550505050565b600581815481106107e057fe5b90600052602060002090600202016000915090508060000160009054906101000a900473ffffffffffffffffffffffffffffffffffffffff16908060010154905082565b60046020528060005260406000206000915054906101000a900460ff1681565b6000809054906101000a900473ffffffffffffffffffffffffffffffffffffffff1673ffffffffffffffffffffffffffffffffffffffff166323b872dd3330846040518463ffffffff1660e01b8152600401808473ffffffffffffffffffffffffffffffffffffffff1673ffffffffffffffffffffffffffffffffffffffff1681526020018373ffffffffffffffffffffffffffffffffffffffff1673ffffffffffffffffffffffffffffffffffffffff1681526020018281526020019350505050602060405180830381600087803b15801561092057600080fd5b505af1158015610934573d6000803e3d6000fd5b505050506040513d602081101561094a57600080fd5b8101908080519060200190929190505050506000600160009054906101000a900473ffffffffffffffffffffffffffffffffffffffff16905060008173ffffffffffffffffffffffffffffffffffffffff1663a0712d68846040518263ffffffff1660e01b815260040180828152602001915050602060405180830381600087803b1580156109d857600080fd5b505af11580156109ec573d6000803e3d6000fd5b505050506040513d6020811015610a0257600080fd5b810190808051906020019092919050505014610a1a57fe5b6000610aa8838373ffffffffffffffffffffffffffffffffffffffff1663bd6d894d6040518163ffffffff1660e01b8152600401602060405180830381600087803b158015610a6857600080fd5b505af1158015610a7c573d6000803e3d6000fd5b505050506040513d6020811015610a9257600080fd5b8101908080519060200190929190505050611d0d565b905080600360003373ffffffffffffffffffffffffffffffffffffffff1673ffffffffffffffffffffffffffffffffffffffff16815260200190815260200160002060008282540192505081905550505050565b600160009054906101000a900473ffffffffffffffffffffffffffffffffffffffff1681565b600260009054906101000a900473ffffffffffffffffffffffffffffffffffffffff1681565b60075481565b6000809054906101000a900473ffffffffffffffffffffffffffffffffffffffff1681565b6000600160009054906101000a900473ffffffffffffffffffffffffffffffffffffffff169050600115158173ffffffffffffffffffffffffffffffffffffffff166323b872dd3330866040518463ffffffff1660e01b8152600401808473ffffffffffffffffffffffffffffffffffffffff1673ffffffffffffffffffffffffffffffffffffffff1681526020018373ffffffffffffffffffffffffffffffffffffffff1673ffffffffffffffffffffffffffffffffffffffff1681526020018281526020019350505050602060405180830381600087803b158015610c5957600080fd5b505af1158015610c6d573d6000803e3d6000fd5b505050506040513d6020811015610c8357600080fd5b8101908080519060200190929190505050151514610d09576040517f08c379a00000000000000000000000000000000000000000000000000000000081526004018080602001828103825260128152602001807f4e6f7468696e6720746f206465706f736974000000000000000000000000000081525060200191505060405180910390fd5b81600360003373ffffffffffffffffffffffffffffffffffffffff1673ffffffffffffffffffffffffffffffffffffffff168152602001908152602001600020600082825401925050819055505050565b60003373ffffffffffffffffffffffffffffffffffffffff16638da5cb5b6040518163ffffffff1660e01b815260040160206040518083038186803b158015610da257600080fd5b505afa158015610db6573d6000803e3d6000fd5b505050506040513d6020811015610dcc57600080fd5b810190808051906020019092919050505090506000600260009054906101000a900473ffffffffffffffffffffffffffffffffffffffff1673ffffffffffffffffffffffffffffffffffffffff1663c4552791836040518263ffffffff1660e01b8152600401808273ffffffffffffffffffffffffffffffffffffffff1673ffffffffffffffffffffffffffffffffffffffff16815260200191505060206040518083038186803b158015610e8057600080fd5b505afa158015610e94573d6000803e3d6000fd5b505050506040513d6020811015610eaa57600080fd5b81019080805190602001909291905050509050600073ffffffffffffffffffffffffffffffffffffffff168173ffffffffffffffffffffffffffffffffffffffff161415610f60576040517f08c379a000000000000000000000000000000000000000000000000000000000815260040180806020018281038252600f8152602001807f4e6f742d557365722d57616c6c6574000000000000000000000000000000000081525060200191505060405180910390fd5b3373ffffffffffffffffffffffffffffffffffffffff168173ffffffffffffffffffffffffffffffffffffffff1614611001576040517f08c379a00000000000000000000000000000000000000000000000000000000081526004018080602001828103825260108152602001807f4e6f742d57616c6c65742d4f776e65720000000000000000000000000000000081525060200191505060405180910390fd5b6000600160009054906101000a900473ffffffffffffffffffffffffffffffffffffffff16905060008173ffffffffffffffffffffffffffffffffffffffff1663852a12e3866040518263ffffffff1660e01b815260040180828152602001915050602060405180830381600087803b15801561107d57600080fd5b505af1158015611091573d6000803e3d6000fd5b505050506040513d60208110156110a757600080fd5b81019080805190602001909291905050501461112b576040517f08c379a00000000000000000000000000000000000000000000000000000000081526004018080602001828103825260148152602001807f736f6d657468696e672077656e742077726f6e6700000000000000000000000081525060200191505060405180910390fd5b6000809054906101000a900473ffffffffffffffffffffffffffffffffffffffff1673ffffffffffffffffffffffffffffffffffffffff1663a9059cbb33866040518363ffffffff1660e01b8152600401808373ffffffffffffffffffffffffffffffffffffffff1673ffffffffffffffffffffffffffffffffffffffff16815260200182815260200192505050602060405180830381600087803b1580156111d357600080fd5b505af11580156111e7573d6000803e3d6000fd5b505050506040513d60208110156111fd57600080fd5b81019080805190602001909291905050505050505050565b6000600360003373ffffffffffffffffffffffffffffffffffffffff1673ffffffffffffffffffffffffffffffffffffffff1681526020019081526020016000205414156112cb576040517f08c379a00000000000000000000000000000000000000000000000000000000081526004018080602001828103825260138152602001807f4e6f7468696e6720746f2057697468647261770000000000000000000000000081525060200191505060405180910390fd5b6000600160009054906101000a900473ffffffffffffffffffffffffffffffffffffffff1690506000611380838373ffffffffffffffffffffffffffffffffffffffff1663bd6d894d6040518163ffffffff1660e01b8152600401602060405180830381600087803b15801561134057600080fd5b505af1158015611354573d6000803e3d6000fd5b505050506040513d602081101561136a57600080fd5b8101908080519060200190929190505050611d0d565b90506000839050600360003373ffffffffffffffffffffffffffffffffffffffff1673ffffffffffffffffffffffffffffffffffffffff1681526020019081526020016000205482111561149f57600360003373ffffffffffffffffffffffffffffffffffffffff1673ffffffffffffffffffffffffffffffffffffffff16815260200190815260200160002054915061149c828473ffffffffffffffffffffffffffffffffffffffff1663bd6d894d6040518163ffffffff1660e01b8152600401602060405180830381600087803b15801561145c57600080fd5b505af1158015611470573d6000803e3d6000fd5b505050506040513d602081101561148657600080fd5b8101908080519060200190929190505050611d45565b90505b60008373ffffffffffffffffffffffffffffffffffffffff1663db006a75846040518263ffffffff1660e01b815260040180828152602001915050602060405180830381600087803b1580156114f457600080fd5b505af1158015611508573d6000803e3d6000fd5b505050506040513d602081101561151e57600080fd5b8101908080519060200190929190505050146115a2576040517f08c379a00000000000000000000000000000000000000000000000000000000081526004018080602001828103825260148152602001807f736f6d657468696e672077656e742077726f6e6700000000000000000000000081525060200191505060405180910390fd5b6000809054906101000a900473ffffffffffffffffffffffffffffffffffffffff1673ffffffffffffffffffffffffffffffffffffffff1663a9059cbb33836040518363ffffffff1660e01b8152600401808373ffffffffffffffffffffffffffffffffffffffff1673ffffffffffffffffffffffffffffffffffffffff16815260200182815260200192505050602060405180830381600087803b15801561164a57600080fd5b505af115801561165e573d6000803e3d6000fd5b505050506040513d602081101561167457600080fd5b81019080805190602001909291905050505081600360003373ffffffffffffffffffffffffffffffffffffffff1673ffffffffffffffffffffffffffffffffffffffff1681526020019081526020016000206000828254039250508190555050505050565b60065481565b60003373ffffffffffffffffffffffffffffffffffffffff16638da5cb5b6040518163ffffffff1660e01b815260040160206040518083038186803b15801561172757600080fd5b505afa15801561173b573d6000803e3d6000fd5b505050506040513d602081101561175157600080fd5b810190808051906020019092919050505090506000600260009054906101000a900473ffffffffffffffffffffffffffffffffffffffff1673ffffffffffffffffffffffffffffffffffffffff1663c4552791836040518263ffffffff1660e01b8152600401808273ffffffffffffffffffffffffffffffffffffffff1673ffffffffffffffffffffffffffffffffffffffff16815260200191505060206040518083038186803b15801561180557600080fd5b505afa158015611819573d6000803e3d6000fd5b505050506040513d602081101561182f57600080fd5b81019080805190602001909291905050509050600073ffffffffffffffffffffffffffffffffffffffff168173ffffffffffffffffffffffffffffffffffffffff1614156118e5576040517f08c379a000000000000000000000000000000000000000000000000000000000815260040180806020018281038252600f8152602001807f4e6f742d557365722d57616c6c6574000000000000000000000000000000000081525060200191505060405180910390fd5b3373ffffffffffffffffffffffffffffffffffffffff168173ffffffffffffffffffffffffffffffffffffffff1614611986576040517f08c379a00000000000000000000000000000000000000000000000000000000081526004018080602001828103825260108152602001807f4e6f742d57616c6c65742d4f776e65720000000000000000000000000000000081525060200191505060405180910390fd5b60008060009054906101000a900473ffffffffffffffffffffffffffffffffffffffff1690508073ffffffffffffffffffffffffffffffffffffffff166323b872dd3330876040518463ffffffff1660e01b8152600401808473ffffffffffffffffffffffffffffffffffffffff1673ffffffffffffffffffffffffffffffffffffffff1681526020018373ffffffffffffffffffffffffffffffffffffffff1673ffffffffffffffffffffffffffffffffffffffff1681526020018281526020019350505050602060405180830381600087803b158015611a6757600080fd5b505af1158015611a7b573d6000803e3d6000fd5b505050506040513d6020811015611a9157600080fd5b8101908080519060200190929190505050506000600160009054906101000a900473ffffffffffffffffffffffffffffffffffffffff16905060008173ffffffffffffffffffffffffffffffffffffffff1663a0712d68876040518263ffffffff1660e01b815260040180828152602001915050602060405180830381600087803b158015611b1f57600080fd5b505af1158015611b33573d6000803e3d6000fd5b505050506040513d6020811015611b4957600080fd5b810190808051906020019092919050505014611b6157fe5b5050505050565b60036020528060005260406000206000915090505481565b600460003373ffffffffffffffffffffffffffffffffffffffff1673ffffffffffffffffffffffffffffffffffffffff16815260200190815260200160002060009054906101000a900460ff16611c3f576040517f08c379a00000000000000000000000000000000000000000000000000000000081526004018080602001828103825260148152602001807f41646472657373206e6f7420616e2061646d696e00000000000000000000000081525060200191505060405180910390fd5b611c47611e9d565b60405180604001604052808473ffffffffffffffffffffffffffffffffffffffff1681526020018381525090506005819080600181540180825580915050906001820390600052602060002090600202016000909192909190915060008201518160000160006101000a81548173ffffffffffffffffffffffffffffffffffffffff021916908373ffffffffffffffffffffffffffffffffffffffff16021790555060208201518160010155505050600660008154809291906001019190505550505050565b600081611d35611d2585670de0b6b3a7640000611d85565b60028581611d2f57fe5b04611e1a565b81611d3c57fe5b04905092915050565b6000670de0b6b3a7640000611d75611d5d8585611d85565b6002670de0b6b3a764000081611d6f57fe5b04611e1a565b81611d7c57fe5b04905092915050565b600080821480611da25750828283850292508281611d9f57fe5b04145b611e14576040517f08c379a000000000000000000000000000000000000000000000000000000000815260040180806020018281038252600d8152602001807f6d6174682d6e6f742d736166650000000000000000000000000000000000000081525060200191505060405180910390fd5b92915050565b6000828284019150811015611e97576040517f08c379a000000000000000000000000000000000000000000000000000000000815260040180806020018281038252600d8152602001807f6d6174682d6e6f742d736166650000000000000000000000000000000000000081525060200191505060405180910390fd5b92915050565b6040518060400160405280600073ffffffffffffffffffffffffffffffffffffffff16815260200160008152509056fea265627a7a7231582079a4399741e57fde644092f754f27982d34208428f218acdda1aeb05771cad7e64736f6c634300050b0032",
  "source": "pragma solidity ^0.5.7;\n\ninterface RegistryInterface {\n    function proxies(address) external view returns (address);\n}\n\ninterface UserWalletInterface {\n    function owner() external view returns (address);\n}\n\ninterface CTokenInterface {\n    function mint(uint mintAmount) external returns (uint); // For ERC20\n    function redeem(uint redeemTokens) external returns (uint);\n    function redeemUnderlying(uint redeemAmount) external returns (uint);\n    function exchangeRateCurrent() external returns (uint);\n    function allowance(address, address) external view returns (uint);\n    function approve(address, uint) external;\n    function transfer(address, uint) external returns (bool);\n    function transferFrom(address, address, uint) external returns (bool);\n}\n\ninterface ERC20Interface {\n    function allowance(address, address) external view returns (uint);\n    function approve(address, uint) external;\n    function transfer(address, uint) external returns (bool);\n    function transferFrom(address, address, uint) external returns (bool);\n}\n\n\ncontract DSMath {\n\n    function add(uint x, uint y) internal pure returns (uint z) {\n        require((z = x + y) >= x, \"math-not-safe\");\n    }\n\n    function mul(uint x, uint y) internal pure returns (uint z) {\n        require(y == 0 || (z = x * y) / y == x, \"math-not-safe\");\n    }\n\n    uint constant WAD = 10 ** 18;\n\n    function wmul(uint x, uint y) internal pure returns (uint z) {\n        z = add(mul(x, y), WAD / 2) / WAD;\n    }\n\n    function wdiv(uint x, uint y) internal pure returns (uint z) {\n        z = add(mul(x, WAD), y / 2) / y;\n    }\n\n}\n\n\ncontract Helper is DSMath {\n\n    address public daiAddr = 0x89d24A6b4CcB1B6fAA2625fE562bDD9a23260359;\n    address public cdaiAddr = 0xF5DCe57282A584D2746FaF1593d3121Fcac444dC;\n    address public registryAddr = 0x498b3BfaBE9F73db90D252bCD4Fa9548Cd0Fd981;\n    mapping (address => uint) public deposited; // amount of CToken deposited\n    mapping (address => bool) public isAdmin;\n\n    /**\n     * @dev setting allowance to compound for the \"user proxy\" if required\n     */\n    function setApproval(address erc20, uint srcAmt, address to) internal {\n        ERC20Interface erc20Contract = ERC20Interface(erc20);\n        uint tokenAllowance = erc20Contract.allowance(address(this), to);\n        if (srcAmt > tokenAllowance) {\n            erc20Contract.approve(to, 2**255);\n        }\n    }\n\n    modifier isUserWallet {\n        address userAdd = UserWalletInterface(msg.sender).owner();\n        address walletAdd = RegistryInterface(registryAddr).proxies(userAdd);\n        require(walletAdd != address(0), \"Not-User-Wallet\");\n        require(walletAdd == msg.sender, \"Not-Wallet-Owner\");\n        _;\n    }\n\n}\n\n\ncontract CTokens is Helper {\n\n    struct CTokenData {\n        address cTokenAdd;\n        uint factor;\n    }\n\n    CTokenData[] public cTokenAddr;\n\n    uint public cArrLength = 0;\n\n    function addCToken(address cToken, uint factor) public {\n        require(isAdmin[msg.sender], \"Address not an admin\");\n        CTokenData memory setCToken = CTokenData(cToken, factor);\n        cTokenAddr.push(setCToken);\n        cArrLength++;\n    }\n\n}\n\n\ncontract Bridge is CTokens {\n\n    /**\n     * @dev Deposit DAI for liquidity\n     */\n    function depositDAI(uint amt) public {\n        ERC20Interface(daiAddr).transferFrom(msg.sender, address(this), amt);\n        CTokenInterface cToken = CTokenInterface(cdaiAddr);\n        assert(cToken.mint(amt) == 0);\n        uint cDaiAmt = wdiv(amt, cToken.exchangeRateCurrent());\n        deposited[msg.sender] += cDaiAmt;\n    }\n\n    /**\n     * @dev Withdraw DAI from liquidity\n     */\n    function withdrawDAI(uint amt) public {\n        require(deposited[msg.sender] != 0, \"Nothing to Withdraw\");\n        CTokenInterface cToken = CTokenInterface(cdaiAddr);\n        uint withdrawAmt = wdiv(amt, cToken.exchangeRateCurrent());\n        uint daiAmt = amt;\n        if (withdrawAmt > deposited[msg.sender]) {\n            withdrawAmt = deposited[msg.sender];\n            daiAmt = wmul(withdrawAmt, cToken.exchangeRateCurrent());\n        }\n        require(cToken.redeem(withdrawAmt) == 0, \"something went wrong\");\n        ERC20Interface(daiAddr).transfer(msg.sender, daiAmt);\n        deposited[msg.sender] -= withdrawAmt;\n    }\n\n    /**\n     * @dev Deposit CDAI for liquidity\n     */\n    function depositCDAI(uint amt) public {\n        CTokenInterface cToken = CTokenInterface(cdaiAddr);\n        require(cToken.transferFrom(msg.sender, address(this), amt) == true, \"Nothing to deposit\");\n        deposited[msg.sender] += amt;\n    }\n\n    /**\n     * @dev Withdraw CDAI from liquidity\n     */\n    function withdrawCDAI(uint amt) public {\n        require(deposited[msg.sender] != 0, \"Nothing to Withdraw\");\n        CTokenInterface cToken = CTokenInterface(cdaiAddr);\n        uint withdrawAmt = amt;\n        if (withdrawAmt > deposited[msg.sender]) {\n            withdrawAmt = deposited[msg.sender];\n        }\n        cToken.transfer(msg.sender, withdrawAmt);\n        deposited[msg.sender] -= withdrawAmt;\n    }\n\n    /**\n     * @dev Transfer DAI to only to user wallet\n     */\n    function transferDAI(uint amt) public isUserWallet {\n        CTokenInterface cToken = CTokenInterface(cdaiAddr);\n        require(cToken.redeemUnderlying(amt) == 0, \"something went wrong\");\n        ERC20Interface(daiAddr).transfer(msg.sender, amt);\n    }\n\n    /**\n     * @dev Take DAI back from user wallet\n     */\n    function transferBackDAI(uint amt) public isUserWallet {\n        ERC20Interface tokenContract = ERC20Interface(daiAddr);\n        tokenContract.transferFrom(msg.sender, address(this), amt);\n        CTokenInterface cToken = CTokenInterface(cdaiAddr);\n        assert(cToken.mint(amt) == 0);\n    }\n\n}\n\n\ncontract MakerCompBridge is Bridge {\n\n    uint public version;\n\n    /**\n     * @dev setting up variables on deployment\n     * 1...2...3 versioning in each subsequent deployments\n     */\n    constructor(uint _version) public {\n        isAdmin[0x7284a8451d9a0e7Dc62B3a71C0593eA2eC5c5638] = true;\n        isAdmin[0xa7615CD307F323172331865181DC8b80a2834324] = true;\n        addCToken(0x6C8c6b02E7b2BE14d4fA6022Dfd6d75921D90E4E, 600000000000000000);\n        addCToken(0xF5DCe57282A584D2746FaF1593d3121Fcac444dC, 750000000000000000);\n        addCToken(0x4Ddc2D193948926D02f9B1fE9e1daa0718270ED5, 750000000000000000);\n        addCToken(0x158079Ee67Fce2f58472A96584A73C7Ab9AC95c1, 500000000000000000);\n        addCToken(0x39AA39c021dfbaE8faC545936693aC917d5E7563, 750000000000000000);\n        addCToken(0xB3319f5D18Bc0D84dD1b4825Dcde5d5f7266d407, 600000000000000000);\n        setApproval(daiAddr, 10**30, cdaiAddr);\n        setApproval(cdaiAddr, 10**30, cdaiAddr);\n        version = _version;\n    }\n\n    function() external payable {}\n\n}",
  "sourcePath": "/Users/pierrick/Documents/04-OSS/08-Graph/02-InstaDApp/contract-v2/contracts/Bin/MakerCompoundOld.sol",
  "compiler": {
    "name": "solc",
    "version": "0.5.11+commit.c082d0b4.Emscripten.clang"
  },
  "schemaVersion": "3.0.16",
  "updatedAt": "2019-09-15T00:52:15.557Z",
  "devdoc": {
    "methods": {
      "constructor": {
        "details": "setting up variables on deployment 1...2...3 versioning in each subsequent deployments"
      },
      "depositCDAI(uint256)": {
        "details": "Deposit CDAI for liquidity"
      },
      "depositDAI(uint256)": {
        "details": "Deposit DAI for liquidity"
      },
      "transferBackDAI(uint256)": {
        "details": "Take DAI back from user wallet"
      },
      "transferDAI(uint256)": {
        "details": "Transfer DAI to only to user wallet"
      },
      "withdrawCDAI(uint256)": {
        "details": "Withdraw CDAI from liquidity"
      },
      "withdrawDAI(uint256)": {
        "details": "Withdraw DAI from liquidity"
      }
    }
  },
  "userdoc": {
    "methods": {}
  }
}