{
  "contractName": "Owners",
  "abi": [
    {
      "constant": true,
      "inputs": [
        {
          "internalType": "address",
          "name": "",
          "type": "address"
        }
      ],
      "name": "owners",
      "outputs": [
        {
          "internalType": "bool",
          "name": "",
          "type": "bool"
        }
      ],
      "payable": false,
      "stateMutability": "view",
      "type": "function"
    },
    {
      "constant": true,
      "inputs": [],
      "name": "registry",
      "outputs": [
        {
          "internalType": "address",
          "name": "",
          "type": "address"
        }
      ],
      "payable": false,
      "stateMutability": "view",
      "type": "function"
    },
    {
      "constant": true,
      "inputs": [],
      "name": "ownersCount",
      "outputs": [
        {
          "internalType": "uint256",
          "name": "",
          "type": "uint256"
        }
      ],
      "payable": false,
      "stateMutability": "view",
      "type": "function"
    },
    {
      "anonymous": false,
      "inputs": [
        {
          "indexed": false,
          "internalType": "address",
          "name": "addr",
          "type": "address"
        }
      ],
      "name": "LogAddOwner",
      "type": "event"
    },
    {
      "anonymous": false,
      "inputs": [
        {
          "indexed": false,
          "internalType": "address",
          "name": "addr",
          "type": "address"
        }
      ],
      "name": "LogRemoveOwner",
      "type": "event"
    },
    {
      "constant": true,
      "inputs": [
        {
          "internalType": "address",
          "name": "_owner",
          "type": "address"
        }
      ],
      "name": "isOwner",
      "outputs": [
        {
          "internalType": "bool",
          "name": "",
          "type": "bool"
        }
      ],
      "payable": false,
      "stateMutability": "view",
      "type": "function"
    },
    {
      "constant": false,
      "inputs": [
        {
          "internalType": "address",
          "name": "_owner",
          "type": "address"
        }
      ],
      "name": "addOwner",
      "outputs": [],
      "payable": false,
      "stateMutability": "nonpayable",
      "type": "function"
    },
    {
      "constant": false,
      "inputs": [
        {
          "internalType": "address",
          "name": "_owner",
          "type": "address"
        }
      ],
      "name": "removeOwner",
      "outputs": [],
      "payable": false,
      "stateMutability": "nonpayable",
      "type": "function"
    }
  ],
  "bytecode": "0x608060405234801561001057600080fd5b5061053d806100206000396000f3fe608060405234801561001057600080fd5b50600436106100725760003560e01c80637065cb48116100505780637065cb48146101735780637b103999146101b7578063b94885461461020157610072565b8063022914a714610077578063173825d9146100d35780632f54bf6e14610117575b600080fd5b6100b96004803603602081101561008d57600080fd5b81019080803573ffffffffffffffffffffffffffffffffffffffff16906020019092919050505061021f565b604051808215151515815260200191505060405180910390f35b610115600480360360208110156100e957600080fd5b81019080803573ffffffffffffffffffffffffffffffffffffffff16906020019092919050505061023f565b005b6101596004803603602081101561012d57600080fd5b81019080803573ffffffffffffffffffffffffffffffffffffffff1690602001909291905050506103a0565b604051808215151515815260200191505060405180910390f35b6101b56004803603602081101561018957600080fd5b81019080803573ffffffffffffffffffffffffffffffffffffffff1690602001909291905050506103f6565b005b6101bf6104dd565b604051808273ffffffffffffffffffffffffffffffffffffffff1673ffffffffffffffffffffffffffffffffffffffff16815260200191505060405180910390f35b610209610502565b6040518082815260200191505060405180910390f35b60016020528060005260406000206000915054906101000a900460ff1681565b610248336103a0565b6102ba576040517f08c379a00000000000000000000000000000000000000000000000000000000081526004018080602001828103825260118152602001807f7065726d697373696f6e2d64656e69656400000000000000000000000000000081525060200191505060405180910390fd5b6000600160008373ffffffffffffffffffffffffffffffffffffffff1673ffffffffffffffffffffffffffffffffffffffff16815260200190815260200160002060006101000a81548160ff0219169083151502179055506002600081548092919060019003919050555060006002541161039d576040517f08c379a00000000000000000000000000000000000000000000000000000000081526004018080602001828103825260168152602001807f7a65726f2d6f776e65722d6e6f742d616c6c6f7765640000000000000000000081525060200191505060405180910390fd5b50565b6000600160008373ffffffffffffffffffffffffffffffffffffffff1673ffffffffffffffffffffffffffffffffffffffff16815260200190815260200160002060009054906101000a900460ff169050919050565b6103ff336103a0565b610471576040517f08c379a00000000000000000000000000000000000000000000000000000000081526004018080602001828103825260118152602001807f7065726d697373696f6e2d64656e69656400000000000000000000000000000081525060200191505060405180910390fd5b60018060008373ffffffffffffffffffffffffffffffffffffffff1673ffffffffffffffffffffffffffffffffffffffff16815260200190815260200160002060006101000a81548160ff02191690831515021790555060026000815480929190600101919050555050565b6000809054906101000a900473ffffffffffffffffffffffffffffffffffffffff1681565b6002548156fea265627a7a72315820eec51eadc7f9d417a59bfd5f5829648d6c0aa3247fe63dbb01df56815fef705264736f6c634300050b0032",
  "source": "pragma solidity ^0.5.2;\n\ninterface UserWalletInterface {\n    function execute(\n        address _target,\n        bytes calldata _data,\n        uint _src,\n        uint _session\n    ) external payable;\n}\n\n/**\n * @title InstaRegistry Interface\n */\ninterface RegistryInterface {\n    function proxies(address owner) external view returns (address);\n}\n\n\n/// @title Owners\n/// @notice\n/// @dev\ncontract Owners {\n    event LogAddOwner(address addr);\n    event LogRemoveOwner(address addr);\n\n    address public registry;\n\n    /// @notice owners of the contracts\n    mapping(address => bool) public owners;\n    uint public ownersCount;\n\n    /**\n     * @dev Check if msg.sender is owner.\n     */\n    modifier onlyOwner() {\n        require(isOwner(msg.sender), \"permission-denied\");\n        _;\n    }\n\n    /// @dev Check if is owner.\n    /// @param _owner (address)\n    function isOwner(address _owner) public view returns (bool) {\n        return owners[_owner];\n    }\n\n    /// @dev add new owner\n    /// @param _owner (address)\n    function addOwner(address _owner) public onlyOwner {\n        owners[_owner] = true;\n        ownersCount++;\n    }\n\n    /// @dev removed existing owner\n    /// @param _owner (address)\n    function removeOwner(address _owner) public onlyOwner {\n        owners[_owner] = false;\n        ownersCount--;\n        require(ownersCount > 0, \"zero-owner-not-allowed\");\n    }\n\n}\n\n\n/// @title InstaAccess\n/// @dev Initializing Access Control\ncontract InstaAccess is Owners {\n\n    constructor(address _registry) public {\n        registry = _registry;\n        owners[msg.sender] = true;\n        ownersCount++;\n    }\n\n    function execute(\n        address target,\n        bytes memory data,\n        uint src,\n        uint session\n    ) public payable onlyOwner\n    {\n        address walletAddress = RegistryInterface(registry).proxies(address(this));\n        UserWalletInterface(walletAddress).execute.value(msg.value)(\n            target,\n            data,\n            src,\n            session\n        );\n    }\n\n}",
  "sourcePath": "/Users/pierrick/Documents/04-OSS/08-Graph/02-InstaDApp/contract-v2/contracts/Bin/AccessControls/InstaAccess.sol",
  "compiler": {
    "name": "solc",
    "version": "0.5.11+commit.c082d0b4.Emscripten.clang"
  },
  "schemaVersion": "3.0.16",
  "updatedAt": "2019-09-15T00:52:14.841Z",
  "devdoc": {
    "methods": {
      "addOwner(address)": {
        "details": "add new owner",
        "params": {
          "_owner": "(address)"
        }
      },
      "isOwner(address)": {
        "details": "Check if is owner.",
        "params": {
          "_owner": "(address)"
        }
      },
      "removeOwner(address)": {
        "details": "removed existing owner",
        "params": {
          "_owner": "(address)"
        }
      }
    },
    "title": "Owners"
  },
  "userdoc": {
    "methods": {},
    "notice": "@dev"
  }
}