{
  "contractName": "Pool",
  "abi": [
    {
      "constant": true,
      "inputs": [],
      "name": "getAddressUniFactory",
      "outputs": [
        {
          "internalType": "address",
          "name": "factory",
          "type": "address"
        }
      ],
      "payable": false,
      "stateMutability": "pure",
      "type": "function"
    },
    {
      "constant": true,
      "inputs": [
        {
          "internalType": "address",
          "name": "_token",
          "type": "address"
        }
      ],
      "name": "getAddressPool",
      "outputs": [
        {
          "internalType": "address",
          "name": "",
          "type": "address"
        }
      ],
      "payable": false,
      "stateMutability": "view",
      "type": "function"
    },
    {
      "constant": true,
      "inputs": [],
      "name": "getAddressAdmin",
      "outputs": [
        {
          "internalType": "address",
          "name": "admin",
          "type": "address"
        }
      ],
      "payable": false,
      "stateMutability": "pure",
      "type": "function"
    },
    {
      "anonymous": false,
      "inputs": [
        {
          "indexed": false,
          "internalType": "address",
          "name": "token",
          "type": "address"
        },
        {
          "indexed": false,
          "internalType": "uint256",
          "name": "tokenAmt",
          "type": "uint256"
        },
        {
          "indexed": false,
          "internalType": "uint256",
          "name": "ethAmt",
          "type": "uint256"
        },
        {
          "indexed": false,
          "internalType": "uint256",
          "name": "poolTokenMinted",
          "type": "uint256"
        },
        {
          "indexed": false,
          "internalType": "address",
          "name": "beneficiary",
          "type": "address"
        }
      ],
      "name": "LogAddLiquidity",
      "type": "event"
    },
    {
      "anonymous": false,
      "inputs": [
        {
          "indexed": false,
          "internalType": "address",
          "name": "token",
          "type": "address"
        },
        {
          "indexed": false,
          "internalType": "uint256",
          "name": "tokenReturned",
          "type": "uint256"
        },
        {
          "indexed": false,
          "internalType": "uint256",
          "name": "ethReturned",
          "type": "uint256"
        },
        {
          "indexed": false,
          "internalType": "uint256",
          "name": "poolTokenBurned",
          "type": "uint256"
        },
        {
          "indexed": false,
          "internalType": "address",
          "name": "beneficiary",
          "type": "address"
        }
      ],
      "name": "LogRemoveLiquidity",
      "type": "event"
    },
    {
      "anonymous": false,
      "inputs": [
        {
          "indexed": false,
          "internalType": "address",
          "name": "token",
          "type": "address"
        },
        {
          "indexed": false,
          "internalType": "uint256",
          "name": "tokenReturned",
          "type": "uint256"
        },
        {
          "indexed": false,
          "internalType": "uint256",
          "name": "ethReturned",
          "type": "uint256"
        },
        {
          "indexed": false,
          "internalType": "uint256",
          "name": "poolTokenBurned",
          "type": "uint256"
        },
        {
          "indexed": false,
          "internalType": "address",
          "name": "beneficiary",
          "type": "address"
        }
      ],
      "name": "LogShutPool",
      "type": "event"
    },
    {
      "constant": true,
      "inputs": [
        {
          "internalType": "address",
          "name": "token",
          "type": "address"
        }
      ],
      "name": "poolDetails",
      "outputs": [
        {
          "internalType": "address",
          "name": "poolAddress",
          "type": "address"
        },
        {
          "internalType": "uint256",
          "name": "totalSupply",
          "type": "uint256"
        },
        {
          "internalType": "uint256",
          "name": "ethReserve",
          "type": "uint256"
        },
        {
          "internalType": "uint256",
          "name": "tokenReserve",
          "type": "uint256"
        }
      ],
      "payable": false,
      "stateMutability": "view",
      "type": "function"
    },
    {
      "constant": false,
      "inputs": [
        {
          "internalType": "address",
          "name": "token",
          "type": "address"
        },
        {
          "internalType": "uint256",
          "name": "maxDepositedTokens",
          "type": "uint256"
        }
      ],
      "name": "addLiquidity",
      "outputs": [
        {
          "internalType": "uint256",
          "name": "tokensMinted",
          "type": "uint256"
        }
      ],
      "payable": true,
      "stateMutability": "payable",
      "type": "function"
    },
    {
      "constant": false,
      "inputs": [
        {
          "internalType": "address",
          "name": "token",
          "type": "address"
        },
        {
          "internalType": "uint256",
          "name": "amount",
          "type": "uint256"
        },
        {
          "internalType": "uint256",
          "name": "minEth",
          "type": "uint256"
        },
        {
          "internalType": "uint256",
          "name": "minTokens",
          "type": "uint256"
        }
      ],
      "name": "removeLiquidity",
      "outputs": [
        {
          "internalType": "uint256",
          "name": "ethReturned",
          "type": "uint256"
        },
        {
          "internalType": "uint256",
          "name": "tokenReturned",
          "type": "uint256"
        }
      ],
      "payable": false,
      "stateMutability": "nonpayable",
      "type": "function"
    },
    {
      "constant": false,
      "inputs": [
        {
          "internalType": "address",
          "name": "token",
          "type": "address"
        }
      ],
      "name": "shut",
      "outputs": [
        {
          "internalType": "uint256",
          "name": "ethReturned",
          "type": "uint256"
        },
        {
          "internalType": "uint256",
          "name": "tokenReturned",
          "type": "uint256"
        }
      ],
      "payable": false,
      "stateMutability": "nonpayable",
      "type": "function"
    }
  ],
  "bytecode": "0x608060405234801561001057600080fd5b5061116c806100206000396000f3fe6080604052600436106100705760003560e01c8063791ff1741161004e578063791ff1741461019a578063886a13761461024057806393ca2f8a146102d1578063adbd80b01461035b57610070565b8063348868571461007557806345529703146100e15780635668870014610138575b600080fd5b34801561008157600080fd5b506100c46004803603602081101561009857600080fd5b81019080803573ffffffffffffffffffffffffffffffffffffffff1690602001909291905050506103b2565b604051808381526020018281526020019250505060405180910390f35b3480156100ed57600080fd5b506100f6610705565b604051808273ffffffffffffffffffffffffffffffffffffffff1673ffffffffffffffffffffffffffffffffffffffff16815260200191505060405180910390f35b6101846004803603604081101561014e57600080fd5b81019080803573ffffffffffffffffffffffffffffffffffffffff16906020019092919080359060200190929190505050610721565b6040518082815260200191505060405180910390f35b3480156101a657600080fd5b506101e9600480360360208110156101bd57600080fd5b81019080803573ffffffffffffffffffffffffffffffffffffffff169060200190929190505050610a0c565b604051808573ffffffffffffffffffffffffffffffffffffffff1673ffffffffffffffffffffffffffffffffffffffff16815260200184815260200183815260200182815260200194505050505060405180910390f35b34801561024c57600080fd5b5061028f6004803603602081101561026357600080fd5b81019080803573ffffffffffffffffffffffffffffffffffffffff169060200190929190505050610ab9565b604051808273ffffffffffffffffffffffffffffffffffffffff1673ffffffffffffffffffffffffffffffffffffffff16815260200191505060405180910390f35b3480156102dd57600080fd5b5061033e600480360360808110156102f457600080fd5b81019080803573ffffffffffffffffffffffffffffffffffffffff169060200190929190803590602001909291908035906020019092919080359060200190929190505050610b81565b604051808381526020018281526020019250505060405180910390f35b34801561036757600080fd5b50610370610e1a565b604051808273ffffffffffffffffffffffffffffffffffffffff1673ffffffffffffffffffffffffffffffffffffffff16815260200191505060405180910390f35b60008060006103c084610ab9565b905060008173ffffffffffffffffffffffffffffffffffffffff166370a08231306040518263ffffffff1660e01b8152600401808273ffffffffffffffffffffffffffffffffffffffff1673ffffffffffffffffffffffffffffffffffffffff16815260200191505060206040518083038186803b15801561044157600080fd5b505afa158015610455573d6000803e3d6000fd5b505050506040513d602081101561046b57600080fd5b81019080805190602001909291905050509050610489828284610e36565b8173ffffffffffffffffffffffffffffffffffffffff1663f88bf15a826001806371316a016040518563ffffffff1660e01b8152600401808581526020018481526020018381526020018281526020019450505050506040805180830381600087803b1580156104f857600080fd5b505af115801561050c573d6000803e3d6000fd5b505050506040513d604081101561052257600080fd5b81019080805190602001909291908051906020019092919050505080945081955050503373ffffffffffffffffffffffffffffffffffffffff166108fc859081150290604051600060405180830381858888f1935050505015801561058b573d6000803e3d6000fd5b508473ffffffffffffffffffffffffffffffffffffffff1663a9059cbb33856040518363ffffffff1660e01b8152600401808373ffffffffffffffffffffffffffffffffffffffff1673ffffffffffffffffffffffffffffffffffffffff16815260200182815260200192505050602060405180830381600087803b15801561061357600080fd5b505af1158015610627573d6000803e3d6000fd5b505050506040513d602081101561063d57600080fd5b8101908080519060200190929190505050507f73f45fd8326d8c3f3bcbe447e17d38be9f8dd22219429e95ea714af7b189dfa98584868433604051808673ffffffffffffffffffffffffffffffffffffffff1673ffffffffffffffffffffffffffffffffffffffff1681526020018581526020018481526020018381526020018273ffffffffffffffffffffffffffffffffffffffff1673ffffffffffffffffffffffffffffffffffffffff1681526020019550505050505060405180910390a15050915091565b600073c0a47dfe034b400b47bdad5fecda2621de6c4d95905090565b60008061072d84610ab9565b905060008061073c868461101e565b9150915060006001838334028161074f57fe5b040190508581106107ab576040517f08c379a00000000000000000000000000000000000000000000000000000000081526004018080602001828103825260358152602001806111036035913960400191505060405180910390fd5b8673ffffffffffffffffffffffffffffffffffffffff166323b872dd3330846040518463ffffffff1660e01b8152600401808473ffffffffffffffffffffffffffffffffffffffff1673ffffffffffffffffffffffffffffffffffffffff1681526020018373ffffffffffffffffffffffffffffffffffffffff1673ffffffffffffffffffffffffffffffffffffffff1681526020018281526020019350505050602060405180830381600087803b15801561086657600080fd5b505af115801561087a573d6000803e3d6000fd5b505050506040513d602081101561089057600080fd5b8101908080519060200190929190505050506108ad878286610e36565b8373ffffffffffffffffffffffffffffffffffffffff1663422f1043346001846371316a016040518563ffffffff1660e01b81526004018084815260200183815260200182815260200193505050506020604051808303818588803b15801561091557600080fd5b505af1158015610929573d6000803e3d6000fd5b50505050506040513d602081101561094057600080fd5b810190808051906020019092919050505094507f9b8217aa00ed46e167fe971f97db538e33072fc0260c9d44a930e84c734b6b728782348833604051808673ffffffffffffffffffffffffffffffffffffffff1673ffffffffffffffffffffffffffffffffffffffff1681526020018581526020018481526020018381526020018273ffffffffffffffffffffffffffffffffffffffff1673ffffffffffffffffffffffffffffffffffffffff1681526020019550505050505060405180910390a15050505092915050565b600080600080610a1b85610ab9565b93508373ffffffffffffffffffffffffffffffffffffffff166318160ddd6040518163ffffffff1660e01b815260040160206040518083038186803b158015610a6357600080fd5b505afa158015610a77573d6000803e3d6000fd5b505050506040513d6020811015610a8d57600080fd5b81019080805190602001909291905050509250610aaa858561101e565b80925081935050509193509193565b6000610ac3610705565b73ffffffffffffffffffffffffffffffffffffffff166306f2bf62836040518263ffffffff1660e01b8152600401808273ffffffffffffffffffffffffffffffffffffffff1673ffffffffffffffffffffffffffffffffffffffff16815260200191505060206040518083038186803b158015610b3f57600080fd5b505afa158015610b53573d6000803e3d6000fd5b505050506040513d6020811015610b6957600080fd5b81019080805190602001909291905050509050919050565b6000806000610b8f87610ab9565b9050610b9c818783610e36565b8073ffffffffffffffffffffffffffffffffffffffff1663f88bf15a8787876371316a016040518563ffffffff1660e01b8152600401808581526020018481526020018381526020018281526020019450505050506040805180830381600087803b158015610c0a57600080fd5b505af1158015610c1e573d6000803e3d6000fd5b505050506040513d6040811015610c3457600080fd5b81019080805190602001909291908051906020019092919050505080935081945050503373ffffffffffffffffffffffffffffffffffffffff166108fc849081150290604051600060405180830381858888f19350505050158015610c9d573d6000803e3d6000fd5b508673ffffffffffffffffffffffffffffffffffffffff1663a9059cbb33846040518363ffffffff1660e01b8152600401808373ffffffffffffffffffffffffffffffffffffffff1673ffffffffffffffffffffffffffffffffffffffff16815260200182815260200192505050602060405180830381600087803b158015610d2557600080fd5b505af1158015610d39573d6000803e3d6000fd5b505050506040513d6020811015610d4f57600080fd5b8101908080519060200190929190505050507ffd80ed750cd1bf6e607c20103d8d61e1e6f5e44c9eed93423482ddfc5ded517a8783858933604051808673ffffffffffffffffffffffffffffffffffffffff1673ffffffffffffffffffffffffffffffffffffffff1681526020018581526020018481526020018381526020018273ffffffffffffffffffffffffffffffffffffffff1673ffffffffffffffffffffffffffffffffffffffff1681526020019550505050505060405180910390a15094509492505050565b6000737284a8451d9a0e7dc62b3a71c0593ea2ec5c5638905090565b600083905060008173ffffffffffffffffffffffffffffffffffffffff1663dd62ed3e30856040518363ffffffff1660e01b8152600401808373ffffffffffffffffffffffffffffffffffffffff1673ffffffffffffffffffffffffffffffffffffffff1681526020018273ffffffffffffffffffffffffffffffffffffffff1673ffffffffffffffffffffffffffffffffffffffff1681526020019250505060206040518083038186803b158015610eee57600080fd5b505afa158015610f02573d6000803e3d6000fd5b505050506040513d6020811015610f1857600080fd5b8101908080519060200190929190505050905080841115611017578173ffffffffffffffffffffffffffffffffffffffff1663095ea7b3847f80000000000000000000000000000000000000000000000000000000000000006040518363ffffffff1660e01b8152600401808373ffffffffffffffffffffffffffffffffffffffff1673ffffffffffffffffffffffffffffffffffffffff16815260200182815260200192505050602060405180830381600087803b158015610fda57600080fd5b505af1158015610fee573d6000803e3d6000fd5b505050506040513d602081101561100457600080fd5b8101908080519060200190929190505050505b5050505050565b60008060008473ffffffffffffffffffffffffffffffffffffffff166370a08231856040518263ffffffff1660e01b8152600401808273ffffffffffffffffffffffffffffffffffffffff1673ffffffffffffffffffffffffffffffffffffffff16815260200191505060206040518083038186803b1580156110a057600080fd5b505afa1580156110b4573d6000803e3d6000fd5b505050506040513d60208110156110ca57600080fd5b810190808051906020019092919050505090508373ffffffffffffffffffffffffffffffffffffffff1631819250925050925092905056fe546f6b656e20746f206465706f7369742069732067726561746572207468616e204d617820746f6b656e20746f204465706f736974a265627a7a72315820355a3d2d074754bdffbe6138f5d8a3732449d4c12b5c887d822a7a315aa4ca0b64736f6c634300050b0032",
  "source": "pragma solidity ^0.5.0;\n\ninterface IERC20 {\n    function transfer(address to, uint256 value) external returns (bool);\n    function approve(address spender, uint256 value) external returns (bool);\n    function transferFrom(address from, address to, uint256 value) external returns (bool);\n    function totalSupply() external view returns (uint256);\n    function balanceOf(address who) external view returns (uint256);\n    function allowance(address owner, address spender) external view returns (uint256);\n}\n\ninterface UniswapFactory {\n    // Get Exchange and Token Info\n    function getExchange(address token) external view returns (address exchange);\n}\n\ninterface UniswapPool {\n    // Address of ERC20 token sold on this exchange\n    function tokenAddress() external view returns (address token);\n    // Address of Uniswap Factory\n    function factoryAddress() external view returns (address factory);\n    // Provide Liquidity\n    function addLiquidity(uint256 minLiquidity, uint256 maxTokens, uint256 deadline) external payable returns (uint256);\n    // Remove Liquidity\n    function removeLiquidity(\n        uint256 amount,\n        uint256 minEth,\n        uint256 minTokens,\n        uint256 deadline\n        ) external returns (uint256, uint256);\n\n    // ERC20 comaptibility for liquidity tokens\n    function totalSupply() external view returns (uint);\n}\n\n\ncontract Helper {\n\n    /**\n     * @dev get Uniswap Proxy address\n     */\n    function getAddressUniFactory() public pure returns (address factory) {\n        factory = 0xc0a47dFe034B400B47bDaD5FecDa2621de6c4d95;\n        // factory = 0xf5D915570BC477f9B8D6C0E980aA81757A3AaC36; // Rinkeby\n    }\n\n    // Get Uniswap's Exchange address from Factory Contract\n    function getAddressPool(address _token) public view returns (address) {\n        return UniswapFactory(getAddressUniFactory()).getExchange(_token);\n    }\n\n    /**\n     * @dev get admin address\n     */\n    function getAddressAdmin() public pure returns (address admin) {\n        admin = 0x7284a8451d9a0e7Dc62B3a71C0593eA2eC5c5638;\n    }\n\n    /**\n     * @dev gets ETH & token balance\n     * @param src is the token being sold\n     * @return ethBal - if not erc20, eth balance\n     * @return tknBal - if not eth, erc20 balance\n     */\n    function getBal(address src, address _owner) internal view returns (uint, uint) {\n        uint tknBal = IERC20(src).balanceOf(address(_owner));\n        return (address(_owner).balance, tknBal);\n    }\n\n    /**\n     * @dev setting allowance to kyber for the \"user proxy\" if required\n     * @param token is the token address\n     */\n    function setApproval(address token, uint srcAmt, address to) internal {\n        IERC20 erc20Contract = IERC20(token);\n        uint tokenAllowance = erc20Contract.allowance(address(this), to);\n        if (srcAmt > tokenAllowance) {\n            erc20Contract.approve(to, 2**255);\n        }\n    }\n\n}\n\n\ncontract Pool is Helper {\n\n    event LogAddLiquidity(\n        address token,\n        uint tokenAmt,\n        uint ethAmt,\n        uint poolTokenMinted,\n        address beneficiary\n    );\n\n    event LogRemoveLiquidity(\n        address token,\n        uint tokenReturned,\n        uint ethReturned,\n        uint poolTokenBurned,\n        address beneficiary\n    );\n\n    event LogShutPool(\n        address token,\n        uint tokenReturned,\n        uint ethReturned,\n        uint poolTokenBurned,\n        address beneficiary\n    );\n\n    /**\n     * @dev Uniswap's pool basic details\n     * @param token token address to get pool. Eg:- DAI address, MKR address, etc\n     * @param poolAddress Uniswap pool's address\n     * @param totalSupply total supply of pool token\n     * @param ethReserve Total ETH balance of uniswap's pool\n     * @param tokenReserve Total Token balance of uniswap's pool\n     */\n    function poolDetails(\n        address token\n    ) public view returns (\n        address poolAddress,\n        uint totalSupply,\n        uint ethReserve,\n        uint tokenReserve\n    )\n    {\n        poolAddress = getAddressPool(token);\n        totalSupply = IERC20(poolAddress).totalSupply();\n        (ethReserve, tokenReserve) = getBal(token, poolAddress);\n    }\n\n    /**\n     * @dev to add liquidity in pool. Payable function token qty to deposit is decided as per the ETH sent by the user\n     * @param token ERC20 address of Uniswap's pool (eg:- DAI address, MKR address, etc)\n     * @param maxDepositedTokens Max token to be deposited\n     */\n    function addLiquidity(address token, uint maxDepositedTokens) public payable returns (uint256 tokensMinted) {\n        address poolAddr = getAddressPool(token);\n        (uint ethReserve, uint tokenReserve) = getBal(token, poolAddr);\n        uint tokenToDeposit = msg.value * tokenReserve / ethReserve + 1;\n        require(tokenToDeposit < maxDepositedTokens, \"Token to deposit is greater than Max token to Deposit\");\n        IERC20(token).transferFrom(msg.sender, address(this), tokenToDeposit);\n        setApproval(token, tokenToDeposit, poolAddr);\n        tokensMinted = UniswapPool(poolAddr).addLiquidity.value(msg.value)(\n            uint(1),\n            tokenToDeposit,\n            uint(1899063809) // 6th March 2030 GMT // no logic\n        );\n        emit LogAddLiquidity(\n            token,\n            tokenToDeposit,\n            msg.value,\n            tokensMinted,\n            msg.sender\n        );\n    }\n\n    /**\n     * @dev to remove liquidity from pool. ETH and token quantity is decided as per the exchange token qty to burn\n     * @param token ERC20 address of Uniswap's pool (eg:- DAI address, MKR address, etc)\n     * @param amount Uniswap pool's ERC20 token QTY to burn\n     * @param minEth Min ETH user to be returned\n     * @param minTokens Min Tokens to be returned\n     */\n    function removeLiquidity(\n        address token,\n        uint amount,\n        uint minEth,\n        uint minTokens\n    ) public returns (uint ethReturned, uint tokenReturned)\n    {\n        address poolAddr = getAddressPool(token);\n\n        setApproval(poolAddr, amount, poolAddr);\n        (ethReturned, tokenReturned) = UniswapPool(poolAddr).removeLiquidity(\n            amount,\n            minEth,\n            minTokens,\n            uint(1899063809) // 6th March 2030 GMT // no logic\n        );\n        address(msg.sender).transfer(ethReturned);\n        IERC20(token).transfer(msg.sender, tokenReturned);\n        emit LogRemoveLiquidity(\n            token,\n            tokenReturned,\n            ethReturned,\n            amount,\n            msg.sender\n        );\n    }\n\n    /**\n     * @dev to remove all of the user's liquidity from pool. ETH and token quantity is decided as per the exchange token qty to burn\n     * @param token ERC20 address of Uniswap's pool (eg:- DAI address, MKR address, etc)\n     */\n    function shut(address token) public returns (uint ethReturned, uint tokenReturned) {\n        address poolAddr = getAddressPool(token);\n        uint userPoolBal = IERC20(poolAddr).balanceOf(address(this));\n\n        setApproval(poolAddr, userPoolBal, poolAddr);\n        (ethReturned, tokenReturned) = UniswapPool(poolAddr).removeLiquidity(\n            userPoolBal,\n            uint(1),\n            uint(1),\n            uint(1899063809) // 6th March 2030 GMT // no logic\n        );\n        address(msg.sender).transfer(ethReturned);\n        IERC20(token).transfer(msg.sender, tokenReturned);\n        emit LogShutPool(\n            token,\n            tokenReturned,\n            ethReturned,\n            userPoolBal,\n            msg.sender\n        );\n    }\n\n}\n\n\ncontract InstaUniswapPool is Pool {\n\n    uint public version;\n\n    /**\n     * @dev setting up variables on deployment\n     * 1...2...3 versioning in each subsequent deployments\n     */\n    constructor(uint _version) public {\n        version = _version;\n    }\n\n    function() external payable {}\n\n}",
  "sourcePath": "/Users/pierrick/Documents/04-OSS/08-Graph/02-InstaDApp/contract-v2/contracts/ProxyLogics/InstaUniswapPool.sol",
  "compiler": {
    "name": "solc",
    "version": "0.5.11+commit.c082d0b4.Emscripten.clang"
  },
  "schemaVersion": "3.0.16",
  "updatedAt": "2019-09-15T00:52:16.167Z",
  "devdoc": {
    "methods": {
      "addLiquidity(address,uint256)": {
        "details": "to add liquidity in pool. Payable function token qty to deposit is decided as per the ETH sent by the user",
        "params": {
          "maxDepositedTokens": "Max token to be deposited",
          "token": "ERC20 address of Uniswap's pool (eg:- DAI address, MKR address, etc)"
        }
      },
      "getAddressAdmin()": {
        "details": "get admin address"
      },
      "getAddressUniFactory()": {
        "details": "get Uniswap Proxy address"
      },
      "poolDetails(address)": {
        "details": "Uniswap's pool basic details",
        "params": {
          "ethReserve": "Total ETH balance of uniswap's pool",
          "poolAddress": "Uniswap pool's address",
          "token": "token address to get pool. Eg:- DAI address, MKR address, etc",
          "tokenReserve": "Total Token balance of uniswap's pool",
          "totalSupply": "total supply of pool token"
        }
      },
      "removeLiquidity(address,uint256,uint256,uint256)": {
        "details": "to remove liquidity from pool. ETH and token quantity is decided as per the exchange token qty to burn",
        "params": {
          "amount": "Uniswap pool's ERC20 token QTY to burn",
          "minEth": "Min ETH user to be returned",
          "minTokens": "Min Tokens to be returned",
          "token": "ERC20 address of Uniswap's pool (eg:- DAI address, MKR address, etc)"
        }
      },
      "shut(address)": {
        "details": "to remove all of the user's liquidity from pool. ETH and token quantity is decided as per the exchange token qty to burn",
        "params": {
          "token": "ERC20 address of Uniswap's pool (eg:- DAI address, MKR address, etc)"
        }
      }
    }
  },
  "userdoc": {
    "methods": {}
  }
}