{
  "contractName": "Registry",
  "abi": [
    {
      "constant": true,
      "inputs": [],
      "name": "addressRegistry",
      "outputs": [
        {
          "internalType": "address",
          "name": "",
          "type": "address"
        }
      ],
      "payable": false,
      "stateMutability": "view",
      "type": "function"
    }
  ],
  "bytecode": "0x608060405234801561001057600080fd5b5060cf8061001f6000396000f3fe6080604052348015600f57600080fd5b506004361060285760003560e01c8063f3ad65f414602d575b600080fd5b60336075565b604051808273ffffffffffffffffffffffffffffffffffffffff1673ffffffffffffffffffffffffffffffffffffffff16815260200191505060405180910390f35b6000809054906101000a900473ffffffffffffffffffffffffffffffffffffffff168156fea265627a7a723158201e439ffd4787630ac10a719f1286ea420c5e49f2f065980fb8419bede30ce52464736f6c634300050b0032",
  "source": "pragma solidity ^0.5.2;\n\nimport \"openzeppelin-solidity/contracts/math/SafeMath.sol\";\nimport \"openzeppelin-solidity/contracts/token/ERC20/IERC20.sol\";\n\ninterface AddressRegistry {\n    function getAddr(string calldata name) external view returns (address);\n}\n\n// Uniswap's factory Interface\ninterface UniswapFactory {\n    // get exchange from token's address\n    function getExchange(address token) external view returns (address exchange);\n}\n\n// Uniswap's exchange Interface\ninterface UniswapExchange {\n    // Get Prices\n    function getEthToTokenInputPrice(uint256 eth_sold) external view returns (uint256 tokens_bought);\n    function getEthToTokenOutputPrice(uint256 tokens_bought) external view returns (uint256 eth_sold);\n    function getTokenToEthInputPrice(uint256 tokens_sold) external view returns (uint256 eth_bought);\n    function getTokenToEthOutputPrice(uint256 eth_bought) external view returns (uint256 tokens_sold);\n    // Trade ETH to ERC20\n    function ethToTokenTransferInput(uint256 min_tokens, uint256 deadline, address recipient)\n        external\n        payable\n        returns (uint256 tokens_bought);\n    function ethToTokenTransferOutput(uint256 tokens_bought, uint256 deadline, address recipient)\n        external\n        payable\n        returns (uint256 eth_sold);\n    // Trade ERC20 to ETH\n    function tokenToEthTransferInput(uint256 tokens_sold, uint256 min_tokens, uint256 deadline, address recipient)\n        external\n        returns (uint256 eth_bought);\n    function tokenToEthTransferOutput(uint256 eth_bought, uint256 max_tokens, uint256 deadline, address recipient)\n        external\n        returns (uint256 tokens_sold);\n    // Trade ERC20 to ERC20\n    function tokenToTokenTransferInput(\n        uint256 tokens_sold,\n        uint256 min_tokens_bought,\n        uint256 min_eth_bought,\n        uint256 deadline,\n        address recipient,\n        address token_addr\n    ) external returns (uint256 tokens_bought);\n    function tokenToTokenTransferOutput(\n        uint256 tokens_bought,\n        uint256 max_tokens_sold,\n        uint256 max_eth_sold,\n        uint256 deadline,\n        address recipient,\n        address token_addr\n    ) external returns (uint256 tokens_sold);\n}\n\ncontract Registry {\n    address public addressRegistry;\n    modifier onlyAdmin() {\n        require(msg.sender == getAddress(\"admin\"), \"Permission Denied\");\n        _;\n    }\n    function getAddress(string memory name) internal view returns (address) {\n        AddressRegistry addrReg = AddressRegistry(addressRegistry);\n        return addrReg.getAddr(name);\n    }\n}\n\ncontract UniswapTrade is Registry {\n    using SafeMath for uint;\n\n    // Get Uniswap's Exchange address from Factory Contract\n    function _getExchangeAddress(address _token) internal view returns (address) {\n        UniswapFactory uniswapMain = UniswapFactory(getAddress(\"uniswap\"));\n        return uniswapMain.getExchange(_token);\n    }\n\n    // Check required ETH Quantity to execute code\n    function _getToken(address trader, address src, uint srcAmt, address eth) internal returns (uint ethQty) {\n        if (src == eth) {\n            require(msg.value == srcAmt, \"Invalid Operation\");\n            ethQty = srcAmt;\n        } else {\n            IERC20 tokenFunctions = IERC20(src);\n            tokenFunctions.transferFrom(trader, address(this), srcAmt);\n            ethQty = 0;\n        }\n    }\n\n    /**\n     * @dev Uniswap's get expected rate from source\n     * @param src - Token address to sell (for ETH it's \"0xeeeeeeeeeeeeeeeeeeeeeeeeeeeeeeeeeeeeeeee\")\n     * @param dest - Token address to buy (for ETH it's \"0xeeeeeeeeeeeeeeeeeeeeeeeeeeeeeeeeeeeeeeee\")\n     * @param srcAmt - source token amount\n    */\n    function getExpectedRateSrcUniswap(address src, address dest, uint srcAmt) external view returns (uint256) {\n        if (src == getAddress(\"eth\")) {\n            // define uniswap exchange with dest address\n            UniswapExchange exchangeContract = UniswapExchange(_getExchangeAddress(dest));\n            return exchangeContract.getEthToTokenInputPrice(srcAmt);\n        } else if (dest == getAddress(\"eth\")) {\n            // define uniswap exchange with src address\n            UniswapExchange exchangeContract = UniswapExchange(_getExchangeAddress(src));\n            return exchangeContract.getTokenToEthInputPrice(srcAmt);\n        } else {\n            UniswapExchange exchangeContractSrc = UniswapExchange(_getExchangeAddress(src));\n            UniswapExchange exchangeContractDest = UniswapExchange(_getExchangeAddress(dest));\n            uint ethQty = exchangeContractSrc.getTokenToEthInputPrice(srcAmt);\n            return exchangeContractDest.getEthToTokenInputPrice(ethQty);\n        }\n    }\n\n    /**\n     * @dev Uniswap's get expected rate from dest\n     * @param src - Token address to sell (for ETH it's \"0xeeeeeeeeeeeeeeeeeeeeeeeeeeeeeeeeeeeeeeee\")\n     * @param dest - Token address to buy (for ETH it's \"0xeeeeeeeeeeeeeeeeeeeeeeeeeeeeeeeeeeeeeeee\")\n     * @param destAmt - dest token amount\n    */\n    function getExpectedRateDestUniswap(address src, address dest, uint destAmt) external view returns (uint256) {\n        address eth = getAddress(\"eth\");\n        if (src == eth) {\n            // define uniswap exchange with dest address\n            UniswapExchange exchangeContract = UniswapExchange(_getExchangeAddress(dest));\n            return exchangeContract.getEthToTokenOutputPrice(destAmt);\n        } else if (dest == eth) {\n            // define uniswap exchange with src address\n            UniswapExchange exchangeContract = UniswapExchange(_getExchangeAddress(src));\n            return exchangeContract.getTokenToEthOutputPrice(destAmt);\n        } else {\n            UniswapExchange exchangeContractSrc = UniswapExchange(_getExchangeAddress(src));\n            UniswapExchange exchangeContractDest = UniswapExchange(_getExchangeAddress(dest));\n            uint ethQty = exchangeContractDest.getTokenToEthInputPrice(destAmt);\n            return exchangeContractSrc.getEthToTokenInputPrice(ethQty);\n        }\n    }\n\n    /**\n     * @dev Uniswap's trade when token to sell Amount fixed\n     * @param src - Token address to sell (for ETH it's \"0xeeeeeeeeeeeeeeeeeeeeeeeeeeeeeeeeeeeeeeee\")\n     * @param srcAmt - amount of token for sell\n     * @param dest - Token address to buy (for ETH it's \"0xeeeeeeeeeeeeeeeeeeeeeeeeeeeeeeeeeeeeeeee\")\n     * @param minDestAmt - min amount of token to buy (slippage)\n     * @param deadline - time for this transaction to be valid\n    */\n    function tradeSrcUniswap(address src, uint srcAmt, address dest, uint minDestAmt, uint deadline) public payable returns (uint) {\n        address eth = getAddress(\"eth\");\n        uint ethQty = _getToken(msg.sender, src, srcAmt, eth);\n\n        if (src == eth) {\n            UniswapExchange exchangeContract = UniswapExchange(_getExchangeAddress(dest));\n            uint tokensBought = exchangeContract.ethToTokenTransferInput.value(ethQty)(minDestAmt, deadline, msg.sender);\n            return tokensBought;\n        } else if (dest == eth) {\n            UniswapExchange exchangeContract = UniswapExchange(_getExchangeAddress(src));\n            uint ethBought = exchangeContract.tokenToEthTransferInput(srcAmt, minDestAmt, deadline, msg.sender);\n            return ethBought;\n        } else {\n            UniswapExchange exchangeContract = UniswapExchange(_getExchangeAddress(src));\n            uint tokensBought = exchangeContract.tokenToTokenTransferInput(srcAmt, minDestAmt, uint(0), deadline, msg.sender, dest);\n            return tokensBought;\n        }\n    }\n\n    /**\n     * @dev Uniswap's trade when token to buy Amount fixed\n     * @param src - Token address to sell (for ETH it's \"0xeeeeeeeeeeeeeeeeeeeeeeeeeeeeeeeeeeeeeeee\")\n     * @param maxSrcAmt - max amount of token for sell (slippage)\n     * @param dest - Token address to buy (for ETH it's \"0xeeeeeeeeeeeeeeeeeeeeeeeeeeeeeeeeeeeeeeee\")\n     * @param destAmt - amount of token to buy\n     * @param deadline - time for this transaction to be valid\n    */\n    function tradeDestUniswap(address src, uint maxSrcAmt, address dest, uint destAmt, uint deadline) public payable returns (uint) {\n        address eth = getAddress(\"eth\");\n        uint ethQty = _getToken(msg.sender, src, maxSrcAmt, eth);\n\n        if (src == eth) {\n            UniswapExchange exchangeContract = UniswapExchange(_getExchangeAddress(dest));\n            uint ethSold = exchangeContract.ethToTokenTransferOutput.value(ethQty)(destAmt, deadline, msg.sender);\n            if (ethSold < ethQty) {\n                uint srcToReturn = ethQty - ethSold;\n                msg.sender.transfer(srcToReturn);\n            }\n            return ethSold;\n        } else if (dest == eth) {\n            UniswapExchange exchangeContract = UniswapExchange(_getExchangeAddress(src));\n            uint tokensSold = exchangeContract.tokenToEthTransferOutput(destAmt, maxSrcAmt, deadline, msg.sender);\n            if (tokensSold < maxSrcAmt) {\n                IERC20 srcTkn = IERC20(src);\n                uint srcToReturn = maxSrcAmt - tokensSold;\n                srcTkn.transfer(msg.sender, srcToReturn);\n            }\n            return tokensSold;\n        } else {\n            UniswapExchange exchangeContractSrc = UniswapExchange(_getExchangeAddress(src));\n            uint tokensSold = exchangeContractSrc.tokenToTokenTransferOutput(destAmt, maxSrcAmt, uint(0 - 1), deadline, msg.sender, dest);\n            if (tokensSold < maxSrcAmt) {\n                IERC20 srcTkn = IERC20(src);\n                uint srcToReturn = maxSrcAmt - tokensSold;\n                srcTkn.transfer(msg.sender, srcToReturn);\n            }\n            return tokensSold;\n        }\n\n    }\n\n}\n",
  "sourcePath": "/Users/pierrick/Documents/04-OSS/08-Graph/02-InstaDApp/contract-v2/contracts/Bin/UniswapTrade.sol",
  "compiler": {
    "name": "solc",
    "version": "0.5.11+commit.c082d0b4.Emscripten.clang"
  },
  "schemaVersion": "3.0.16",
  "updatedAt": "2019-09-15T00:52:15.483Z",
  "devdoc": {
    "methods": {}
  },
  "userdoc": {
    "methods": {}
  }
}