{
  "contractName": "Save",
  "abi": [
    {
      "constant": true,
      "inputs": [
        {
          "internalType": "uint256",
          "name": "cdpID",
          "type": "uint256"
        },
        {
          "internalType": "uint256",
          "name": "ethToSwap",
          "type": "uint256"
        }
      ],
      "name": "getSave",
      "outputs": [
        {
          "internalType": "uint256",
          "name": "finalEthCol",
          "type": "uint256"
        },
        {
          "internalType": "uint256",
          "name": "finalDaiDebt",
          "type": "uint256"
        },
        {
          "internalType": "uint256",
          "name": "finalColToUSD",
          "type": "uint256"
        },
        {
          "internalType": "bool",
          "name": "canSave",
          "type": "bool"
        }
      ],
      "payable": false,
      "stateMutability": "view",
      "type": "function"
    },
    {
      "constant": true,
      "inputs": [],
      "name": "getAddressKyber",
      "outputs": [
        {
          "internalType": "address",
          "name": "kyber",
          "type": "address"
        }
      ],
      "payable": false,
      "stateMutability": "pure",
      "type": "function"
    },
    {
      "constant": true,
      "inputs": [],
      "name": "getUniswapMKRExchange",
      "outputs": [
        {
          "internalType": "address",
          "name": "ume",
          "type": "address"
        }
      ],
      "payable": false,
      "stateMutability": "pure",
      "type": "function"
    },
    {
      "constant": true,
      "inputs": [],
      "name": "getAddressETH",
      "outputs": [
        {
          "internalType": "address",
          "name": "eth",
          "type": "address"
        }
      ],
      "payable": false,
      "stateMutability": "pure",
      "type": "function"
    },
    {
      "constant": true,
      "inputs": [],
      "name": "getAddressAdmin",
      "outputs": [
        {
          "internalType": "address payable",
          "name": "admin",
          "type": "address"
        }
      ],
      "payable": false,
      "stateMutability": "pure",
      "type": "function"
    },
    {
      "constant": true,
      "inputs": [],
      "name": "getOracleAddress",
      "outputs": [
        {
          "internalType": "address",
          "name": "oracle",
          "type": "address"
        }
      ],
      "payable": false,
      "stateMutability": "pure",
      "type": "function"
    },
    {
      "constant": true,
      "inputs": [],
      "name": "getAddressDAI",
      "outputs": [
        {
          "internalType": "address",
          "name": "dai",
          "type": "address"
        }
      ],
      "payable": false,
      "stateMutability": "pure",
      "type": "function"
    },
    {
      "constant": true,
      "inputs": [],
      "name": "getAddressSplitSwap",
      "outputs": [
        {
          "internalType": "address payable",
          "name": "splitSwap",
          "type": "address"
        }
      ],
      "payable": false,
      "stateMutability": "pure",
      "type": "function"
    },
    {
      "constant": true,
      "inputs": [],
      "name": "getUniswapDAIExchange",
      "outputs": [
        {
          "internalType": "address",
          "name": "ude",
          "type": "address"
        }
      ],
      "payable": false,
      "stateMutability": "pure",
      "type": "function"
    },
    {
      "constant": true,
      "inputs": [
        {
          "internalType": "uint256",
          "name": "cdpID",
          "type": "uint256"
        },
        {
          "internalType": "uint256",
          "name": "daiToSwap",
          "type": "uint256"
        }
      ],
      "name": "getLeverage",
      "outputs": [
        {
          "internalType": "uint256",
          "name": "finalEthCol",
          "type": "uint256"
        },
        {
          "internalType": "uint256",
          "name": "finalDaiDebt",
          "type": "uint256"
        },
        {
          "internalType": "uint256",
          "name": "finalColToUSD",
          "type": "uint256"
        },
        {
          "internalType": "bool",
          "name": "canLeverage",
          "type": "bool"
        }
      ],
      "payable": false,
      "stateMutability": "view",
      "type": "function"
    },
    {
      "constant": true,
      "inputs": [
        {
          "internalType": "uint256",
          "name": "cdpID",
          "type": "uint256"
        }
      ],
      "name": "getMax",
      "outputs": [
        {
          "internalType": "uint256",
          "name": "maxColToFree",
          "type": "uint256"
        },
        {
          "internalType": "uint256",
          "name": "maxDaiToDraw",
          "type": "uint256"
        },
        {
          "internalType": "uint256",
          "name": "ethInUSD",
          "type": "uint256"
        }
      ],
      "payable": false,
      "stateMutability": "view",
      "type": "function"
    },
    {
      "constant": true,
      "inputs": [],
      "name": "getSaiTubAddress",
      "outputs": [
        {
          "internalType": "address",
          "name": "sai",
          "type": "address"
        }
      ],
      "payable": false,
      "stateMutability": "pure",
      "type": "function"
    },
    {
      "anonymous": false,
      "inputs": [
        {
          "indexed": false,
          "internalType": "uint256",
          "name": "what",
          "type": "uint256"
        },
        {
          "indexed": false,
          "internalType": "address",
          "name": "src",
          "type": "address"
        },
        {
          "indexed": false,
          "internalType": "uint256",
          "name": "srcAmt",
          "type": "uint256"
        },
        {
          "indexed": false,
          "internalType": "address",
          "name": "dest",
          "type": "address"
        },
        {
          "indexed": false,
          "internalType": "uint256",
          "name": "destAmt",
          "type": "uint256"
        },
        {
          "indexed": false,
          "internalType": "address",
          "name": "beneficiary",
          "type": "address"
        },
        {
          "indexed": false,
          "internalType": "uint256",
          "name": "minConversionRate",
          "type": "uint256"
        },
        {
          "indexed": false,
          "internalType": "address",
          "name": "affiliate",
          "type": "address"
        }
      ],
      "name": "LogTrade",
      "type": "event"
    },
    {
      "anonymous": false,
      "inputs": [
        {
          "indexed": false,
          "internalType": "uint256",
          "name": "cdpID",
          "type": "uint256"
        },
        {
          "indexed": false,
          "internalType": "uint256",
          "name": "srcETH",
          "type": "uint256"
        },
        {
          "indexed": false,
          "internalType": "uint256",
          "name": "destDAI",
          "type": "uint256"
        }
      ],
      "name": "LogSaveCDP",
      "type": "event"
    },
    {
      "anonymous": false,
      "inputs": [
        {
          "indexed": false,
          "internalType": "uint256",
          "name": "cdpID",
          "type": "uint256"
        },
        {
          "indexed": false,
          "internalType": "uint256",
          "name": "srcDAI",
          "type": "uint256"
        },
        {
          "indexed": false,
          "internalType": "uint256",
          "name": "destETH",
          "type": "uint256"
        }
      ],
      "name": "LogLeverageCDP",
      "type": "event"
    },
    {
      "anonymous": false,
      "inputs": [
        {
          "indexed": false,
          "internalType": "uint256",
          "name": "cdpNum",
          "type": "uint256"
        },
        {
          "indexed": false,
          "internalType": "uint256",
          "name": "amtETH",
          "type": "uint256"
        },
        {
          "indexed": false,
          "internalType": "uint256",
          "name": "amtPETH",
          "type": "uint256"
        },
        {
          "indexed": false,
          "internalType": "address",
          "name": "owner",
          "type": "address"
        }
      ],
      "name": "LogLock",
      "type": "event"
    },
    {
      "anonymous": false,
      "inputs": [
        {
          "indexed": false,
          "internalType": "uint256",
          "name": "cdpNum",
          "type": "uint256"
        },
        {
          "indexed": false,
          "internalType": "uint256",
          "name": "amtETH",
          "type": "uint256"
        },
        {
          "indexed": false,
          "internalType": "uint256",
          "name": "amtPETH",
          "type": "uint256"
        },
        {
          "indexed": false,
          "internalType": "address",
          "name": "owner",
          "type": "address"
        }
      ],
      "name": "LogFree",
      "type": "event"
    },
    {
      "anonymous": false,
      "inputs": [
        {
          "indexed": false,
          "internalType": "uint256",
          "name": "cdpNum",
          "type": "uint256"
        },
        {
          "indexed": false,
          "internalType": "uint256",
          "name": "amtDAI",
          "type": "uint256"
        },
        {
          "indexed": false,
          "internalType": "address",
          "name": "owner",
          "type": "address"
        }
      ],
      "name": "LogDraw",
      "type": "event"
    },
    {
      "anonymous": false,
      "inputs": [
        {
          "indexed": false,
          "internalType": "uint256",
          "name": "cdpNum",
          "type": "uint256"
        },
        {
          "indexed": false,
          "internalType": "uint256",
          "name": "daiAmt",
          "type": "uint256"
        },
        {
          "indexed": false,
          "internalType": "uint256",
          "name": "mkrFee",
          "type": "uint256"
        },
        {
          "indexed": false,
          "internalType": "uint256",
          "name": "daiFee",
          "type": "uint256"
        },
        {
          "indexed": false,
          "internalType": "address",
          "name": "owner",
          "type": "address"
        }
      ],
      "name": "LogWipe",
      "type": "event"
    },
    {
      "constant": false,
      "inputs": [
        {
          "internalType": "uint256",
          "name": "cdpID",
          "type": "uint256"
        },
        {
          "internalType": "uint256",
          "name": "colToSwap",
          "type": "uint256"
        },
        {
          "internalType": "uint256",
          "name": "splitAmt",
          "type": "uint256"
        },
        {
          "internalType": "uint256",
          "name": "slippageAmt",
          "type": "uint256"
        }
      ],
      "name": "save",
      "outputs": [],
      "payable": false,
      "stateMutability": "nonpayable",
      "type": "function"
    },
    {
      "constant": false,
      "inputs": [
        {
          "internalType": "uint256",
          "name": "cdpID",
          "type": "uint256"
        },
        {
          "internalType": "uint256",
          "name": "daiToSwap",
          "type": "uint256"
        },
        {
          "internalType": "uint256",
          "name": "splitAmt",
          "type": "uint256"
        },
        {
          "internalType": "uint256",
          "name": "slippageAmt",
          "type": "uint256"
        }
      ],
      "name": "leverage",
      "outputs": [],
      "payable": false,
      "stateMutability": "nonpayable",
      "type": "function"
    }
  ],
  "bytecode": "0x608060405234801561001057600080fd5b50612a50806100206000396000f3fe608060405234801561001057600080fd5b50600436106100ea5760003560e01c8063c865463c1161008c578063debe06bf11610066578063debe06bf146103f0578063e254ae5a1461043c578063e688f89d146104a1578063f1d9a150146104f1576100ea565b8063c865463c14610312578063d5a649db1461035c578063db5a5d99146103a6576100ea565b806394c4a124116100c857806394c4a124146101ea578063ab1be68614610234578063adbd80b01461027e578063b18b78dd146102c8576100ea565b80633bbef0e9146100ef5780636c47c7ed1461013b57806391b0b618146101a0575b600080fd5b6101396004803603608081101561010557600080fd5b810190808035906020019092919080359060200190929190803590602001909291908035906020019092919050505061053b565b005b6101716004803603604081101561015157600080fd5b8101908080359060200190929190803590602001909291905050506107a6565b604051808581526020018481526020018381526020018215151515815260200194505050505060405180910390f35b6101a86107f1565b604051808273ffffffffffffffffffffffffffffffffffffffff1673ffffffffffffffffffffffffffffffffffffffff16815260200191505060405180910390f35b6101f261080d565b604051808273ffffffffffffffffffffffffffffffffffffffff1673ffffffffffffffffffffffffffffffffffffffff16815260200191505060405180910390f35b61023c610829565b604051808273ffffffffffffffffffffffffffffffffffffffff1673ffffffffffffffffffffffffffffffffffffffff16815260200191505060405180910390f35b610286610845565b604051808273ffffffffffffffffffffffffffffffffffffffff1673ffffffffffffffffffffffffffffffffffffffff16815260200191505060405180910390f35b6102d0610861565b604051808273ffffffffffffffffffffffffffffffffffffffff1673ffffffffffffffffffffffffffffffffffffffff16815260200191505060405180910390f35b61031a61087d565b604051808273ffffffffffffffffffffffffffffffffffffffff1673ffffffffffffffffffffffffffffffffffffffff16815260200191505060405180910390f35b610364610899565b604051808273ffffffffffffffffffffffffffffffffffffffff1673ffffffffffffffffffffffffffffffffffffffff16815260200191505060405180910390f35b6103ae6108b5565b604051808273ffffffffffffffffffffffffffffffffffffffff1673ffffffffffffffffffffffffffffffffffffffff16815260200191505060405180910390f35b61043a6004803603608081101561040657600080fd5b81019080803590602001909291908035906020019092919080359060200190929190803590602001909291905050506108d1565b005b6104726004803603604081101561045257600080fd5b810190808035906020019092919080359060200190929190505050610ab6565b604051808581526020018481526020018381526020018215151515815260200194505050505060405180910390f35b6104cd600480360360208110156104b757600080fd5b8101908080359060200190929190505050610b01565b60405180848152602001838152602001828152602001935050505060405180910390f35b6104f9610bab565b604051808273ffffffffffffffffffffffffffffffffffffffff1673ffffffffffffffffffffffffffffffffffffffff16815260200191505060405180910390f35b60008460001b9050600080600061055184610bc7565b9250925092506000610564848484610db0565b905060008114156105dd576040517f08c379a00000000000000000000000000000000000000000000000000000000081526004018080602001828103825260118152602001807f4e6f2d646562742d746f2d626f72726f7700000000000000000000000000000081525060200191505060405180910390fd5b808810156105e9578790505b6105f38982610dfe565b6105fb61087d565b73ffffffffffffffffffffffffffffffffffffffff1663095ea7b361061e610899565b836040518363ffffffff1660e01b8152600401808373ffffffffffffffffffffffffffffffffffffffff1673ffffffffffffffffffffffffffffffffffffffff16815260200182815260200192505050600060405180830381600087803b15801561068857600080fd5b505af115801561069c573d6000803e3d6000fd5b5050505060006106aa610899565b73ffffffffffffffffffffffffffffffffffffffff16638aec35dc838a8a6040518463ffffffff1660e01b8152600401808481526020018381526020018281526020019350505050602060405180830381600087803b15801561070c57600080fd5b505af1158015610720573d6000803e3d6000fd5b505050506040513d602081101561073657600080fd5b810190808051906020019092919050505090506107538a82610f08565b7f2acb6b38e174890a255486d3417fcd6719c4a0f790cd59fbe74d130fb5a608c48a838360405180848152602001838152602001828152602001935050505060405180910390a150505050505050505050565b60008060008060008660001b905060008060006107c284610bc7565b9250925092506107d48383838c61148c565b809850819950829a50839b50505050505050505092959194509250565b600073818e6fecd516ecc3849daf6845e3ec868087b755905090565b6000732c4bd064b998838076fa341a83d007fc2fa50957905090565b600073eeeeeeeeeeeeeeeeeeeeeeeeeeeeeeeeeeeeeeee905090565b6000737284a8451d9a0e7dc62b3a71c0593ea2ec5c5638905090565b600073729d19f657bd0614b4985cf1d82531c67569197b905090565b60007389d24a6b4ccb1b6faa2625fe562bdd9a23260359905090565b6000735d05ea343c7a13cee09b14e56fcbe985c25521b7905090565b60007309cabec1ead1c0ba254b09efb3ee13841712be14905090565b60008460001b905060008060006108e784610bc7565b92509250925060006108fa848484611659565b90506000811415610973576040517f08c379a00000000000000000000000000000000000000000000000000000000081526004018080602001828103825260148152602001807f6e6f2d636f6c6c617472616c2d746f2d6672656500000000000000000000000081525060200191505060405180910390fd5b8088101561097f578790505b61098989826116ba565b60003073ffffffffffffffffffffffffffffffffffffffff163190508181106109b257816109b4565b805b905060006109c0610899565b73ffffffffffffffffffffffffffffffffffffffff166323864c52838b8b6040518463ffffffff1660e01b815260040180838152602001828152602001925050506020604051808303818588803b158015610a1a57600080fd5b505af1158015610a2e573d6000803e3d6000fd5b50505050506040513d6020811015610a4557600080fd5b81019080805190602001909291905050509050610a628b82611ba8565b7f6810ff3b6051a65df9db2074fbbc6c6ca9460b80e03a0b96f559bb2d2629a8698b838360405180848152602001838152602001828152602001935050505060405180910390a15050505050505050505050565b60008060008060008660001b90506000806000610ad284610bc7565b925092509250610ae48383838c6123ea565b809850819950829a50839b50505050505050505092959194509250565b6000806000808460001b90506000806000610b1b84610bc7565b9250925092506000610b37610b3085846125ae565b600a6125ee565b90506000610b57610b50856714d1120d7b1600006125ae565b600a612671565b9050610b6c610b6683836125ee565b846126f4565b98506000610b8c610b85846714d1120d7b1600006126f4565b600a6125ee565b9050610b9881866125ee565b9850839750505050505050509193909250565b600073448a5065aebb8e423f0896e6c5d525c040f59af3905090565b600080600080610bd5610bab565b9050610bdf610861565b73ffffffffffffffffffffffffffffffffffffffff166357de26a46040518163ffffffff1660e01b815260040160206040518083038186803b158015610c2457600080fd5b505afa158015610c38573d6000803e3d6000fd5b505050506040513d6020811015610c4e57600080fd5b810190808051906020019092919050505060001c91506000808273ffffffffffffffffffffffffffffffffffffffff1663fdac0025886040518263ffffffff1660e01b81526004018082815260200191505060806040518083038186803b158015610cb857600080fd5b505afa158015610ccc573d6000803e3d6000fd5b505050506040513d6080811015610ce257600080fd5b8101908080519060200190929190805190602001909291908051906020019092919080519060200190929190505050509250925050610da1828473ffffffffffffffffffffffffffffffffffffffff16637ec9c3b86040518163ffffffff1660e01b815260040160206040518083038186803b158015610d6157600080fd5b505afa158015610d75573d6000803e3d6000fd5b505050506040513d6020811015610d8b57600080fd5b810190808051906020019092919050505061272c565b95508094505050509193909250565b600080610dc7610dc086856125ae565b600a6125ee565b90506000610de7610de0836714d1120d7b1600006126f4565b600a6125ee565b9050610df381866125ee565b925050509392505050565b60008260001b90506000821115610f03576000610e19610bab565b90508073ffffffffffffffffffffffffffffffffffffffff1663440f19ba83856040518363ffffffff1660e01b81526004018083815260200182815260200192505050600060405180830381600087803b158015610e7657600080fd5b505af1158015610e8a573d6000803e3d6000fd5b505050507f2552409de7c93ad237013bdc31f6351559f2d50c8b43d20b83fc75639a55e431848430604051808481526020018381526020018273ffffffffffffffffffffffffffffffffffffffff1673ffffffffffffffffffffffffffffffffffffffff168152602001935050505060405180910390a1505b505050565b60008111156114885760008260001b90506000610f23610bab565b9050600081905060008173ffffffffffffffffffffffffffffffffffffffff16637bd2bea76040518163ffffffff1660e01b815260040160206040518083038186803b158015610f7257600080fd5b505afa158015610f86573d6000803e3d6000fd5b505050506040513d6020811015610f9c57600080fd5b8101908080519060200190929190505050905060008273ffffffffffffffffffffffffffffffffffffffff16630f8a771e6040518163ffffffff1660e01b815260040160206040518083038186803b158015610ff757600080fd5b505afa15801561100b573d6000803e3d6000fd5b505050506040513d602081101561102157600080fd5b8101908080519060200190929190505050905060008373ffffffffffffffffffffffffffffffffffffffff1663fdac0025876040518263ffffffff1660e01b81526004018082815260200191505060806040518083038186803b15801561108757600080fd5b505afa15801561109b573d6000803e3d6000fd5b505050506040513d60808110156110b157600080fd5b810190808051906020019092919080519060200190929190805190602001909291908051906020019092919050505050505090503073ffffffffffffffffffffffffffffffffffffffff168173ffffffffffffffffffffffffffffffffffffffff1614611186576040517f08c379a000000000000000000000000000000000000000000000000000000000815260040180806020018281038252600d8152602001807f6375702d6e6f742d6f776e65640000000000000000000000000000000000000081525060200191505060405180910390fd5b8273ffffffffffffffffffffffffffffffffffffffff1663d0e30db0886040518263ffffffff1660e01b81526004016000604051808303818588803b1580156111ce57600080fd5b505af11580156111e2573d6000803e3d6000fd5b50505050506000611273888673ffffffffffffffffffffffffffffffffffffffff16637ec9c3b86040518163ffffffff1660e01b815260040160206040518083038186803b15801561123357600080fd5b505afa158015611247573d6000803e3d6000fd5b505050506040513d602081101561125d57600080fd5b8101908080519060200190929190505050612774565b905087611300828773ffffffffffffffffffffffffffffffffffffffff16637ec9c3b86040518163ffffffff1660e01b815260040160206040518083038186803b1580156112c057600080fd5b505afa1580156112d4573d6000803e3d6000fd5b505050506040513d60208110156112ea57600080fd5b810190808051906020019092919050505061272c565b111561130f5760018103611311565b805b905061131d84876127b0565b8473ffffffffffffffffffffffffffffffffffffffff1663049878f3826040518263ffffffff1660e01b815260040180828152602001915050600060405180830381600087803b15801561137057600080fd5b505af1158015611384573d6000803e3d6000fd5b5050505061139283876127b0565b8473ffffffffffffffffffffffffffffffffffffffff1663b3b77a5188836040518363ffffffff1660e01b81526004018083815260200182815260200192505050600060405180830381600087803b1580156113ed57600080fd5b505af1158015611401573d6000803e3d6000fd5b505050507fa66947e0e444664290dad9ea8bdc946a0662a93c04cc0db7dc993a19319d39ed89898330604051808581526020018481526020018381526020018273ffffffffffffffffffffffffffffffffffffffff1673ffffffffffffffffffffffffffffffffffffffff16815260200194505050505060405180910390a1505050505050505b5050565b60008060008060006114a86114a18a896125ae565b600a6125ee565b905060006114c86114c18a6714d1120d7b1600006125ae565b600a612671565b905060006114df6114d984846125ee565b8a6126f4565b9050808810156114ed578790505b60006114f7610899565b73ffffffffffffffffffffffffffffffffffffffff166371396f6d61151a610829565b61152261087d565b856040518463ffffffff1660e01b8152600401808473ffffffffffffffffffffffffffffffffffffffff1673ffffffffffffffffffffffffffffffffffffffff1681526020018373ffffffffffffffffffffffffffffffffffffffff1673ffffffffffffffffffffffffffffffffffffffff1681526020018281526020019350505050604080518083038186803b1580156115bc57600080fd5b505afa1580156115d0573d6000803e3d6000fd5b505050506040513d60408110156115e657600080fd5b8101908080519060200190929190805190602001909291905050509150508a811015611639576116168c836125ee565b97506116228b826125ee565b965061162e888b6125ae565b95506001945061164a565b600097506000965060009550600094505b50505050945094509450949050565b60008061167061166986856125ae565b600a6125ee565b90506000611690611689866714d1120d7b1600006125ae565b600a612671565b90506116af6116a86116a284846125ee565b866126f4565b600a6125ee565b925050509392505050565b6000811115611ba45760008260001b905060006116d5610bab565b9050600081905060008173ffffffffffffffffffffffffffffffffffffffff16630f8a771e6040518163ffffffff1660e01b815260040160206040518083038186803b15801561172457600080fd5b505afa158015611738573d6000803e3d6000fd5b505050506040513d602081101561174e57600080fd5b8101908080519060200190929190505050905060008273ffffffffffffffffffffffffffffffffffffffff16637bd2bea76040518163ffffffff1660e01b815260040160206040518083038186803b1580156117a957600080fd5b505afa1580156117bd573d6000803e3d6000fd5b505050506040513d60208110156117d357600080fd5b810190808051906020019092919050505090506000611872878573ffffffffffffffffffffffffffffffffffffffff16637ec9c3b86040518163ffffffff1660e01b815260040160206040518083038186803b15801561183257600080fd5b505afa158015611846573d6000803e3d6000fd5b505050506040513d602081101561185c57600080fd5b8101908080519060200190929190505050612774565b9050866118ff828673ffffffffffffffffffffffffffffffffffffffff16637ec9c3b86040518163ffffffff1660e01b815260040160206040518083038186803b1580156118bf57600080fd5b505afa1580156118d3573d6000803e3d6000fd5b505050506040513d60208110156118e957600080fd5b810190808051906020019092919050505061272c565b111561190e5760018103611910565b805b90508373ffffffffffffffffffffffffffffffffffffffff1663a5cd184e87836040518363ffffffff1660e01b81526004018083815260200182815260200192505050600060405180830381600087803b15801561196d57600080fd5b505af1158015611981573d6000803e3d6000fd5b5050505061198f83866127b0565b8373ffffffffffffffffffffffffffffffffffffffff16637f8661a1826040518263ffffffff1660e01b815260040180828152602001915050600060405180830381600087803b1580156119e257600080fd5b505af11580156119f6573d6000803e3d6000fd5b5050505060008273ffffffffffffffffffffffffffffffffffffffff166370a08231306040518263ffffffff1660e01b8152600401808273ffffffffffffffffffffffffffffffffffffffff1673ffffffffffffffffffffffffffffffffffffffff16815260200191505060206040518083038186803b158015611a7957600080fd5b505afa158015611a8d573d6000803e3d6000fd5b505050506040513d6020811015611aa357600080fd5b810190808051906020019092919050505090508273ffffffffffffffffffffffffffffffffffffffff16632e1a7d4d826040518263ffffffff1660e01b815260040180828152602001915050600060405180830381600087803b158015611b0957600080fd5b505af1158015611b1d573d6000803e3d6000fd5b505050507fbc364e2c948b1a58aa818f1d663cbf625acb9d3e827d8ba7661ee805ae63506089828430604051808581526020018481526020018381526020018273ffffffffffffffffffffffffffffffffffffffff1673ffffffffffffffffffffffffffffffffffffffff16815260200194505050505060405180910390a1505050505050505b5050565b60008111156123e6576000611bbb610bab565b90506000611bc76108b5565b90506000611bd361080d565b905060008373ffffffffffffffffffffffffffffffffffffffff16639166cba46040518163ffffffff1660e01b815260040160206040518083038186803b158015611c1d57600080fd5b505afa158015611c31573d6000803e3d6000fd5b505050506040513d6020811015611c4757600080fd5b8101908080519060200190929190505050905060008473ffffffffffffffffffffffffffffffffffffffff166312d43a516040518163ffffffff1660e01b815260040160206040518083038186803b158015611ca257600080fd5b505afa158015611cb6573d6000803e3d6000fd5b505050506040513d6020811015611ccc57600080fd5b8101908080519060200190929190505050905060008760001b905060008673ffffffffffffffffffffffffffffffffffffffff1663fdac0025836040518263ffffffff1660e01b81526004018082815260200191505060806040518083038186803b158015611d3a57600080fd5b505afa158015611d4e573d6000803e3d6000fd5b505050506040513d6080811015611d6457600080fd5b810190808051906020019092919080519060200190929190805190602001909291908051906020019092919050505050505090503073ffffffffffffffffffffffffffffffffffffffff168173ffffffffffffffffffffffffffffffffffffffff1614611e39576040517f08c379a000000000000000000000000000000000000000000000000000000000815260040180806020018281038252600d8152602001807f6375702d6e6f742d6f776e65640000000000000000000000000000000000000081525060200191505060405180910390fd5b611e4a84611e45610bab565b6127b0565b611e5b83611e56610bab565b6127b0565b611e6c84611e676108b5565b6127b0565b6000808873ffffffffffffffffffffffffffffffffffffffff1663ace237f56040518163ffffffff1660e01b815260040160206040518083038186803b158015611eb557600080fd5b505afa158015611ec9573d6000803e3d6000fd5b505050506040513d6020811015611edf57600080fd5b810190808051906020019092919050505073ffffffffffffffffffffffffffffffffffffffff166359e02dd76040518163ffffffff1660e01b81526004016040805180830381600087803b158015611f3657600080fd5b505af1158015611f4a573d6000803e3d6000fd5b505050506040513d6040811015611f6057600080fd5b8101908080519060200190929190805190602001909291905050509150915060006120ba6120b18c6120ac8d73ffffffffffffffffffffffffffffffffffffffff16636f78ee0d8a6040518263ffffffff1660e01b815260040180828152602001915050602060405180830381600087803b158015611fde57600080fd5b505af1158015611ff2573d6000803e3d6000fd5b505050506040513d602081101561200857600080fd5b81019080805190602001909291905050508e73ffffffffffffffffffffffffffffffffffffffff1663f7c8d6348b6040518263ffffffff1660e01b815260040180828152602001915050602060405180830381600087803b15801561206c57600080fd5b505af1158015612080573d6000803e3d6000fd5b505050506040513d602081101561209657600080fd5b8101908080519060200190929190505050612774565b61272c565b8460001c6126f4565b905060008973ffffffffffffffffffffffffffffffffffffffff16632640f62c8a73ffffffffffffffffffffffffffffffffffffffff166359e94862856040518263ffffffff1660e01b81526004018082815260200191505060206040518083038186803b15801561212b57600080fd5b505afa15801561213f573d6000803e3d6000fd5b505050506040513d602081101561215557600080fd5b81019080805190602001909291905050506040518263ffffffff1660e01b81526004018082815260200191505060206040518083038186803b15801561219a57600080fd5b505afa1580156121ae573d6000803e3d6000fd5b505050506040513d60208110156121c457600080fd5b8101908080519060200190929190505050905060006121e38d836125ee565b90508380156121f557506000801b8514155b156122e3578a73ffffffffffffffffffffffffffffffffffffffff1663b040d5458484683627e8f712373c00006371316a018d6040518663ffffffff1660e01b8152600401808681526020018581526020018481526020018381526020018273ffffffffffffffffffffffffffffffffffffffff1673ffffffffffffffffffffffffffffffffffffffff16815260200195505050505050602060405180830381600087803b1580156122a657600080fd5b505af11580156122ba573d6000803e3d6000fd5b505050506040513d60208110156122d057600080fd5b8101908080519060200190929190505050505b8b73ffffffffffffffffffffffffffffffffffffffff166373b3810188836040518363ffffffff1660e01b81526004018083815260200182815260200192505050600060405180830381600087803b15801561233e57600080fd5b505af1158015612352573d6000803e3d6000fd5b505050507fc61fae64789cde417503f7bd67082d71c8379712017e446877dd1c26b1bf4c9c8e8e858530604051808681526020018581526020018481526020018381526020018273ffffffffffffffffffffffffffffffffffffffff1673ffffffffffffffffffffffffffffffffffffffff1681526020019550505050505060405180910390a15050505050505050505050505b5050565b60008060008060006124066123ff8a896125ae565b600a6125ee565b9050600061242661241f836714d1120d7b1600006126f4565b600a6125ee565b90506000612434828b6125ee565b905080881015612442578790505b600061244c610899565b73ffffffffffffffffffffffffffffffffffffffff166371396f6d61246f61087d565b612477610829565b856040518463ffffffff1660e01b8152600401808473ffffffffffffffffffffffffffffffffffffffff1673ffffffffffffffffffffffffffffffffffffffff1681526020018373ffffffffffffffffffffffffffffffffffffffff1673ffffffffffffffffffffffffffffffffffffffff1681526020018281526020019350505050604080518083038186803b15801561251157600080fd5b505afa158015612525573d6000803e3d6000fd5b505050506040513d604081101561253b57600080fd5b81019080805190602001909291908051906020019092919050505091505060008c1461258e5761256b8c82612671565b97506125778b83612671565b9650612583888b6125ae565b95506001945061259f565b600097506000965060009550600094505b50505050945094509450949050565b6000670de0b6b3a76400006125de6125c68585612986565b6002670de0b6b3a7640000816125d857fe5b04612671565b816125e557fe5b04905092915050565b600082828403915081111561266b576040517f08c379a00000000000000000000000000000000000000000000000000000000081526004018080602001828103825260158152602001807f64732d6d6174682d7375622d756e646572666c6f77000000000000000000000081525060200191505060405180910390fd5b92915050565b60008282840191508110156126ee576040517f08c379a000000000000000000000000000000000000000000000000000000000815260040180806020018281038252600d8152602001807f6d6174682d6e6f742d736166650000000000000000000000000000000000000081525060200191505060405180910390fd5b92915050565b60008161271c61270c85670de0b6b3a7640000612986565b6002858161271657fe5b04612671565b8161272357fe5b04905092915050565b60006b033b2e3c9fd0803ce80000006127646127488585612986565b60026b033b2e3c9fd0803ce80000008161275e57fe5b04612671565b8161276b57fe5b04905092915050565b6000816127a0612790856b033b2e3c9fd0803ce8000000612986565b6002858161279a57fe5b04612671565b816127a757fe5b04905092915050565b7fffffffffffffffffffffffffffffffffffffffffffffffffffffffffffffffff8273ffffffffffffffffffffffffffffffffffffffff1663dd62ed3e30846040518363ffffffff1660e01b8152600401808373ffffffffffffffffffffffffffffffffffffffff1673ffffffffffffffffffffffffffffffffffffffff1681526020018273ffffffffffffffffffffffffffffffffffffffff1673ffffffffffffffffffffffffffffffffffffffff1681526020019250505060206040518083038186803b15801561288257600080fd5b505afa158015612896573d6000803e3d6000fd5b505050506040513d60208110156128ac57600080fd5b810190808051906020019092919050505014612982578173ffffffffffffffffffffffffffffffffffffffff1663095ea7b3827fffffffffffffffffffffffffffffffffffffffffffffffffffffffffffffffff6040518363ffffffff1660e01b8152600401808373ffffffffffffffffffffffffffffffffffffffff1673ffffffffffffffffffffffffffffffffffffffff16815260200182815260200192505050600060405180830381600087803b15801561296957600080fd5b505af115801561297d573d6000803e3d6000fd5b505050505b5050565b6000808214806129a357508282838502925082816129a057fe5b04145b612a15576040517f08c379a000000000000000000000000000000000000000000000000000000000815260040180806020018281038252600d8152602001807f6d6174682d6e6f742d736166650000000000000000000000000000000000000081525060200191505060405180910390fd5b9291505056fea265627a7a72315820ca25e75fefb5f359827793e24ded0b3e7d42ffa0ba389290f51a941945a6619364736f6c634300050b0032",
  "source": "pragma solidity ^0.5.0;\n\ninterface TubInterface {\n    function open() external returns (bytes32);\n    function join(uint) external;\n    function exit(uint) external;\n    function lock(bytes32, uint) external;\n    function free(bytes32, uint) external;\n    function draw(bytes32, uint) external;\n    function wipe(bytes32, uint) external;\n    function give(bytes32, address) external;\n    function shut(bytes32) external;\n    function cups(bytes32) external view returns (address, uint, uint, uint);\n    function gem() external view returns (TokenInterface);\n    function gov() external view returns (TokenInterface);\n    function skr() external view returns (TokenInterface);\n    function sai() external view returns (TokenInterface);\n    function ink(bytes32) external view returns (uint);\n    function tab(bytes32) external returns (uint);\n    function rap(bytes32) external returns (uint);\n    function per() external view returns (uint);\n    function pep() external view returns (PepInterface);\n}\n\ninterface PepInterface {\n    function peek() external returns (bytes32, bool);\n}\n\n\ninterface oracleInterface {\n    function read() external view returns (bytes32);\n}\n\ninterface UniswapExchange {\n    function getEthToTokenOutputPrice(uint256 tokensBought) external view returns (uint256 ethSold);\n    function getTokenToEthOutputPrice(uint256 ethBought) external view returns (uint256 tokensSold);\n    function tokenToTokenSwapOutput(\n        uint256 tokensBought,\n        uint256 maxTokensSold,\n        uint256 maxEthSold,\n        uint256 deadline,\n        address tokenAddr\n        ) external returns (uint256  tokensSold);\n}\n\n\ninterface TokenInterface {\n    function allowance(address, address) external view returns (uint);\n    function balanceOf(address) external view returns (uint);\n    function approve(address, uint) external;\n    function transfer(address, uint) external returns (bool);\n    function transferFrom(address, address, uint) external returns (bool);\n    function deposit() external payable;\n    function withdraw(uint) external;\n}\n\ninterface KyberInterface {\n    function trade(\n        address src,\n        uint srcAmount,\n        address dest,\n        address destAddress,\n        uint maxDestAmount,\n        uint minConversionRate,\n        address walletId\n        ) external payable returns (uint);\n\n    function getExpectedRate(\n        address src,\n        address dest,\n        uint srcQty\n        ) external view returns (uint, uint);\n}\n\ninterface SplitSwapInterface {\n    function getBest(address src, address dest, uint srcAmt) external view returns (uint bestExchange, uint destAmt);\n    function ethToDaiSwap(uint splitAmt, uint slippageAmt) external payable returns (uint destAmt);\n    function daiToEthSwap(uint srcAmt, uint splitAmt, uint slippageAmt) external returns (uint destAmt);\n}\n\n\ncontract DSMath {\n\n    function add(uint x, uint y) internal pure returns (uint z) {\n        require((z = x + y) >= x, \"math-not-safe\");\n    }\n\n    function sub(uint x, uint y) internal pure returns (uint z) {\n        require((z = x - y) <= x, \"ds-math-sub-underflow\");\n    }\n\n    function mul(uint x, uint y) internal pure returns (uint z) {\n        require(y == 0 || (z = x * y) / y == x, \"math-not-safe\");\n    }\n\n    uint constant WAD = 10 ** 18;\n    uint constant RAY = 10 ** 27;\n\n    function rmul(uint x, uint y) internal pure returns (uint z) {\n        z = add(mul(x, y), RAY / 2) / RAY;\n    }\n\n    function rdiv(uint x, uint y) internal pure returns (uint z) {\n        z = add(mul(x, RAY), y / 2) / y;\n    }\n\n    function wmul(uint x, uint y) internal pure returns (uint z) {\n        z = add(mul(x, y), WAD / 2) / WAD;\n    }\n\n    function wdiv(uint x, uint y) internal pure returns (uint z) {\n        z = add(mul(x, WAD), y / 2) / y;\n    }\n\n}\n\n\ncontract Helpers is DSMath {\n\n    /**\n     * @dev get MakerDAO CDP engine\n     */\n    function getSaiTubAddress() public pure returns (address sai) {\n        sai = 0x448a5065aeBB8E423F0896E6c5D525C040f59af3;\n    }\n\n    /**\n     * @dev get MakerDAO Oracle for ETH price\n     */\n    function getOracleAddress() public pure returns (address oracle) {\n        oracle = 0x729D19f657BD0614b4985Cf1D82531c67569197B;\n    }\n\n    /**\n     * @dev get uniswap MKR exchange\n     */\n    function getUniswapMKRExchange() public pure returns (address ume) {\n        ume = 0x2C4Bd064b998838076fa341A83d007FC2FA50957;\n    }\n\n    /**\n     * @dev get uniswap DAI exchange\n     */\n    function getUniswapDAIExchange() public pure returns (address ude) {\n        ude = 0x09cabEC1eAd1c0Ba254B09efb3EE13841712bE14;\n    }\n\n    /**\n     * @dev get ethereum address for trade\n     */\n    function getAddressETH() public pure returns (address eth) {\n        eth = 0xEeeeeEeeeEeEeeEeEeEeeEEEeeeeEeeeeeeeEEeE;\n    }\n\n    /**\n     * @dev get dai address for trade\n     */\n    function getAddressDAI() public pure returns (address dai) {\n        dai = 0x89d24A6b4CcB1B6fAA2625fE562bDD9a23260359;\n    }\n\n    /**\n     * @dev get kyber proxy address\n     */\n    function getAddressKyber() public pure returns (address kyber) {\n        kyber = 0x818E6FECD516Ecc3849DAf6845e3EC868087B755;\n    }\n\n    /**\n     * @dev get admin address\n     */\n    function getAddressSplitSwap() public pure returns (address payable splitSwap) {\n        splitSwap = 0x5D05EA343C7a13cee09b14e56FCBe985c25521b7;\n    }\n\n    /**\n     * @dev get admin address\n     */\n    function getAddressAdmin() public pure returns (address payable admin) {\n        admin = 0x7284a8451d9a0e7Dc62B3a71C0593eA2eC5c5638;\n    }\n\n    function getCDPStats(bytes32 cup) internal view returns (uint ethCol, uint daiDebt, uint usdPerEth) {\n        TubInterface tub = TubInterface(getSaiTubAddress());\n        usdPerEth = uint(oracleInterface(getOracleAddress()).read());\n        (, uint pethCol, uint debt,) = tub.cups(cup);\n        ethCol = rmul(pethCol, tub.per()); // get ETH col from PETH col\n        daiDebt = debt;\n    }\n\n}\n\n\ncontract MakerHelpers is Helpers {\n\n    event LogLock(uint cdpNum, uint amtETH, uint amtPETH, address owner);\n    event LogFree(uint cdpNum, uint amtETH, uint amtPETH, address owner);\n    event LogDraw(uint cdpNum, uint amtDAI, address owner);\n    event LogWipe(uint cdpNum, uint daiAmt, uint mkrFee, uint daiFee, address owner);\n\n    function setAllowance(TokenInterface _token, address _spender) internal {\n        if (_token.allowance(address(this), _spender) != uint(-1)) {\n            _token.approve(_spender, uint(-1));\n        }\n    }\n\n    function lock(uint cdpNum, uint ethAmt) internal {\n        if (ethAmt > 0) {\n            bytes32 cup = bytes32(cdpNum);\n            address tubAddr = getSaiTubAddress();\n\n            TubInterface tub = TubInterface(tubAddr);\n            TokenInterface weth = tub.gem();\n            TokenInterface peth = tub.skr();\n\n            (address lad,,,) = tub.cups(cup);\n            require(lad == address(this), \"cup-not-owned\");\n\n            weth.deposit.value(ethAmt)();\n\n            uint ink = rdiv(ethAmt, tub.per());\n            ink = rmul(ink, tub.per()) <= ethAmt ? ink : ink - 1;\n\n            setAllowance(weth, tubAddr);\n            tub.join(ink);\n\n            setAllowance(peth, tubAddr);\n            tub.lock(cup, ink);\n\n            emit LogLock(\n                cdpNum,\n                ethAmt,\n                ink,\n                address(this)\n            );\n        }\n    }\n\n    function free(uint cdpNum, uint jam) internal {\n        if (jam > 0) {\n            bytes32 cup = bytes32(cdpNum);\n            address tubAddr = getSaiTubAddress();\n\n            TubInterface tub = TubInterface(tubAddr);\n            TokenInterface peth = tub.skr();\n            TokenInterface weth = tub.gem();\n\n            uint ink = rdiv(jam, tub.per());\n            ink = rmul(ink, tub.per()) <= jam ? ink : ink - 1;\n            tub.free(cup, ink);\n\n            setAllowance(peth, tubAddr);\n\n            tub.exit(ink);\n            uint freeJam = weth.balanceOf(address(this)); // withdraw possible previous stuck WETH as well\n            weth.withdraw(freeJam);\n\n            emit LogFree(\n                cdpNum,\n                freeJam,\n                ink,\n                address(this)\n            );\n        }\n    }\n\n    function draw(uint cdpNum, uint _wad) internal {\n        bytes32 cup = bytes32(cdpNum);\n        if (_wad > 0) {\n            TubInterface tub = TubInterface(getSaiTubAddress());\n\n            tub.draw(cup, _wad);\n\n            emit LogDraw(cdpNum, _wad, address(this));\n        }\n    }\n\n    function wipe(uint cdpNum, uint _wad) internal {\n        if (_wad > 0) {\n            TubInterface tub = TubInterface(getSaiTubAddress());\n            UniswapExchange daiEx = UniswapExchange(getUniswapDAIExchange());\n            UniswapExchange mkrEx = UniswapExchange(getUniswapMKRExchange());\n            TokenInterface dai = tub.sai();\n            TokenInterface mkr = tub.gov();\n\n            bytes32 cup = bytes32(cdpNum);\n\n            (address lad,,,) = tub.cups(cup);\n            require(lad == address(this), \"cup-not-owned\");\n\n            setAllowance(dai, getSaiTubAddress());\n            setAllowance(mkr, getSaiTubAddress());\n            setAllowance(dai, getUniswapDAIExchange());\n\n            (bytes32 val, bool ok) = tub.pep().peek();\n\n            // tub.rap(cup) = stability fee in $, tub.tab(cup) = total DAI debt\n            uint mkrFee = wdiv(rmul(_wad, rdiv(tub.rap(cup), tub.tab(cup))), uint(val));\n            // uint mkrFee = wdiv(rmul(_wad, rdiv(tub.rap(cup), add(tub.rap(cup), tub.tab(cup)))), uint(val));\n\n            uint daiFeeAmt = daiEx.getTokenToEthOutputPrice(mkrEx.getEthToTokenOutputPrice(mkrFee));\n            uint daiAmt = sub(_wad, daiFeeAmt);\n\n            if (ok && val != 0) {\n                daiEx.tokenToTokenSwapOutput(\n                    mkrFee,\n                    daiFeeAmt,\n                    uint(999000000000000000000),\n                    uint(1899063809), // 6th March 2030 GMT // no logic\n                    address(mkr)\n                );\n            }\n\n            tub.wipe(cup, daiAmt);\n\n            emit LogWipe(\n                cdpNum,\n                _wad,\n                mkrFee,\n                daiFeeAmt,\n                address(this)\n            );\n\n        }\n    }\n\n}\n\n\ncontract GetDetails is MakerHelpers {\n\n    function getMax(uint cdpID) public view returns (uint maxColToFree, uint maxDaiToDraw, uint ethInUSD) {\n        bytes32 cup = bytes32(cdpID);\n        (uint ethCol, uint daiDebt, uint usdPerEth) = getCDPStats(cup);\n        uint colToUSD = sub(wmul(ethCol, usdPerEth), 10);\n        uint minColNeeded = add(wmul(daiDebt, 1500000000000000000), 10);\n        maxColToFree = wdiv(sub(colToUSD, minColNeeded), usdPerEth);\n        uint maxDebtLimit = sub(wdiv(colToUSD, 1500000000000000000), 10);\n        maxDaiToDraw = sub(maxDebtLimit, daiDebt);\n        ethInUSD = usdPerEth;\n    }\n\n    function getSave(uint cdpID, uint ethToSwap) public view returns (uint finalEthCol, uint finalDaiDebt, uint finalColToUSD, bool canSave) {\n        bytes32 cup = bytes32(cdpID);\n        (uint ethCol, uint daiDebt, uint usdPerEth) = getCDPStats(cup);\n        (finalEthCol, finalDaiDebt, finalColToUSD, canSave) = checkSave(\n            ethCol,\n            daiDebt,\n            usdPerEth,\n            ethToSwap\n        );\n    }\n\n    function getLeverage(\n        uint cdpID,\n        uint daiToSwap\n    ) public view returns (\n        uint finalEthCol,\n        uint finalDaiDebt,\n        uint finalColToUSD,\n        bool canLeverage\n    )\n    {\n        bytes32 cup = bytes32(cdpID);\n        (uint ethCol, uint daiDebt, uint usdPerEth) = getCDPStats(cup);\n        (finalEthCol, finalDaiDebt, finalColToUSD, canLeverage) = checkLeverage(\n            ethCol,\n            daiDebt,\n            usdPerEth,\n            daiToSwap\n        );\n    }\n\n    function checkSave(\n        uint ethCol,\n        uint daiDebt,\n        uint usdPerEth,\n        uint ethToSwap\n    ) internal view returns\n    (\n        uint finalEthCol,\n        uint finalDaiDebt,\n        uint finalColToUSD,\n        bool canSave\n    )\n    {\n        uint colToUSD = sub(wmul(ethCol, usdPerEth), 10);\n        uint minColNeeded = add(wmul(daiDebt, 1500000000000000000), 10);\n        uint colToFree = wdiv(sub(colToUSD, minColNeeded), usdPerEth);\n        if (ethToSwap < colToFree) {\n            colToFree = ethToSwap;\n        }\n        (, uint expectedDAI) = SplitSwapInterface(getAddressSplitSwap()).getBest(getAddressETH(), getAddressDAI(), colToFree);\n        if (expectedDAI < daiDebt) {\n            finalEthCol = sub(ethCol, colToFree);\n            finalDaiDebt = sub(daiDebt, expectedDAI);\n            finalColToUSD = wmul(finalEthCol, usdPerEth);\n            canSave = true;\n        } else {\n            finalEthCol = 0;\n            finalDaiDebt = 0;\n            finalColToUSD = 0;\n            canSave = false;\n        }\n    }\n\n    function checkLeverage(\n        uint ethCol,\n        uint daiDebt,\n        uint usdPerEth,\n        uint daiToSwap\n    ) internal view returns\n    (\n        uint finalEthCol,\n        uint finalDaiDebt,\n        uint finalColToUSD,\n        bool canLeverage\n    )\n    {\n        uint colToUSD = sub(wmul(ethCol, usdPerEth), 10);\n        uint maxDebtLimit = sub(wdiv(colToUSD, 1500000000000000000), 10);\n        uint debtToBorrow = sub(maxDebtLimit, daiDebt);\n        if (daiToSwap < debtToBorrow) {\n            debtToBorrow = daiToSwap;\n        }\n        (, uint expectedETH) = SplitSwapInterface(getAddressSplitSwap()).getBest(getAddressDAI(), getAddressETH(), debtToBorrow);\n        if (ethCol != 0) {\n            finalEthCol = add(ethCol, expectedETH);\n            finalDaiDebt = add(daiDebt, debtToBorrow);\n            finalColToUSD = wmul(finalEthCol, usdPerEth);\n            canLeverage = true;\n        } else {\n            finalEthCol = 0;\n            finalDaiDebt = 0;\n            finalColToUSD = 0;\n            canLeverage = false;\n        }\n    }\n\n}\n\n\ncontract Save is GetDetails {\n\n    /**\n     * @param what 2 for SAVE & 3 for LEVERAGE\n     */\n    event LogTrade(\n        uint what, // 0 for BUY & 1 for SELL\n        address src,\n        uint srcAmt,\n        address dest,\n        uint destAmt,\n        address beneficiary,\n        uint minConversionRate,\n        address affiliate\n    );\n\n    event LogSaveCDP(\n        uint cdpID,\n        uint srcETH,\n        uint destDAI\n    );\n\n    event LogLeverageCDP(\n        uint cdpID,\n        uint srcDAI,\n        uint destETH\n    );\n\n\n    function save(\n        uint cdpID,\n        uint colToSwap,\n        uint splitAmt,\n        uint slippageAmt\n    ) public\n    {\n        bytes32 cup = bytes32(cdpID);\n        (uint ethCol, uint daiDebt, uint usdPerEth) = getCDPStats(cup);\n        uint colToFree = getColToFree(ethCol, daiDebt, usdPerEth);\n        require(colToFree != 0, \"no-collatral-to-free\");\n        if (colToSwap < colToFree) {\n            colToFree = colToSwap;\n        }\n        free(cdpID, colToFree);\n        uint ethToSwap = address(this).balance;\n        ethToSwap = ethToSwap < colToFree ? ethToSwap : colToFree;\n        uint destAmt = SplitSwapInterface(getAddressSplitSwap()).ethToDaiSwap.value(ethToSwap)(splitAmt, slippageAmt);\n        wipe(cdpID, destAmt);\n\n        emit LogSaveCDP(cdpID, ethToSwap, destAmt);\n    }\n\n    function leverage(\n        uint cdpID,\n        uint daiToSwap,\n        uint splitAmt,\n        uint slippageAmt\n    ) public\n    {\n        bytes32 cup = bytes32(cdpID);\n        (uint ethCol, uint daiDebt, uint usdPerEth) = getCDPStats(cup);\n        uint debtToBorrow = getDebtToBorrow(ethCol, daiDebt, usdPerEth);\n        require(debtToBorrow != 0, \"No-debt-to-borrow\");\n        if (daiToSwap < debtToBorrow) {\n            debtToBorrow = daiToSwap;\n        }\n        draw(cdpID, debtToBorrow);\n        TokenInterface(getAddressDAI()).approve(getAddressSplitSwap(), debtToBorrow);\n        uint destAmt = SplitSwapInterface(getAddressSplitSwap()).daiToEthSwap(debtToBorrow, splitAmt, slippageAmt);\n        lock(cdpID, destAmt);\n\n        emit LogLeverageCDP(cdpID, debtToBorrow, destAmt);\n    }\n\n    function getColToFree(uint ethCol, uint daiDebt, uint usdPerEth) internal pure returns (uint colToFree) {\n        uint colToUSD = sub(wmul(ethCol, usdPerEth), 10);\n        uint minColNeeded = add(wmul(daiDebt, 1500000000000000000), 10);\n        colToFree = sub(wdiv(sub(colToUSD, minColNeeded), usdPerEth), 10);\n    }\n\n    function getDebtToBorrow(uint ethCol, uint daiDebt, uint usdPerEth) internal pure returns (uint debtToBorrow) {\n        uint colToUSD = sub(wmul(ethCol, usdPerEth), 10);\n        uint maxDebtLimit = sub(wdiv(colToUSD, 1500000000000000000), 10);\n        debtToBorrow = sub(maxDebtLimit, daiDebt);\n    }\n\n}\n\n\ncontract InstaSave is Save {\n\n    function() external payable {}\n\n}",
  "sourcePath": "/Users/pierrick/Documents/04-OSS/08-Graph/02-InstaDApp/contract-v2/contracts/ProxyLogics/InstaSave.sol",
  "compiler": {
    "name": "solc",
    "version": "0.5.11+commit.c082d0b4.Emscripten.clang"
  },
  "schemaVersion": "3.0.16",
  "updatedAt": "2019-09-23T08:40:16.260Z",
  "devdoc": {
    "methods": {
      "getAddressAdmin()": {
        "details": "get admin address"
      },
      "getAddressDAI()": {
        "details": "get dai address for trade"
      },
      "getAddressETH()": {
        "details": "get ethereum address for trade"
      },
      "getAddressKyber()": {
        "details": "get kyber proxy address"
      },
      "getAddressSplitSwap()": {
        "details": "get admin address"
      },
      "getOracleAddress()": {
        "details": "get MakerDAO Oracle for ETH price"
      },
      "getSaiTubAddress()": {
        "details": "get MakerDAO CDP engine"
      },
      "getUniswapDAIExchange()": {
        "details": "get uniswap DAI exchange"
      },
      "getUniswapMKRExchange()": {
        "details": "get uniswap MKR exchange"
      }
    }
  },
  "userdoc": {
    "methods": {}
  }
}