{
  "contractName": "SaverProxy",
  "abi": [
    {
      "constant": true,
      "inputs": [],
      "name": "WETH_ADDRESS",
      "outputs": [
        {
          "internalType": "address",
          "name": "",
          "type": "address"
        }
      ],
      "payable": false,
      "stateMutability": "view",
      "type": "function"
    },
    {
      "constant": true,
      "inputs": [],
      "name": "DAI_ADDRESS",
      "outputs": [
        {
          "internalType": "address",
          "name": "",
          "type": "address"
        }
      ],
      "payable": false,
      "stateMutability": "view",
      "type": "function"
    },
    {
      "constant": true,
      "inputs": [],
      "name": "VOX_ADDRESS",
      "outputs": [
        {
          "internalType": "address",
          "name": "",
          "type": "address"
        }
      ],
      "payable": false,
      "stateMutability": "view",
      "type": "function"
    },
    {
      "constant": true,
      "inputs": [],
      "name": "ETH2DAI_WRAPPER",
      "outputs": [
        {
          "internalType": "address",
          "name": "",
          "type": "address"
        }
      ],
      "payable": false,
      "stateMutability": "view",
      "type": "function"
    },
    {
      "constant": true,
      "inputs": [],
      "name": "SERVICE_FEE",
      "outputs": [
        {
          "internalType": "uint256",
          "name": "",
          "type": "uint256"
        }
      ],
      "payable": false,
      "stateMutability": "view",
      "type": "function"
    },
    {
      "constant": true,
      "inputs": [],
      "name": "MKR_ADDRESS",
      "outputs": [
        {
          "internalType": "address",
          "name": "",
          "type": "address"
        }
      ],
      "payable": false,
      "stateMutability": "view",
      "type": "function"
    },
    {
      "constant": true,
      "inputs": [],
      "name": "LOGGER_ADDRESS",
      "outputs": [
        {
          "internalType": "address",
          "name": "",
          "type": "address"
        }
      ],
      "payable": false,
      "stateMutability": "view",
      "type": "function"
    },
    {
      "constant": true,
      "inputs": [],
      "name": "KYBER_WRAPPER",
      "outputs": [
        {
          "internalType": "address",
          "name": "",
          "type": "address"
        }
      ],
      "payable": false,
      "stateMutability": "view",
      "type": "function"
    },
    {
      "constant": true,
      "inputs": [],
      "name": "PETH_ADDRESS",
      "outputs": [
        {
          "internalType": "address",
          "name": "",
          "type": "address"
        }
      ],
      "payable": false,
      "stateMutability": "view",
      "type": "function"
    },
    {
      "constant": true,
      "inputs": [],
      "name": "ETHER_ADDRESS",
      "outputs": [
        {
          "internalType": "address",
          "name": "",
          "type": "address"
        }
      ],
      "payable": false,
      "stateMutability": "view",
      "type": "function"
    },
    {
      "constant": true,
      "inputs": [],
      "name": "WALLET_ID",
      "outputs": [
        {
          "internalType": "address",
          "name": "",
          "type": "address"
        }
      ],
      "payable": false,
      "stateMutability": "view",
      "type": "function"
    },
    {
      "constant": true,
      "inputs": [],
      "name": "UNISWAP_WRAPPER",
      "outputs": [
        {
          "internalType": "address",
          "name": "",
          "type": "address"
        }
      ],
      "payable": false,
      "stateMutability": "view",
      "type": "function"
    },
    {
      "constant": true,
      "inputs": [],
      "name": "TUB_ADDRESS",
      "outputs": [
        {
          "internalType": "address",
          "name": "",
          "type": "address"
        }
      ],
      "payable": false,
      "stateMutability": "view",
      "type": "function"
    },
    {
      "constant": false,
      "inputs": [
        {
          "internalType": "bytes32",
          "name": "_cup",
          "type": "bytes32"
        },
        {
          "internalType": "uint256",
          "name": "_amount",
          "type": "uint256"
        },
        {
          "internalType": "uint256",
          "name": "_minPrice",
          "type": "uint256"
        },
        {
          "internalType": "uint256",
          "name": "_exchangeType",
          "type": "uint256"
        }
      ],
      "name": "repay",
      "outputs": [],
      "payable": false,
      "stateMutability": "nonpayable",
      "type": "function"
    },
    {
      "constant": false,
      "inputs": [
        {
          "internalType": "bytes32",
          "name": "_cup",
          "type": "bytes32"
        },
        {
          "internalType": "uint256",
          "name": "_amount",
          "type": "uint256"
        },
        {
          "internalType": "uint256",
          "name": "_minPrice",
          "type": "uint256"
        },
        {
          "internalType": "uint256",
          "name": "_exchangeType",
          "type": "uint256"
        }
      ],
      "name": "boost",
      "outputs": [],
      "payable": false,
      "stateMutability": "nonpayable",
      "type": "function"
    },
    {
      "constant": false,
      "inputs": [
        {
          "internalType": "contract TubInterface",
          "name": "_tub",
          "type": "address"
        },
        {
          "internalType": "bytes32",
          "name": "_cup",
          "type": "bytes32"
        }
      ],
      "name": "maxFreeCollateral",
      "outputs": [
        {
          "internalType": "uint256",
          "name": "",
          "type": "uint256"
        }
      ],
      "payable": false,
      "stateMutability": "nonpayable",
      "type": "function"
    },
    {
      "constant": false,
      "inputs": [
        {
          "internalType": "contract TubInterface",
          "name": "_tub",
          "type": "address"
        },
        {
          "internalType": "bytes32",
          "name": "_cup",
          "type": "bytes32"
        }
      ],
      "name": "maxFreeDai",
      "outputs": [
        {
          "internalType": "uint256",
          "name": "",
          "type": "uint256"
        }
      ],
      "payable": false,
      "stateMutability": "nonpayable",
      "type": "function"
    },
    {
      "constant": false,
      "inputs": [
        {
          "internalType": "contract TubInterface",
          "name": "_tub",
          "type": "address"
        },
        {
          "internalType": "bytes32",
          "name": "_cup",
          "type": "bytes32"
        },
        {
          "internalType": "uint256",
          "name": "_daiRepay",
          "type": "uint256"
        }
      ],
      "name": "stabilityFeeInMkr",
      "outputs": [
        {
          "internalType": "uint256",
          "name": "",
          "type": "uint256"
        }
      ],
      "payable": false,
      "stateMutability": "nonpayable",
      "type": "function"
    }
  ],
  "bytecode": "0x608060405234801561001057600080fd5b50612e93806100206000396000f3fe608060405234801561001057600080fd5b50600436106101165760003560e01c806394bfbe74116100a2578063cf1d21c011610071578063cf1d21c0146104ef578063d325a2c114610539578063d3661fa51461059b578063ddaa293c146105e5578063f0d405e51461062f57610116565b806394bfbe74146103a5578063b175afa1146103ef578063c387fd8614610439578063c9fde270146104a557610116565b80634c3e49f0116100e95780634c3e49f01461024357806350c86de51461028f57806367dc7736146102ad578063730fd680146102f9578063825ffd921461035b57610116565b8063040141e51461011b5780632a4c0a1a1461016557806336e6da11146101af57806343fb75e8146101f9575b600080fd5b610123610679565b604051808273ffffffffffffffffffffffffffffffffffffffff1673ffffffffffffffffffffffffffffffffffffffff16815260200191505060405180910390f35b61016d610691565b604051808273ffffffffffffffffffffffffffffffffffffffff1673ffffffffffffffffffffffffffffffffffffffff16815260200191505060405180910390f35b6101b76106a9565b604051808273ffffffffffffffffffffffffffffffffffffffff1673ffffffffffffffffffffffffffffffffffffffff16815260200191505060405180910390f35b6102016106c1565b604051808273ffffffffffffffffffffffffffffffffffffffff1673ffffffffffffffffffffffffffffffffffffffff16815260200191505060405180910390f35b61028d6004803603608081101561025957600080fd5b81019080803590602001909291908035906020019092919080359060200190929190803590602001909291905050506106d9565b005b610297610e00565b6040518082815260200191505060405180910390f35b6102f7600480360360808110156102c357600080fd5b8101908080359060200190929190803590602001909291908035906020019092919080359060200190929190505050610e06565b005b6103456004803603604081101561030f57600080fd5b81019080803573ffffffffffffffffffffffffffffffffffffffff16906020019092919080359060200190929190505050611235565b6040518082815260200191505060405180910390f35b61036361148d565b604051808273ffffffffffffffffffffffffffffffffffffffff1673ffffffffffffffffffffffffffffffffffffffff16815260200191505060405180910390f35b6103ad6114a5565b604051808273ffffffffffffffffffffffffffffffffffffffff1673ffffffffffffffffffffffffffffffffffffffff16815260200191505060405180910390f35b6103f76114bd565b604051808273ffffffffffffffffffffffffffffffffffffffff1673ffffffffffffffffffffffffffffffffffffffff16815260200191505060405180910390f35b61048f6004803603606081101561044f57600080fd5b81019080803573ffffffffffffffffffffffffffffffffffffffff16906020019092919080359060200190929190803590602001909291905050506114d5565b6040518082815260200191505060405180910390f35b6104ad611739565b604051808273ffffffffffffffffffffffffffffffffffffffff1673ffffffffffffffffffffffffffffffffffffffff16815260200191505060405180910390f35b6104f7611751565b604051808273ffffffffffffffffffffffffffffffffffffffff1673ffffffffffffffffffffffffffffffffffffffff16815260200191505060405180910390f35b6105856004803603604081101561054f57600080fd5b81019080803573ffffffffffffffffffffffffffffffffffffffff16906020019092919080359060200190929190505050611769565b6040518082815260200191505060405180910390f35b6105a3611a60565b604051808273ffffffffffffffffffffffffffffffffffffffff1673ffffffffffffffffffffffffffffffffffffffff16815260200191505060405180910390f35b6105ed611a78565b604051808273ffffffffffffffffffffffffffffffffffffffff1673ffffffffffffffffffffffffffffffffffffffff16815260200191505060405180910390f35b610637611a90565b604051808273ffffffffffffffffffffffffffffffffffffffff1673ffffffffffffffffffffffffffffffffffffffff16815260200191505060405180910390f35b73c02aaa39b223fe8d0a0e5c4f27ead9083c756cc281565b7389d24a6b4ccb1b6faa2625fe562bdd9a2326035981565b739b0f70df76165442ca6092939132bbaea77f2d7a81565b73d7bbb1777e13b6f535dec414f575b858ed300baf81565b6000806107108573eeeeeeeeeeeeeeeeeeeeeeeeeeeeeeeeeeeeeeee7389d24a6b4ccb1b6faa2625fe562bdd9a2326035986611aa8565b809250819350505083811161078d576040517f08c379a000000000000000000000000000000000000000000000000000000000815260040180806020018281038252600c8152602001807f536c69707061676520686974000000000000000000000000000000000000000081525060200191505060405180910390fd5b600073448a5065aebb8e423f0896e6c5d525c040f59af390506107c37389d24a6b4ccb1b6faa2625fe562bdd9a23260359611f25565b6107e0739f8f72aa9304c8b593d555f12ef6589cc3a579a2611f25565b6107fd73f53ad2c6851052a81b42133467480961b2321c09611f25565b61081a73c02aaa39b223fe8d0a0e5c4f27ead9083c756cc2611f25565b6000610826828961213d565b90506108328289611769565b871115610846576108438289611769565b96505b610851828989612307565b600061085d8885612568565b9050600061086b848b6125a8565b9050600061088e858c61088986610190888161088357fe5b04612668565b6114d5565b9050818311156108a6576108a3858c846114d5565b90505b60006108ba826108b58d612682565b6127c9565b9050600073aae7ba823679889b12f71d1f18beecbc69e6223773ffffffffffffffffffffffffffffffffffffffff166343ac1dc68384739f8f72aa9304c8b593d555f12ef6589cc3a579a2876040518563ffffffff1660e01b8152600401808481526020018373ffffffffffffffffffffffffffffffffffffffff1673ffffffffffffffffffffffffffffffffffffffff168152602001828152602001935050505060408051808303818588803b15801561097457600080fd5b505af1158015610988573d6000803e3d6000fd5b50505050506040513d604081101561099f57600080fd5b8101908080519060200190929190805190602001909291905050509050809150506109d38c6109ce8484612668565b612668565b9b508873ffffffffffffffffffffffffffffffffffffffff166343ac1dc68d8e7389d24a6b4ccb1b6faa2625fe562bdd9a232603597fffffffffffffffffffffffffffffffffffffffffffffffffffffffffffffffff6040518563ffffffff1660e01b8152600401808481526020018373ffffffffffffffffffffffffffffffffffffffff1673ffffffffffffffffffffffffffffffffffffffff168152602001828152602001935050505060408051808303818588803b158015610a9757600080fd5b505af1158015610aab573d6000803e3d6000fd5b50505050506040513d6040811015610ac257600080fd5b8101908080519060200190929190805190602001909291905050505080955050610af485610aef87612801565b612668565b945083851115610c56578673ffffffffffffffffffffffffffffffffffffffff166373b381018e866040518363ffffffff1660e01b81526004018083815260200182815260200192505050600060405180830381600087803b158015610b5957600080fd5b505af1158015610b6d573d6000803e3d6000fd5b505050507389d24a6b4ccb1b6faa2625fe562bdd9a2326035973ffffffffffffffffffffffffffffffffffffffff1663a9059cbb33610bac8888612668565b6040518363ffffffff1660e01b8152600401808373ffffffffffffffffffffffffffffffffffffffff1673ffffffffffffffffffffffffffffffffffffffff16815260200182815260200192505050602060405180830381600087803b158015610c1557600080fd5b505af1158015610c29573d6000803e3d6000fd5b505050506040513d6020811015610c3f57600080fd5b810190808051906020019092919050505050610d2b565b8673ffffffffffffffffffffffffffffffffffffffff166373b381018e876040518363ffffffff1660e01b81526004018083815260200182815260200192505050600060405180830381600087803b158015610cb157600080fd5b505af1158015610cc5573d6000803e3d6000fd5b5050505085610cd4888f61213d565b11610d2a576040517f08c379a0000000000000000000000000000000000000000000000000000000008152600401808060200182810382526023815260200180612e3c6023913960400191505060405180910390fd5b5b73ecf88e1cec2d2894a0295db3d86fe7ce4991e6df73ffffffffffffffffffffffffffffffffffffffff1663406bb32a8e60001c338f896040518563ffffffff1660e01b8152600401808581526020018473ffffffffffffffffffffffffffffffffffffffff1673ffffffffffffffffffffffffffffffffffffffff168152602001838152602001828152602001945050505050600060405180830381600087803b158015610dd957600080fd5b505af1158015610ded573d6000803e3d6000fd5b5050505050505050505050505050505050565b61019081565b600080610e3d857389d24a6b4ccb1b6faa2625fe562bdd9a2326035973eeeeeeeeeeeeeeeeeeeeeeeeeeeeeeeeeeeeeeee86611aa8565b809250819350505083610e58670de0b6b3a7640000836127c9565b10610ecb576040517f08c379a000000000000000000000000000000000000000000000000000000000815260040180806020018281038252600c8152602001807f536c69707061676520686974000000000000000000000000000000000000000081525060200191505060405180910390fd5b600073448a5065aebb8e423f0896e6c5d525c040f59af39050610f0173c02aaa39b223fe8d0a0e5c4f27ead9083c756cc2611f25565b610f1e73f53ad2c6851052a81b42133467480961b2321c09611f25565b610f3b7389d24a6b4ccb1b6faa2625fe562bdd9a23260359611f25565b6000610f478289611235565b905080871115610f55578096505b60008273ffffffffffffffffffffffffffffffffffffffff16631f3634ed8a6040518263ffffffff1660e01b815260040180828152602001915050602060405180830381600087803b158015610faa57600080fd5b505af1158015610fbe573d6000803e3d6000fd5b505050506040513d6020811015610fd457600080fd5b810190808051906020019092919050505090508273ffffffffffffffffffffffffffffffffffffffff1663440f19ba8a8a6040518363ffffffff1660e01b81526004018083815260200182815260200192505050600060405180830381600087803b15801561104257600080fd5b505af1158015611056573d6000803e3d6000fd5b5050505061106c886110678a612801565b612668565b9750600061107c848b8b89612901565b9050818473ffffffffffffffffffffffffffffffffffffffff16631f3634ed8c6040518263ffffffff1660e01b815260040180828152602001915050602060405180830381600087803b1580156110d257600080fd5b505af11580156110e6573d6000803e3d6000fd5b505050506040513d60208110156110fc57600080fd5b810190808051906020019092919050505011611163576040517f08c379a000000000000000000000000000000000000000000000000000000000815260040180806020018281038252602d815260200180612e0f602d913960400191505060405180910390fd5b73ecf88e1cec2d2894a0295db3d86fe7ce4991e6df73ffffffffffffffffffffffffffffffffffffffff1663687710058b60001c338c856040518563ffffffff1660e01b8152600401808581526020018473ffffffffffffffffffffffffffffffffffffffff1673ffffffffffffffffffffffffffffffffffffffff168152602001838152602001828152602001945050505050600060405180830381600087803b15801561121157600080fd5b505af1158015611225573d6000803e3d6000fd5b5050505050505050505050505050565b600060016114846113f16113588673ffffffffffffffffffffffffffffffffffffffff16631f3634ed876040518263ffffffff1660e01b815260040180828152602001915050602060405180830381600087803b15801561129557600080fd5b505af11580156112a9573d6000803e3d6000fd5b505050506040513d60208110156112bf57600080fd5b81019080805190602001909291905050508773ffffffffffffffffffffffffffffffffffffffff166351f910666040518163ffffffff1660e01b8152600401602060405180830381600087803b15801561131857600080fd5b505af115801561132c573d6000803e3d6000fd5b505050506040513d602081101561134257600080fd5b8101908080519060200190929190505050612d44565b6113ec8773ffffffffffffffffffffffffffffffffffffffff1663ab0783da6040518163ffffffff1660e01b8152600401602060405180830381600087803b1580156113a357600080fd5b505af11580156113b7573d6000803e3d6000fd5b505050506040513d60208110156113cd57600080fd5b8101908080519060200190929190505050670de0b6b3a7640000612d44565b6127c9565b8573ffffffffffffffffffffffffffffffffffffffff1663f7c8d634866040518263ffffffff1660e01b815260040180828152602001915050602060405180830381600087803b15801561144457600080fd5b505af1158015611458573d6000803e3d6000fd5b505050506040513d602081101561146e57600080fd5b8101908080519060200190929190505050612668565b03905092915050565b739f8f72aa9304c8b593d555f12ef6589cc3a579a281565b73ecf88e1cec2d2894a0295db3d86fe7ce4991e6df81565b73aae7ba823679889b12f71d1f18beecbc69e6223781565b600080600080611608856116038973ffffffffffffffffffffffffffffffffffffffff16636f78ee0d8a6040518263ffffffff1660e01b815260040180828152602001915050602060405180830381600087803b15801561153557600080fd5b505af1158015611549573d6000803e3d6000fd5b505050506040513d602081101561155f57600080fd5b81019080805190602001909291905050508a73ffffffffffffffffffffffffffffffffffffffff1663f7c8d6348b6040518263ffffffff1660e01b815260040180828152602001915050602060405180830381600087803b1580156115c357600080fd5b505af11580156115d7573d6000803e3d6000fd5b505050506040513d60208110156115ed57600080fd5b8101908080519060200190929190505050612d8c565b612d44565b90508673ffffffffffffffffffffffffffffffffffffffff1663ace237f56040518163ffffffff1660e01b8152600401602060405180830381600087803b15801561165257600080fd5b505af1158015611666573d6000803e3d6000fd5b505050506040513d602081101561167c57600080fd5b810190808051906020019092919050505073ffffffffffffffffffffffffffffffffffffffff166359e02dd76040518163ffffffff1660e01b81526004016040805180830381600087803b1580156116d357600080fd5b505af11580156116e7573d6000803e3d6000fd5b505050506040513d60408110156116fd57600080fd5b810190808051906020019092919080519060200190929190505050809350819450505061172d818460001c6127c9565b93505050509392505050565b73f53ad2c6851052a81b42133467480961b2321c0981565b73eeeeeeeeeeeeeeeeeeeeeeeeeeeeeeeeeeeeeeee81565b60006001611a578473ffffffffffffffffffffffffffffffffffffffff16631f3634ed856040518263ffffffff1660e01b815260040180828152602001915050602060405180830381600087803b1580156117c357600080fd5b505af11580156117d7573d6000803e3d6000fd5b505050506040513d60208110156117ed57600080fd5b8101908080519060200190929190505050611a526119ca61192e8873ffffffffffffffffffffffffffffffffffffffff1663f7c8d634896040518263ffffffff1660e01b815260040180828152602001915050602060405180830381600087803b15801561185a57600080fd5b505af115801561186e573d6000803e3d6000fd5b505050506040513d602081101561188457600080fd5b81019080805190602001909291905050506119298a73ffffffffffffffffffffffffffffffffffffffff1663ab0783da6040518163ffffffff1660e01b8152600401602060405180830381600087803b1580156118e057600080fd5b505af11580156118f4573d6000803e3d6000fd5b505050506040513d602081101561190a57600080fd5b8101908080519060200190929190505050670de0b6b3a7640000612d44565b612568565b739b0f70df76165442ca6092939132bbaea77f2d7a73ffffffffffffffffffffffffffffffffffffffff1663495d32cb6040518163ffffffff1660e01b8152600401602060405180830381600087803b15801561198a57600080fd5b505af115801561199e573d6000803e3d6000fd5b505050506040513d60208110156119b457600080fd5b8101908080519060200190929190505050612568565b8773ffffffffffffffffffffffffffffffffffffffff166351f910666040518163ffffffff1660e01b8152600401602060405180830381600087803b158015611a1257600080fd5b505af1158015611a26573d6000803e3d6000fd5b505050506040513d6020811015611a3c57600080fd5b81019080805190602001909291905050506127c9565b612668565b03905092915050565b73322d58b9e75a6918f7e7849aee0ff09369977e0881565b730aa70981311d60a9521c99cecfdd68c3e5a83b8381565b73448a5065aebb8e423f0896e6c5d525c040f59af381565b600080600080600073aae7ba823679889b12f71d1f18beecbc69e6223773ffffffffffffffffffffffffffffffffffffffff1663809a9e5589898c6040518463ffffffff1660e01b8152600401808473ffffffffffffffffffffffffffffffffffffffff1673ffffffffffffffffffffffffffffffffffffffff1681526020018373ffffffffffffffffffffffffffffffffffffffff1673ffffffffffffffffffffffffffffffffffffffff16815260200182815260200193505050506040805180830381600087803b158015611b7e57600080fd5b505af1158015611b92573d6000803e3d6000fd5b505050506040513d6040811015611ba857600080fd5b8101908080519060200190929190805190602001909291905050505080935050730aa70981311d60a9521c99cecfdd68c3e5a83b8373ffffffffffffffffffffffffffffffffffffffff1663809a9e5589898c6040518463ffffffff1660e01b8152600401808473ffffffffffffffffffffffffffffffffffffffff1673ffffffffffffffffffffffffffffffffffffffff1681526020018373ffffffffffffffffffffffffffffffffffffffff1673ffffffffffffffffffffffffffffffffffffffff16815260200182815260200193505050506040805180830381600087803b158015611c9657600080fd5b505af1158015611caa573d6000803e3d6000fd5b505050506040513d6040811015611cc057600080fd5b810190808051906020019092919080519060200190929190505050508092505073d7bbb1777e13b6f535dec414f575b858ed300baf73ffffffffffffffffffffffffffffffffffffffff1663809a9e5589898c6040518463ffffffff1660e01b8152600401808473ffffffffffffffffffffffffffffffffffffffff1673ffffffffffffffffffffffffffffffffffffffff1681526020018373ffffffffffffffffffffffffffffffffffffffff1673ffffffffffffffffffffffffffffffffffffffff16815260200182815260200193505050506040805180830381600087803b158015611dae57600080fd5b505af1158015611dc2573d6000803e3d6000fd5b505050506040513d6040811015611dd857600080fd5b81019080805190602001909291908051906020019092919050505050809150506001861415611e235773d7bbb1777e13b6f535dec414f575b858ed300baf8194509450505050611f1c565b6002861415611e4e5773aae7ba823679889b12f71d1f18beecbc69e622378394509450505050611f1c565b6003861415611e7957730aa70981311d60a9521c99cecfdd68c3e5a83b838294509450505050611f1c565b8281118015611e8757508181115b15611eae5773d7bbb1777e13b6f535dec414f575b858ed300baf8194509450505050611f1c565b8183118015611ebc57508083115b15611ee35773aae7ba823679889b12f71d1f18beecbc69e622378394509450505050611f1c565b8282118015611ef157508082115b15611f1857730aa70981311d60a9521c99cecfdd68c3e5a83b838294509450505050611f1c565b5050505b94509492505050565b60027fffffffffffffffffffffffffffffffffffffffffffffffffffffffffffffffff81611f4f57fe5b048173ffffffffffffffffffffffffffffffffffffffff1663dd62ed3e33846040518363ffffffff1660e01b8152600401808373ffffffffffffffffffffffffffffffffffffffff1673ffffffffffffffffffffffffffffffffffffffff1681526020018273ffffffffffffffffffffffffffffffffffffffff1673ffffffffffffffffffffffffffffffffffffffff1681526020019250505060206040518083038186803b15801561200157600080fd5b505afa158015612015573d6000803e3d6000fd5b505050506040513d602081101561202b57600080fd5b8101908080519060200190929190505050101561213a578073ffffffffffffffffffffffffffffffffffffffff1663095ea7b373448a5065aebb8e423f0896e6c5d525c040f59af37fffffffffffffffffffffffffffffffffffffffffffffffffffffffffffffffff6040518363ffffffff1660e01b8152600401808373ffffffffffffffffffffffffffffffffffffffff1673ffffffffffffffffffffffffffffffffffffffff16815260200182815260200192505050602060405180830381600087803b1580156120fd57600080fd5b505af1158015612111573d6000803e3d6000fd5b505050506040513d602081101561212757600080fd5b8101908080519060200190929190505050505b50565b60006122ff61226c61225e8573ffffffffffffffffffffffffffffffffffffffff16631f3634ed866040518263ffffffff1660e01b815260040180828152602001915050602060405180830381600087803b15801561219b57600080fd5b505af11580156121af573d6000803e3d6000fd5b505050506040513d60208110156121c557600080fd5b81019080805190602001909291905050508673ffffffffffffffffffffffffffffffffffffffff166351f910666040518163ffffffff1660e01b8152600401602060405180830381600087803b15801561221e57600080fd5b505af1158015612232573d6000803e3d6000fd5b505050506040513d602081101561224857600080fd5b8101908080519060200190929190505050612d44565b670de0b6b3a7640000612d44565b8473ffffffffffffffffffffffffffffffffffffffff1663f7c8d634856040518263ffffffff1660e01b815260040180828152602001915050602060405180830381600087803b1580156122bf57600080fd5b505af11580156122d3573d6000803e3d6000fd5b505050506040513d60208110156122e957600080fd5b81019080805190602001909291905050506127c9565b905092915050565b6000612395828573ffffffffffffffffffffffffffffffffffffffff16637ec9c3b86040518163ffffffff1660e01b8152600401602060405180830381600087803b15801561235557600080fd5b505af1158015612369573d6000803e3d6000fd5b505050506040513d602081101561237f57600080fd5b8101908080519060200190929190505050612d8c565b90508373ffffffffffffffffffffffffffffffffffffffff1663a5cd184e84836040518363ffffffff1660e01b81526004018083815260200182815260200192505050600060405180830381600087803b1580156123f257600080fd5b505af1158015612406573d6000803e3d6000fd5b505050508373ffffffffffffffffffffffffffffffffffffffff16637f8661a1826040518263ffffffff1660e01b815260040180828152602001915050600060405180830381600087803b15801561245d57600080fd5b505af1158015612471573d6000803e3d6000fd5b505050508373ffffffffffffffffffffffffffffffffffffffff16637bd2bea76040518163ffffffff1660e01b8152600401602060405180830381600087803b1580156124bd57600080fd5b505af11580156124d1573d6000803e3d6000fd5b505050506040513d60208110156124e757600080fd5b810190808051906020019092919050505073ffffffffffffffffffffffffffffffffffffffff16632e1a7d4d836040518263ffffffff1660e01b815260040180828152602001915050600060405180830381600087803b15801561254a57600080fd5b505af115801561255e573d6000803e3d6000fd5b5050505050505050565b6000670de0b6b3a76400006125986125808585612dc8565b6002670de0b6b3a76400008161259257fe5b04612df4565b8161259f57fe5b04905092915050565b60008273ffffffffffffffffffffffffffffffffffffffff1663fdac0025836040518263ffffffff1660e01b815260040180828152602001915050608060405180830381600087803b1580156125fd57600080fd5b505af1158015612611573d6000803e3d6000fd5b505050506040513d608081101561262757600080fd5b810190808051906020019092919080519060200190929190805190602001909291908051906020019092919050505090919250909150508091505092915050565b600082828403915081111561267c57600080fd5b92915050565b600073aae7ba823679889b12f71d1f18beecbc69e6223773ffffffffffffffffffffffffffffffffffffffff1663809a9e5573eeeeeeeeeeeeeeeeeeeeeeeeeeeeeeeeeeeeeeee739f8f72aa9304c8b593d555f12ef6589cc3a579a2856040518463ffffffff1660e01b8152600401808473ffffffffffffffffffffffffffffffffffffffff1673ffffffffffffffffffffffffffffffffffffffff1681526020018373ffffffffffffffffffffffffffffffffffffffff1673ffffffffffffffffffffffffffffffffffffffff16815260200182815260200193505050506040805180830381600087803b15801561277a57600080fd5b505af115801561278e573d6000803e3d6000fd5b505050506040513d60408110156127a457600080fd5b8101908080519060200190929190805190602001909291905050505080915050919050565b6000816127f16127e185670de0b6b3a7640000612dc8565b600285816127eb57fe5b04612df4565b816127f857fe5b04905092915050565b6000610190828161280e57fe5b0490507389d24a6b4ccb1b6faa2625fe562bdd9a2326035973ffffffffffffffffffffffffffffffffffffffff1663a9059cbb73322d58b9e75a6918f7e7849aee0ff09369977e08836040518363ffffffff1660e01b8152600401808373ffffffffffffffffffffffffffffffffffffffff1673ffffffffffffffffffffffffffffffffffffffff16815260200182815260200192505050602060405180830381600087803b1580156128c057600080fd5b505af11580156128d4573d6000803e3d6000fd5b505050506040513d60208110156128ea57600080fd5b810190808051906020019092919050505050919050565b60007389d24a6b4ccb1b6faa2625fe562bdd9a2326035973ffffffffffffffffffffffffffffffffffffffff1663a9059cbb83856040518363ffffffff1660e01b8152600401808373ffffffffffffffffffffffffffffffffffffffff1673ffffffffffffffffffffffffffffffffffffffff16815260200182815260200192505050602060405180830381600087803b15801561299e57600080fd5b505af11580156129b2573d6000803e3d6000fd5b505050506040513d60208110156129c857600080fd5b81019080805190602001909291905050505060008273ffffffffffffffffffffffffffffffffffffffff16633bba21dc7389d24a6b4ccb1b6faa2625fe562bdd9a23260359867fffffffffffffffffffffffffffffffffffffffffffffffffffffffffffffffff6040518463ffffffff1660e01b8152600401808473ffffffffffffffffffffffffffffffffffffffff1673ffffffffffffffffffffffffffffffffffffffff1681526020018381526020018281526020019350505050602060405180830381600087803b158015612a9f57600080fd5b505af1158015612ab3573d6000803e3d6000fd5b505050506040513d6020811015612ac957600080fd5b810190808051906020019092919050505090508573ffffffffffffffffffffffffffffffffffffffff16637bd2bea76040518163ffffffff1660e01b8152600401602060405180830381600087803b158015612b2457600080fd5b505af1158015612b38573d6000803e3d6000fd5b505050506040513d6020811015612b4e57600080fd5b810190808051906020019092919050505073ffffffffffffffffffffffffffffffffffffffff1663d0e30db0826040518263ffffffff1660e01b81526004016000604051808303818588803b158015612ba657600080fd5b505af1158015612bba573d6000803e3d6000fd5b50505050506000612c57612c50838973ffffffffffffffffffffffffffffffffffffffff16637ec9c3b86040518163ffffffff1660e01b8152600401602060405180830381600087803b158015612c1057600080fd5b505af1158015612c24573d6000803e3d6000fd5b505050506040513d6020811015612c3a57600080fd5b8101908080519060200190929190505050612d8c565b6001612668565b90508673ffffffffffffffffffffffffffffffffffffffff1663049878f3826040518263ffffffff1660e01b815260040180828152602001915050600060405180830381600087803b158015612cac57600080fd5b505af1158015612cc0573d6000803e3d6000fd5b505050508673ffffffffffffffffffffffffffffffffffffffff1663b3b77a5187836040518363ffffffff1660e01b81526004018083815260200182815260200192505050600060405180830381600087803b158015612d1f57600080fd5b505af1158015612d33573d6000803e3d6000fd5b505050508192505050949350505050565b60006b033b2e3c9fd0803ce8000000612d7c612d608585612dc8565b60026b033b2e3c9fd0803ce800000081612d7657fe5b04612df4565b81612d8357fe5b04905092915050565b600081612db8612da8856b033b2e3c9fd0803ce8000000612dc8565b60028581612db257fe5b04612df4565b81612dbf57fe5b04905092915050565b600080821480612de55750828283850292508281612de257fe5b04145b612dee57600080fd5b92915050565b6000828284019150811015612e0857600080fd5b9291505056fe636f6c6c61746572616c206d75737420626520626967676572207468616e207374617274696e6720706f696e74726174696f206d75737420626520626574746572206f66662061742074686520656e64a265627a7a72315820c74f213ead7ed36436c89aa8629d65b28b014323c3750c8ee1fe90d283d5476c64736f6c634300050b0032",
  "source": "/**\n *Submitted for verification at Etherscan.io on 2019-06-20\n*/\n\npragma solidity ^0.5.0;\n\ncontract TokenInterface {\n    function allowance(address, address) public returns (uint);\n    function balanceOf(address) public returns (uint);\n    function approve(address, uint) public;\n    function transfer(address, uint) public returns (bool);\n    function transferFrom(address, address, uint) public returns (bool);\n    function deposit() public payable;\n    function withdraw(uint) public;\n}\n\ncontract PipInterface {\n    function read() public returns (bytes32);\n}\n\ncontract PepInterface {\n    function peek() public returns (bytes32, bool);\n}\n\ncontract VoxInterface {\n    function par() public returns (uint);\n}\n\ncontract TubInterface {\n    event LogNewCup(address indexed lad, bytes32 cup);\n\n    function open() public returns (bytes32);\n    function join(uint) public;\n    function exit(uint) public;\n    function lock(bytes32, uint) public;\n    function free(bytes32, uint) public;\n    function draw(bytes32, uint) public;\n    function wipe(bytes32, uint) public;\n    function give(bytes32, address) public;\n    function shut(bytes32) public;\n    function bite(bytes32) public;\n    function cups(bytes32) public returns (address, uint, uint, uint);\n    function gem() public returns (TokenInterface);\n    function gov() public returns (TokenInterface);\n    function skr() public returns (TokenInterface);\n    function sai() public returns (TokenInterface);\n    function vox() public returns (VoxInterface);\n    function ask(uint) public returns (uint);\n    function mat() public returns (uint);\n    function chi() public returns (uint);\n    function ink(bytes32) public returns (uint);\n    function tab(bytes32) public returns (uint);\n    function rap(bytes32) public returns (uint);\n    function per() public returns (uint);\n    function pip() public returns (PipInterface);\n    function pep() public returns (PepInterface);\n    function tag() public returns (uint);\n    function drip() public;\n    function lad(bytes32 cup) public view returns (address);\n    function bid(uint wad) public view returns (uint);\n}\n\n\ninterface ERC20 {\n    function totalSupply() external view returns (uint supply);\n    function balanceOf(address _owner) external view returns (uint balance);\n    function transfer(address _to, uint _value) external returns (bool success);\n    function transferFrom(address _from, address _to, uint _value) external returns (bool success);\n    function approve(address _spender, uint _value) external returns (bool success);\n    function allowance(address _owner, address _spender) external view returns (uint remaining);\n    function decimals() external view returns(uint digits);\n    function allocateTo(address recipient, uint256 value) external;\n    event Approval(address indexed _owner, address indexed _spender, uint _value);\n}\n\n\ninterface ExchangeInterface {\n    function swapEtherToToken (uint _ethAmount, address _tokenAddress, uint _maxAmount) payable external returns(uint, uint);\n    function swapTokenToEther (address _tokenAddress, uint _amount, uint _maxAmount) external returns(uint);\n\n    function getExpectedRate(address src, address dest, uint srcQty) external\n        returns (uint expectedRate, uint slippageRate);\n}\n\ncontract DSMath {\n    function add(uint x, uint y) internal pure returns (uint z) {\n        require((z = x + y) >= x);\n    }\n    function sub(uint x, uint y) internal pure returns (uint z) {\n        require((z = x - y) <= x);\n    }\n    function mul(uint x, uint y) internal pure returns (uint z) {\n        require(y == 0 || (z = x * y) / y == x);\n    }\n\n    function min(uint x, uint y) internal pure returns (uint z) {\n        return x <= y ? x : y;\n    }\n    function max(uint x, uint y) internal pure returns (uint z) {\n        return x >= y ? x : y;\n    }\n    function imin(int x, int y) internal pure returns (int z) {\n        return x <= y ? x : y;\n    }\n    function imax(int x, int y) internal pure returns (int z) {\n        return x >= y ? x : y;\n    }\n\n    uint constant WAD = 10 ** 18;\n    uint constant RAY = 10 ** 27;\n\n    function wmul(uint x, uint y) internal pure returns (uint z) {\n        z = add(mul(x, y), WAD / 2) / WAD;\n    }\n    function rmul(uint x, uint y) internal pure returns (uint z) {\n        z = add(mul(x, y), RAY / 2) / RAY;\n    }\n    function wdiv(uint x, uint y) internal pure returns (uint z) {\n        z = add(mul(x, WAD), y / 2) / y;\n    }\n    function rdiv(uint x, uint y) internal pure returns (uint z) {\n        z = add(mul(x, RAY), y / 2) / y;\n    }\n\n    // This famous algorithm is called \"exponentiation by squaring\"\n    // and calculates x^n with x as fixed-point and n as regular unsigned.\n    //\n    // It's O(log n), instead of O(n) for naive repeated multiplication.\n    //\n    // These facts are why it works:\n    //\n    //  If n is even, then x^n = (x^2)^(n/2).\n    //  If n is odd,  then x^n = x * x^(n-1),\n    //   and applying the equation for even x gives\n    //    x^n = x * (x^2)^((n-1) / 2).\n    //\n    //  Also, EVM division is flooring and\n    //    floor[(n-1) / 2] = floor[n / 2].\n    //\n    function rpow(uint x, uint n) internal pure returns (uint z) {\n        z = n % 2 != 0 ? x : RAY;\n\n        for (n /= 2; n != 0; n /= 2) {\n            x = rmul(x, x);\n\n            if (n % 2 != 0) {\n                z = rmul(z, x);\n            }\n        }\n    }\n}\n\ncontract SaverLogger {\n    event Repay(uint indexed cdpId, address indexed owner, uint collateralAmount, uint daiAmount);\n    event Boost(uint indexed cdpId, address indexed owner, uint daiAmount, uint collateralAmount);\n\n    function LogRepay(uint _cdpId, address _owner, uint _collateralAmount, uint _daiAmount) public {\n        emit Repay(_cdpId, _owner, _collateralAmount, _daiAmount);\n    }\n\n    function LogBoost(uint _cdpId, address _owner, uint _daiAmount, uint _collateralAmount) public {\n        emit Boost(_cdpId, _owner, _daiAmount, _collateralAmount);\n    }\n}\n\n/// @title SaverProxy implements advanced dashboard features repay/boost\ncontract SaverProxy is DSMath {\n    //KOVAN\n    // address public constant WETH_ADDRESS = 0xd0A1E359811322d97991E03f863a0C30C2cF029C;\n    // address public constant DAI_ADDRESS = 0xC4375B7De8af5a38a93548eb8453a498222C4fF2;\n    // address public constant MKR_ADDRESS = 0xAaF64BFCC32d0F15873a02163e7E500671a4ffcD;\n    // address public constant VOX_ADDRESS = 0xBb4339c0aB5B1d9f14Bd6e3426444A1e9d86A1d9;\n    // address public constant PETH_ADDRESS = 0xf4d791139cE033Ad35DB2B2201435fAd668B1b64;\n    // address public constant KYBER_WRAPPER = 0x82CD6436c58A65E2D4263259EcA5843d3d7e0e65;\n    // address public constant TUB_ADDRESS = 0xa71937147b55Deb8a530C7229C442Fd3F31b7db2;\n    // address public constant ETHER_ADDRESS = 0xEeeeeEeeeEeEeeEeEeEeeEEEeeeeEeeeeeeeEEeE;\n\n    // address public constant KYBER_WRAPPER = 0x5595930d576Aedf13945C83cE5aaD827529A1310;\n    // address public constant UNISWAP_WRAPPER = 0x5595930d576Aedf13945C83cE5aaD827529A1310;\n    // address public constant ETH2DAI_WRAPPER = 0x823cde416973a19f98Bb9C96d97F4FE6C9A7238B;\n    // address public constant WALLET_ID = 0x54b44C6B18fc0b4A1010B21d524c338D1f8065F6;\n    \n    // MAINNET\n    address public constant WETH_ADDRESS = 0xC02aaA39b223FE8D0A0e5C4F27eAD9083C756Cc2;\n    address public constant DAI_ADDRESS = 0x89d24A6b4CcB1B6fAA2625fE562bDD9a23260359;\n    address public constant MKR_ADDRESS = 0x9f8F72aA9304c8B593d555F12eF6589cC3A579A2;\n    address public constant VOX_ADDRESS = 0x9B0F70Df76165442ca6092939132bBAEA77f2d7A;\n    address public constant PETH_ADDRESS = 0xf53AD2c6851052A81B42133467480961B2321C09;\n    address public constant TUB_ADDRESS = 0x448a5065aeBB8E423F0896E6c5D525C040f59af3;\n    address public constant ETHER_ADDRESS = 0xEeeeeEeeeEeEeeEeEeEeeEEEeeeeEeeeeeeeEEeE;\n    address public constant KYBER_WRAPPER = 0xAae7ba823679889b12f71D1f18BEeCBc69E62237;\n    address public constant LOGGER_ADDRESS = 0xeCf88e1ceC2D2894A0295DB3D86Fe7CE4991E6dF;\n    \n    address public constant UNISWAP_WRAPPER = 0x0aa70981311D60a9521C99cecFDD68C3E5a83B83;\n    address public constant ETH2DAI_WRAPPER = 0xd7BBB1777E13b6F535Dec414f575b858ed300baF;\n    address public constant WALLET_ID = 0x322d58b9E75a6918f7e7849AEe0fF09369977e08;\n    \n    uint public constant SERVICE_FEE = 400; // 0.25% Fee\n    \n      /// @notice Withdraws Eth collateral, swaps Eth -> Dai with Kyber, and pays back the debt in Dai\n    /// @dev If _buyMkr is false user needs to have MKR tokens and approve his DSProxy\n    /// @param _cup Id of the CDP\n    /// @param _amount Amount of Eth to sell\n    /// @param _minPrice Minimum acaptable ETH/DAI price\n    function repay(bytes32 _cup, uint _amount, uint _minPrice, uint _exchangeType) public {\n        address exchangeWrapper;\n        uint ethDaiPrice;\n\n        (exchangeWrapper, ethDaiPrice) = getBestPrice(_amount, ETHER_ADDRESS, DAI_ADDRESS, _exchangeType);\n\n        require(ethDaiPrice > _minPrice, \"Slippage hit\");\n\n        TubInterface tub = TubInterface(TUB_ADDRESS);\n\n        approveTub(DAI_ADDRESS);\n        approveTub(MKR_ADDRESS);\n        approveTub(PETH_ADDRESS);\n        approveTub(WETH_ADDRESS);\n\n        uint startingRatio = getRatio(tub, _cup);\n\n        if (_amount > maxFreeCollateral(tub, _cup)) {\n            _amount = maxFreeCollateral(tub, _cup);\n        }\n\n        withdrawEth(tub, _cup, _amount);\n\n        uint daiAmount = wmul(_amount, ethDaiPrice);\n        uint cdpWholeDebt = getDebt(tub, _cup);\n\n        uint mkrAmount = stabilityFeeInMkr(tub, _cup, sub(daiAmount, daiAmount / SERVICE_FEE));\n\n        if (daiAmount > cdpWholeDebt) {\n            mkrAmount = stabilityFeeInMkr(tub, _cup, cdpWholeDebt);\n        }\n\n        uint ethFee = wdiv(mkrAmount, estimatedMkrPrice(_amount));\n\n        uint change;\n        (, change) = ExchangeInterface(KYBER_WRAPPER).swapEtherToToken.\n                        value(ethFee)(ethFee, MKR_ADDRESS, mkrAmount);\n\n\n        _amount = sub(_amount, sub(ethFee, change));\n\n        (daiAmount, ) = ExchangeInterface(exchangeWrapper).swapEtherToToken.\n                            value(_amount)(_amount, DAI_ADDRESS, uint(-1));\n\n         // Take a fee from the user in dai\n         daiAmount = sub(daiAmount, takeFee(daiAmount));\n        \n        if (daiAmount > cdpWholeDebt) {\n            tub.wipe(_cup, cdpWholeDebt);\n            ERC20(DAI_ADDRESS).transfer(msg.sender, sub(daiAmount, cdpWholeDebt));\n        } else {\n            tub.wipe(_cup, daiAmount);\n            require(getRatio(tub, _cup) > startingRatio, \"ratio must be better off at the end\");\n        }\n\n        SaverLogger(LOGGER_ADDRESS).LogRepay(uint(_cup), msg.sender, _amount, daiAmount);\n    }\n\n    /// @notice Boost will draw Dai, swap Dai -> Eth on kyber, and add that Eth to the CDP\n    /// @dev Amount must be less then the max. amount available Dai to generate\n    /// @param _cup Id of the CDP\n    /// @param _amount Amount of Dai to sell\n    /// @param _minPrice Minimum acaptable ETH/DAI price\n    function boost(bytes32 _cup, uint _amount, uint _minPrice, uint _exchangeType) public {\n        address exchangeWrapper;\n        uint daiEthPrice;\n\n        (exchangeWrapper, daiEthPrice) = getBestPrice(_amount, DAI_ADDRESS, ETHER_ADDRESS, _exchangeType);\n\n        require(wdiv(1000000000000000000, daiEthPrice) < _minPrice, \"Slippage hit\");\n\n        TubInterface tub = TubInterface(TUB_ADDRESS);\n\n        approveTub(WETH_ADDRESS);\n        approveTub(PETH_ADDRESS);\n        approveTub(DAI_ADDRESS);\n        \n        uint maxAmount = maxFreeDai(tub, _cup);\n\n        if (_amount > maxAmount) {\n            _amount = maxAmount;\n        }\n\n        uint startingCollateral = tub.ink(_cup);\n        \n        tub.draw(_cup, _amount);\n\n        // Take a fee from the user in dai\n        _amount = sub(_amount, takeFee(_amount));\n        \n        uint ethAmount = swapDaiAndLockEth(tub, _cup, _amount, exchangeWrapper);\n\n        require(tub.ink(_cup) > startingCollateral, \"collateral must be bigger than starting point\");\n        \n        SaverLogger(LOGGER_ADDRESS).LogBoost(uint(_cup), msg.sender, _amount, ethAmount);\n    }\n\n    /// @notice Max. amount of collateral available to withdraw\n    /// @param _tub Tub interface\n    /// @param _cup Id of the CDP\n    function maxFreeCollateral(TubInterface _tub, bytes32 _cup) public returns (uint) {\n        return sub(_tub.ink(_cup), wdiv(wmul(wmul(_tub.tab(_cup), rmul(_tub.mat(), WAD)),\n                VoxInterface(VOX_ADDRESS).par()), _tub.tag())) - 1;\n    }\n    \n    /// @notice Max. amount of Dai available to generate\n    /// @param _tub Tub interface\n    /// @param _cup Id of the CDP\n    function maxFreeDai(TubInterface _tub, bytes32 _cup) public returns (uint) {\n        return sub(wdiv(rmul(_tub.ink(_cup), _tub.tag()), rmul(_tub.mat(), WAD)), _tub.tab(_cup)) - 1;\n    }\n\n    /// @notice Stability fee amount in Mkr\n    /// @param _tub Tub interface\n    /// @param _cup Id of the CDP\n    /// @param _daiRepay Amount of dai we are repaying\n    function stabilityFeeInMkr(TubInterface _tub, bytes32 _cup, uint _daiRepay) public returns (uint) {\n        bytes32 mkrPrice;\n        bool ok;\n\n        uint feeInDai = rmul(_daiRepay, rdiv(_tub.rap(_cup), _tub.tab(_cup)));\n\n        (mkrPrice, ok) = _tub.pep().peek();\n\n        return wdiv(feeInDai, uint(mkrPrice));\n    }\n    \n    /// @notice Helper function which swaps Dai for Eth and adds the collateral to the CDP\n    /// @param _tub Tub interface\n    /// @param _cup Id of the CDP\n    /// @param _daiAmount Amount of Dai to swap for Eth\n    function swapDaiAndLockEth(TubInterface _tub, bytes32 _cup, uint _daiAmount, address _exchangeWrapper) internal returns(uint) {\n\n        ERC20(DAI_ADDRESS).transfer(_exchangeWrapper, _daiAmount);\n\n        uint ethAmount = ExchangeInterface(_exchangeWrapper).swapTokenToEther(DAI_ADDRESS, _daiAmount, uint(-1));\n        \n        _tub.gem().deposit.value(ethAmount)();\n\n        uint ink = sub(rdiv(ethAmount, _tub.per()), 1);\n        \n        _tub.join(ink);\n\n        _tub.lock(_cup, ink);\n        \n        return ethAmount;\n    }\n\n    /// @notice Approve a token if it's not already approved\n    /// @param _tokenAddress Address of the ERC20 token we want to approve\n    function approveTub(address _tokenAddress) internal {\n        if (ERC20(_tokenAddress).allowance(msg.sender, _tokenAddress) < (uint(-1) / 2)) {\n            ERC20(_tokenAddress).approve(TUB_ADDRESS, uint(-1));\n        }\n    }\n\n    /// @notice Returns the current collaterlization ratio for the CDP\n    /// @param _tub Tub interface\n    /// @param _cup Id of the CDP\n    function getRatio(TubInterface _tub, bytes32 _cup) internal returns(uint) {\n        return (wdiv(rmul(rmul(_tub.ink(_cup), _tub.tag()), WAD), _tub.tab(_cup)));\n    }\n\n    /// @notice Helper function which withdraws collateral from CDP\n    /// @param _tub Tub interface\n    /// @param _cup Id of the CDP\n    /// @param _ethAmount Amount of Eth to withdraw\n    function withdrawEth(TubInterface _tub, bytes32 _cup, uint _ethAmount) internal {\n        uint ink = rdiv(_ethAmount, _tub.per());\n        _tub.free(_cup, ink);\n        \n        _tub.exit(ink);\n        _tub.gem().withdraw(_ethAmount);\n    }\n\n    /// @notice Takes a feePercentage and sends it to wallet\n    /// @param _amount Dai amount of the whole trade\n    /// @return feeAmount Amount in Dai owner earned on the fee\n    function takeFee(uint _amount) internal returns (uint feeAmount) {\n        feeAmount = _amount / SERVICE_FEE;\n        ERC20(DAI_ADDRESS).transfer(WALLET_ID, feeAmount);\n    }\n\n    /// @notice Returns the best estimated price from 2 exchanges\n    /// @param _amount Amount of source tokens you want to exchange\n    /// @param _srcToken Address of the source token\n    /// @param _destToken Address of the destination token\n    /// @return (address, uint) The address of the best exchange and the exchange price\n    function getBestPrice(uint _amount, address _srcToken, address _destToken, uint _exchangeType) internal returns (address, uint) {\n        uint expectedRateKyber;\n        uint expectedRateUniswap;\n        uint expectedRateEth2Dai;\n\n        (expectedRateKyber, ) = ExchangeInterface(KYBER_WRAPPER).getExpectedRate(_srcToken, _destToken, _amount);\n        (expectedRateUniswap, ) = ExchangeInterface(UNISWAP_WRAPPER).getExpectedRate(_srcToken, _destToken, _amount);\n        (expectedRateEth2Dai, ) = ExchangeInterface(ETH2DAI_WRAPPER).getExpectedRate(_srcToken, _destToken, _amount);\n\n        if (_exchangeType == 1) {\n            return (ETH2DAI_WRAPPER, expectedRateEth2Dai);\n        }\n\n        if (_exchangeType == 2) {\n            return (KYBER_WRAPPER, expectedRateKyber);\n        }\n\n        if (_exchangeType == 3) {\n            return (UNISWAP_WRAPPER, expectedRateUniswap);\n        }\n\n        if (expectedRateEth2Dai > expectedRateKyber && expectedRateEth2Dai > expectedRateUniswap) {\n            return (ETH2DAI_WRAPPER, expectedRateEth2Dai);\n        }\n\n        if (expectedRateKyber > expectedRateUniswap && expectedRateKyber > expectedRateEth2Dai) {\n            return (KYBER_WRAPPER, expectedRateKyber);\n        }\n\n        if (expectedRateUniswap > expectedRateKyber && expectedRateUniswap > expectedRateEth2Dai) {\n            return (UNISWAP_WRAPPER, expectedRateUniswap);\n        }\n    }\n\n    /// @notice Returns expected rate for Eth -> Dai conversion\n    /// @param _amount Amount of Ether\n    function estimatedDaiPrice(uint _amount) internal returns (uint expectedRate) {\n        (expectedRate, ) = ExchangeInterface(KYBER_WRAPPER).getExpectedRate(ETHER_ADDRESS, DAI_ADDRESS, _amount);\n    }\n\n    /// @notice Returns expected rate for Dai -> Eth conversion\n    /// @param _amount Amount of Dai\n    function estimatedEthPrice(uint _amount) internal returns (uint expectedRate) {\n        (expectedRate, ) = ExchangeInterface(KYBER_WRAPPER).getExpectedRate(DAI_ADDRESS, ETHER_ADDRESS, _amount);\n    }\n\n    /// @notice Returns expected rate for Eth -> Mkr conversion\n    /// @param _amount Amount of Ether\n    function estimatedMkrPrice(uint _amount) internal returns (uint expectedRate) {\n        (expectedRate, ) = ExchangeInterface(KYBER_WRAPPER).getExpectedRate(ETHER_ADDRESS, MKR_ADDRESS, _amount);\n    }\n\n    /// @notice Returns current Dai debt of the CDP\n    /// @param _tub Tub interface\n    /// @param _cup Id of the CDP\n    function getDebt(TubInterface _tub, bytes32 _cup) internal returns (uint debt) {\n        ( , , debt, ) = _tub.cups(_cup);\n    }\n}",
  "sourcePath": "/Users/pierrick/Documents/04-OSS/08-Graph/02-InstaDApp/contract-v2/contracts/Bin/saveloop.sol",
  "compiler": {
    "name": "solc",
    "version": "0.5.11+commit.c082d0b4.Emscripten.clang"
  },
  "schemaVersion": "3.0.16",
  "updatedAt": "2019-09-15T00:52:15.823Z",
  "devdoc": {
    "methods": {
      "boost(bytes32,uint256,uint256,uint256)": {
        "details": "Amount must be less then the max. amount available Dai to generate",
        "params": {
          "_amount": "Amount of Dai to sell",
          "_cup": "Id of the CDP",
          "_minPrice": "Minimum acaptable ETH/DAI price"
        }
      },
      "maxFreeCollateral(address,bytes32)": {
        "params": {
          "_cup": "Id of the CDP",
          "_tub": "Tub interface"
        }
      },
      "maxFreeDai(address,bytes32)": {
        "params": {
          "_cup": "Id of the CDP",
          "_tub": "Tub interface"
        }
      },
      "repay(bytes32,uint256,uint256,uint256)": {
        "details": "If _buyMkr is false user needs to have MKR tokens and approve his DSProxy",
        "params": {
          "_amount": "Amount of Eth to sell",
          "_cup": "Id of the CDP",
          "_minPrice": "Minimum acaptable ETH/DAI price"
        }
      },
      "stabilityFeeInMkr(address,bytes32,uint256)": {
        "params": {
          "_cup": "Id of the CDP",
          "_daiRepay": "Amount of dai we are repaying",
          "_tub": "Tub interface"
        }
      }
    },
    "title": "SaverProxy implements advanced dashboard features repay/boost"
  },
  "userdoc": {
    "methods": {
      "boost(bytes32,uint256,uint256,uint256)": {
        "notice": "Boost will draw Dai, swap Dai -> Eth on kyber, and add that Eth to the CDP"
      },
      "maxFreeCollateral(address,bytes32)": {
        "notice": "Max. amount of collateral available to withdraw"
      },
      "maxFreeDai(address,bytes32)": {
        "notice": "Max. amount of Dai available to generate"
      },
      "repay(bytes32,uint256,uint256,uint256)": {
        "notice": "Withdraws Eth collateral, swaps Eth -> Dai with Kyber, and pays back the debt in Dai"
      },
      "stabilityFeeInMkr(address,bytes32,uint256)": {
        "notice": "Stability fee amount in Mkr"
      }
    }
  }
}