{
  "contractName": "UniswapTrade",
  "abi": [
    {
      "constant": true,
      "inputs": [],
      "name": "addressRegistry",
      "outputs": [
        {
          "internalType": "address",
          "name": "",
          "type": "address"
        }
      ],
      "payable": false,
      "stateMutability": "view",
      "type": "function"
    },
    {
      "constant": true,
      "inputs": [
        {
          "internalType": "address",
          "name": "src",
          "type": "address"
        },
        {
          "internalType": "address",
          "name": "dest",
          "type": "address"
        },
        {
          "internalType": "uint256",
          "name": "srcAmt",
          "type": "uint256"
        }
      ],
      "name": "getExpectedRateSrcUniswap",
      "outputs": [
        {
          "internalType": "uint256",
          "name": "",
          "type": "uint256"
        }
      ],
      "payable": false,
      "stateMutability": "view",
      "type": "function"
    },
    {
      "constant": true,
      "inputs": [
        {
          "internalType": "address",
          "name": "src",
          "type": "address"
        },
        {
          "internalType": "address",
          "name": "dest",
          "type": "address"
        },
        {
          "internalType": "uint256",
          "name": "destAmt",
          "type": "uint256"
        }
      ],
      "name": "getExpectedRateDestUniswap",
      "outputs": [
        {
          "internalType": "uint256",
          "name": "",
          "type": "uint256"
        }
      ],
      "payable": false,
      "stateMutability": "view",
      "type": "function"
    },
    {
      "constant": false,
      "inputs": [
        {
          "internalType": "address",
          "name": "src",
          "type": "address"
        },
        {
          "internalType": "uint256",
          "name": "srcAmt",
          "type": "uint256"
        },
        {
          "internalType": "address",
          "name": "dest",
          "type": "address"
        },
        {
          "internalType": "uint256",
          "name": "minDestAmt",
          "type": "uint256"
        },
        {
          "internalType": "uint256",
          "name": "deadline",
          "type": "uint256"
        }
      ],
      "name": "tradeSrcUniswap",
      "outputs": [
        {
          "internalType": "uint256",
          "name": "",
          "type": "uint256"
        }
      ],
      "payable": true,
      "stateMutability": "payable",
      "type": "function"
    },
    {
      "constant": false,
      "inputs": [
        {
          "internalType": "address",
          "name": "src",
          "type": "address"
        },
        {
          "internalType": "uint256",
          "name": "maxSrcAmt",
          "type": "uint256"
        },
        {
          "internalType": "address",
          "name": "dest",
          "type": "address"
        },
        {
          "internalType": "uint256",
          "name": "destAmt",
          "type": "uint256"
        },
        {
          "internalType": "uint256",
          "name": "deadline",
          "type": "uint256"
        }
      ],
      "name": "tradeDestUniswap",
      "outputs": [
        {
          "internalType": "uint256",
          "name": "",
          "type": "uint256"
        }
      ],
      "payable": true,
      "stateMutability": "payable",
      "type": "function"
    }
  ],
  "bytecode": "0x608060405234801561001057600080fd5b50611777806100206000396000f3fe60806040526004361061004a5760003560e01c8063081770a71461004f57806325770e3e146100de578063616523c014610174578063e3738c721461020a578063f3ad65f414610299575b600080fd5b34801561005b57600080fd5b506100c86004803603606081101561007257600080fd5b81019080803573ffffffffffffffffffffffffffffffffffffffff169060200190929190803573ffffffffffffffffffffffffffffffffffffffff169060200190929190803590602001909291905050506102f0565b6040518082815260200191505060405180910390f35b61015e600480360360a08110156100f457600080fd5b81019080803573ffffffffffffffffffffffffffffffffffffffff16906020019092919080359060200190929190803573ffffffffffffffffffffffffffffffffffffffff1690602001909291908035906020019092919080359060200190929190505050610623565b6040518082815260200191505060405180910390f35b6101f4600480360360a081101561018a57600080fd5b81019080803573ffffffffffffffffffffffffffffffffffffffff16906020019092919080359060200190929190803573ffffffffffffffffffffffffffffffffffffffff1690602001909291908035906020019092919080359060200190929190505050610c11565b6040518082815260200191505060405180910390f35b34801561021657600080fd5b506102836004803603606081101561022d57600080fd5b81019080803573ffffffffffffffffffffffffffffffffffffffff169060200190929190803573ffffffffffffffffffffffffffffffffffffffff16906020019092919080359060200190929190505050610fd4565b6040518082815260200191505060405180910390f35b3480156102a557600080fd5b506102ae61133d565b604051808273ffffffffffffffffffffffffffffffffffffffff1673ffffffffffffffffffffffffffffffffffffffff16815260200191505060405180910390f35b6000806103316040518060400160405280600381526020017f6574680000000000000000000000000000000000000000000000000000000000815250611362565b90508073ffffffffffffffffffffffffffffffffffffffff168573ffffffffffffffffffffffffffffffffffffffff16141561040957600061037285611482565b90508073ffffffffffffffffffffffffffffffffffffffff166359e94862856040518263ffffffff1660e01b81526004018082815260200191505060206040518083038186803b1580156103c557600080fd5b505afa1580156103d9573d6000803e3d6000fd5b505050506040513d60208110156103ef57600080fd5b81019080805190602001909291905050509250505061061c565b8073ffffffffffffffffffffffffffffffffffffffff168473ffffffffffffffffffffffffffffffffffffffff1614156104df57600061044886611482565b90508073ffffffffffffffffffffffffffffffffffffffff16632640f62c856040518263ffffffff1660e01b81526004018082815260200191505060206040518083038186803b15801561049b57600080fd5b505afa1580156104af573d6000803e3d6000fd5b505050506040513d60208110156104c557600080fd5b81019080805190602001909291905050509250505061061c565b60006104ea86611482565b905060006104f786611482565b905060008173ffffffffffffffffffffffffffffffffffffffff166395b68fe7876040518263ffffffff1660e01b81526004018082815260200191505060206040518083038186803b15801561054c57600080fd5b505afa158015610560573d6000803e3d6000fd5b505050506040513d602081101561057657600080fd5b810190808051906020019092919050505090508273ffffffffffffffffffffffffffffffffffffffff1663cd7724c3826040518263ffffffff1660e01b81526004018082815260200191505060206040518083038186803b1580156105da57600080fd5b505afa1580156105ee573d6000803e3d6000fd5b505050506040513d602081101561060457600080fd5b81019080805190602001909291905050509450505050505b9392505050565b6000806106646040518060400160405280600381526020017f6574680000000000000000000000000000000000000000000000000000000000815250611362565b9050600061067433898985611585565b90508173ffffffffffffffffffffffffffffffffffffffff168873ffffffffffffffffffffffffffffffffffffffff1614156107ea5760006106b587611482565b905060008173ffffffffffffffffffffffffffffffffffffffff16630b573638848989336040518563ffffffff1660e01b8152600401808481526020018381526020018273ffffffffffffffffffffffffffffffffffffffff1673ffffffffffffffffffffffffffffffffffffffff16815260200193505050506020604051808303818588803b15801561074857600080fd5b505af115801561075c573d6000803e3d6000fd5b50505050506040513d602081101561077357600080fd5b81019080805190602001909291905050509050828110156107de57600081840390503373ffffffffffffffffffffffffffffffffffffffff166108fc829081150290604051600060405180830381858888f193505050501580156107db573d6000803e3d6000fd5b50505b80945050505050610c08565b8173ffffffffffffffffffffffffffffffffffffffff168673ffffffffffffffffffffffffffffffffffffffff1614156109e757600061082989611482565b905060008173ffffffffffffffffffffffffffffffffffffffff1663d4e4841d888b89336040518563ffffffff1660e01b8152600401808581526020018481526020018381526020018273ffffffffffffffffffffffffffffffffffffffff1673ffffffffffffffffffffffffffffffffffffffff168152602001945050505050602060405180830381600087803b1580156108c457600080fd5b505af11580156108d8573d6000803e3d6000fd5b505050506040513d60208110156108ee57600080fd5b81019080805190602001909291905050509050888110156109db5760008a90506000828b0390508173ffffffffffffffffffffffffffffffffffffffff1663a9059cbb33836040518363ffffffff1660e01b8152600401808373ffffffffffffffffffffffffffffffffffffffff1673ffffffffffffffffffffffffffffffffffffffff16815260200182815260200192505050602060405180830381600087803b15801561099c57600080fd5b505af11580156109b0573d6000803e3d6000fd5b505050506040513d60208110156109c657600080fd5b81019080805190602001909291905050505050505b80945050505050610c08565b60006109f289611482565b905060008173ffffffffffffffffffffffffffffffffffffffff1663f3c0efe9888b7fffffffffffffffffffffffffffffffffffffffffffffffffffffffffffffffff8a338e6040518763ffffffff1660e01b8152600401808781526020018681526020018581526020018481526020018373ffffffffffffffffffffffffffffffffffffffff1673ffffffffffffffffffffffffffffffffffffffff1681526020018273ffffffffffffffffffffffffffffffffffffffff1673ffffffffffffffffffffffffffffffffffffffff1681526020019650505050505050602060405180830381600087803b158015610ae957600080fd5b505af1158015610afd573d6000803e3d6000fd5b505050506040513d6020811015610b1357600080fd5b8101908080519060200190929190505050905088811015610c005760008a90506000828b0390508173ffffffffffffffffffffffffffffffffffffffff1663a9059cbb33836040518363ffffffff1660e01b8152600401808373ffffffffffffffffffffffffffffffffffffffff1673ffffffffffffffffffffffffffffffffffffffff16815260200182815260200192505050602060405180830381600087803b158015610bc157600080fd5b505af1158015610bd5573d6000803e3d6000fd5b505050506040513d6020811015610beb57600080fd5b81019080805190602001909291905050505050505b809450505050505b95945050505050565b600080610c526040518060400160405280600381526020017f6574680000000000000000000000000000000000000000000000000000000000815250611362565b90506000610c6233898985611585565b90508173ffffffffffffffffffffffffffffffffffffffff168873ffffffffffffffffffffffffffffffffffffffff161415610d80576000610ca387611482565b905060008173ffffffffffffffffffffffffffffffffffffffff1663ad65d76d848989336040518563ffffffff1660e01b8152600401808481526020018381526020018273ffffffffffffffffffffffffffffffffffffffff1673ffffffffffffffffffffffffffffffffffffffff16815260200193505050506020604051808303818588803b158015610d3657600080fd5b505af1158015610d4a573d6000803e3d6000fd5b50505050506040513d6020811015610d6157600080fd5b8101908080519060200190929190505050905080945050505050610fcb565b8173ffffffffffffffffffffffffffffffffffffffff168673ffffffffffffffffffffffffffffffffffffffff161415610ea3576000610dbf89611482565b905060008173ffffffffffffffffffffffffffffffffffffffff16637237e0318a8989336040518563ffffffff1660e01b8152600401808581526020018481526020018381526020018273ffffffffffffffffffffffffffffffffffffffff1673ffffffffffffffffffffffffffffffffffffffff168152602001945050505050602060405180830381600087803b158015610e5a57600080fd5b505af1158015610e6e573d6000803e3d6000fd5b505050506040513d6020811015610e8457600080fd5b8101908080519060200190929190505050905080945050505050610fcb565b6000610eae89611482565b905060008173ffffffffffffffffffffffffffffffffffffffff1663f552d91b8a8960008a338e6040518763ffffffff1660e01b8152600401808781526020018681526020018581526020018481526020018373ffffffffffffffffffffffffffffffffffffffff1673ffffffffffffffffffffffffffffffffffffffff1681526020018273ffffffffffffffffffffffffffffffffffffffff1673ffffffffffffffffffffffffffffffffffffffff1681526020019650505050505050602060405180830381600087803b158015610f8657600080fd5b505af1158015610f9a573d6000803e3d6000fd5b505050506040513d6020811015610fb057600080fd5b81019080805190602001909291905050509050809450505050505b95945050505050565b60006110146040518060400160405280600381526020017f6574680000000000000000000000000000000000000000000000000000000000815250611362565b73ffffffffffffffffffffffffffffffffffffffff168473ffffffffffffffffffffffffffffffffffffffff1614156110e857600061105284611482565b90508073ffffffffffffffffffffffffffffffffffffffff1663cd7724c3846040518263ffffffff1660e01b81526004018082815260200191505060206040518083038186803b1580156110a557600080fd5b505afa1580156110b9573d6000803e3d6000fd5b505050506040513d60208110156110cf57600080fd5b8101908080519060200190929190505050915050611336565b6111266040518060400160405280600381526020017f6574680000000000000000000000000000000000000000000000000000000000815250611362565b73ffffffffffffffffffffffffffffffffffffffff168373ffffffffffffffffffffffffffffffffffffffff1614156111fa57600061116485611482565b90508073ffffffffffffffffffffffffffffffffffffffff166395b68fe7846040518263ffffffff1660e01b81526004018082815260200191505060206040518083038186803b1580156111b757600080fd5b505afa1580156111cb573d6000803e3d6000fd5b505050506040513d60208110156111e157600080fd5b8101908080519060200190929190505050915050611336565b600061120585611482565b9050600061121285611482565b905060008273ffffffffffffffffffffffffffffffffffffffff166395b68fe7866040518263ffffffff1660e01b81526004018082815260200191505060206040518083038186803b15801561126757600080fd5b505afa15801561127b573d6000803e3d6000fd5b505050506040513d602081101561129157600080fd5b810190808051906020019092919050505090508173ffffffffffffffffffffffffffffffffffffffff1663cd7724c3826040518263ffffffff1660e01b81526004018082815260200191505060206040518083038186803b1580156112f557600080fd5b505afa158015611309573d6000803e3d6000fd5b505050506040513d602081101561131f57600080fd5b810190808051906020019092919050505093505050505b9392505050565b6000809054906101000a900473ffffffffffffffffffffffffffffffffffffffff1681565b6000806000809054906101000a900473ffffffffffffffffffffffffffffffffffffffff1690508073ffffffffffffffffffffffffffffffffffffffff1663d502db97846040518263ffffffff1660e01b81526004018080602001828103825283818151815260200191508051906020019080838360005b838110156113f55780820151818401526020810190506113da565b50505050905090810190601f1680156114225780820380516001836020036101000a031916815260200191505b509250505060206040518083038186803b15801561143f57600080fd5b505afa158015611453573d6000803e3d6000fd5b505050506040513d602081101561146957600080fd5b8101908080519060200190929190505050915050919050565b6000806114c36040518060400160405280600781526020017f756e697377617000000000000000000000000000000000000000000000000000815250611362565b90508073ffffffffffffffffffffffffffffffffffffffff166306f2bf62846040518263ffffffff1660e01b8152600401808273ffffffffffffffffffffffffffffffffffffffff1673ffffffffffffffffffffffffffffffffffffffff16815260200191505060206040518083038186803b15801561154257600080fd5b505afa158015611556573d6000803e3d6000fd5b505050506040513d602081101561156c57600080fd5b8101908080519060200190929190505050915050919050565b60008173ffffffffffffffffffffffffffffffffffffffff168473ffffffffffffffffffffffffffffffffffffffff16141561163857823414611630576040517f08c379a00000000000000000000000000000000000000000000000000000000081526004018080602001828103825260118152602001807f496e76616c6964204f7065726174696f6e00000000000000000000000000000081525060200191505060405180910390fd5b82905061173a565b60008490508073ffffffffffffffffffffffffffffffffffffffff166323b872dd8730876040518463ffffffff1660e01b8152600401808473ffffffffffffffffffffffffffffffffffffffff1673ffffffffffffffffffffffffffffffffffffffff1681526020018373ffffffffffffffffffffffffffffffffffffffff1673ffffffffffffffffffffffffffffffffffffffff1681526020018281526020019350505050602060405180830381600087803b1580156116f857600080fd5b505af115801561170c573d6000803e3d6000fd5b505050506040513d602081101561172257600080fd5b81019080805190602001909291905050505060009150505b94935050505056fea265627a7a72315820da9266395539af1e2c03ed15f82406bc530c6c58671b19ea295dac2b812cbd4e64736f6c634300050b0032",
  "source": "pragma solidity ^0.5.2;\n\nimport \"openzeppelin-solidity/contracts/math/SafeMath.sol\";\nimport \"openzeppelin-solidity/contracts/token/ERC20/IERC20.sol\";\n\ninterface AddressRegistry {\n    function getAddr(string calldata name) external view returns (address);\n}\n\n// Uniswap's factory Interface\ninterface UniswapFactory {\n    // get exchange from token's address\n    function getExchange(address token) external view returns (address exchange);\n}\n\n// Uniswap's exchange Interface\ninterface UniswapExchange {\n    // Get Prices\n    function getEthToTokenInputPrice(uint256 eth_sold) external view returns (uint256 tokens_bought);\n    function getEthToTokenOutputPrice(uint256 tokens_bought) external view returns (uint256 eth_sold);\n    function getTokenToEthInputPrice(uint256 tokens_sold) external view returns (uint256 eth_bought);\n    function getTokenToEthOutputPrice(uint256 eth_bought) external view returns (uint256 tokens_sold);\n    // Trade ETH to ERC20\n    function ethToTokenTransferInput(uint256 min_tokens, uint256 deadline, address recipient)\n        external\n        payable\n        returns (uint256 tokens_bought);\n    function ethToTokenTransferOutput(uint256 tokens_bought, uint256 deadline, address recipient)\n        external\n        payable\n        returns (uint256 eth_sold);\n    // Trade ERC20 to ETH\n    function tokenToEthTransferInput(uint256 tokens_sold, uint256 min_tokens, uint256 deadline, address recipient)\n        external\n        returns (uint256 eth_bought);\n    function tokenToEthTransferOutput(uint256 eth_bought, uint256 max_tokens, uint256 deadline, address recipient)\n        external\n        returns (uint256 tokens_sold);\n    // Trade ERC20 to ERC20\n    function tokenToTokenTransferInput(\n        uint256 tokens_sold,\n        uint256 min_tokens_bought,\n        uint256 min_eth_bought,\n        uint256 deadline,\n        address recipient,\n        address token_addr\n    ) external returns (uint256 tokens_bought);\n    function tokenToTokenTransferOutput(\n        uint256 tokens_bought,\n        uint256 max_tokens_sold,\n        uint256 max_eth_sold,\n        uint256 deadline,\n        address recipient,\n        address token_addr\n    ) external returns (uint256 tokens_sold);\n}\n\ncontract Registry {\n    address public addressRegistry;\n    modifier onlyAdmin() {\n        require(msg.sender == getAddress(\"admin\"), \"Permission Denied\");\n        _;\n    }\n    function getAddress(string memory name) internal view returns (address) {\n        AddressRegistry addrReg = AddressRegistry(addressRegistry);\n        return addrReg.getAddr(name);\n    }\n}\n\ncontract UniswapTrade is Registry {\n    using SafeMath for uint;\n\n    // Get Uniswap's Exchange address from Factory Contract\n    function _getExchangeAddress(address _token) internal view returns (address) {\n        UniswapFactory uniswapMain = UniswapFactory(getAddress(\"uniswap\"));\n        return uniswapMain.getExchange(_token);\n    }\n\n    // Check required ETH Quantity to execute code\n    function _getToken(address trader, address src, uint srcAmt, address eth) internal returns (uint ethQty) {\n        if (src == eth) {\n            require(msg.value == srcAmt, \"Invalid Operation\");\n            ethQty = srcAmt;\n        } else {\n            IERC20 tokenFunctions = IERC20(src);\n            tokenFunctions.transferFrom(trader, address(this), srcAmt);\n            ethQty = 0;\n        }\n    }\n\n    /**\n     * @dev Uniswap's get expected rate from source\n     * @param src - Token address to sell (for ETH it's \"0xeeeeeeeeeeeeeeeeeeeeeeeeeeeeeeeeeeeeeeee\")\n     * @param dest - Token address to buy (for ETH it's \"0xeeeeeeeeeeeeeeeeeeeeeeeeeeeeeeeeeeeeeeee\")\n     * @param srcAmt - source token amount\n    */\n    function getExpectedRateSrcUniswap(address src, address dest, uint srcAmt) external view returns (uint256) {\n        if (src == getAddress(\"eth\")) {\n            // define uniswap exchange with dest address\n            UniswapExchange exchangeContract = UniswapExchange(_getExchangeAddress(dest));\n            return exchangeContract.getEthToTokenInputPrice(srcAmt);\n        } else if (dest == getAddress(\"eth\")) {\n            // define uniswap exchange with src address\n            UniswapExchange exchangeContract = UniswapExchange(_getExchangeAddress(src));\n            return exchangeContract.getTokenToEthInputPrice(srcAmt);\n        } else {\n            UniswapExchange exchangeContractSrc = UniswapExchange(_getExchangeAddress(src));\n            UniswapExchange exchangeContractDest = UniswapExchange(_getExchangeAddress(dest));\n            uint ethQty = exchangeContractSrc.getTokenToEthInputPrice(srcAmt);\n            return exchangeContractDest.getEthToTokenInputPrice(ethQty);\n        }\n    }\n\n    /**\n     * @dev Uniswap's get expected rate from dest\n     * @param src - Token address to sell (for ETH it's \"0xeeeeeeeeeeeeeeeeeeeeeeeeeeeeeeeeeeeeeeee\")\n     * @param dest - Token address to buy (for ETH it's \"0xeeeeeeeeeeeeeeeeeeeeeeeeeeeeeeeeeeeeeeee\")\n     * @param destAmt - dest token amount\n    */\n    function getExpectedRateDestUniswap(address src, address dest, uint destAmt) external view returns (uint256) {\n        address eth = getAddress(\"eth\");\n        if (src == eth) {\n            // define uniswap exchange with dest address\n            UniswapExchange exchangeContract = UniswapExchange(_getExchangeAddress(dest));\n            return exchangeContract.getEthToTokenOutputPrice(destAmt);\n        } else if (dest == eth) {\n            // define uniswap exchange with src address\n            UniswapExchange exchangeContract = UniswapExchange(_getExchangeAddress(src));\n            return exchangeContract.getTokenToEthOutputPrice(destAmt);\n        } else {\n            UniswapExchange exchangeContractSrc = UniswapExchange(_getExchangeAddress(src));\n            UniswapExchange exchangeContractDest = UniswapExchange(_getExchangeAddress(dest));\n            uint ethQty = exchangeContractDest.getTokenToEthInputPrice(destAmt);\n            return exchangeContractSrc.getEthToTokenInputPrice(ethQty);\n        }\n    }\n\n    /**\n     * @dev Uniswap's trade when token to sell Amount fixed\n     * @param src - Token address to sell (for ETH it's \"0xeeeeeeeeeeeeeeeeeeeeeeeeeeeeeeeeeeeeeeee\")\n     * @param srcAmt - amount of token for sell\n     * @param dest - Token address to buy (for ETH it's \"0xeeeeeeeeeeeeeeeeeeeeeeeeeeeeeeeeeeeeeeee\")\n     * @param minDestAmt - min amount of token to buy (slippage)\n     * @param deadline - time for this transaction to be valid\n    */\n    function tradeSrcUniswap(address src, uint srcAmt, address dest, uint minDestAmt, uint deadline) public payable returns (uint) {\n        address eth = getAddress(\"eth\");\n        uint ethQty = _getToken(msg.sender, src, srcAmt, eth);\n\n        if (src == eth) {\n            UniswapExchange exchangeContract = UniswapExchange(_getExchangeAddress(dest));\n            uint tokensBought = exchangeContract.ethToTokenTransferInput.value(ethQty)(minDestAmt, deadline, msg.sender);\n            return tokensBought;\n        } else if (dest == eth) {\n            UniswapExchange exchangeContract = UniswapExchange(_getExchangeAddress(src));\n            uint ethBought = exchangeContract.tokenToEthTransferInput(srcAmt, minDestAmt, deadline, msg.sender);\n            return ethBought;\n        } else {\n            UniswapExchange exchangeContract = UniswapExchange(_getExchangeAddress(src));\n            uint tokensBought = exchangeContract.tokenToTokenTransferInput(srcAmt, minDestAmt, uint(0), deadline, msg.sender, dest);\n            return tokensBought;\n        }\n    }\n\n    /**\n     * @dev Uniswap's trade when token to buy Amount fixed\n     * @param src - Token address to sell (for ETH it's \"0xeeeeeeeeeeeeeeeeeeeeeeeeeeeeeeeeeeeeeeee\")\n     * @param maxSrcAmt - max amount of token for sell (slippage)\n     * @param dest - Token address to buy (for ETH it's \"0xeeeeeeeeeeeeeeeeeeeeeeeeeeeeeeeeeeeeeeee\")\n     * @param destAmt - amount of token to buy\n     * @param deadline - time for this transaction to be valid\n    */\n    function tradeDestUniswap(address src, uint maxSrcAmt, address dest, uint destAmt, uint deadline) public payable returns (uint) {\n        address eth = getAddress(\"eth\");\n        uint ethQty = _getToken(msg.sender, src, maxSrcAmt, eth);\n\n        if (src == eth) {\n            UniswapExchange exchangeContract = UniswapExchange(_getExchangeAddress(dest));\n            uint ethSold = exchangeContract.ethToTokenTransferOutput.value(ethQty)(destAmt, deadline, msg.sender);\n            if (ethSold < ethQty) {\n                uint srcToReturn = ethQty - ethSold;\n                msg.sender.transfer(srcToReturn);\n            }\n            return ethSold;\n        } else if (dest == eth) {\n            UniswapExchange exchangeContract = UniswapExchange(_getExchangeAddress(src));\n            uint tokensSold = exchangeContract.tokenToEthTransferOutput(destAmt, maxSrcAmt, deadline, msg.sender);\n            if (tokensSold < maxSrcAmt) {\n                IERC20 srcTkn = IERC20(src);\n                uint srcToReturn = maxSrcAmt - tokensSold;\n                srcTkn.transfer(msg.sender, srcToReturn);\n            }\n            return tokensSold;\n        } else {\n            UniswapExchange exchangeContractSrc = UniswapExchange(_getExchangeAddress(src));\n            uint tokensSold = exchangeContractSrc.tokenToTokenTransferOutput(destAmt, maxSrcAmt, uint(0 - 1), deadline, msg.sender, dest);\n            if (tokensSold < maxSrcAmt) {\n                IERC20 srcTkn = IERC20(src);\n                uint srcToReturn = maxSrcAmt - tokensSold;\n                srcTkn.transfer(msg.sender, srcToReturn);\n            }\n            return tokensSold;\n        }\n\n    }\n\n}\n",
  "sourcePath": "/Users/pierrick/Documents/04-OSS/08-Graph/02-InstaDApp/contract-v2/contracts/Bin/UniswapTrade.sol",
  "compiler": {
    "name": "solc",
    "version": "0.5.11+commit.c082d0b4.Emscripten.clang"
  },
  "schemaVersion": "3.0.16",
  "updatedAt": "2019-09-15T00:52:15.763Z",
  "devdoc": {
    "methods": {
      "getExpectedRateDestUniswap(address,address,uint256)": {
        "details": "Uniswap's get expected rate from dest",
        "params": {
          "dest": "- Token address to buy (for ETH it's \"0xeeeeeeeeeeeeeeeeeeeeeeeeeeeeeeeeeeeeeeee\")",
          "destAmt": "- dest token amount",
          "src": "- Token address to sell (for ETH it's \"0xeeeeeeeeeeeeeeeeeeeeeeeeeeeeeeeeeeeeeeee\")"
        }
      },
      "getExpectedRateSrcUniswap(address,address,uint256)": {
        "details": "Uniswap's get expected rate from source",
        "params": {
          "dest": "- Token address to buy (for ETH it's \"0xeeeeeeeeeeeeeeeeeeeeeeeeeeeeeeeeeeeeeeee\")",
          "src": "- Token address to sell (for ETH it's \"0xeeeeeeeeeeeeeeeeeeeeeeeeeeeeeeeeeeeeeeee\")",
          "srcAmt": "- source token amount"
        }
      },
      "tradeDestUniswap(address,uint256,address,uint256,uint256)": {
        "details": "Uniswap's trade when token to buy Amount fixed",
        "params": {
          "deadline": "- time for this transaction to be valid",
          "dest": "- Token address to buy (for ETH it's \"0xeeeeeeeeeeeeeeeeeeeeeeeeeeeeeeeeeeeeeeee\")",
          "destAmt": "- amount of token to buy",
          "maxSrcAmt": "- max amount of token for sell (slippage)",
          "src": "- Token address to sell (for ETH it's \"0xeeeeeeeeeeeeeeeeeeeeeeeeeeeeeeeeeeeeeeee\")"
        }
      },
      "tradeSrcUniswap(address,uint256,address,uint256,uint256)": {
        "details": "Uniswap's trade when token to sell Amount fixed",
        "params": {
          "deadline": "- time for this transaction to be valid",
          "dest": "- Token address to buy (for ETH it's \"0xeeeeeeeeeeeeeeeeeeeeeeeeeeeeeeeeeeeeeeee\")",
          "minDestAmt": "- min amount of token to buy (slippage)",
          "src": "- Token address to sell (for ETH it's \"0xeeeeeeeeeeeeeeeeeeeeeeeeeeeeeeeeeeeeeeee\")",
          "srcAmt": "- amount of token for sell"
        }
      }
    }
  },
  "userdoc": {
    "methods": {}
  }
}