{
  "contractName": "UserWallet",
  "abi": [
    {
      "constant": false,
      "inputs": [
        {
          "internalType": "address",
          "name": "nextOwner",
          "type": "address"
        }
      ],
      "name": "setOwner",
      "outputs": [],
      "payable": false,
      "stateMutability": "nonpayable",
      "type": "function"
    },
    {
      "constant": true,
      "inputs": [
        {
          "internalType": "address",
          "name": "src",
          "type": "address"
        }
      ],
      "name": "isAuth",
      "outputs": [
        {
          "internalType": "bool",
          "name": "",
          "type": "bool"
        }
      ],
      "payable": false,
      "stateMutability": "view",
      "type": "function"
    },
    {
      "constant": true,
      "inputs": [],
      "name": "owner",
      "outputs": [
        {
          "internalType": "address",
          "name": "",
          "type": "address"
        }
      ],
      "payable": false,
      "stateMutability": "view",
      "type": "function"
    },
    {
      "inputs": [],
      "payable": false,
      "stateMutability": "nonpayable",
      "type": "constructor"
    },
    {
      "payable": true,
      "stateMutability": "payable",
      "type": "fallback"
    },
    {
      "anonymous": false,
      "inputs": [
        {
          "indexed": false,
          "internalType": "address",
          "name": "target",
          "type": "address"
        },
        {
          "indexed": false,
          "internalType": "uint256",
          "name": "sessionID",
          "type": "uint256"
        }
      ],
      "name": "LogExecute",
      "type": "event"
    },
    {
      "anonymous": false,
      "inputs": [
        {
          "indexed": true,
          "internalType": "address",
          "name": "owner",
          "type": "address"
        }
      ],
      "name": "LogSetOwner",
      "type": "event"
    },
    {
      "constant": false,
      "inputs": [
        {
          "internalType": "address",
          "name": "_target",
          "type": "address"
        },
        {
          "internalType": "bytes",
          "name": "_data",
          "type": "bytes"
        },
        {
          "internalType": "uint256",
          "name": "_session",
          "type": "uint256"
        }
      ],
      "name": "execute",
      "outputs": [
        {
          "internalType": "bytes",
          "name": "response",
          "type": "bytes"
        }
      ],
      "payable": true,
      "stateMutability": "payable",
      "type": "function"
    }
  ],
  "bytecode": "0x608060405234801561001057600080fd5b50336000806101000a81548173ffffffffffffffffffffffffffffffffffffffff021916908373ffffffffffffffffffffffffffffffffffffffff16021790555061068e806100606000396000f3fe60806040526004361061003f5760003560e01c806313af4035146100415780632520e7ff146100925780638da5cb5b146100fb578063a04a090814610152575b005b34801561004d57600080fd5b506100906004803603602081101561006457600080fd5b81019080803573ffffffffffffffffffffffffffffffffffffffff1690602001909291905050506102b0565b005b34801561009e57600080fd5b506100e1600480360360208110156100b557600080fd5b81019080803573ffffffffffffffffffffffffffffffffffffffff169060200190929190505050610454565b604051808215151515815260200191505060405180910390f35b34801561010757600080fd5b506101106104fb565b604051808273ffffffffffffffffffffffffffffffffffffffff1673ffffffffffffffffffffffffffffffffffffffff16815260200191505060405180910390f35b6102356004803603606081101561016857600080fd5b81019080803573ffffffffffffffffffffffffffffffffffffffff169060200190929190803590602001906401000000008111156101a557600080fd5b8201836020820111156101b757600080fd5b803590602001918460018302840111640100000000831117156101d957600080fd5b91908080601f016020809104026020016040519081016040528093929190818152602001838380828437600081840152601f19601f82011690508083019250505050505050919291929080359060200190929190505050610520565b6040518080602001828103825283818151815260200191508051906020019080838360005b8381101561027557808201518184015260208101905061025a565b50505050905090810190601f1680156102a25780820380516001836020036101000a031916815260200191505b509250505060405180910390f35b6102b933610454565b61032b576040517f08c379a00000000000000000000000000000000000000000000000000000000081526004018080602001828103825260118152602001807f7065726d697373696f6e2d64656e69656400000000000000000000000000000081525060200191505060405180910390fd5b600073ffffffffffffffffffffffffffffffffffffffff168173ffffffffffffffffffffffffffffffffffffffff1614156103ce576040517f08c379a000000000000000000000000000000000000000000000000000000000815260040180806020018281038252600f8152602001807f696e76616c69642d61646472657373000000000000000000000000000000000081525060200191505060405180910390fd5b806000806101000a81548173ffffffffffffffffffffffffffffffffffffffff021916908373ffffffffffffffffffffffffffffffffffffffff1602179055508073ffffffffffffffffffffffffffffffffffffffff167fce241d7ca1f669fee44b6fc00b8eba2df3bb514eed0f6f668f8f89096e81ed9460405160405180910390a250565b60008060009054906101000a900473ffffffffffffffffffffffffffffffffffffffff1673ffffffffffffffffffffffffffffffffffffffff168273ffffffffffffffffffffffffffffffffffffffff1614156104b457600190506104f6565b3073ffffffffffffffffffffffffffffffffffffffff168273ffffffffffffffffffffffffffffffffffffffff1614156104f157600190506104f6565b600090505b919050565b6000809054906101000a900473ffffffffffffffffffffffffffffffffffffffff1681565b606061052b33610454565b61059d576040517f08c379a00000000000000000000000000000000000000000000000000000000081526004018080602001828103825260118152602001807f7065726d697373696f6e2d64656e69656400000000000000000000000000000081525060200191505060405180910390fd5b7fd9aeb0927eeebcff4352905551b556ac8922d004647a358fc0055458ba17a5298483604051808373ffffffffffffffffffffffffffffffffffffffff1673ffffffffffffffffffffffffffffffffffffffff1681526020018281526020019250505060405180910390a1600080845160208601876113885a03f43d6040519250601f19601f6020830101168301604052808352806000602085013e8115600181146106485761064f565b8160208501fd5b505050939250505056fea265627a7a72315820e572d8e67d75cac2e24386a572283d12ee9da5520a7bef62d61061f46025dd8164736f6c634300050b0032",
  "source": "pragma solidity ^0.5.2;\n\n\n/**\n * @title User Auth\n */\ncontract UserAuth {\n\n    event LogSetOwner(address indexed owner);\n    address public owner;\n\n    /**\n     * @dev Throws if not called by owner or contract itself\n     */\n    modifier auth {\n        require(isAuth(msg.sender), \"permission-denied\");\n        _;\n    }\n\n    /**\n     * @dev sets new owner\n     */\n    function setOwner(address nextOwner) public auth {\n        require(nextOwner != address(0x0), \"invalid-address\");\n        owner = nextOwner;\n        emit LogSetOwner(nextOwner);\n    }\n\n    /**\n     * @dev checks if called by owner or contract itself\n     * @param src is the address initiating the call\n     */\n    function isAuth(address src) public view returns (bool) {\n        if (src == owner) {\n            return true;\n        } else if (src == address(this)) {\n            return true;\n        }\n        return false;\n    }\n}\n\n\n/**\n * @title User Owned Contract Wallet\n */\ncontract UserWallet is UserAuth {\n\n    event LogExecute(address target, uint sessionID);\n\n    constructor() public {\n        owner = msg.sender;\n    }\n\n    function() external payable {}\n\n    /**\n     * @dev Execute authorised calls via delegate call\n     * @param _target logic proxy address\n     * @param _data delegate call data\n     * @param _session to find the session\n     */\n    function execute(\n        address _target,\n        bytes memory _data,\n        uint _session\n    )\n        public\n        payable\n        auth\n        returns (bytes memory response)\n    {\n        emit LogExecute(_target, _session);\n\n        assembly {\n            let succeeded := delegatecall(sub(gas, 5000), _target, add(_data, 0x20), mload(_data), 0, 0)\n            let size := returndatasize\n\n            response := mload(0x40)\n            mstore(0x40, add(response, and(add(add(size, 0x20), 0x1f), not(0x1f))))\n            mstore(response, size)\n            returndatacopy(add(response, 0x20), 0, size)\n\n            switch iszero(succeeded)\n                case 1 {\n                    // throw if delegatecall failed\n                    revert(add(response, 0x20), size)\n                }\n        }\n    }\n\n}",
  "sourcePath": "/Users/pierrick/Documents/04-OSS/08-Graph/02-InstaDApp/contract-v2/contracts/Bin/LightWallet.sol",
  "compiler": {
    "name": "solc",
    "version": "0.5.11+commit.c082d0b4.Emscripten.clang"
  },
  "schemaVersion": "3.0.16",
  "updatedAt": "2019-09-17T17:42:14.545Z",
  "devdoc": {
    "methods": {
      "execute(address,bytes,uint256)": {
        "details": "Execute authorised calls via delegate call",
        "params": {
          "_data": "delegate call data",
          "_session": "to find the session",
          "_target": "logic proxy address"
        }
      },
      "isAuth(address)": {
        "details": "checks if called by owner or contract itself",
        "params": {
          "src": "is the address initiating the call"
        }
      },
      "setOwner(address)": {
        "details": "sets new owner"
      }
    },
    "title": "User Owned Contract Wallet"
  },
  "userdoc": {
    "methods": {}
  }
}