{
  "contractName": "UserAuth",
  "abi": [
    {
      "constant": true,
      "inputs": [],
      "name": "owner",
      "outputs": [
        {
          "internalType": "address",
          "name": "",
          "type": "address"
        }
      ],
      "payable": false,
      "stateMutability": "view",
      "type": "function"
    },
    {
      "anonymous": false,
      "inputs": [
        {
          "indexed": true,
          "internalType": "address",
          "name": "owner",
          "type": "address"
        }
      ],
      "name": "LogSetOwner",
      "type": "event"
    },
    {
      "constant": false,
      "inputs": [
        {
          "internalType": "address",
          "name": "nextOwner",
          "type": "address"
        }
      ],
      "name": "setOwner",
      "outputs": [],
      "payable": false,
      "stateMutability": "nonpayable",
      "type": "function"
    },
    {
      "constant": true,
      "inputs": [
        {
          "internalType": "address",
          "name": "src",
          "type": "address"
        }
      ],
      "name": "isAuth",
      "outputs": [
        {
          "internalType": "bool",
          "name": "",
          "type": "bool"
        }
      ],
      "payable": false,
      "stateMutability": "view",
      "type": "function"
    }
  ],
  "bytecode": "0x608060405234801561001057600080fd5b506103d5806100206000396000f3fe608060405234801561001057600080fd5b50600436106100415760003560e01c806313af4035146100465780632520e7ff1461008a5780638da5cb5b146100e6575b600080fd5b6100886004803603602081101561005c57600080fd5b81019080803573ffffffffffffffffffffffffffffffffffffffff169060200190929190505050610130565b005b6100cc600480360360208110156100a057600080fd5b81019080803573ffffffffffffffffffffffffffffffffffffffff1690602001909291905050506102d4565b604051808215151515815260200191505060405180910390f35b6100ee61037b565b604051808273ffffffffffffffffffffffffffffffffffffffff1673ffffffffffffffffffffffffffffffffffffffff16815260200191505060405180910390f35b610139336102d4565b6101ab576040517f08c379a00000000000000000000000000000000000000000000000000000000081526004018080602001828103825260118152602001807f7065726d697373696f6e2d64656e69656400000000000000000000000000000081525060200191505060405180910390fd5b600073ffffffffffffffffffffffffffffffffffffffff168173ffffffffffffffffffffffffffffffffffffffff16141561024e576040517f08c379a000000000000000000000000000000000000000000000000000000000815260040180806020018281038252600f8152602001807f696e76616c69642d61646472657373000000000000000000000000000000000081525060200191505060405180910390fd5b806000806101000a81548173ffffffffffffffffffffffffffffffffffffffff021916908373ffffffffffffffffffffffffffffffffffffffff1602179055508073ffffffffffffffffffffffffffffffffffffffff167fce241d7ca1f669fee44b6fc00b8eba2df3bb514eed0f6f668f8f89096e81ed9460405160405180910390a250565b60008060009054906101000a900473ffffffffffffffffffffffffffffffffffffffff1673ffffffffffffffffffffffffffffffffffffffff168273ffffffffffffffffffffffffffffffffffffffff1614156103345760019050610376565b3073ffffffffffffffffffffffffffffffffffffffff168273ffffffffffffffffffffffffffffffffffffffff1614156103715760019050610376565b600090505b919050565b6000809054906101000a900473ffffffffffffffffffffffffffffffffffffffff168156fea265627a7a723158207d649bc0b60b0e84b0fc6be8488907f24a7eeb6a5159ad0846867750853c272764736f6c634300050b0032",
  "source": "pragma solidity ^0.5.2;\n\n\n/**\n * @title User Auth\n */\ncontract UserAuth {\n\n    event LogSetOwner(address indexed owner);\n    address public owner;\n\n    /**\n     * @dev Throws if not called by owner or contract itself\n     */\n    modifier auth {\n        require(isAuth(msg.sender), \"permission-denied\");\n        _;\n    }\n\n    /**\n     * @dev sets new owner\n     */\n    function setOwner(address nextOwner) public auth {\n        require(nextOwner != address(0x0), \"invalid-address\");\n        owner = nextOwner;\n        emit LogSetOwner(nextOwner);\n    }\n\n    /**\n     * @dev checks if called by owner or contract itself\n     * @param src is the address initiating the call\n     */\n    function isAuth(address src) public view returns (bool) {\n        if (src == owner) {\n            return true;\n        } else if (src == address(this)) {\n            return true;\n        }\n        return false;\n    }\n}\n\n\n/**\n * @title User Owned Contract Wallet\n */\ncontract UserWallet is UserAuth {\n\n    event LogExecute(address target, uint sessionID);\n\n    constructor() public {\n        owner = msg.sender;\n    }\n\n    function() external payable {}\n\n    /**\n     * @dev Execute authorised calls via delegate call\n     * @param _target logic proxy address\n     * @param _data delegate call data\n     * @param _session to find the session\n     */\n    function execute(\n        address _target,\n        bytes memory _data,\n        uint _session\n    )\n        public\n        payable\n        auth\n        returns (bytes memory response)\n    {\n        emit LogExecute(_target, _session);\n\n        assembly {\n            let succeeded := delegatecall(sub(gas, 5000), _target, add(_data, 0x20), mload(_data), 0, 0)\n            let size := returndatasize\n\n            response := mload(0x40)\n            mstore(0x40, add(response, and(add(add(size, 0x20), 0x1f), not(0x1f))))\n            mstore(response, size)\n            returndatacopy(add(response, 0x20), 0, size)\n\n            switch iszero(succeeded)\n                case 1 {\n                    // throw if delegatecall failed\n                    revert(add(response, 0x20), size)\n                }\n        }\n    }\n\n}",
  "sourcePath": "/Users/pierrick/Documents/04-OSS/08-Graph/02-InstaDApp/contract-v2/contracts/Bin/LightWallet.sol",
  "compiler": {
    "name": "solc",
    "version": "0.5.11+commit.c082d0b4.Emscripten.clang"
  },
  "schemaVersion": "3.0.16",
  "updatedAt": "2019-09-17T17:42:14.541Z",
  "devdoc": {
    "methods": {
      "isAuth(address)": {
        "details": "checks if called by owner or contract itself",
        "params": {
          "src": "is the address initiating the call"
        }
      },
      "setOwner(address)": {
        "details": "sets new owner"
      }
    },
    "title": "User Auth"
  },
  "userdoc": {
    "methods": {}
  }
}